:020000040800F2
:10000000E8070020D500000865190008111700084E
:1000100000000000000000000000000000000000E0
:10002000000000000000000000000000211A00088D
:100030000000000000000000AD190008231A0008AD
:10004000E7000008E7000008E7000008E7000008F4
:10005000E7000008E7000008E7000008E7000008E4
:10006000E7000008E7000008E7000008E7000008D4
:10007000E7000008E700000800000000E7000008B3
:1000800000000000E7000008000000000000000081
:10009000E700000800000000E7000008E700000893
:1000A000E7000008E7000008E7000008E700000894
:1000B000E7000008E700000800000000E700000873
:1000C0000348854600F07CF800480047912000086E
:1000D000E80700200448804704480047FEE7FEE7A1
:1000E000FEE7FEE7FEE7FEE7CD1A0008C1000008C4
:1000F00030B50B46014600202022012409E00D46C0
:10010000D5409D4205D31D469540491B2546954047
:1001100040191546521E002DF1DC30BDF0B51FB45C
:100120000646002082B005464024019100901BE065
:10013000019922460F46304600F030F8049A059B9C
:10014000801A994110D310461946224600F016F83D
:10015000361A8F410197224601200021009F00F0AE
:100160000DF838184D4100902046641E0028DFDC51
:10017000019B00982946324607B0F0BD10B5202AF1
:1001800004DB0146203A9140002010BD914020231D
:100190009C1A0346E3401943904010BD10B5202A35
:1001A00004DB0846203AD040002110BD0B46D34066
:1001B000D0402024A21A91400843194610BD0000E7
:1001C000064C0125064E05E0E36807CC2B430C3CAA
:1001D00098471034B442F7D3FFF776FF04210008A4
:1001E0002421000838B50446064805490068FFF791
:1001F0007FFF604300E0401E00900028FBD138BD27
:1002000040420F0004000020F8B506460D46403677
:10021000317D01290DD00121317501688A685207AD
:1002200009D5816D202211438165002030750120A0
:10023000F8BD0220F8BD174B6A68D80547109A42EE
:10024000154C8A6A2B6812D05B035B0B1A438A62D7
:100250002968490305D5A1680143A1600A20FFF779
:10026000C1FF2868800312D5A06838430EE05B0305
:100270005B0B9A438A622968490302D5A1688143CE
:10028000A1602868800302D5A068B843A060002060
:100290003075F8BD011000000027014070B5040062
:1002A00006D0A06D264600254036002802D006E084
:1002B000012070BDE5653575204600F0D1F8A06DD0
:1002C000C00603D421688868400705D5A06D1021B9
:1002D0000843A0653575EBE7A06DFF22013290431E
:1002E00002221043A06588688207920F5A48012AAB
:1002F00002D10A68D2072BD1032362689B079A4276
:1003000005D05B429A4202D05B009A4209D10A6949
:10031000920092080A6121680A6963681A430A61B7
:100320000CE00A69920092080A6181680F22920427
:100330009143816081686268114381602168CA6865
:1003400018239A43CA602168CA68A3681A43CA601E
:10035000816801225206914381608168228F520692
:100360001143816020688168C90004D4816801223A
:100370001207114381602068C168384A1140C1608A
:100380002169E068022923D000210843216A226BF9
:100390004903520011430843616B0843A169890373
:1003A0000843E169C90308432168CA681043C8606B
:1003B000A06A0146FF39C23905D0E16A08432168C5
:1003C000CA681043C860606A0121012802D00BE0AE
:1003D0000421DAE7206A002823D0A06D20221043F0
:1003E000A065E06D0843E065206C012820681FD0FF
:1003F0000169C90703D00169490849000161206802
:100400004169C908C900416120684169E26B114333
:100410004161E565A06D80088000401CA06500205A
:1004200070BD2068C26801231B041A43C260DBE769
:100430000269FF239B009A43026120680269636C92
:10044000E66C1A43A36C33431A43026120680269C5
:100450000A430261D3E70000002701401902FEFFB2
:1004600000B500680A4985B088420ED10948416B41
:1004700042151143416302200090032001900020A7
:1004800002906946044800F009F805B000BD00007C
:10049000002401400010024000040050F8B5002381
:1004A0000124A2E027469F403A4070D04D68022DBB
:1004B00001D0122D14D1DD08AD002D1800952D6A44
:1004C0005E07AC46F50E0F26AE46AE406546B54318
:1004D000AC460E697546AE4065462E43009D2E62C1
:1004E0004D68012D05D0022D03D0112D01D0122D04
:1004F00016D185680326AC465D00AE46AE40654623
:10050000B543AC46CE687546AE4065462E43866020
:1005100046680D79BE43ED06ED0F9D4035434560BD
:1005200006685F000325BD40AE46AE430D79B44674
:10053000AE07B60FBE4065462E430660C6687546D8
:10054000AE438D68BD403543C5604D68ED004BD569
:10055000294D6E6B26436E639E08284DB6007519B3
:10056000AC46AD689E07360F0F27B740BD43052741
:100570003F07B84201D1002715E0214FB84201D111
:10058000012710E01F4FB84202D102270BE02BE0F9
:100590001D4FB84201D1032705E01C4FB84201D1DD
:1005A000052700E00627B7402F436546AF60184D8A
:1005B0002E684F689643FF0300D516432E606E6881
:1005C0004F689643BF0300D516436E60AE684F6810
:1005D0009643FF0200D51643AE60EE684F6896431F
:1005E000BF0200D51643EE605B1C0A681546DD406D
:1005F00000D057E7F8BD00000010024000000140A5
:100600000004005000080050000C0050001C005076
:1006100000040140002A01D0816170478162704767
:1006200001480068704700000000002070B50246D5
:1006300040325378202B1CD11378012B19D0012381
:10064000137024245470046825689D432560046851
:1006500025681E03B5432560046825680D432560A1
:10066000006801681943016020205070002010705C
:1006700070BD022070BD70B5024640325378202B09
:100680001BD11378012B18D001241470242353702C
:1006900003681D68A5431D6005682B680F26360298
:1006A000B3430902194329600068016821430160CE
:1006B000202050700020107070BD022070BD00001E
:1006C00070B5040006D0254640356878002600281D
:1006D00002D005E0012070BD2E70204600F04AF8DF
:1006E00024206870206801684908490001600F21D2
:1006F0006068090688432168086121688A680120CA
:10070000C00382438A60E1680129A16808D02122E0
:100710009202114322689160E168022902D005E04B
:100720000143F7E701212268C902516021684A6844
:100730000F4B1A434A602168CA688243CA606169E4
:1007400020690843A169090208432168C860216A39
:10075000E0690843216808602068016801221143AC
:1007600001606664202068702663AE70002070BD52
:1007700000800002F0B50068104985B088421AD1A7
:100780008020122401250326694671C10C4F694659
:1007900038460495FFF782FE28020090042004905A
:1007A00001AA70C269463846FFF778FE0548816B9A
:1007B0006A051143816305B0F0BD0000005400409C
:1007C000000400500010024002480168491C01600A
:1007D000704700000000002010B506480168402264
:1007E00011430160002000F007F800F019F8002024
:1007F00010BD00000020024010B5044607487D21CE
:10080000C9000068FFF774FC00F0F2FD00222146E9
:10081000501E00F021F8002010BD00000400002050
:1008200010B50C48416B012211434163816B0204F6
:100830001143816300221146501F00F00DF8002281
:100840001146901E00F008F800221146501E00F0DC
:1008500003F810BD0010024010B501F085F810BD7E
:100860000168FF30FF300122023040318262088B84
:1008700010430883088B022210430883002070472E
:100880000168FF30FF30012202300023426203770B
:100890004031888A10438882888A022210438882E5
:1008A00018467047F8B500270446002807D02646AA
:1008B000FF36E136707A0025002802D005E00120DD
:1008C000F8BD3572204600F047F803207072012110
:1008D0000BE01C2078430219104620304172077249
:1008E000C572556395637F1CD5636068B842F0D8C4
:1008F00000200BE01C2242431219FF3201325572D4
:100900001072D57255619561401CD5616268824252
:10091000F0D8206840300180206840300580206891
:1009200040308580206840300582BF202268000268
:1009300040321080242005557172E069012802D1EF
:100940002046FFF79DFF206A012802D12046FFF7CD
:1009500087FF0020F8BD000000680549884205D1E6
:100960000448816B0122D205114381637047000066
:10097000005C004000100240F8B55E4906460125C3
:100980000020ED035A4B5B4A4031082E7AD00FDC31
:10099000012E68D0022E76D0042E1AD1CC68032600
:1009A000B602344070D00127FF02BC4272D087E00B
:1009B000102E6BD0504C202E0CD0402E09D1C9687F
:1009C0003505294034D0A94203D19168890700D563
:1009D0004A48F8BD0B6909690326360401273140EE
:1009E0003F04B94203D1990549E02846F8BD0125E5
:1009F0006D04A94203D19907F8D54148F8BDB14229
:100A0000FCD111688903F9D5116803200005014064
:100A100001200005091A09D0091A05D0814201D127
:100A20003848F8BD2046F8BD3748F8BD3748F8BD0E
:100A300011688901FBD5D068D1688002344D000F60
:100A40002D5C0802810FD068491CC00306D41068D1
:100A5000C00601D5204602E0184600E02D48684354
:100A6000FFF746FBF8BDCC68A407A40F0FD0022CFB
:100A700010D0012C13D0032CF4D109698905002969
:100A8000B3DBF8BD23E00DE017E003E02CE000F05D
:100A9000C9F9F6E711684907F3D51846F1E700F000
:100AA000D1F9EEE7CC680C26344006D0082CF1D002
:100AB000042CF4D00C2CE0D0E3E700F0A3F9E0E73D
:100AC000012292029442EAD0B442D6D0D9E7C96852
:100AD000032424032140F0D001256D036C10A942AA
:100AE000D8D0A142DBD0CCE7916B4902E5D4C8E76E
:100AF0000024F4000010024000093D00006CDC02FC
:100B00008890000020A1070040420F0080841E0052
:100B1000F020000800127A00F8B504460078594D1C
:100B2000800672D5574E0027403EB06BC00004D4FB
:100B3000B06BA9050843B063012753480168C90594
:100B400011D40168821511430160FFF769FD00901F
:100B500005E0FFF765FD0099401A642837D84A4838
:100B60000068C005F5D532680321090560680A40B0
:100B70000140914208D08103890F032904D13168D3
:100B8000890301D50120F8BD2A69032109040A401F
:100B900022D0084090421FD0207880061CD52869BA
:100BA0002A6988430121C9040A432A612A698A43C0
:100BB0002A612861C0050FD5FFF732FD009008E0DB
:100BC000FFF72EFD0099411A3048814201D90320D8
:100BD000F8BD28698005F3D561688803800F032874
:100BE00005D132680005824301400A43326028691A
:100BF000032261681204114008432861002F04D0C9
:100C0000B16B012000078143B1632078C00705D094
:100C1000E868A168800880000843E86020788007C1
:100C200005D5E8680C218843E1680843E86020782E
:100C3000400706D5E86803218902884321690843F3
:100C4000E8602078000706D5E86803210903884397
:100C500061690843E8602078400606D5E86801210C
:100C600089068843E1690843E8602078000606D5D4
:100C7000E868032189048843A1690843E8600020EB
:100C8000F8BD0000401002400070004088130000D2
:100C9000F8B5054653480E460068C007C00FB0427D
:100CA0000AD2504801684908490031430160006890
:100CB000C007C00FB0426FD128784B4C800705D5D4
:100CC000E068F0218843A9680843E0602878C007FD
:100CD00052D06868022817D0032818D0216801284C
:100CE00018D08905002957DAE1688908890001438D
:100CF000E160FFF795FC69680746022912D00329D5
:100D00001CD0012926D033E021688903EAE7216855
:100D10008901E7E74907E5E7FFF782FCC11B334894
:100D2000814223D8E0680007800F0228F4D123E035
:100D3000FFF776FCC11B2D48814217D8E0680007F9
:100D4000800F0328F4D117E0FFF76AFCC11B274886
:100D500081420BD8E0680007800F0128F4D10BE036
:100D6000FFF75EFCC11B2148814201D90320F8BD79
:100D7000E0680007800FF3D11A480168C907C90F5E
:100D8000B1420BD90168490849003143016000684C
:100D9000C007C00FB04201D00120F8BD287840073D
:100DA00006D5E068072109028843E9680843E06046
:100DB0002878000707D5E0680721C9028843296918
:100DC000C9000843E06000F03DF8E168084A090600
:100DD000090F515CC840074908600020FFF70CFD6F
:100DE0000020F8BD002002400010024088130000DF
:100DF000E02000080400002001480068704700005F
:100E000004000020044805490068C968044A4905EF
:100E1000490F515CC8407047040000200010024098
:100E2000F9200008044805490068C968044A890493
:100E3000490F515CC8407047040000200010024078
:100E4000F920000810B5184AD1680C200840042881
:100E50000BD0082810D00C2810D050680004410F87
:100E60000120C003491C884010BD1068C00601D590
:100E70000E4810BD0E4810BD0E4810BD88020E4B26
:100E8000000F185C0902D368890F491CDB0301D5E8
:100E9000084A05E01268D20601D5044A00E0044A77
:100EA0005043FFF725F910BD0010024000093D0036
:100EB0000024F40000127A00F0200008F8B504467F
:100EC0000078FE4DC0074AD0E8680007800F02286E
:100ED00007D0E8680007800F032809D1E868C0033D
:100EE00006D5286880033AD56068002873D036E0BC
:100EF000012062680004824203D12968014329600D
:100F000011E0052301211B0489049A422A6802D1B9
:100F10000A432A60F1E782432A602A68024000926D
:100F2000286888432860606800280CD0FFF778FBA9
:100F3000064604E0FFF774FB801B64287ED828680F
:100F40008003F7D50BE0FFF76BFB064604E0FFF7E5
:100F500067FB801B6428F1D828688003F7D42078C9
:100F6000800741D5E8681F270007800F3F0201284E
:100F700007D0E8680007800F032809D1E868C0039C
:100F800006D42868400717D5E068012823D113E06C
:100F9000E068002817D0296809229143014329609D
:100FA000FFF73EFB064604E0FFF73AFB801B0228F2
:100FB000C4D828684007F7D568682169B843090292
:100FC0000843686010E02868400840002860FFF788
:100FD00027FB064605E095E0FFF722FB801B022871
:100FE000ACD828684007F7D42078C00672D5E868E6
:100FF000B34E0007800F0AD0E06900282868B14985
:101000005AD008432860FFF70BFB074644E02868E6
:10101000800502D5E069002874D0606A69683140B3
:10102000884212D900F0C4FC0028AFD16868616A18
:10103000B043084368606868000200E0DCE0218C8F
:10104000000A0906084368600FE06968B14301437C
:1010500069606868218C0002000A0906084368601C
:10106000606A00F0A5FC002890D1606A410B012065
:10107000C003491C8840E96809060A0F9249895C47
:10108000C840924908600020FFF7B6FB22E0FFF756
:10109000C7FAC01B02288BD828688005F7D5686876
:1010A000616AB043084368606868218C0002000AE6
:1010B0000906084368600DE088432860FFF7B0FA2E
:1010C000064604E0FFF7ACFA801B022888D828689F
:1010D0008005F7D420787E4E000723D5606900286C
:1010E000306910D0012108433061FFF799FA0746B3
:1010F00004E0FFF795FAC01B02287DD8306980070D
:10110000F7D50FE001E1400840003061FFF788FAB1
:10111000074604E0FFF784FAC01B02286CD8306948
:101120008007F7D42078400760D5A86B0027C0005F
:1011300005D4A86B012109070843A8630127654866
:101140000168C90511D40168821511430160FFF7D8
:1011500067FA009005E0FFF763FA0099401A6428E7
:101160004AD85C480068C005F5D55648A268824256
:1011700003D131690143316111E001218902002A63
:1011800007D005231B029A4203D132690A43326118
:10119000EFE7326982433261306988433061A06889
:1011A00000280ED0FFF73CFA009006E0FFF738FA6F
:1011B0000099411A484881421ED830698005F5D50A
:1011C0000DE0FFF72DFA009006E0FFF729FA0099ED
:1011D000411A414881420FD830698005F5D4002F6B
:1011E00004D0A96B012000078143A9632078800601
:1011F00030D53A48421400E080E0A169002916D0B9
:10120000AB6801210B43AB606B6B0B436B63016AF3
:1012100011430162FFF704FA064604E0FFF700FA03
:10122000801B02286AD8A8688007F7D512E0A96851
:1012300049084900A960016A91430162FFF7F0F98A
:10124000064604E0FFF7ECF9801B022856D8A86890
:101250008007F7D4A06A002855D0E9680907890FEC
:10126000032952D0012636060228286805D0B0434B
:101270002860FFF7D5F9044642E0B0432860FFF745
:10128000CFF9074604E0FFF7CBF9C01B022835D899
:1012900028688001F7D4216BE06AEA680843616B33
:1012A000FD231B049A4311430843E8602868304338
:1012B0002860FFF7B5F9044617E00000001002406F
:1012C00000E0000000010000E02000080400002011
:1012D00040100240007000408813000000000140F0
:1012E000FFF79EF9001B022808D828688001F7D56F
:1012F00009E0FFF795F9001B022801D90320F8BD8A
:1013000028688001F5D40020F8BD0120F8BD70B533
:10131000040006D025464035687C0026002802D00F
:1013200005E0012070BD2E74204600F033F8022045
:10133000687420680168402291430160A168606878
:1013400022690843E16811430843616901220843A7
:10135000A169520211400843E1690843216A084328
:10136000A16A084321680860A0690421000C0840B4
:10137000616A0843216848602168E06A0861206862
:10138000C16992009143C1616665012068740020C3
:1013900070BD000000B500680B4985B0884211D1CE
:1013A0000A48416B821411434163382000900220A7
:1013B00000210190032002910491039069460448A2
:1013C000FFF76CF805B000BD00300140001002408E
:1013D00000040050042204490428086902D0904304
:1013E000086170471043FBE700E000E07047000031
:1013F000094910B5401E884201D9012010BD074C93
:1014000060610321081F00F0AFFA0020A0610720EF
:101410002061002010BD0000FFFFFF0000E000E0A1
:1014200010B5FFF7E3FF10BD70B502462032137D03
:10143000012B1BD0012313750224547504686568C1
:101440007026B5436560046865680E68354365605D
:101450000468A5688026B543A5600068846849686B
:101460000C43846053750020107570BD022070BD60
:1014700070B5040005D025462035687D002802D0CF
:1014800006E0012070BD00202875204600F00AF813
:1014900002206875211D206800F042FB012068755C
:1014A000002070BD006801218907884204D10348EB
:1014B000816B0122114381637047000000100240DC
:1014C000F8B5054604462035287D012817D00127A8
:1014D0002F7502206875226890687726FF23B04335
:1014E0001B02984390600868502837D00EDC2028F3
:1014F00057D006DC00284ED0102840D14EE0022004
:10150000F8BD302850D0402839D13CE060282DD09B
:10151000702817D001221203801A0ED090422ED1CB
:10152000CB684A688968206800F022FB20688168DF
:10153000012292031143816021E020688168C9087B
:10154000C900F8E7CB684A688968206800F010FB9A
:1015500021688868B0433043886010E0CA684968F1
:10156000206800F07FFB5021206806E0CA684968C7
:10157000206800F088FB6021206800F004FB6F7594
:1015800000202875F8BDCA684968206800F06AFB29
:1015900040212068F1E700212068EEE71021206853
:1015A000EBE720212068E8E730212068E5E700B577
:1015B00000680121890785B088420CD1082000907D
:1015C00000200221029003900191049105206946B8
:1015D0000007FEF763FF05B000BD70B50446203478
:1015E000237D012B0CD00125257502236375002A6C
:1015F00008D0042A0AD0082A0CD00C2A11D10DE0F8
:10160000022070BD006800F0C6FA0AE0006800F031
:10161000DAFA06E0006800F0EFFA02E0006800F095
:1016200006FB65750020207570BD70B5040005D0FF
:1016300025462035687D002802D006E0012070BDD7
:1016400000202875204600F00AF802206875211D48
:10165000206800F065FA01206875002070BD7047B1
:1016600070B5040005D025466035687A002802D0A0
:1016700006E0012070BD00202872204600F026F808
:101680002420687220680168490849000160606A86
:10169000002802D0204600F009FB204600F09CFB09
:1016A0000128E7D0206841680922D20291434160B5
:1016B000206881682A2291438160206801680122A4
:1016C00011430160204600F057FB70BD00B5006873
:1016D0000D4985B0884215D10C48416B0122920317
:1016E000114341630320400200900220019000203A
:1016F000029003200390042004900520694600070F
:10170000FEF7CCFE05B000BD0038014000100240DD
:10171000FEE700001CB51848164901600122D207F7
:10172000426000210164102282600622C263C1600F
:101730000162012241620261FF22C162C232826201
:10174000016341638161042281634261C161FEF7EB
:10175000A5FD002800D0FEE7084800900120000306
:10176000019069460448FEF74FFD002800D0FEE7CF
:101770001CBD0000002401400800002000020024DD
:10178000F0B5244887B0C26A04210A43C262C26A23
:101790000A400592C16A01252943C162C16A2940F4
:1017A0000591C26A02210A43C262C06A1A4F084008
:1017B0008E030590002231463846FEF72BFF0122AA
:1017C00040211648FEF726FFA8030024009001944C
:1017D000694602943846FEF761FE0294694638462F
:1017E000009601950394FEF759FE701C00900520A9
:1017F0000194694602940007FEF750FE40200090D5
:1018000002946946019503940448FEF747FE07B029
:10181000F0BD00000010024000080050000400501D
:1018200010B51248104901601149416000218160E2
:101830000161416181610122C161C2600162FEF703
:101840003FFF002800D0FEE700210848FEF7EEFE2B
:10185000002800D0FEE700210448FEF70CFF002816
:1018600000D0FEE710BD00000054004068000020DA
:10187000BB7C700010B50E480C490160FF2105319A
:10188000416000218160C1600122016152028261D8
:101890004161016210224162C26181620721C1621D
:1018A000FFF735FD002800D0FEE710BD00300140F5
:1018B000B400002010B501211B488AB0890700241C
:1018C00012C00460446084600838FFF7D1FD00282E
:1018D00000D0FEE701200003049004A91248FFF79E
:1018E000EFFD002800D0FEE70F48FFF79EFE00281E
:1018F00000D0FEE7089408A90B480994FFF794FD6F
:10190000002800D0FEE70094019402940C2269465E
:1019100005480394FFF761FE002800D0FEE7024867
:10192000FFF745FE0AB010BD0C01002010B50C48B1
:101930000A490160E1214902416000218160C160E2
:1019400001618161C1610C22016242614162FFF764
:1019500087FE002800D0FEE710BD000000380140DF
:1019600044010020704700008307FF22DB0E9A40ED
:101970008907090E994000280BDA0007000F083884
:10198000830808489B001818C36993430B43C3613D
:101990007047830804489B001B181868904308434D
:1019A0001860704700ED00E000E400E070470000C0
:1019B00070B517490023CA681206120F18D18A6B36
:1019C000154CD500134A02D51268224009E08E6BEF
:1019D00001252D072E438E6312688E6B2240AE4385
:1019E0008E63A24204D103218903884200D10123DE
:1019F0000A48016849084900194301600068C007A6
:101A0000C00F984201D0012070BD002070BD0000C1
:101A1000001002400070004000180000002002404A
:101A2000704710B5FEF7D0FEFFF7FAFC10BD0000BE
:101A300010B525489CB001680322D2029143C2141C
:101A40008918016022200090012006900390022056
:101A50000A9040040C900001102100240D90049184
:101A60000B946846FFF72AFA002800D0FEE70F2003
:101A70001690032017901894199401211A9416A80F
:101A8000FFF706F9002800D0FEE7492013940E90D6
:101A900001201094800615900EA8FFF73DF800284D
:101AA00000D0FEE7FFF7A8F97D21C900FEF720FB73
:101AB000FFF79EFC0420FFF78DFC00221146501E0C
:101AC000FEF7CAFE1CB010BD00700040104801684F
:101AD000821511430160C1680E4A1140C16001685E
:101AE0000D4A114001608168490849008160016820
:101AF0000122920491430160C168FD2212049143C6
:101B0000C160002101610549C00388607047000081
:101B1000001002400C40FF88F6FFF6FE00ED00E0EA
:101B200070B5026801239B070F4C104D984203D0FB
:101B3000A04201D0A84203D17026B2434E6832437E
:101B4000984203D0A04201D0A84204D103231B0233
:101B50009A43CB681A4302608A68C262096881624C
:101B60000121416170BD00000008014000140140E6
:101B700030B58468FF252D021B021343AC430B4391
:101B80002343836030BD826870239A430A43072150
:101B90000A438260704730B5026A520852000262FE
:101BA000026A456883697024A3439C080B68A400FB
:101BB00023430224A2438C6845601443836149682F
:101BC0004163046230BD30B5026A10239A43026259
:101BD000036A4568826973242402A2430C682402C4
:101BE0001443202293438A68456012011A4384619A
:101BF00049688163026230BD30B5026AFF23013358
:101C00009A430262026A4568C3697024A3439C0830
:101C10000B68A400234301246402A2438C6845603E
:101C200024021443C3614968C163046230BD30B506
:101C3000026A01231B039A430262036A4568C26970
:101C400073242402A2430C68240214430122520389
:101C500093438A68456012031A43C461496801646A
:101C6000026230BD30B5036A046A6408640004622D
:101C70008469F025AC43120122430A24A3430B4399
:101C80008261036230BD30B5036A1024A34303624E
:101C90008469036A0F252D031203AC432243A02459
:101CA000A343090119438261016230BD10B5818CE3
:101CB000C90707D001684A6801235B049A43836A15
:101CC0001A434A60818C890707D501684A68012355
:101CD0001B049A43C36A1A434A60818C490707D59B
:101CE00001684A6801239B049A43036B1A434A60C4
:101CF000818C090707D501684A680123DB039A43F1
:101D0000436B1A434A60818CC90607D50268916803
:101D100001231B039943836B19439160818C8906CE
:101D200007D501688A6801235B039A43C36B1A4392
:101D30008A60818C490612D503685A680121090519
:101D4000046C8A4322435A60026C8A4207D10268BB
:101D5000516803235B059943436C19435160818C9F
:101D6000090607D501684A680123DB04806C9A43A1
:101D700002434A6010BD0000F8B500260446C6665E
:101D8000FEF74EFC054620680068124F000709D593
:101D900001212B46002249052046009700F02AF930
:101DA00000280DD12068006840070BD501212B4683
:101DB000002289052046009700F01CF9002801D078
:101DC0000320F8BD202060346072A07226720020CB
:101DD000F8BD0000FFFFFF01FEB504460168806802
:101DE0002269E36910436269102700261A431043F1
:101DF0000A683546754B1A4002430A6020684168FC
:101E0000032212039143E26811434160704A216842
:101E1000A069914201D0226A10438A680B231B02F9
:101E20009A4302438A606B4A21686B4891420CD105
:101E3000C0688007800F06D001283DD0022839D025
:101E4000032820D11EE001271DE0644A91420AD1F7
:101E5000C0680C2108402BD004282DD0082829D098
:101E60000C2810D10EE05A4A91420CD1C1680320CF
:101E7000800201401CD01015091A1DD0091A19D072
:101E8000814200D108270220FEF776FD0190504BD9
:101E9000514922684039D81300929A4235D1002F17
:101EA0000CD0022F0DD0042F12D0082F1CD113E01C
:101EB0000027E8E70227E6E70427E4E7FEF7A2FFAA
:101EC00008E00868C00601D5454805E0454803E03C
:101ED000FEF7B8FF002873D06268510051188142A4
:101EE00002D81103814201D2012569E0010E0602E8
:101EF0005008002330185941FEF710F90321090258
:101F0000394A411A914259D9EEE7E26982422DD10C
:101F10003B0000F0A0F80906080B24192424241F14
:101F20002400019812E0FEF77DFF0FE00868616869
:101F3000C00602D548082D4A01E02D4A48088018FD
:101F4000FEF7D6F886B20BE0FEF77CFF6168400032
:101F50004A08F4E76168012248081204EFE7012506
:101F6000310909013007400F084327E03B0000F02A
:101F700072F809070A0D061D060606290600B3E7D2
:101F8000FEF740FF14E0FEF74DFF11E008686168BE
:101F9000C00602D54A08124801E012484A08101843
:101FA000FEF7A6F881B20098C16009E0FEF74AFF8B
:101FB00061684A088018FEF79BF880B22168C86003
:101FC0002846FEBD61684A08E9E70000F369FFEFB3
:101FD00000480040003801404010024000440040EA
:101FE00000093D000024F400FFFC0F0000127A00FD
:101FF0000048E801FFB581B017460E4604460A9D29
:102000001DE0681C1BD0002D05D0FEF709FB0499CC
:10201000401AA84213D920680168FF22A1329143D7
:10202000016020688168490849008160202060348F
:102030006072A07200202072032005B0F0BD2068FD
:10204000C1693046884304D00020B842D9D000206E
:10205000F3E70120F9E730B47446641E2578641C68
:10206000AB4200D21D46635D5B00E31830BC1847ED
:1020700002E008C8121F08C1002AFAD17047704751
:10208000002001E001C1121F002AFBD170470000AF
:10209000FEF7A2FBFFF7CCFCFFF772FBFFF73AFB62
:1020A000FFF7BEFBFFF7E6FBFFF740FC0B480A49D2
:1020B000016002220821826041600021C1608161CB
:1020C000C16102610162FEF7EDFB002800D0FEE76E
:1020D000FFF7F0FBFEE70000005C0040B4010020C9
:1020E00000000000000000000102030406070809C8
:1020F000030406080C101820300000000001020341
:102100000400000024210008000000200800000056
:10211000702000082C21000808000020E0070000C3
:0C212000802000080000000080841E00E9
:04000005080000C12E
:00000001FF
