:020000040800F2
:1000000080080020D5000008D52A0008E525000852
:1000100000000000000000000000000000000000E0
:10002000000000000000000000000000432C000859
:1000300000000000000000001D2B0008452C0008F7
:10004000E7000008E7000008E7000008E7000008F4
:10005000E7000008E7000008E7000008E7000008E4
:10006000E7000008E7000008E7000008E7000008D4
:10007000E7000008E700000800000000E7000008B3
:1000800000000000352D0008000000000000000006
:10009000E700000800000000E7000008E700000893
:1000A000E7000008E7000008E7000008E700000894
:1000B000E7000008E700000800000000E700000873
:1000C0000348854600F064FA004800472D3A0008CE
:1000D000800800200448804704480047FEE7FEE708
:1000E000FEE7FEE7FEE7FEE7E12C0008C10000089E
:1000F00030B50B46014600202022012409E00D46C0
:10010000D5409D4205D31D469540491B2546954047
:1001100040191546521E002DF1DC30BDF0B51FB45C
:100120000646002082B005464024019100901BE065
:10013000019922460F46304600F078F9049A059B53
:10014000801A994110D310461946224600F05EF9F4
:10015000361A8F410197224601200021009F00F0AE
:1001600055F938184D4100902046641E0028DFDC08
:10017000019B00982946324607B0F0BDD2B201E09B
:100180000270401C491EFBD270470022F6E710B5F2
:1001900013460A4604461946FFF7F0FF204610BDF5
:1001A000420005D04200120E52428A4201DB00207A
:1001B0007047C90508187047F0B51FB488B00B998F
:1001C0000998002448400999C00F4900490809913D
:1001D000C0070B990090490049080B9109990898AC
:1001E000A64608431CD00B990A98084318D00998D2
:1001F00001244000420D4800410D099824050003E8
:10020000000B204309900B980003000B20430B9038
:1002100050181C494018002201901446104605E071
:10022000002001460DB0F0BD032801DA034600E0CE
:1002300003239C46C11A0AAE0AE05F0008ADED5BDD
:100240004F00F75B7D430027AA187C41491C5B1EC9
:100250006145F2DD410004AB5A522104120C0A43FD
:10026000240C401C0828DFDB01980290009970469E
:1002700001910090059B049A0799069800F035F9C2
:10028000D0E700000DFCFFFFF0B50C465C4085B0E8
:10029000E40FE40703944C000026640859009446D8
:1002A000490802460296224321D062460A431ED0E4
:1002B0006200570D4A000E032303550D0124024628
:1002C0002C492405781B1B0B360B4018234326436F
:1002D000614600901C46501AB44103D30098401C5C
:1002E000009002E0921800985B41002803DA002099
:1002F000014605B0F0BD00200121090507468646EC
:1003000011E064461D46141BB54106D36546521BD9
:10031000B341744607430C43A646CD07400849083D
:10032000284392185B4105460D43EAD11046184315
:1003300013D06046194650407140084306D06046CD
:10034000101AB34106D20122002306E00022012345
:10035000DB0702E00122D2435310009874460105E6
:10036000381C6141029C039D0019694100F0B0F8FE
:10037000BFE70000FD03000070B54B005B080343BE
:100380000BD04B005C0D002633466542B341D417B9
:10039000AD1AA34102DB0020014670BD12053018E2
:1003A000514170BD10B500229623114600F057F858
:1003B00010BD00000EB505490291002100910A46CA
:1003C0000B46019100F091F803B000BD330400002A
:1003D0004A0009030123090B1B051943094B10B5FA
:1003E000520D9A4201DA002010BD064B34339A4276
:1003F00003DC9A1A00F01AF810BD0349511888401E
:1004000010BD0000FF030000CDFBFFFF10B5202A48
:1004100004DB0146203A9140002010BD914020238A
:100420009C1A0346E3401943904010BD10B5202AA2
:1004300004DB0846203AD040002110BD0B46D340D3
:10044000D0402024A21A91400843194610BD00292B
:1004500004DA401C490001D140084000704770B4E4
:100460000024050C05D11024000402D1002921D05C
:100470001124050E01D100020834050F01D100013D
:10048000241D850F01D18000A41C002801DB400041
:10049000641C002908D020252E1B0D46F540A140E4
:1004A00000D001212943084301061B1B000ADB1D64
:1004B00002D5002070BC7047DB0518188018002991
:1004C000F8DA401C4900F5D170BC40084000704784
:1004D00010B5002B08DA0024401C614192185B41E2
:1004E0001A4301D14008400010BDF0B51FB482B0DE
:1004F00005460C0003D0084602F0BCFF02E002F003
:10050000B9FF20300246009021462846FFF77EFFC3
:10051000049B059A04460F4618431143084314D020
:10052000184610431BD0009840210A1A1846059916
:10053000FFF77CFF05460E46009A05990498FFF7E1
:1005400065FF084305D0012004E02046394607B086
:10055000F0BD0020C11705430E432C4337430099DB
:100560000E986305401A7905E40A00220C43FD0A3F
:100570000A3002D500200146E9E70105101969415A
:100580000C9C0D9D00196941FFF7A2FFDFE70000F9
:10059000064C0125064E05E0E36807CC2B430C3CD6
:1005A00098471034B442F7D3FFF78EFDF0400008AF
:1005B0001041000870B5044600688168490720D5DD
:1005C000816810264907002905DA8168890702D465
:1005D00081683143816000F053FB05460DE000F077
:1005E0004FFB401B0A2808D9A06D3043A065E06D81
:1005F00001210843E065084670BD20688068400717
:10060000EDD4002070BD000038B504460648054909
:100610000068FFF76DFD604300E0401E0090002879
:10062000FBD138BD40420F0034000020F8B504462D
:10063000006881688907890F012925D10168C907E8
:1006400022D08168052211401025012601290FD1F1
:10065000816802221143816021680320086000F054
:100660000FFB07460CE000F00BFBC01B0A2807D964
:10067000A06D2843A065E06D3043E0650120F8BD22
:1006800020688068C007EED10020F8BDF8B50446A8
:10069000006881688907890F012902D10168C907AB
:1006A00022D18168114A10261140012500290ED15E
:1006B0008168294381600120FFF7A6FF00F0E0FA7E
:1006C00007460CE000F0DCFAC01B0A2807D9A06D31
:1006D0003043A065E06D2843E0650120F8BD206847
:1006E0000068C043C007EDD10020F8BD17000080AE
:1006F000F8B506460D464036317D01290DD0012161
:10070000317501688A68520709D5816D202211432D
:100710008165002030750120F8BD0220F8BD174B1F
:100720006A68D80547109A42154C8A6A2B6812D01D
:100730005B035B0B1A438A622968490305D5A168EC
:100740000143A1600A20FFF75FFF2868800312D5EC
:10075000A06838430EE05B035B0B9A438A6229680A
:10076000490302D5A1688143A1602868800302D5AE
:10077000A068B843A06000203075F8BD01100000EB
:10078000002701400068006C7047000070B504004D
:1007900006D0A06D264600254036002802D006E08F
:1007A000012070BDE5653575204600F0D1F8A06DDB
:1007B000C00603D421688868400705D5A06D1021C4
:1007C0000843A0653575EBE7A06DFF220132904329
:1007D00002221043A06588688207920F5A48012AB6
:1007E00002D10A68D2072BD1032362689B079A4281
:1007F00005D05B429A4202D05B009A4209D10A6955
:10080000920092080A6121680A6963681A430A61C2
:100810000CE00A69920092080A6181680F22920432
:100820009143816081686268114381602168CA6870
:1008300018239A43CA602168CA68A3681A43CA6029
:10084000816801225206914381608168228F52069D
:100850001143816020688168C90004D48168012245
:100860001207114381602068C168384A1140C16095
:100870002169E068022923D000210843216A226B04
:100880004903520011430843616B0843A16989037E
:100890000843E169C90308432168CA681043C86076
:1008A000A06A0146FF39C23905D0E16A08432168D0
:1008B000CA681043C860606A0121012802D00BE0B9
:1008C0000421DAE7206A002823D0A06D20221043FB
:1008D000A065E06D0843E065206C012820681FD00A
:1008E0000169C90703D0016949084900016120680D
:1008F0004169C908C900416120684169E26B11433F
:100900004161E565A06D80088000401CA065002065
:1009100070BD2068C26801231B041A43C260DBE774
:100920000269FF239B009A43026120680269636C9D
:10093000E66C1A43A36C33431A43026120680269D0
:100940000A430261D3E70000002701401902FEFFBD
:1009500000B500680A4985B088420ED10948416B4C
:1009600042151143416302200090032001900020B2
:1009700002906946044800F0C1F805B000BD0000CF
:10098000002401400010024000040050F8B5044665
:100990004069254640350E4608280BD02068C068BF
:1009A000C00709D0A06D20210843A065002028754C
:1009B0000120F8BD082700E00C2700F061F9009045
:1009C00011E0701C0FD0002E05D000F059F90099ED
:1009D000401AB04207D9A06D04210843A065002049
:1009E00028750320F8BD206800683842E9D0A06D62
:1009F000012149020843A0652068C16809058A0FE2
:100A00000C21002A1AD1226A002A17D10268120783
:100A100014D5826853070122002B08DB43688B43FF
:100A20004360A06D130298431043A06506E0A06DDB
:100A300020231843A065E06D1043E065A0690028FD
:100A400001D1206801600020F8BD000070B50446A7
:100A5000216800208968490721D425464035297D31
:100A600001291CD001212975E169012904D0204602
:100A7000FFF70CFE002811D1A16D0A4A1140FF2298
:100A800001321143A1650021E165297522681C210D
:100A9000116021688A6804231A438A6070BD0220AD
:100AA00070BD0000FEF1FFFF70B5054604464035FD
:100AB000287D012807D001262E752046FFF77AFDF4
:100AC000002802D00CE0022070BD2046FFF7AEFDEA
:100AD000002805D1A16DFF22013291433143A16568
:100AE0000021297570BD31B500F0CAF8044600F048
:100AF000C7F80099001B8842F9D338BDF8B5002328
:100B00000124A2E027469F403A4070D04D68022D54
:100B100001D0122D14D1DD08AD002D1800952D6ADD
:100B20005E07AC46F50E0F26AE46AE406546B543B1
:100B3000AC460E697546AE4065462E43009D2E625A
:100B40004D68012D05D0022D03D0112D01D0122D9D
:100B500016D185680326AC465D00AE46AE406546BC
:100B6000B543AC46CE687546AE4065462E438660BA
:100B700046680D79BE43ED06ED0F9D403543456057
:100B800006685F000325BD40AE46AE430D79B4460E
:100B9000AE07B60FBE4065462E430660C668754672
:100BA000AE438D68BD403543C5604D68ED004BD503
:100BB000294D6E6B26436E639E08284DB60075194D
:100BC000AC46AD689E07360F0F27B740BD430527DB
:100BD0003F07B84201D1002715E0214FB84201D1AB
:100BE000012710E01F4FB84202D102270BE02BE093
:100BF0001D4FB84201D1032705E01C4FB84201D177
:100C0000052700E00627B7402F436546AF60184D23
:100C10002E684F689643FF0300D516432E606E681A
:100C20004F689643BF0300D516436E60AE684F68A9
:100C30009643FF0200D51643AE60EE684F689643B8
:100C4000BF0200D51643EE605B1C0A681546DD4006
:100C500000D057E7F8BD000000100240000001403E
:100C60000004005000080050000C0050001C005010
:100C700000040140002A01D0816170478162704701
:100C800001480068704700003000002070B502463F
:100C900040325378202B1CD11378012B19D001231B
:100CA000137024245470046825689D4325600468EB
:100CB00025681E03B5432560046825680D4325603B
:100CC00000680168194301602020507000201070F6
:100CD00070BD022070BD70B5024640325378202BA3
:100CE0001BD11378012B18D00124147024235370C6
:100CF00003681D68A5431D6005682B680F26360232
:100D0000B343090219432960006801682143016067
:100D1000202050700020107070BD022070BD0000B7
:100D200070B5040006D025464035687800260028B6
:100D300002D005E0012070BD2E70204600F0A2F91F
:100D400024206870206801684908490001600F216B
:100D50006068090688432168086121688A68012063
:100D6000C00382438A60E1680129A16808D021227A
:100D70009202114322689160E168022902D005E0E5
:100D80000143F7E701212268C902516021684A68DE
:100D90000F4B1A434A602168CA688243CA6061697E
:100DA00020690843A169090208432168C860216AD3
:100DB000E069084321680860206801680122114346
:100DC00001606664202068702663AE70002070BDEC
:100DD00000800002FFB5054604464035687883B0C0
:100DE000202872D10C98002870D00D9800286DD062
:100DF0002878012869D001202870FFF741FF0746B5
:100E0000012200901923D103204601F0B7FC0028ED
:100E100075D1222068704020A870002666640C9866
:100E200060620D98608566630E980090019704A932
:100E30000EC9204601F022FC002804D0606C2E7000
:100E400004285FD05BE0618D3748FF2905D9FF2278
:100E5000228501231B06009006E0618D218500900C
:100E6000208D0123C2B25B062046049901F072FC7A
:100E700000970022042120460E9B01F07FFC0028F1
:100E80003DD12068416A606A421C62620170208D17
:100E9000401E81B22185608D401E6085002921D1D0
:100EA000608D00281ED000970022802120460E9BD6
:100EB00001F064FC002822D1608DFF2807D9FF22B1
:100EC000228501231B06009608E02AE01AE0608DC7
:100ED00020850096208D0123C2B25B06204604992E
:100EE00001F038FC608D0028C2D13A4620460E99A8
:100EF00001F068FC002807D0606C042802D00320B1
:100F000007B0F0BD0120FBE721682020C8612168FF
:100F10004A68064B1A404A606870AE702E70002016
:100F2000EEE70220ECE700000024008000E800FE6D
:100F3000FFB5054604464035687883B0202876D151
:100F40000C98002874D00D98002871D028780128BA
:100F50006DD001202870FFF793FE07460122009014
:100F60001923D103204601F009FC002853D1212088
:100F700068704020A870002666640C9860620D9826
:100F8000608566630E980090019704A90EC92046FB
:100F900001F0AAFB002804D0606C2E7004286AD0EF
:100FA00039E0608DFF2805D9FF22228501231B0629
:100FB000009606E0608D20850096208D0123C2B248
:100FC0005B062046049901F0C5FB3A4620460E997F
:100FD00001F01FFC002803D0606C04284BD01AE0FD
:100FE000606A411C6162216800788862608D401EE1
:100FF0006085208D401E0004000C208524D1608D6A
:10100000002821D000970022802120460E9B01F06D
:10101000B5FB002802D0032007B0F0BD608DFF288B
:1010200007D9FF22228501231B06009608E024E051
:1010300021E0608D20850096208D0123C2B25B06E1
:101040002046049901F086FB608D0028BDD13A4608
:1010500020460E9901F0B6FB0028BDD12068202162
:10106000C16120684268064B1A4042606970AE70E8
:101070002E700020D0E70120CEE70220CCE7000050
:1010800000E800FEF0B50068104985B088421AD12A
:101090008020122401250326694671C10C4F694640
:1010A00038460495FFF72AFD28020090042004909A
:1010B00001AA70C269463846FFF720FD0548816BDA
:1010C0006A051143816305B0F0BD00000054004083
:1010D000000400500010024002480168491C0160F1
:1010E000704700003000002010B50648016840221B
:1010F00011430160002000F007F800F019F800200B
:1011000010BD00000020024010B5044607487D21B4
:10111000C9000068FEF7ECFF00F058FF00222146EE
:10112000501E00F02BF8002010BD000034000020FD
:1011300010B50C48416B012211434163816B0204DD
:101140001143816300221146501F00F017F800225E
:101150001146901E00F012F800221146501E00F0B9
:101160000DF810BD00100240C106C90E01208840D4
:10117000014908607047000000E100E010B501F08F
:10118000ABFC10BD0168FF30FF300122023040315E
:101190008262088B10430883088B02221043088365
:1011A000002070470168FF30FF3001220230002329
:1011B000426203774031888A10438882888A0222FB
:1011C0001043888218467047F8B500270446002867
:1011D00007D02646FF36E136707A0025002802D077
:1011E00005E00120F8BD3572204600F047F80320E5
:1011F000707201210BE01C20784302191046203048
:1012000041720772C572556395637F1CD563606830
:10121000B842F0D800200BE01C2242431219FF32E2
:10122000013255721072D57255619561401CD561BD
:1012300062688242F0D820684030018020684030E7
:101240000580206840308580206840300582BF20BE
:101250002268000240321080242005557172E06936
:10126000012802D12046FFF79DFF206A012802D104
:101270002046FFF787FF0020F8BD00000068054901
:10128000884205D10448816B0122D2051143816354
:1012900070470000005C004000100240F8B55E4955
:1012A000064601250020ED035A4B5B4A4031082ECB
:1012B0007AD00FDC012E68D0022E76D0042E1AD1FF
:1012C000CC680326B602344070D00127FF02BC422E
:1012D00072D087E0102E6BD0504C202E0CD0402EB8
:1012E00009D1C9683505294034D0A94203D1916894
:1012F000890700D54A48F8BD0B69096903263604F9
:10130000012731403F04B94203D1990549E02846FD
:10131000F8BD01256D04A94203D19907F8D54148CC
:10132000F8BDB142FCD111688903F9D511680320D9
:101330000005014001200005091A09D0091A05D04D
:10134000814201D13848F8BD2046F8BD3748F8BD84
:101350003748F8BD11688901FBD5D068D168800293
:10136000344D000F2D5C0802810FD068491CC0036A
:1013700006D41068C00601D5204602E0184600E0F9
:101380002D486843FEF7B4FEF8BDCC68A407A40F4F
:101390000FD0022C10D0012C13D0032CF4D10969EA
:1013A00089050029B3DBF8BD23E00DE017E003E079
:1013B0002CE000F0C9F9F6E711684907F3D51846A3
:1013C000F1E700F0D1F9EEE7CC680C26344006D006
:1013D000082CF1D0042CF4D00C2CE0D0E3E700F082
:1013E000A3F9E0E7012292029442EAD0B442D6D0B7
:1013F000D9E7C968032424032140F0D001256D03F7
:101400006C10A942D8D0A142DBD0CCE7916B490245
:10141000E5D4C8E70024F4000010024000093D00B4
:10142000006CDC028890000020A1070040420F0001
:1014300080841E00DD40000800127A00F8B50446E2
:101440000078594D800672D5574E0027403EB06B4C
:10145000C00004D4B06BA9050843B063012753480A
:101460000168C90511D40168821511430160FFF7B5
:1014700007FC009005E0FFF703FC0099401A642880
:1014800037D84A480068C005F5D5326803210905F8
:1014900060680A400140914208D08103890F032906
:1014A00004D13168890301D50120F8BD2A690321DF
:1014B00009040A4022D0084090421FD020788006BC
:1014C0001CD528692A6988430121C9040A432A6175
:1014D0002A698A432A612861C0050FD5FFF7D0FB2E
:1014E000009008E0FFF7CCFB0099411A3048814298
:1014F00001D90320F8BD28698005F3D56168880308
:10150000800F032805D132680005824301400A4359
:10151000326028690322616812041140084328617F
:10152000002F04D0B16B012000078143B163207804
:10153000C00705D0E868A168800880000843E8601B
:101540002078800705D5E8680C218843E1680843C6
:10155000E8602078400706D5E868032189028843BF
:1015600021690843E8602078000706D5E868032170
:101570000903884361690843E8602078400606D57E
:10158000E868012189068843E1690843E86020781A
:10159000000606D5E868032189048843A169084349
:1015A000E8600020F8BD00004010024000700040DC
:1015B00088130000F8B5054653480E460068C0077A
:1015C000C00FB0420AD2504801684908490031436F
:1015D00001600068C007C00FB0426FD128784B4C43
:1015E000800705D5E068F0218843A9680843E060DA
:1015F0002878C00752D06868022817D0032818D06E
:101600002168012818D08905002957DAE16889087E
:1016100089000143E160FFF733FB6968074602294F
:1016200012D003291CD0012926D033E02168890378
:10163000EAE721688901E7E74907E5E7FFF720FBCB
:10164000C11B3348814223D8E0680007800F02287D
:10165000F4D123E0FFF714FBC11B2D48814217D8BA
:10166000E0680007800F0328F4D117E0FFF708FBBC
:10167000C11B274881420BD8E0680007800F012872
:10168000F4D10BE0FFF7FCFAC11B2148814201D9DC
:101690000320F8BDE0680007800FF3D11A48016805
:1016A000C907C90FB1420BD9016849084900314344
:1016B00001600068C007C00FB04201D00120F8BD32
:1016C0002878400706D5E068072109028843E968C1
:1016D0000843E0602878000707D5E0680721C902C1
:1016E00088432969C9000843E06000F03DF8E168DB
:1016F000084A0906090F515CC840074908600020E4
:10170000FFF702FD0020F8BD00200240001002405B
:1017100088130000CD400008340000200148006814
:101720007047000034000020044805490068C9687B
:10173000044A4905490F515CC840704734000020F5
:1017400000100240E6400008044805490068C968E6
:10175000044A8904490F515CC84070473400002096
:1017600000100240E640000810B5184AD1680C206D
:10177000084004280BD0082810D00C2810D050683E
:101780000004410F0120C003491C884010BD1068AF
:10179000C00601D50E4810BD0E4810BD0E4810BD44
:1017A00088020E4B000F185C0902D368890F491C90
:1017B000DB0301D5084A05E01268D20601D5044AC8
:1017C00000E0044A5043FEF793FC10BD00100240B5
:1017D00000093D000024F40000127A00DD400008FA
:1017E000F8B504460078FE4DC0074AD0E868000707
:1017F000800F022807D0E8680007800F032809D16E
:10180000E868C00306D5286880033AD560680028D8
:1018100073D036E0012062680004824203D1296857
:101820000143296011E0052301211B0489049A4228
:101830002A6802D10A432A60F1E782432A602A68B3
:1018400002400092286888432860606800280CD015
:10185000FFF716FA064604E0FFF712FA801B642829
:101860007ED828688003F7D50BE0FFF709FA064613
:1018700004E0FFF705FA801B6428F1D8286880038C
:10188000F7D42078800741D5E8681F270007800F2C
:101890003F02012807D0E8680007800F032809D11C
:1018A000E868C00306D42868400717D5E068012817
:1018B00023D113E0E068002817D02968092291435A
:1018C00001432960FFF7DCF9064604E0FFF7D8F989
:1018D000801B0228C4D828684007F7D568682169AA
:1018E000B84309020843686010E0286840084000D7
:1018F0002860FFF7C5F9064605E095E0FFF7C0F957
:10190000801B0228ACD828684007F7D42078C0068E
:1019100072D5E868B34E0007800F0AD0E06900284E
:101920002868B1495AD008432860FFF7A9F907464B
:1019300044E02868800502D5E069002874D0606A18
:1019400069683140884212D901F0EAF80028AFD125
:101950006868616AB043084368606868000200E034
:10196000DCE0218C000A0906084368600FE0696822
:10197000B143014369606868218C0002000A0906CE
:1019800008436860606A01F0CBF8002890D1606A73
:10199000410B0120C003491C8840E96809060A0F71
:1019A0009249895CC840924908600020FFF7ACFB6F
:1019B00022E0FFF765F9C01B02288BD82868800554
:1019C000F7D56868616AB043084368606868218C2D
:1019D0000002000A0906084368600DE08843286099
:1019E000FFF74EF9064604E0FFF74AF9801B02288C
:1019F00088D828688005F7D420787E4E000723D544
:101A000060690028306910D0012108433061FFF778
:101A100037F9074604E0FFF733F9C01B02287DD8E9
:101A200030698007F7D50FE001E1400840003061E0
:101A3000FFF726F9074604E0FFF722F9C01B02284A
:101A40006CD830698007F7D42078400760D5A86B40
:101A50000027C00005D4A86B012109070843A8632B
:101A6000012765480168C90511D401688215114331
:101A70000160FFF705F9009005E0FFF701F9009913
:101A8000401A64284AD85C480068C005F5D5564815
:101A9000A268824203D131690143316111E0012121
:101AA0008902002A07D005231B029A4203D132691A
:101AB0000A433261EFE73269824332613069884319
:101AC0003061A06800280ED0FFF7DAF8009006E039
:101AD000FFF7D6F80099411A484881421ED830696C
:101AE0008005F5D50DE0FFF7CBF8009006E0FFF795
:101AF000C7F80099411A414881420FD830698005E2
:101B0000F5D4002F04D0A96B012000078143A963FD
:101B10002078800630D53A48421400E080E0A16980
:101B2000002916D0AB6801210B43AB606B6B0B43F4
:101B30006B63016A11430162FFF7A2F8064604E0F5
:101B4000FFF79EF8801B02286AD8A8688007F7D59F
:101B500012E0A96849084900A960016A914301623D
:101B6000FFF78EF8064604E0FFF78AF8801B02288C
:101B700056D8A8688007F7D4A06A002855D0E9682D
:101B80000907890F032952D0012636060228286842
:101B900005D0B0432860FFF773F8044642E0B04335
:101BA0002860FFF76DF8074604E0FFF769F8C01BEF
:101BB000022835D828688001F7D4216BE06AEA68EA
:101BC0000843616BFD231B049A4311430843E860FB
:101BD000286830432860FFF753F8044617E00000F8
:101BE0000010024000E0000000010000CD400008AD
:101BF00034000020401002400070004088130000B4
:101C000000000140FFF73CF8001B022808D82868B4
:101C10008001F7D509E0FFF733F8001B022801D94E
:101C20000320F8BD28688001F5D40020F8BD01200C
:101C3000F8BD70B5040006D025464035687C002606
:101C4000002802D005E0012070BD2E74204600F06F
:101C500033F80220687420680168402291430160D3
:101C6000A168606822690843E1681143084361691B
:101C700001220843A169520211400843E169084367
:101C8000216A0843A16A084321680860A069042109
:101C9000000C0840616A0843216848602168E06AD6
:101CA00008612068C16992009143C16166650120A5
:101CB0006874002070BD000000B500680B4985B055
:101CC000884211D10A48416B821411434163382084
:101CD00000900220002101900320029104910390C2
:101CE00069460448FEF70AFF05B000BD0030014018
:101CF0000010024000040050F8B504460027684672
:101D0000078026464036707C012802D0707C22284D
:101D10007ED100290CD0002A0AD0002B08D0307CBC
:101D2000012875D001203074707C012802D003E0B6
:101D30000120F8BD322070746765A263A387E38732
:101D40002163A386E386A764E7640125A06A6D0387
:101D5000A84207D120680168A94301602068016892
:101D60002943016020680168490603D401684022C4
:101D7000114301600121FF20E268C90205308A4257
:101D8000616866D1002904D081420CD1E08E01281F
:101D900009D1206B21680088C860206B801C2063FB
:101DA000E08E401EE086E08E002843D1A06AA84263
:101DB00046D12068016801221203114301603FE00F
:101DC0002068C068A16B0880A06B801CA063B0E095
:101DD000002202212046069B00F0DAFE00287DD179
:101DE000206B21680088C860206B801C2063E08E17
:101DF000401EE086E08E002808D1A06AA84205D1E6
:101E0000206801680122120311430160002200E0F2
:101E1000CCE001212046069B00F0BAFE00287FD1CD
:101E20002068C068A16B0880A06B801CA063E08F55
:101E3000401EE087E08E0028CAD1606800287BD170
:101E4000002201212046069B00F0A2FE002867D157
:101E5000B6E7002904D081420BD1E08E012808D1D9
:101E6000206B411C216321680078C860E08E401E11
:101E7000E086E08E002845D1A06AA84205D12068FE
:101E80000168012212031143016000220121204652
:101E9000069B00F07DFE002842D12068C068A16B3F
:101EA000087046E0002202212046069B00F070FEEA
:101EB000002835D1206B411C216321680078C8605F
:101EC000E08E401EE086E08E00280AD1A06AA8427B
:101ED00007D1206802680121090300E020E00A43DD
:101EE0000260002201212046069B00F051FE0028DE
:101EF00016D12068C268A06B411CA1630270E08FFC
:101F0000401EE087E08E0028CCD16068002813D105
:101F1000002201212046069B00F03AFE002802D054
:101F20000320F8BD08E02068C168A06B421CA263D2
:101F30000170E08F401EE087A06AA8420FD1002206
:101F400001212046069B00F023FE002802D0606D90
:101F500002210EE02068C0686946088008880122D6
:101F600080212046069B00F013FE002804D0606DFF
:101F7000202108436065D3E701207074A06AA8425D
:101F800011D120688168C943C9060CD4616D022251
:101F9000114361650168A943016020680168294314
:101FA00001603774C4E637740020BAE70220B8E74E
:101FB000042204490428086902D09043086170474C
:101FC0001043FBE700E000E070470000094910B54E
:101FD000401E884201D9012010BD074C60610321D9
:101FE000081F00F079FD0020A0610720206100207B
:101FF00010BD0000FFFFFF0000E000E010B5FFF79C
:10200000E3FF10BD70B502462032137D012B1BD0BB
:102010000123137502245475046865687026B5435E
:102020006560046865680E68354365600468A56886
:102030008026B543A5600068846849680C438460C5
:1020400053750020107570BD022070BD70B504007E
:1020500005D025462035687D002802D006E0012005
:1020600070BD00202875204600F00AF8022068752F
:10207000211D206800F066FE01206875002070BDFB
:1020800010B50122016892070B48914204D1816B7F
:1020900001221143816310BD084A9142FBD1816B3B
:1020A000102211438163002211461120FFF766F8C8
:1020B0001120FFF759F810BD001002400010004039
:1020C0000222014620314A75026813680120034349
:1020D00013604875002070470268D36801210B43E4
:1020E000D360006802680A43026000207047F8B5B8
:1020F000054604462035287D012817D001272F7575
:1021000002206875226890687726FF23B0431B027F
:10211000984390600868502837D00EDC202857D0AC
:1021200006DC00284ED0102840D14EE00220F8BD39
:10213000302850D0402839D13CE060282DD070287C
:1021400017D001221203801A0ED090422ED1CB68F4
:102150004A688968206800F028FE206881680122AA
:1021600092031143816021E020688168C908C90099
:10217000F8E7CB684A688968206800F016FE216895
:102180008868B0433043886010E0CA6849682068B6
:1021900000F085FE5021206806E0CA684968206882
:1021A00000F08EFE6021206800F00AFE6F750020AE
:1021B0002875F8BDCA684968206800F070FE4021A3
:1021C0002068F1E700212068EEE710212068EBE7A6
:1021D00020212068E8E730212068E5E7704770B5E6
:1021E0000446006801690025C9438907002915DBF9
:1021F000C168C943890711D4E91E01610120207516
:10220000206880698007204602D0FFF7E7FF04E0DE
:1022100000F08EF8204600F00FF92575206801695E
:10222000C943490717D4C168C943490713D40421D6
:10223000C943016102202075206880698005800FF4
:10224000204602D0FFF7CAFF04E000F071F82046F4
:1022500000F0F2F8257520680169C943090716D412
:10226000C168C943090712D40821C9430161042088
:1022700020752068C0698007204602D0FFF7AEFFB6
:1022800004E000F055F8204600F0D6F825752068E7
:102290000169C943C90617D4C168C943C90613D423
:1022A0001021C9430161082020752068C06980059C
:1022B000800F204602D0FFF791FF04E000F038F8CD
:1022C000204600F0B9F8257520680169C943C9079F
:1022D00008D1C168C943C90704D1891E01612046DC
:1022E00000F0B8F820680169C943490609D4C168FB
:1022F000C943490605D44021C9430161204600F085
:10230000B3F870BD00B500680121890785B0884227
:102310000CD108200090002002210290039001912E
:102320000491052069460007FEF7E8FB05B000BDF3
:102330007047F8B5064604462036307D0D46012824
:102340000DD001203075022070750427002A08D0B6
:10235000042A16D0082A2AD00C2A4DD137E00220B0
:10236000F8BD206800F034FD20688169082211431F
:10237000816120688169B943816120688169EA6867
:1023800012E0206800F03CFD206882690121C9024A
:102390000A4382612068816901229202914381612E
:1023A00020688169EA6812021143816124E0206893
:1023B00000F03FFD2068C26908210A43C26120681D
:1023C000C169B943C1612068C169EA6812E0206847
:1023D00000F04AFD2068C1690122D2021143C161A7
:1023E0002068C269012189028A43C2612068C169EB
:1023F000EA6812021143C161012070750020307536
:10240000F8BD70B5040005D025462035687D00284C
:1024100002D006E0012070BD00202875204600F0A3
:102420000AF802206875211D206800F08BFC01204D
:102430006875002070BD7047704710B5044600688D
:10244000012200F0A7FC206801680122114301600D
:10245000002010BD10B500680249884201D101F08A
:10246000DBF910BD00100040704770B5040005D0C6
:1024700025466035687A002802D006E0012070BD4C
:1024800000202872204600F027F824206872206877
:102490000168490849000160606A002802D02046AE
:1024A00000F021FD204600F0B3FD0128E7D02068B0
:1024B00041680922D20291434160206881682A2242
:1024C0009143816020680168012211430160204628
:1024D00000F06EFD70BD000000B500680D4985B0CC
:1024E000884215D10C48416B01229203114341638C
:1024F000032040020090022001900020029003205F
:10250000039004200490052069460007FEF7F6FAC0
:1025100005B000BD0038014000100240FFB506467E
:1025200004466036707A83B00D46202858D1002DBD
:102530000CD00598002809D00120A1680003814231
:1025400007D12069002804D1E80702D0012007B094
:10255000F0BD307A012843D0012030720020E066BF
:1025600021207072FEF78CFB0190274640370598BA
:1025700038820598788218E0788A401E788206981A
:102580000090002280212046019B00F04FFE002891
:1025900018D10120A1680003814202D120690028DE
:1025A00012D02168287888626D1C788A0028E3D1CF
:1025B00006980090002240212046019B00F036FE44
:1025C000002808D00320C2E728882168C005C00D74
:1025D0008862AD1CE9E72020707200203072B6E7F7
:1025E0000220B4E7FEE701688A69D243920701D46A
:1025F00000228A6200688169C943C90703D08169E2
:102600000122114381617047F7B5044600680E4608
:102610008069C043C0062CD4202725464035206859
:102620008069C04380060FD5701CF8D0002E05D0FD
:10263000FEF726FB0299401AB042F0D96F700020D5
:10264000A87028700320FEBD21681020C861206892
:10265000C7612046FFF7C7FF20684168064A11405E
:102660004160042060646F700020A8702870012011
:10267000FEBD0020FEBD000000E800FEF8B50446E7
:10268000164618481D46DAB20090079F00232046E0
:1026900000F060F83A462046069900F0BAF80028A3
:1026A00003D0606C04281BD018E02846F5B201283E
:1026B00009D02168300A88623A462046069900F01F
:1026C000A8F80028EDD120688562009700224021FB
:1026D0002046069B00F052F8002800D00320F8BDE9
:1026E0000120F8BD00200080F8B5044616461848C1
:1026F0001D46DAB2C3020090079F204600F02AF878
:102700003A462046069900F084F8002803D0606C11
:1027100004281BD018E02846F5B2012809D021680A
:10272000300A88623A462046069900F072F800287E
:10273000EDD1206885620097002280212046069B0B
:1027400000F01CF8002800D00320F8BD0120F8BDDF
:1027500000200080F0B50668059C7568064F600D86
:10276000384385438805800D1104084318432043EE
:1027700005437560F0BD0000FF63FF03F8B51C461C
:1027800017460E46054611E0601C0FD0002C05D000
:10279000FEF776FA0699401AA04207D92020403564
:1027A00068700020A87028700320F8BD286881692F
:1027B0003046884304D00020B842E5D00020F8BD60
:1027C0000120F9E770B516460D4604461AE0324678
:1027D00029462046FFF718FF002801D0012070BDD0
:1027E000002D04D0FEF74CFA801BA8420AD9616C78
:1027F000202001436164403460700020A07020708C
:10280000032070BD20688069C0438006DFD40020AB
:1028100070BD70B516460D4604461CE0324629468A
:102820002046FFF7F1FE002801D0012070BD681C92
:1028300011D0002D04D0FEF723FA801BA8420AD93C
:10284000616C202001436164403460700020A070FE
:102850002070032070BD20688069C0438007DDD4EC
:10286000002070BD1CB51C481A4901600122920766
:10287000426000210164102282600622C263C160AE
:102880000162012241620261FF22C162C2328262A0
:10289000016341638161042281634261C161FDF78B
:1028A00075FF002800D0FEE70C48009001200003CF
:1028B000019069460848FDF71BFF002800D0FEE79D
:1028C0000748009069460448FDF712FF002800D031
:1028D000FEE71CBD00240140680000200002002427
:1028E00000000244F0B5244887B0C26A04210A43BC
:1028F000C262C26A0A400592C16A01252943C162C7
:10290000C16A29400591C26A02210A43C262C06AB3
:102910001A4F08408E030590002231463846FEF7D4
:10292000A9F9012240211648FEF7A4F9A8030024C2
:1029300000900194694602943846FEF7DFF802944D
:1029400069463846009601950394FEF7D7F8701C47
:10295000009005200194694602940007FEF7CEF826
:102960004020009002946946019503940448FEF7C4
:10297000C5F807B0F0BD000000100240000800508C
:102980000004005010B5124810490160114941601F
:10299000002181600161416181610122C161C260E8
:1029A0000162FEF7BDF9002800D0FEE700210848CB
:1029B000FEF76CF9002800D0FEE700210448FEF77E
:1029C0008AF9002800D0FEE710BD00000054004046
:1029D000C80000205B3D300010B50E480C49016076
:1029E000FF210531416000218160C1600122016148
:1029F000520282614161016210224162C2618162C0
:102A00000721C162FFF715F9002800D0FEE710BDCD
:102A1000003001401401002010B501211D488AB08A
:102A20008907016000241C4984604160FF21046122
:102A3000C160FFF70BFB002800D0FEE70120000378
:102A4000049004A91348FFF752FB002800D0FEE7CA
:102A50001048FFF7D6FC002800D0FEE7089408A92C
:102A60000C480994FFF7CEFA002800D0FEE760205A
:102A70000090019402940C22694603940548FFF7E4
:102A800058FC002800D0FEE70248FFF73BFC0AB0E4
:102A900010BD00006C0100201F03000010B50C48A1
:102AA0000A490160E1214902416000218160C16061
:102AB00001618161C1610C22016242614162FFF7E3
:102AC000D4FC002800D0FEE710BD00000038014013
:102AD000DC010020704700008307FF22DB0E9A40D4
:102AE0008907090E994000280BDA0007000F083803
:102AF000830808489B001818C36993430B43C361BC
:102B00007047830804489B001B18186890430843CB
:102B10001860704700ED00E000E400E0704700003E
:102B200070B517490023CA681206120F18D18A6BB4
:102B3000154CD500134A02D51268224009E08E6B6D
:102B400001252D072E438E6312688E6B2240AE4303
:102B50008E63A24204D103218903884200D101235C
:102B60000A48016849084900194301600068C00724
:102B7000C00F984201D0012070BD002070BD000040
:102B800000100240007000400018000000200240C9
:102B9000F8B51D4616460F460446FEF771F8314655
:102BA00026464036009000291ED043E0681C1BD00A
:102BB000002D05D0FEF764F80099401AA84213D9F9
:102BC00020684168E022914341602068026840210A
:102BD0008A43026023E021680A6882430A60216810
:102BE0000A6802430A601FE020688168384688430B
:102BF000DCD124E0681C1DD0002D06D0FEF740F883
:102C000001460098081AA84214D920684268E021B9
:102C10008A4342602068016840229143016001209C
:102C2000A16A40038142D6D0012070740020307424
:102C30000320F8BD2068816838468843DAD0002038
:102C4000F8BD704710B5FEF747FAFFF7D7F910BD8A
:102C500030B522489BB001680322D2029143C214CE
:102C60008918016022200090012510200024049082
:102C7000039506950A946846FEF7B2FD002800D039
:102C8000FEE70F20169018941994002117951A94B6
:102C900016A8FEF78FFC002800D0FEE749200E9012
:102CA0000220109000031390400315900EA8FEF729
:102CB000C5FB002800D0FEE7FEF730FD7D21C900EE
:102CC000FDF716FAFFF782F90420FFF771F90022E9
:102CD0001146501EFEF752FA1BB030BD0070004086
:102CE00010480168821511430160C1680E4A114005
:102CF000C16001680D4A11400160816849084900BE
:102D0000816001680122920491430160C168FD2243
:102D100012049143C160002101610549C00388602C
:102D200070470000001002400C40FF88F6FFF6FEDE
:102D300000ED00E010B50248FFF751FA10BD0000A9
:102D4000A401002070B5026801239B070F4C104DB1
:102D5000984203D0A04201D0A84203D17026B243CA
:102D60004E683243984203D0A04201D0A84204D119
:102D700003231B029A43CB681A4302608A68C2622B
:102D8000096881620121416170BD000000080140B5
:102D90000014014010B50123046A8B409C43046277
:102DA000036A8A401343036210BD30B58468FF256F
:102DB0002D021B021343AC430B432343836030BDFE
:102DC000826870239A430A4307210A43826070474E
:102DD00030B5026A520852000262026A456883698D
:102DE0007024A3439C080B68A40023430224A2433D
:102DF0008C6845601443836149684163046230BD57
:102E000030B5026A10239A430262036A45688269F8
:102E100073242402A2430C68240214432022934307
:102E20008A68456012011A438461496881630262BD
:102E300030BD30B5026AFF2301339A430262026A51
:102E40004568C3697024A3439C080B68A40023430E
:102E500001246402A2438C68456024021443C361C8
:102E60004968C163046230BD30B5026A01231B03A7
:102E70009A430262036A4568C26973242402A2432A
:102E80000C68240214430122520393438A6845606C
:102E900012031A43C46149680164026230BD30B54F
:102EA000036A046A6408640004628469F025AC4320
:102EB000120122430A24A3430B438261036230BD03
:102EC00030B5036A1024A34303628469036A0F25A3
:102ED0002D031203AC432243A024A3430901194349
:102EE0008261016230BD10B5818CC90707D00168CD
:102EF0004A6801235B049A43836A1A434A60818CBF
:102F0000890707D501684A6801231B049A43C36AED
:102F10001A434A60818C490707D501684A68012332
:102F20009B049A43036B1A434A60818C090707D5B7
:102F300001684A680123DB039A43436B1A434A60E2
:102F4000818CC90607D50268916801231B03994348
:102F5000836B19439160818C890607D501688A6863
:102F600001235B039A43C36B1A438A60818C490631
:102F700012D503685A6801210905046C8A4322436B
:102F80005A60026C8A4207D10268516803235B05CC
:102F90009943436C19435160818C090607D5016838
:102FA0004A680123DB04806C9A4302434A6010BDE7
:102FB000F8B500260446C666FDF762FE05462068A1
:102FC0000068124F000709D501212B460022490550
:102FD0002046009700F02AF900280DD120680068EB
:102FE00040070BD501212B4600228905204600977A
:102FF00000F01CF9002801D00320F8BD2020603427
:103000006072A07226720020F8BD0000FFFFFF0171
:10301000FEB50446016880682269E369104362696D
:10302000102700261A4310430A683546754B1A408C
:1030300002430A6020684168032212039143E26858
:1030400011434160704A2168A069914201D0226A0F
:1030500010438A680B231B029A4302438A606B4A1F
:1030600021686B4891420CD1C0688007800F06D060
:1030700001283DD0022839D0032820D11EE00127A5
:103080001DE0644A91420AD1C0680C2108402BD04F
:1030900004282DD0082829D00C2810D10EE05A4A37
:1030A00091420CD1C1680320800201401CD0101550
:1030B000091A1DD0091A19D0814200D1082702200F
:1030C000FEF7ECF80190504B514922684039D81373
:1030D00000929A4235D1002F0CD0022F0DD0042F30
:1030E00012D0082F1CD113E00027E8E70227E6E7FB
:1030F0000427E4E7FEF718FB08E00868C00601D5DE
:10310000454805E0454803E0FEF72EFB002873D054
:10311000626851005118814202D81103814201D2E4
:10312000012569E0010E06025008002330185941BC
:10313000FCF7F4FF03210902394A411A914259D997
:10314000EEE7E26982422DD13B0000F0C2F90906A8
:10315000080B24192424241F2400019812E0FEF7F0
:10316000F3FA0FE008686168C00602D548082D4AE6
:1031700001E02D4A48088018FCF7BAFF86B20BE040
:10318000FEF7F2FA616840004A08F4E7616801223C
:1031900048081204EFE70125310909013007400F03
:1031A000084327E03B0000F094F909070A0D061DCB
:1031B000060606290600B3E7FEF7B6FA14E0FEF7A6
:1031C000C3FA11E008686168C00602D54A081248CF
:1031D00001E012484A081018FCF78AFF81B20098F3
:1031E000C16009E0FEF7C0FA61684A088018FCF780
:1031F0007FFF80B22168C8602846FEBD61684A082A
:10320000E9E70000F369FFEF0048004000380140A3
:10321000401002400044004000093D000024F4003A
:10322000FFFC0F0000127A000048E801FFB581B0F2
:1032300017460E4604460A9D1DE0681C1BD0002D53
:1032400005D0FDF71DFD0499401AA84213D9206846
:103250000168FF22A132914301602068816849081A
:1032600049008160202060346072A07200202072CA
:10327000032005B0F0BD2068C1693046884304D002
:103280000020B842D9D00020F3E70120F9E7000080
:1032900070B5FF20103000F047FD4F49884201D043
:1032A000002070BD0021084600F0C4FE0120FDF79B
:1032B0001AFC0121002000F0BDFE0120FDF713FCE7
:1032C00000F06EFE0125454C05E000F0D7FA00281D
:1032D00001D0A570E4E7E52000F010FDC007C00FA5
:1032E000A179401E0843F0D12E2000F007FD2843AD
:1032F00001462E2000F09EFE062000F015FDA08164
:10330000DE2000F011FDE08105214902242000F0BB
:10331000A7FE0221312000F08DFE0821362000F0AA
:1033200089FE1021372000F085FE0121392000F0B0
:1033300081FEFF213E2000F07DFE00213F2000F0B5
:1033400079FE0221402000F075FE0021502000F09F
:1033500087FE0021522000F083FE3821572000F024
:1033600069FEFF216931642000F07AFEC0216620E9
:1033700000F076FE0121712000F05CFE01217C202E
:1033800000F058FE02217E2000F054FE0021822031
:1033900000F050FE0121772000F04CFE8B218120AF
:1033A00000F048FE1921C902542000F059FE022104
:1033B0004F2000F03FFE022000F002FD084800F020
:1033C00065FD222000F0B0FC8004010C1E2000F0FE
:1033D00047FE012070BD0000CCEA00000000002084
:1033E0003582000070B50125114C00280DD000F089
:1033F000D7FD06E000F042FA002802D0A5700020B8
:1034000070BD00F057FA0028F4D000F0A7FCE07877
:10341000002802D100F08CFDE57000F0E7FD00F01F
:103420008DFA0121862000F005FE0248008870BD5B
:10343000000000204800002010B50121862000F087
:10344000F9FD1021872000F0F5FD0120FFF7CAFFEC
:1034500010BD00000FB410B503A9044B044A029834
:1034600000F054F810BC08BC04B01847E538000858
:10347000380000202021020C01D010211046020A41
:1034800001D010460839020901D01046091F8208F0
:1034900001D01046891E420801D0881E7047081AC4
:1034A0007047F8B5040C8BB2264682B25E430D0C11
:1034B0001046370C584336048019002179411646CE
:1034C0006E43370C36048019794126466E438919BC
:1034D000F8BD30B47446641E2578641CAB4200D23B
:1034E0001D46635D5B00E31830BC184702E008C866
:1034F000121F08C1002AFAD170477047002001E06E
:1035000001C1121F002AFBD170470000FFB58FB028
:103510000F460446002606E025280AD0129A119983
:103520009047641C761C20780028F5D1304613B0F3
:10353000F0BD00250121A14A009500E00543641C6F
:1035400023780846203B98401042F7D120782E2857
:1035500015D1042005436078641C2A280AD101CFC4
:10356000641C00900BE000990A2251433039401846
:10357000641C00902078014630390929F3D920785D
:103580006C280ED004DC4C2813D06A2812D104E039
:1035900074280ED07A280DD10BE001204005054398
:1035A00007E00121090562780D43824201D16D18BF
:1035B000641C641C2078864669284AD008DC0028F0
:1035C000B4D058286DD0632810D0642808D140E0CA
:1035D00070286BD0732812D0752860D0782860D0FE
:1035E000129A704611999047761CE5E03878694642
:1035F00008720020487202A80190012003E0386898
:1036000001900020C0433F1D69070CD5002500E054
:103610006D1C00998D420FDA8542F9DB0199495DF5
:103620000029F5D108E0002500E06D1C8542FCDB97
:103630000199495D0029F8D1761907E001980199AF
:103640000078491C0191129A119990476D1EF5D28C
:10365000B2E00A20029000216802400F0391022884
:103660000CD001CFC117844600290DDA6246084606
:1036700052420021814194462D2008E0FF1DFF08A1
:10368000FF0003CF8446EFE7280504D52B206A46C8
:10369000107401203CE0E8073AD02020F7E70A2028
:1036A00000E0102000210391029007E0102002901A
:1036B0000021042005430820039100906802400F78
:1036C000022810D001CF0021844600200D90280749
:1036D0001FD5704670280CD0029A1020039B4240E0
:1036E0001A430CD015E0FF1DFF08FF0003CF8446EE
:1036F000EBE740206A46107401200D900CE0604614
:10370000084306D030206A46107470465074022078
:103710000D907046582804D029A001900DA80E9055
:103720000DE02CA0F9E76046039B029AFCF7F6FC3B
:10373000019B84469B5C0E9A521E0E92137060464B
:103740000843F0D10E9805A9081A203001906807A7
:1037500001D5009801E0012000900199884203DD25
:1037600001460198081A00E000200025009006E0BC
:1037700004A8129A405D119990476D1C761C0D9813
:103780008542F5DB04E0129A302011999047761CAF
:103790000099481E00900029F5DC08E00E980E996B
:1037A0000078491C0E91129A11999047761C019944
:1037B000481E01900029F1DC641CB4E609280100D0
:1037C0003031323334353637383961626364656697
:1037D0000000000030313233343536373839414259
:1037E000434445460000000010B50A4C606008469E
:1037F000A160FEF765FCA068FEF703FE0C21A0683F
:10380000FEF71BFE6068FEF767FC0020E06020709A
:1038100010BD00001400002010B50C490B4AC86808
:10382000401CC86009789468022909D0032906D190
:103830000A21FCF75DFC0648405C2168086410BD65
:103840003321FCF755FC02483338F5E7140000201B
:10385000C340000810B5044607488189012080074D
:10386000FCF746FC092261001202891C5043C9B2D0
:1038700080094843800910BD0000002010B5084CA5
:103880002089002809D0FDF7FBF96189401A2189B8
:1038900080B2884201D9012010BD002010BD000077
:1038A0000000002010B5FCF77DFD0621C943FCF7A0
:1038B00077FC10BD10B5312000F020FAC007C0170A
:1038C000401C10BD002100280AD0401E02E0400824
:1038D000491C89B2020AFAD10902C0B2014388B276
:1038E0007047000013B50A23012269460248FEF71B
:1038F00015FE00981CBD0000DC01002010B5602002
:1039000000F0FCF9FFF7A6FF04465E2000F00CFA79
:10391000C2B2000A82402146501CFFF7C2FD0123BB
:10392000DB020022C01851410905000B084302497F
:103930004000401810BD0000B011000070B51F4DD0
:103940001F49E8882C46484301214001C90340181B
:10395000000C0C34208028780300FFF7BAFD132DEB
:103960000B0B0B131115171B1D2D2D190D2D2D2DA7
:103970000B0F2D00052013E00D2011E00A200FE0B1
:1039800004200DE002200BE0012009E0072007E001
:10399000092005E0032003E0687800280AD0002011
:1039A000A0702889FFF77EFF6060A888FFF77AFF84
:1039B000A06070BD0620F3E7FF20F1E73C00002087
:1039C000DB07000070B51748FDF740F86421154883
:1039D000FCF7DCFF1348FCF7D5FEC4B264211148A4
:1039E000FCF7D4FF0F48FCF7CDFEC6B20D48FDF73B
:1039F0005BF82046FCF7DEFC05460C463046FCF73B
:103A0000D9FC02460B4600200749FCF73DFC2A463C
:103A10002346FCF7D1FB0122FCF7AEFCFCF7D8FCF7
:103A200070BD000068000020002093401CB5FDF729
:103A30005BFBFFF70DF9FEF755FFFEF713FFFEF7EF
:103A4000A1FFFEF7C9FFFFF729F8364834490160A6
:103A500008214160022100248160C4608461C46146
:103A600004620161FDF7B0FB002800D0FEE7FEF71D
:103A7000D3FF2C482C49A83801600F218460416095
:103A80002A49C160FEF7E2FA002800D0FEE7254887
:103A900000946946A8380194FEF7B4FA002800D0D3
:103AA000FEE723A0FFF7D6FCFFF7F2FB022000F0B1
:103AB00087F9234800F0EAF900F0C2F806217320E4
:103AC00000F062F81F4800F0F7F81E48401F00F0B1
:103AD000D8F801210022C9031B48FDF7CBF80122C9
:103AE00040211A48FDF7C6F80E49E039084638303B
:103AF000FFF77AFE022000F05BFAFF24F534FFF7AF
:103B00009BFC014612A0FFF7A5FCFFF75BFF0146F7
:103B100012A0FFF79FFC2046FCF7E5FFEFE700004F
:103B2000005C00404C020020001000401A410000E0
:103B3000646179547269707065722056320A0000AF
:103B400050C300002900002000080050000400506D
:103B5000646973743A2025640A0000006164633A62
:103B60002025640A0A000000012110B5C903054B95
:103B7000002801D0012200E000221846FDF77AF863
:103B800010BD00000008005010B51C4C217001460B
:103B9000052000F035F80021112000F031F82178DF
:103BA000122000F02DF80021132000F029F8002148
:103BB000142000F025F80021152000F021F8002144
:103BC000162000F01DF82721062000F019F8082122
:103BD000002000F015F80321012000F011F8032166
:103BE000022000F00DF87F21042000F009F80021E8
:103BF0001C2000F005F800F02BF810BD100000208C
:103C000070B504460D46002000F00CF8E006C00E2A
:103C1000203000F0B3F9284600F0B0F9012000F0A0
:103C200001F870BD10B5054B002801D0012200E05D
:103C3000002240211846FDF71DF810BD0004005079
:103C400010B50020FFF790FF0120FFF7EBFF10BD3C
:103C500010B50020FFF7E6FFE22000F08FF9012009
:103C6000FFF7E0FF70210720FFF7CAFF0020FFF7F2
:103C70007BFF0B210020FFF7C3FF0120FFF774FF3C
:103C800010BD10B504460020FFF76EFF0522214647
:103C90000B2000F01EF80120FFF766FF10BD70B585
:103CA0000D460646002404E0305D00F067F9641C10
:103CB000E4B2AC42F8D370BD10B50446014605220B
:103CC0000A2000F006F805222146102000F001F835
:103CD00010BD70B5044615460E460020FFF7A2FF42
:103CE000E006C00E203000F049F929463046FFF7C3
:103CF000D6FF0120FFF796FF70BD00001FB511230E
:103D0000012203A96C460EC4054C02460223217809
:103D10000448FDF75FF8A0716846007B04B010BD51
:103D200000000020C80000201FB51123022203A9B3
:103D30006C460EC41346074C024621780648FDF730
:103D400049F8A0716846007B01026846407B04B0D8
:103D5000084310BD00000020C80000203EB511211E
:103D60001448FCF712FA112001900290114C1248ED
:103D700000940178022389221048FDF72BF8204691
:103D8000217818380170A1784170E1782279090210
:103D900011434180E179227A090211438180617BDC
:103DA000A27B09021143C180E17B227C09021143FD
:103DB00001813EBD5400002000000020C80000200A
:103DC00070B50446FFF79AFD0546002C05D0012C7E
:103DD0001DD0022C3ED0002070BD0721602000F0D5
:103DE00029F90521632000F025F93821692000F028
:103DF00021F90721782000F01DF90521792000F034
:103E000019F906217A2000F015F9062118E00B2196
:103E1000602000F00FF90921632000F00BF97821F0
:103E2000692000F007F90B21782000F003F909213F
:103E3000792000F0FFF80A217A2000F0FBF80A212F
:103E40007B2000F0F7F8284600F020F80E48447078
:103E5000012070BD0F21602000F0ECF80D216320DF
:103E600000F0E8F8B821692000F0E4F80F2178208C
:103E700000F0E0F80D21792000F0DCF80E217A2026
:103E800000F0D8F80E21DBE70000002070B52649CD
:103E9000884204D9494240182449884201D9002067
:103EA00070BD45086020FFF729FFFFF7D3FC0446EB
:103EB00001467D20C00000F091F8FF2800D9FF20C6
:103EC000C1B24B2000F0B6F82146012000F086F880
:103ED000FFF7F8FC01465A2000F0C2F821462846B8
:103EE00000F07CF8FFF7EEFC01465E2000F0B8F829
:103EF0006320FFF703FFFFF7ADFC044601460120F6
:103F000000F06CF8FFF7DEFC01465C2000F0A8F83A
:103F10002146284600F062F8FFF7D4FC01466120F4
:103F200000F09EF8012070BDB0110000E0C8100044
:103F300010B50B20FFF7E2FE0F4C20710820FFF7B1
:103F4000DDFE607120794106490E0B2000F072F809
:103F500060798107890F08200C3100F06BF801218E
:103F60004D2000F067F8D820FFF7C8FE0146472033
:103F700000F060F810BD00000000002001B582B024
:103F80000021684601710A200090012301AA02A9BC
:103F90000248FDF7B1FE684600790EBD140100200D
:103FA00010B5FCF76DFE0149488110BD00000020EE
:103FB000FF280DD00849012208708968012808D01F
:103FC000002805D10B6818640868416911434161F4
:103FD0007047FF20F6E700001400002010B5000332
:103FE0004A088018FCF784F810BD000070B50F482F
:103FF0004188002917D0028980880D4D1418AC42E1
:1040000000D92C462004FCF773F801000BD00520E2
:104010004006FCF76DF8A84200D9284681B254202A
:1040200000F01EF870BD0121C903F8E73C00002034
:10403000FFFF000013B584B01123012205A96C46CF
:104040000EC4054C0246022321780448FCF770FF99
:10405000A07106B010BD000000000020C8000020C4
:104060001FB50B0A6A46137351731123022203A969
:104070006C460EC41346044C024621780348FCF7F4
:1040800057FFA0711FBD000000000020C8000020E5
:1040900000000000010306090D1219202934404ECA
:1040A0005E6F8194A8BBCEDEECF6FCFDFAF3E7D997
:1040B000C8B5A18E7B6958493C30261E16100C08E5
:1040C000050201FFFFFFFFFF0000000000000000ED
:1040D00000000000000102030406070809030406AB
:1040E000080C10182030000000000102030400003A
:1040F00010410008000000203C000000EC340008E3
:104100004C4100083C00002044080000FC3400083A
:10411000520300000000000000000000000000004A
:10412000000000000000000000000000000000008F
:1041300000000000BEADA5BABEDABBEDC00C0000A9
:0C4140000000000080841E000000000051
:04000005080000C12E
:00000001FF
