:020000040800F2
:1000000080080020D5000008452600080D210008C2
:1000100000000000000000000000000000000000E0
:10002000000000000000000000000000B3270008EE
:1000300000000000000000008D260008B527000821
:10004000E7000008E7000008E7000008E7000008F4
:10005000E7000008D5020008E7000008E7000008F4
:10006000E7000008E7000008E7000008E7000008D4
:10007000E7000008E700000800000000E7000008B3
:1000800000000000A528000800000000000000009B
:10009000E700000800000000E7000008E700000893
:1000A000E7000008E7000008E7000008E700000894
:1000B000E7000008E700000800000000E700000873
:1000C0000348854600F0E2F800480047E93400089C
:1000D000800800200448804704480047FEE7FEE708
:1000E000FEE7FEE7FEE7FEE751280008C100000832
:1000F00030B50B46014600202022012409E00D46C0
:10010000D5409D4205D31D469540491B2546954047
:1001100040191546521E002DF1DC30BDF0B51FB45C
:100120000646002082B005464024019100901BE065
:10013000019922460F46304600F055F8049A059B77
:10014000801A994110D310461946224600F03BF818
:10015000361A8F410197224601200021009F00F0AE
:1001600032F838184D4100902046641E0028DFDC2C
:10017000019B00982946324607B0F0BDD2B201E09B
:100180000270401C491EFBD270470022F6E710B5F2
:1001900013460A4604461946FFF7F0FF204610BDF5
:1001A000420005D04200120E52428A4201DB00207A
:1001B0007047C9050818704710B5002296231146EC
:1001C00000F02AF810BD10B5202A04DB0146203AC1
:1001D0009140002010BD914020239C1A0346E3402B
:1001E0001943904010BD10B5202A04DB0846203A80
:1001F000D040002110BD0B46D340D0402024A21A8D
:1002000091400843194610BD002904DA401C4900FA
:1002100001D140084000704770B40024050C05D19E
:100220001024000402D1002921D01124050E01D18F
:1002300000020834050F01D10001241D850F01D1F2
:100240008000A41C002801DB4000641C002908D0A9
:1002500020252E1B0D46F540A14000D00121294349
:10026000084301061B1B000ADB1D02D5002070BCE1
:100270007047DB05181880180029F8DA401C49007F
:10028000F5D170BC4008400070470000064C0125C5
:10029000064E05E0E36807CC2B430C3C984710342E
:1002A000B442F7D3FFF710FF2C3C00084C3C000889
:1002B00038B50446064805490068FFF719FF604352
:1002C00000E0401E00900028FBD138BD40420F00E6
:1002D0003400002010B5012000F07AF910BD0000B4
:1002E000F8B506460D464036317D01290DD0012175
:1002F000317501688A68520709D5816D2022114342
:100300008165002030750120F8BD0220F8BD174B33
:100310006A68D80547109A42154C8A6A2B6812D031
:100320005B035B0B1A438A622968490305D5A16800
:100330000143A1600A20FFF7BBFF2868800312D5A4
:10034000A06838430EE05B035B0B9A438A6229681E
:10035000490302D5A1688143A1602868800302D5C2
:10036000A068B843A06000203075F8BD01100000FF
:100370000027014070B5040006D0A06D2646002578
:100380004036002802D006E0012070BDE5653575D5
:10039000204600F0D1F8A06DC00603D4216888681B
:1003A000400705D5A06D10210843A0653575EBE722
:1003B000A06DFF220132904302221043A06588689D
:1003C0008207920F5A48012A02D10A68D2072BD11C
:1003D000032362689B079A4205D05B429A4202D08F
:1003E0005B009A4209D10A69920092080A61216869
:1003F0000A6963681A430A610CE00A69920092086C
:100400000A6181680F229204914381608168626869
:10041000114381602168CA6818239A43CA60216821
:10042000CA68A3681A43CA608168012252069143D0
:1004300081608168228F5206114381602068816843
:10044000C90004D481680122120711438160206829
:10045000C168384A1140C1602169E068022923D08F
:1004600000210843216A226B4903520011430843CB
:10047000616B0843A16989030843E169C903084323
:100480002168CA681043C860A06A0146FF39C239B2
:1004900005D0E16A08432168CA681043C860606AF1
:1004A0000121012802D00BE00421DAE7206A0028AC
:1004B00023D0A06D20221043A065E06D0843E065C5
:1004C000206C012820681FD00169C90703D0016989
:1004D00049084900016120684169C908C9004161B2
:1004E00020684169E26B11434161E565A06D8008B8
:1004F0008000401CA065002070BD2068C2680123F8
:100500001B041A43C260DBE70269FF239B009A4386
:10051000026120680269636CE66C1A43A36C334382
:100520001A430261206802690A430261D3E70000AE
:10053000002701401902FEFF00B500680A4985B096
:1005400088420ED10948416B421511434163022094
:10055000009003200190002002906946044800F0BA
:1005600043F805B000BD0000002401400010024027
:100570000004005031B500F0F9F8044600F0F6F838
:100580000099001B8842F9D338BD000070B50DA05A
:1005900002F00AFD0122052594022D072146284676
:1005A00000F0DEF8012002F0D5FC014606A002F0C2
:1005B000FBFC00222146284600F0D2F80349012026
:1005C000087070BD5600000025640A002400002059
:1005D00010B504494A69024202D04861FFF7D6FFCC
:1005E00010BD000000040140F8B500230124A2E082
:1005F00027469F403A4070D04D68022D01D0122D01
:1006000014D1DD08AD002D1800952D6A5E07AC46AB
:10061000F50E0F26AE46AE406546B543AC460E69B4
:100620007546AE4065462E43009D2E624D68012DF5
:1006300005D0022D03D0112D01D0122D16D18568C1
:100640000326AC465D00AE46AE406546B543AC46BB
:10065000CE687546AE4065462E43866046680D7985
:10066000BE43ED06ED0F9D403543456006685F00D3
:100670000325BD40AE46AE430D79B446AE07B60F76
:10068000BE4065462E430660C6687546AE438D681B
:10069000BD403543C5604D68ED004BD5294D6E6BAF
:1006A00026436E639E08284DB6007519AC46AD68AA
:1006B0009E07360F0F27B740BD4305273F07B842B7
:1006C00001D1002715E0214FB84201D1012710E0E8
:1006D0001F4FB84202D102270BE02BE01D4FB8425A
:1006E00001D1032705E01C4FB84201D1052700E0E6
:1006F0000627B7402F436546AF60184D2E684F68F8
:100700009643FF0300D516432E606E684F689643EC
:10071000BF0300D516436E60AE684F689643FF0274
:1007200000D51643AE60EE684F689643BF0200D511
:100730001643EE605B1C0A681546DD4000D057E7A3
:10074000F8BD00000010024000000140000400500D
:1007500000080050000C0050001C00500004014034
:10076000002A01D0816170478162704701480068AA
:10077000704700003000002070B5040005D0254609
:100780006035687A002802D006E0012070BD0020A4
:100790002872204601F034FC242068722068016829
:1007A000490849000160606A002802D0204602F032
:1007B00052F9204602F0E4F90128E7D020684168A8
:1007C0000922D2029143416020688168222291432C
:1007D0008160206881680822114381602068016877
:1007E000012211430160204602F09AF970BD70B5F4
:1007F000024640325378202B1CD11378012B19D09C
:100800000123137024245470046825689D432560D7
:10081000046825681E03B5432560046825680D43F8
:100820002560006801681943016020205070002095
:10083000107070BD022070BD70B502464032537812
:10084000202B1BD11378012B18D0012414702423E2
:10085000537003681D68A5431D6005682B680F264B
:100860003602B34309021943296000680168214335
:100870000160202050700020107070BD022070BDFB
:1008800070B5040006D0254640356878002600285B
:1008900002D005E0012070BD2E70204600F0A2F9C4
:1008A00024206870206801684908490001600F2110
:1008B0006068090688432168086121688A68012008
:1008C000C00382438A60E1680129A16808D021221F
:1008D0009202114322689160E168022902D005E08A
:1008E0000143F7E701212268C902516021684A6883
:1008F0000F4B1A434A602168CA688243CA60616923
:1009000020690843A169090208432168C860216A77
:10091000E0690843216808602068016801221143EA
:1009200001606664202068702663AE70002070BD90
:1009300000800002FFB5054604464035687883B064
:10094000202872D10C98002870D00D9800286DD006
:100950002878012869D001202870FFF707FF074693
:10096000012200901923D103204601F09BFC0028AE
:1009700075D1222068704020A870002666640C980B
:1009800060620D98608566630E980090019704A9D7
:100990000EC9204601F006FC002804D0606C2E70C1
:1009A00004285FD05BE0618D3748FF2905D9FF221D
:1009B000228501231B06009006E0618D21850090B1
:1009C000208D0123C2B25B062046049901F056FC3B
:1009D00000970022042120460E9B01F063FC0028B2
:1009E0003DD12068416A606A421C62620170208DBC
:1009F000401E81B22185608D401E6085002921D175
:100A0000608D00281ED000970022802120460E9B7A
:100A100001F048FC002822D1608DFF2807D9FF2271
:100A2000228501231B06009608E02AE01AE0608D6B
:100A300020850096208D0123C2B25B0620460499D2
:100A400001F01CFC608D0028C2D13A4620460E9968
:100A500001F04CFC002807D0606C042802D0032071
:100A600007B0F0BD0120FBE721682020C8612168A4
:100A70004A68064B1A404A606870AE702E700020BB
:100A8000EEE70220ECE700000024008000E800FE12
:100A9000FFB5054604464035687883B0202876D1F6
:100AA0000C98002874D00D98002871D0287801285F
:100AB0006DD001202870FFF759FE074601220090F3
:100AC0001923D103204601F0EDFB002853D121204A
:100AD00068704020A870002666640C9860620D98CB
:100AE000608566630E980090019704A90EC92046A0
:100AF00001F08EFB002804D0606C2E7004286AD0B0
:100B000039E0608DFF2805D9FF22228501231B06CD
:100B1000009606E0608D20850096208D0123C2B2EC
:100B20005B062046049901F0A9FB3A4620460E993F
:100B300001F003FC002803D0606C04284BD01AE0BD
:100B4000606A411C6162216800788862608D401E85
:100B50006085208D401E0004000C208524D1608D0E
:100B6000002821D000970022802120460E9B01F012
:100B700099FB002802D0032007B0F0BD608DFF284C
:100B800007D9FF22228501231B06009608E024E0F6
:100B900021E0608D20850096208D0123C2B25B0686
:100BA0002046049901F06AFB608D0028BDD13A46C9
:100BB00020460E9901F09AFB0028BDD12068202123
:100BC000C16120684268064B1A4042606970AE708D
:100BD0002E700020D0E70120CEE70220CCE70000F5
:100BE00000E800FEF0B50068104985B088421AD1CF
:100BF0008020122401250326694671C10C4F6946E5
:100C000038460495FFF7F0FC280200900420049079
:100C100001AA70C269463846FFF7E6FC0548816BB9
:100C20006A051143816305B0F0BD00000054004027
:100C3000000400500010024002480168491C016095
:100C4000704700003000002010B5064801684022BF
:100C500011430160002000F007F800F019F80020AF
:100C600010BD00000020024010B5044607487D2159
:100C7000C9000068FFF73CFA00F072FF002221462D
:100C8000501E00F02BF8002010BD000034000020A2
:100C900010B50C48416B012211434163816B020482
:100CA0001143816300221146501F00F017F8002203
:100CB0001146901E00F012F800221146501E00F05E
:100CC0000DF810BD00100240C106C90E0120884079
:100CD000014908607047000000E100E010B501F034
:100CE000B3FC10BD0168FF30FF30012202304031FB
:100CF0008262088B10430883088B0222104308830A
:100D0000002070470168FF30FF30012202300023CD
:100D1000426203774031888A10438882888A02229F
:100D20001043888218467047F8B50027044600280B
:100D300007D02646FF36E136707A0025002802D01B
:100D400005E00120F8BD3572204600F047F8032089
:100D5000707201210BE01C207843021910462030EC
:100D600041720772C572556395637F1CD5636068D5
:100D7000B842F0D800200BE01C2242431219FF3287
:100D8000013255721072D57255619561401CD56162
:100D900062688242F0D8206840300180206840308C
:100DA0000580206840308580206840300582BF2063
:100DB0002268000240321080242005557172E069DB
:100DC000012802D12046FFF79DFF206A012802D1A9
:100DD0002046FFF787FF0020F8BD000000680549A6
:100DE000884205D10448816B0122D20511438163F9
:100DF00070470000005C0040001002400A4B1A6877
:100E00009208920002431A600848036904221343BF
:100E10000361012906D040BF20BF20BF0169914373
:100E20000161704730BFF9E70070004000ED00E05D
:100E3000F8B55E49064601250020ED035A4B5B4A92
:100E40004031082E7AD00FDC012E68D0022E76D0E9
:100E5000042E1AD1CC680326B602344070D0012784
:100E6000FF02BC4272D087E0102E6BD0504C202E77
:100E70000CD0402E09D1C9683505294034D0A9428B
:100E800003D19168890700D54A48F8BD0B69096903
:100E900003263604012731403F04B94203D19905A6
:100EA00049E02846F8BD01256D04A94203D1990700
:100EB000F8D54148F8BDB142FCD111688903F9D594
:100EC000116803200005014001200005091A09D01E
:100ED000091A05D0814201D13848F8BD2046F8BD35
:100EE0003748F8BD3748F8BD11688901FBD5D0688F
:100EF000D1688002344D000F2D5C0802810FD0684C
:100F0000491CC00306D41068C00601D5204602E083
:100F1000184600E02D486843FFF7EAF8F8BDCC68B2
:100F2000A407A40F0FD0022C10D0012C13D0032C37
:100F3000F4D1096989050029B3DBF8BD23E00DE090
:100F400017E003E02CE000F0C9F9F6E71168490763
:100F5000F3D51846F1E700F0D1F9EEE7CC680C269E
:100F6000344006D0082CF1D0042CF4D00C2CE0D066
:100F7000E3E700F0A3F9E0E7012292029442EAD00D
:100F8000B442D6D0D9E7C968032424032140F0D065
:100F900001256D036C10A942D8D0A142DBD0CCE76B
:100FA000916B4902E5D4C8E70024F4000010024028
:100FB00000093D00006CDC028890000020A10700C1
:100FC00040420F0080841E00193C000800127A0085
:100FD000F8B504460078594D800672D5574E002763
:100FE000403EB06BC00004D4B06BA9050843B063A9
:100FF000012753480168C90511D4016882151143BE
:101000000160FFF7B3FB009005E0FFF7AFFB00992D
:10101000401A642837D84A480068C005F5D53268B8
:101020000321090560680A400140914208D081030C
:10103000890F032904D13168890301D50120F8BD46
:101040002A69032109040A4022D0084090421FD097
:10105000207880061CD528692A6988430121C904A3
:101060000A432A612A698A432A612861C0050FD58B
:10107000FFF77CFB009008E0FFF778FB0099411A2E
:101080003048814201D90320F8BD28698005F3D595
:1010900061688803800F032805D132680005824308
:1010A00001400A433260286903226168120411403A
:1010B00008432861002F04D0B16B01200007814351
:1010C000B1632078C00705D0E868A1688008800077
:1010D0000843E8602078800705D5E8680C2188433C
:1010E000E1680843E8602078400706D5E8680321F6
:1010F0008902884321690843E8602078000706D503
:10110000E86803210903884361690843E86020789F
:10111000400606D5E868012189068843E16908434D
:10112000E8602078000606D5E86803218904884332
:10113000A1690843E8600020F8BD000040100240AB
:101140000070004088130000F8B5054653480E466D
:101150000068C007C00FB0420AD250480168490871
:101160004900314301600068C007C00FB0426FD131
:1011700028784B4C800705D5E068F0218843A968A2
:101180000843E0602878C00752D06868022817D06A
:10119000032818D02168012818D08905002957DABA
:1011A000E168890889000143E160FFF7DFFA6968B7
:1011B0000746022912D003291CD0012926D033E08A
:1011C00021688903EAE721688901E7E74907E5E73C
:1011D000FFF7CCFAC11B3348814223D8E0680007EF
:1011E000800F0228F4D123E0FFF7C0FAC11B2D487D
:1011F000814217D8E0680007800F0328F4D117E078
:10120000FFF7B4FAC11B274881420BD8E0680007FA
:10121000800F0128F4D10BE0FFF7A8FAC11B214889
:10122000814201D90320F8BDE0680007800FF3D1A7
:101230001A480168C907C90FB1420BD901684908AA
:101240004900314301600068C007C00FB04201D0BF
:101250000120F8BD2878400706D5E068072109027B
:101260008843E9680843E0602878000707D5E0680C
:101270000721C90288432969C9000843E06000F0DA
:101280003DF8E168084A0906090F515CC840074962
:1012900008600020FFF7E8FC0020F8BD00200240B5
:1012A0000010024088130000093C000834000020B0
:1012B00001480068704700003400002004480549D8
:1012C0000068C968044A4905490F515CC840704725
:1012D0003400002000100240223C00080448054968
:1012E0000068C968044A8904490F515CC8407047C6
:1012F0003400002000100240223C000810B5184ABB
:10130000D1680C20084004280BD0082810D00C28E5
:1013100010D050680004410F0120C003491C8840D0
:1013200010BD1068C00601D50E4810BD0E4810BD96
:101330000E4810BD88020E4B000F185C0902D368DE
:10134000890F491CDB0301D5084A05E01268D20663
:1013500001D5044A00E0044A5043FEF7C9FE10BD1F
:101360000010024000093D000024F40000127A0041
:10137000193C0008F8B504460078FE4DC0074AD075
:10138000E8680007800F022807D0E8680007800F90
:10139000032809D1E868C00306D5286880033AD538
:1013A0006068002873D036E0012062680004824241
:1013B00003D129680143296011E0052301211B04A1
:1013C00089049A422A6802D10A432A60F1E78243DB
:1013D0002A602A6802400092286888432860606872
:1013E00000280CD0FFF7C2F9064604E0FFF7BEF96B
:1013F000801B64287ED828688003F7D50BE0FFF7B0
:10140000B5F9064604E0FFF7B1F9801B6428F1D86E
:1014100028688003F7D42078800741D5E8681F2723
:101420000007800F3F02012807D0E8680007800FFF
:10143000032809D1E868C00306D42868400717D5F7
:10144000E068012823D113E0E068002817D029685C
:101450000922914301432960FFF788F9064604E019
:10146000FFF784F9801B0228C4D828684007F7D505
:1014700068682169B84309020843686010E0286879
:10148000400840002860FFF771F9064605E095E046
:10149000FFF76CF9801B0228ACD828684007F7D406
:1014A0002078C00672D5E868B34E0007800F0AD0D6
:1014B000E06900282868B1495AD008432860FFF73E
:1014C00055F9074644E02868800502D5E069002800
:1014D00074D0606A69683140884212D901F0D8F846
:1014E0000028AFD16868616AB043084368606868E3
:1014F000000200E0DCE0218C000A09060843686075
:101500000FE06968B143014369606868218C00029B
:10151000000A090608436860606A01F0B9F800280B
:1015200090D1606A410B0120C003491C8840E968E2
:1015300009060A0F9249895CC84092490860002058
:10154000FFF792FB22E0FFF711F9C01B02288BD8AE
:1015500028688005F7D56868616AB0430843686009
:101560006868218C0002000A0906084368600DE0E3
:1015700088432860FFF7FAF8064604E0FFF7F6F81C
:10158000801B022888D828688005F7D420787E4EF2
:10159000000723D560690028306910D00121084375
:1015A0003061FFF7E3F8074604E0FFF7DFF8C01B00
:1015B00002287DD830698007F7D50FE001E14008A7
:1015C00040003061FFF7D2F8074604E0FFF7CEF89D
:1015D000C01B02286CD830698007F7D420784007F8
:1015E00060D5A86B0027C00005D4A86B01210907AE
:1015F0000843A863012765480168C90511D401683B
:10160000821511430160FFF7B1F8009005E0FFF784
:10161000ADF80099401A64284AD85C480068C005B3
:10162000F5D55648A268824203D131690143316140
:1016300011E001218902002A07D005231B029A42EA
:1016400003D132690A433261EFE732698243326182
:10165000306988433061A06800280ED0FFF786F813
:10166000009006E0FFF782F80099411A484881424D
:101670001ED830698005F5D50DE0FFF777F80090AA
:1016800006E0FFF773F80099411A414881420FD8EC
:1016900030698005F5D4002F04D0A96B0120000724
:1016A0008143A9632078800630D53A48421400E08F
:1016B00080E0A169002916D0AB6801210B43AB6023
:1016C0006B6B0B436B63016A11430162FFF74EF8CA
:1016D000064604E0FFF74AF8801B02286AD8A8688B
:1016E0008007F7D512E0A96849084900A960016A96
:1016F00091430162FFF73AF8064604E0FFF736F837
:10170000801B022856D8A8688007F7D4A06A002852
:1017100055D0E9680907890F032952D001263606FA
:101720000228286805D0B0432860FFF71FF8044658
:1017300042E0B0432860FFF719F8074604E0FFF7DE
:1017400015F8C01B022835D828688001F7D4216B12
:10175000E06AEA680843616BFD231B049A43114366
:101760000843E860286830432860FEF7FFFF04461E
:1017700017E000000010024000E00000000100003F
:10178000093C000834000020401002400070004076
:101790008813000000000140FEF7E8FF001B02284C
:1017A00008D828688001F7D509E0FEF7DFFF001BA5
:1017B000022801D90320F8BD28688001F5D4002053
:1017C000F8BD0120F8BD70B5040006D025464035AF
:1017D000687C0026002802D005E0012070BD2E7430
:1017E000204600F033F80220687420680168402227
:1017F00091430160A168606822690843E168114370
:101800000843616901220843A1695202114008435B
:10181000E1690843216A0843A16A08432168086016
:10182000A0690421000C0840616A084321684860EF
:101830002168E06A08612068C16992009143C16132
:10184000666501206874002070BD000000B5006866
:101850000B4985B0884211D10A48416B821411436B
:101860004163382000900220002101900320029162
:101870000491039069460448FEF7B6FE05B000BD2A
:10188000003001400010024000040050F8B504464A
:1018900000276846078026464036707C012802D023
:1018A000707C22287ED100290CD0002A0AD0002B7F
:1018B00008D0307C012875D001203074707C01285C
:1018C00002D003E00120F8BD322070746765A26386
:1018D000A387E3872163A386E386A764E7640125E2
:1018E000A06A6D03A84207D120680168A94301607E
:1018F000206801682943016020680168490603D413
:1019000001684022114301600121FF20E268C90201
:1019100005308A42616866D1002904D081420CD129
:10192000E08E012809D1206B21680088C860206BF7
:10193000801C2063E08E401EE086E08E002843D1AC
:10194000A06AA84246D1206801680122120311430F
:1019500001603FE02068C068A16B0880A06B801C1C
:10196000A063B0E0002202212046069B00F0C8FEE2
:1019700000287DD1206B21680088C860206B801C06
:101980002063E08E401EE086E08E002808D1A06A29
:10199000A84205D1206801680122120311430160A9
:1019A000002200E0CCE001212046069B00F0A8FECA
:1019B00000287FD12068C068A16B0880A06B801CC4
:1019C000A063E08F401EE087E08E0028CAD16068E7
:1019D00000287BD1002201212046069B00F090FECA
:1019E000002867D1B6E7002904D081420BD1E08EF0
:1019F000012808D1206B411C216321680078C86050
:101A0000E08E401EE086E08E002845D1A06AA84204
:101A100005D12068016801221203114301600022F0
:101A200001212046069B00F06BFE002842D1206871
:101A3000C068A16B087046E0002202212046069B88
:101A400000F05EFE002835D1206B411C2163216827
:101A50000078C860E08E401EE086E08E00280AD143
:101A6000A06AA84207D1206802680121090300E0AA
:101A700020E00A430260002201212046069B00F07C
:101A80003FFE002816D12068C268A06B411CA163EC
:101A90000270E08F401EE087E08E0028CCD16068A5
:101AA000002813D1002201212046069B00F028FEC9
:101AB000002802D00320F8BD08E02068C168A06BB0
:101AC000421CA2630170E08F401EE087A06AA8421A
:101AD0000FD1002201212046069B00F011FE0028B4
:101AE00002D0606D02210EE02068C068694608805F
:101AF0000888012280212046069B00F001FE002874
:101B000004D0606D202108436065D3E70120707424
:101B1000A06AA84211D120688168C943C9060CD4C3
:101B2000616D0222114361650168A943016020686B
:101B30000168294301603774C4E637740020BAE7AE
:101B40000220B8E7042204490428086902D090431F
:101B5000086170471043FBE700E000E070470000B9
:101B6000094910B5401E884201D9012010BD074C1B
:101B700060610321081F00F067FD0020A0610720BD
:101B80002061002010BD0000FFFFFF0000E000E02A
:101B900010B5FFF7E3FF10BD70B502462032137D8C
:101BA000012B1BD00123137502245475046865684A
:101BB0007026B5436560046865680E6835436560E6
:101BC0000468A5688026B543A560006884684968F4
:101BD0000C43846053750020107570BD022070BDE9
:101BE00070B5040005D025462035687D002802D058
:101BF00006E0012070BD00202875204600F00AF89C
:101C000002206875211D206800F054FE01206875CF
:101C1000002070BD10B50122016892070B48914267
:101C200004D1816B01221143816310BD084A9142A6
:101C3000FBD1816B102211438163002211461120D8
:101C4000FFF74CF81120FFF73FF810BD00100240DD
:101C5000001000400222014620314A7502681368D4
:101C60000120034313604875002070470268D36861
:101C700001210B43D360006802680A430260002020
:101C80007047F8B5054604462035287D012817D051
:101C900001272F7502206875226890687726FF2338
:101CA000B0431B02984390600868502837D00EDC80
:101CB000202857D006DC00284ED0102840D14EE016
:101CC0000220F8BD302850D0402839D13CE06028AF
:101CD0002DD0702817D001221203801A0ED0904206
:101CE0002ED1CB684A688968206800F016FE20680B
:101CF0008168012292031143816021E0206881689C
:101D0000C908C900F8E7CB684A688968206800F00C
:101D100004FE21688868B0433043886010E0CA68D8
:101D20004968206800F073FE5021206806E0CA6808
:101D30004968206800F07CFE6021206800F0F8FD12
:101D40006F7500202875F8BDCA684968206800F0E2
:101D50005EFE40212068F1E700212068EEE71021B7
:101D60002068EBE720212068E8E730212068E5E7DC
:101D7000704770B50446006801690025C9438907AA
:101D8000002915DBC168C943890711D4E91E016127
:101D900001202075206880698007204602D0FFF767
:101DA000E7FF04E000F08EF8204600F00FF92575FB
:101DB00020680169C943490717D4C168C943490765
:101DC00013D40421C9430161022020752068806971
:101DD0008005800F204602D0FFF7CAFF04E000F024
:101DE00071F8204600F0F2F8257520680169C943B2
:101DF000090716D4C168C943090712D40821C94389
:101E00000161042020752068C0698007204602D047
:101E1000FFF7AEFF04E000F055F8204600F0D6F8DA
:101E2000257520680169C943C90617D4C168C9432B
:101E3000C90613D41021C943016108202075206808
:101E4000C0698005800F204602D0FFF791FF04E0B3
:101E500000F038F8204600F0B9F8257520680169CF
:101E6000C943C90708D1C168C943C90704D1891E3C
:101E70000161204600F0B8F820680169C9434906AD
:101E800009D4C168C943490605D44021C943016149
:101E9000204600F0B3F870BD00B500680121890745
:101EA00085B088420CD108200090002002210290C9
:101EB000039001910491052069460007FEF794FB09
:101EC00005B000BD7047F8B5064604462036307DA3
:101ED0000D4601280DD001203075022070750427B1
:101EE000002A08D0042A16D0082A2AD00C2A4DD15C
:101EF00037E00220F8BD206800F022FD20688169EB
:101F000008221143816120688169B9438161206899
:101F10008169EA6812E0206800F02AFD2068826981
:101F20000121C9020A43826120688169012292026B
:101F30009143816120688169EA68120211438161DD
:101F400024E0206800F02DFD2068C26908210A43C2
:101F5000C2612068C169B943C1612068C169EA688A
:101F600012E0206800F038FD2068C1690122D20229
:101F70001143C1612068C269012189028A43C2619B
:101F80002068C169EA6812021143C16101207075BD
:101F900000203075F8BD70B5040005D02546203509
:101FA000687D002802D006E0012070BD0020287561
:101FB000204600F00AF802206875211D206800F014
:101FC00079FC01206875002070BD7047704710B51E
:101FD00004460068012200F095FC20680168012297
:101FE00011430160002010BD10B50068024988420D
:101FF00001D101F0A3F910BD0010004070470000AE
:1020000000B500680D4985B0884214D10C48416B79
:102010000122920311434163401500901220019068
:1020200001200290032003900420049005206946BB
:102030000007FEF7D9FA05B000BD000000380140E6
:1020400000100240FFB5064604466036707A83B041
:102050000D46202858D1002D0CD00598002809D015
:102060000120A1680003814207D12069002804D122
:10207000E80702D0012007B0F0BD307A012843D034
:10208000012030720020E06621207072FEF76EFBA6
:10209000019027464037059838820598788218E0E5
:1020A000788A401E7882069800900022802120467F
:1020B000019B00F073FE002818D10120A1680003E5
:1020C000814202D12069002812D0216828788862D4
:1020D0006D1C788A0028E3D10698009000224021E8
:1020E0002046019B00F05AFE002808D00320C2E7DA
:1020F00028882168C005C00D8862AD1CE9E7202052
:10210000707200203072B6E70220B4E7FEE7016883
:102110008A69D243920701D400228A6200688169E9
:10212000C943C90703D08169012211438161704706
:10213000F7B5044600680E468069C043C0062CD43B
:1021400020272546403520688069C04380060FD58A
:10215000701CF8D0002E05D0FEF708FB0299401A3B
:10216000B042F0D96F700020A87028700320FEBD27
:1021700021681020C8612068C7612046FFF7C7FFAB
:1021800020684168064A11404160042060646F7015
:102190000020A87028700120FEBD0020FEBD0000B8
:1021A00000E800FEF8B50446164618481D46DAB2A7
:1021B0000090079F0023204600F060F83A46204632
:1021C000069900F0BAF8002803D0606C04281BD0F0
:1021D00018E02846F5B2012809D02168300A886243
:1021E0003A462046069900F0A8F80028EDD120686C
:1021F00085620097002240212046069B00F052F89D
:10220000002800D00320F8BD0120F8BD0020008088
:10221000F8B50446164618481D46DAB2C3020090C7
:10222000079F204600F02AF83A462046069900F01B
:1022300084F8002803D0606C04281BD018E02846DE
:10224000F5B2012809D02168300A88623A46204652
:10225000069900F072F80028EDD120688562009799
:10226000002280212046069B00F01CF8002800D0A8
:102270000320F8BD0120F8BD00200080F0B50668FD
:10228000059C7568064F600D384385438805800DB1
:10229000110408431843204305437560F0BD000056
:1022A000FF63FF03F8B51C4617460E46054611E0CE
:1022B000601C0FD0002C05D0FEF758FA0699401A82
:1022C000A04207D92020403568700020A8702870EF
:1022D0000320F8BD286881693046884304D0002077
:1022E000B842E5D00020F8BD0120F9E770B51646E8
:1022F0000D4604461AE0324629462046FFF718FFED
:10230000002801D0012070BD002D04D0FEF72EFA68
:10231000801BA8420AD9616C2020014361644034CB
:1023200060700020A0702070032070BD206880695C
:10233000C0438006DFD4002070BD70B516460D4640
:1023400004461CE0324629462046FFF7F1FE0028ED
:1023500001D0012070BD681C11D0002D04D0FEF703
:1023600005FA801BA8420AD9616C202001436164F0
:10237000403460700020A0702070032070BD206881
:102380008069C0438007DDD4002070BD1CB51C48A7
:102390001A49016001229207426000210164102263
:1023A00082600622C263C160016201224162026151
:1023B000FF22C162C23282620163416381610422F1
:1023C00081634261C161FDF7D5FF002800D0FEE7BF
:1023D0000C48009001200003019069460848FDF771
:1023E0007FFF002800D0FEE70748009069460448B8
:1023F000FDF776FF002800D0FEE71CBD0024014059
:10240000680000200002002400000244F0B53348B8
:1024100087B0C26A04210A43C262C26A0A400592B6
:10242000C16A01252943C162C16A29400591C26A76
:1024300002210A43C262C06A8E030840059000224E
:1024400031462748FEF78CF9AF02052000223946B5
:102450000007FEF785F9012240212248FEF780F9A6
:10246000A803002400900194694602941C48FEF7DA
:10247000BBF8029469461A48009601950394FEF74A
:10248000B3F81948019005200095694602950007A8
:10249000FEF7AAF805200294694600070097019507
:1024A0000394FEF7A1F80520019469460007009601
:1024B0000294FEF799F84020009002946946019535
:1024C00003940848FEF790F8002201210520FEF74A
:1024D00005FC0520FEF7F8FB07B0F0BD0010024038
:1024E00000080050000400500000211010B51248F0
:1024F0001049016011494160002181600161416121
:1025000081610122C161C2600162FEF7B9F9002850
:1025100000D0FEE700210848FEF769F9002800D046
:10252000FEE700210448FEF787F9002800D0FEE707
:1025300010BD000000540040C80000205B3D30008A
:1025400010B50E480C490160FF21053141600021A2
:102550008160C160012201615202826141610162B8
:1025600010224162C26181620721C162FFF72BF92B
:10257000002800D0FEE710BD00300140140100200B
:1025800010B501211D488AB08907016000241C494B
:1025900084604160FF210461C160FFF721FB0028D6
:1025A00000D0FEE701200003049004A91348FFF7C0
:1025B00068FB002800D0FEE71048FFF7ECFC00287D
:1025C00000D0FEE7089408A90C480994FFF7E4FA44
:1025D000002800D0FEE760200090019402940C22B5
:1025E000694603940548FFF76EFC002800D0FEE71B
:1025F0000248FFF751FC0AB010BD00006C0100203A
:102600001F03000010B50E480C490160E12149028A
:10261000416000218160C160016181610822C16166
:102620004261016230214162510281634900C1630C
:10263000FEF7A2F8002800D0FEE710BD00380140E8
:10264000DC010020704700008307FF22DB0E9A4068
:102650008907090E994000280BDA0007000F083897
:10266000830808489B001818C36993430B43C36150
:102670007047830804489B001B1818689043084360
:102680001860704700ED00E000E400E070470000D3
:1026900070B517490023CA681206120F18D18A6B49
:1026A000154CD500134A02D51268224009E08E6B02
:1026B00001252D072E438E6312688E6B2240AE4398
:1026C0008E63A24204D103218903884200D10123F1
:1026D0000A48016849084900194301600068C007B9
:1026E000C00F984201D0012070BD002070BD0000D5
:1026F000001002400070004000180000002002405E
:10270000F8B51D4616460F460446FEF72FF831462B
:1027100026464036009000291ED043E0681C1BD09E
:10272000002D05D0FEF722F80099401AA84213D9CF
:1027300020684168E022914341602068026840219E
:102740008A43026023E021680A6882430A602168A4
:102750000A6802430A601FE020688168384688439F
:10276000DCD124E0681C1DD0002D06D0FDF7FEFF53
:1027700001460098081AA84214D920684268E0214E
:102780008A43426020680168402291430160012031
:10279000A16A40038142D6D00120707400203074B9
:1027A0000320F8BD2068816838468843DAD00020CD
:1027B000F8BD704710B5FEF73FFAFFF7E9F910BD15
:1027C00030B522489BB001680322D2029143C21463
:1027D0008918016022200090012510200024049017
:1027E000039506950A946846FEF7C4FD002800D0BC
:1027F000FEE70F20169018941994002117951A944B
:1028000016A8FEF7A1FC002800D0FEE749200E9094
:102810000220109000031390400315900EA8FEF7BD
:10282000D7FB002800D0FEE7FEF742FD7D21C9005E
:10283000FDF75EFCFFF794F90420FFF783F900220F
:102840001146501EFEF74AFA1BB030BD0070004022
:1028500010480168821511430160C1680E4A114099
:10286000C16001680D4A1140016081684908490052
:10287000816001680122920491430160C168FD22D8
:1028800012049143C160002101610549C0038860C1
:1028900070470000001002400C40FF88F6FFF6FE73
:1028A00000ED00E010B50248FFF763FA10BD00002C
:1028B000A401002070B5026801239B070F4C104D46
:1028C000984203D0A04201D0A84203D17026B2435F
:1028D0004E683243984203D0A04201D0A84204D1AE
:1028E00003231B029A43CB681A4302608A68C262C0
:1028F000096881620121416170BD0000000801404A
:102900000014014010B50123046A8B409C4304620B
:10291000036A8A401343036210BD30B58468FF2503
:102920002D021B021343AC430B432343836030BD92
:10293000826870239A430A4307210A4382607047E2
:1029400030B5026A520852000262026A4568836921
:102950007024A3439C080B68A40023430224A243D1
:102960008C6845601443836149684163046230BDEB
:1029700030B5026A10239A430262036A456882698D
:1029800073242402A2430C6824021443202293439C
:102990008A68456012011A43846149688163026252
:1029A00030BD30B5026AFF2301339A430262026AE6
:1029B0004568C3697024A3439C080B68A4002343A3
:1029C00001246402A2438C68456024021443C3615D
:1029D0004968C163046230BD30B5026A01231B033C
:1029E0009A430262036A4568C26973242402A243BF
:1029F0000C68240214430122520393438A68456001
:102A000012031A43C46149680164026230BD30B5E3
:102A1000036A046A6408640004628469F025AC43B4
:102A2000120122430A24A3430B438261036230BD97
:102A300030B5036A1024A34303628469036A0F2537
:102A40002D031203AC432243A024A34309011943DD
:102A50008261016230BD10B5818CC90707D0016861
:102A60004A6801235B049A43836A1A434A60818C53
:102A7000890707D501684A6801231B049A43C36A82
:102A80001A434A60818C490707D501684A680123C7
:102A90009B049A43036B1A434A60818C090707D54C
:102AA00001684A680123DB039A43436B1A434A6077
:102AB000818CC90607D50268916801231B039943DD
:102AC000836B19439160818C890607D501688A68F8
:102AD00001235B039A43C36B1A438A60818C4906C6
:102AE00012D503685A6801210905046C8A43224300
:102AF0005A60026C8A4207D10268516803235B0561
:102B00009943436C19435160818C090607D50168CC
:102B10004A680123DB04806C9A4302434A6010BD7B
:102B2000F8B500260446C666FDF720FE0546206877
:102B30000068124F000709D501212B4600224905E4
:102B40002046009700F02AF900280DD1206800687F
:102B500040070BD501212B4600228905204600970E
:102B600000F01CF9002801D00320F8BD20206034BB
:102B70006072A07226720020F8BD0000FFFFFF0106
:102B8000FEB50446016880682269E3691043626902
:102B9000102700261A4310430A683546754B1A4021
:102BA00002430A6020684168032212039143E268ED
:102BB00011434160704A2168A069914201D0226AA4
:102BC00010438A680B231B029A4302438A606B4AB4
:102BD00021686B4891420CD1C0688007800F06D0F5
:102BE00001283DD0022839D0032820D11EE001273A
:102BF0001DE0644A91420AD1C0680C2108402BD0E4
:102C000004282DD0082829D00C2810D10EE05A4ACB
:102C100091420CD1C1680320800201401CD01015E4
:102C2000091A1DD0091A19D0814200D108270220A3
:102C3000FEF7FEF80190504B514922684039D813F5
:102C400000929A4235D1002F0CD0022F0DD0042FC4
:102C500012D0082F1CD113E00027E8E70227E6E78F
:102C60000427E4E7FEF72AFB08E00868C00601D560
:102C7000454805E0454803E0FEF740FB002873D0D7
:102C8000626851005118814202D81103814201D279
:102C9000012569E0010E0602500800233018594151
:102CA000FDF73CFA03210902394A411A914259D9E8
:102CB000EEE7E26982422DD13B0000F09DF9090662
:102CC000080B24192424241F2400019812E0FEF785
:102CD00005FB0FE008686168C00602D548082D4A68
:102CE00001E02D4A48088018FDF702FA86B20BE091
:102CF000FEF704FB616840004A08F4E761680122BE
:102D000048081204EFE70125310909013007400F97
:102D1000084327E03B0000F06FF909070A0D061D84
:102D2000060606290600B3E7FEF7C8FA14E0FEF728
:102D3000D5FA11E008686168C00602D54A08124851
:102D400001E012484A081018FDF7D2F981B2009844
:102D5000C16009E0FEF7D2FA61684A088018FDF701
:102D6000C7F980B22168C8602846FEBD61684A087C
:102D7000E9E70000F369FFEF004800400038014038
:102D8000401002400044004000093D000024F400CF
:102D9000FFFC0F0000127A000048E801FFB581B087
:102DA00017460E4604460A9D1DE0681C1BD0002DE8
:102DB00005D0FDF7DBFC0499401AA84213D920681E
:102DC0000168FF22A13291430160206881684908AF
:102DD00049008160202060346072A072002020725F
:102DE000032005B0F0BD2068C1693046884304D097
:102DF0000020B842D9D00020F3E70120F9E7000015
:102E000070B5FF20103000F0FFFC4F49884201D020
:102E1000002070BD0021084600F08EFE0120FDF765
:102E2000A9FB0121002000F087FE0120FDF7A2FB95
:102E300000F038FE0125454C05E000F0B1FA00280D
:102E400001D0A570E4E7E52000F0C8FCC007C00F82
:102E5000A179401E0843F0D12E2000F0BFFC28438A
:102E600001462E2000F068FE062000F0CDFCA08177
:102E7000DE2000F0C9FCE08105214902242000F099
:102E800071FE0221312000F057FE0821362000F0AB
:102E900053FE1021372000F04FFE0121392000F0B1
:102EA0004BFEFF213E2000F047FE00213F2000F0B6
:102EB00043FE0221402000F03FFE0021502000F0A0
:102EC00051FE0021522000F04DFE3821572000F025
:102ED00033FEFF216931642000F044FEC0216620EA
:102EE00000F040FE0121712000F026FE01217C202F
:102EF00000F022FE02217E2000F01EFE0021822032
:102F000000F01AFE0121772000F016FE8B218120AF
:102F100000F012FE1921C902542000F023FE022104
:102F20004F2000F009FE022000F0BAFC084800F033
:102F30001DFD222000F068FC8004010C1E2000F022
:102F400011FE012070BD0000CCEA0000000000204E
:102F50003582000070B50125114C00280DD000F01D
:102F6000A1FD06E000F01CFA002802D0A5700020A8
:102F700070BD00F031FA0028F4D000F05FFCE0787A
:102F8000002802D100F044FDE57000F0B1FD00F032
:102F900067FA0121862000F0CFFD0248008870BD4D
:102FA00000000020480000200FB410B503A9044B16
:102FB000044A029800F03CF810BC08BC04B0184762
:102FC0000934000838000020F8B5040C8BB22646FE
:102FD00082B25E430D0C1046370C584336048019FC
:102FE0000021794116466E43370C36048019794129
:102FF00026466E438919F8BD30B47446641E2578A0
:10300000641CAB4200D21D46635D5B00E31830BC1C
:10301000184702E008C8121F08C1002AFAD17047F9
:103020007047002001E001C1121F002AFBD1704748
:10303000FFB58FB00F460446002606E025280AD0CB
:10304000129A11999047641C761C20780028F5D1BB
:10305000304613B0F0BD00250121A14A009500E0E3
:103060000543641C23780846203B98401042F7D162
:1030700020782E2815D1042005436078641C2A2866
:103080000AD101CF641C00900BE000990A22514341
:1030900030394018641C00902078014630390929E5
:1030A000F3D920786C280ED004DC4C2813D06A2881
:1030B00012D104E074280ED07A280DD10BE0012043
:1030C0004005054307E00121090562780D4382426E
:1030D00001D16D18641C641C2078864669284AD08A
:1030E00008DC0028B4D058286DD0632810D064289C
:1030F00008D140E070286BD0732812D0752860D0BA
:10310000782860D0129A704611999047761CE5E0B5
:103110003878694608720020487202A801900120A0
:1031200003E0386801900020C0433F1D69070CD5BB
:10313000002500E06D1C00998D420FDA8542F9DB15
:103140000199495D0029F5D108E0002500E06D1CDA
:103150008542FCDB0199495D0029F8D1761907E029
:10316000019801990078491C0191129A1199904790
:103170006D1EF5D2B2E00A20029000216802400FD5
:10318000039102280CD001CFC117844600290DDA23
:103190006246084652420021814194462D2008E0B3
:1031A000FF1DFF08FF0003CF8446EFE7280504D585
:1031B0002B206A46107401203CE0E8073AD020201A
:1031C000F7E70A2000E0102000210391029007E0B9
:1031D0001020029000210420054308200391009054
:1031E0006802400F022810D001CF00218446002041
:1031F0000D9028071FD5704670280CD0029A102019
:10320000039B42401A430CD015E0FF1DFF08FF004E
:1032100003CF8446EBE740206A46107401200D90EE
:103220000CE06046084306D030206A4610747046B1
:10323000507402200D907046582804D029A00190A7
:103240000DA80E900DE02CA0F9E76046039B029AB2
:10325000FCF764FF019B84469B5C0E9A521E0E9203
:10326000137060460843F0D10E9805A9081A203063
:103270000190680701D5009801E0012000900199B4
:10328000884203DD01460198081A00E0002000256D
:10329000009006E004A8129A405D119990476D1CB9
:1032A000761C0D988542F5DB04E0129A30201199C6
:1032B0009047761C0099481E00900029F5DC08E034
:1032C0000E980E990078491C0E91129A1199904708
:1032D000761C0199481E01900029F1DC641CB4E6BB
:1032E00009280100303132333435363738396162DC
:1032F00063646566000000003031323334353637A0
:1033000038394142434445460000000010B50A4C9C
:1033100060600846A160FEF79DFCA068FEF73BFEDA
:103320000C21A068FEF753FE6068FEF79FFC0020AA
:10333000E060207010BD00001400002010B50C49A2
:103340000B4AC868401CC86009789468022909D0F3
:10335000032906D10A21FCF7CBFE0648405C216810
:10336000086410BD3321FCF7C3FE02483338F5E78B
:1033700014000020FF3B000810B50446074881896F
:1033800001208007FCF7B4FE092261001202891CAB
:103390005043C9B280094843800910BD0000002095
:1033A00010B5084C2089002809D0FDF7DFF96189A4
:1033B000401A218980B2884201D9012010BD002025
:1033C00010BD00000000002010B5FCF7F5FE06213E
:1033D000C943FCF7E5FE10BD10B5312000F0FEF941
:1033E000C007C017401C10BD002100280AD0401E95
:1033F00002E04008491C89B2020AFAD10902C0B2AF
:10340000014388B27047000013B50A2301226946C0
:103410000248FEF717FE00981CBD0000DC010020EA
:1034200010B5602000F0DAF9FFF7A6FF04465E2031
:1034300000F0EAF9C2B2000A82402146501CFFF7B0
:10344000C3FD0123DB020022C01851410905000B16
:10345000084302494000401810BD0000B0110000B0
:1034600070B51F4D1F49E8882C4648430121400193
:10347000C9034018000C0C34208028780300FFF7A3
:10348000BBFD132D0B0B0B131115171B1D2D2D1928
:103490000D2D2D2D0B0F2D00052013E00D2011E01B
:1034A0000A200FE004200DE002200BE0012009E0DB
:1034B000072007E0092005E0032003E068780028E2
:1034C0000AD00020A0702889FFF77EFF6060A888DE
:1034D000FFF77AFFA06070BD0620F3E7FF20F1E759
:1034E0003C000020DB0700001CB5FDF7ADFBFFF73B
:1034F00067F9FEF78BFFFEF749FFFEF7F7FFFFF7CF
:103500001FF8FFF77FF83E483C4901600821416001
:10351000022100248160C4608461C461046201618D
:10352000FDF702FC002800D0FEE7FFF729F8344839
:103530003449A83801600F21846041603249C1607C
:10354000FEF74EFB002800D0FEE72D4800946946A8
:10355000A8380194FEF720FB002800D0FEE72BA03E
:10356000FFF722FD01210520002289020007FDF757
:10357000F7F8FFF745FC022000F092F9274800F029
:10358000F5F900F0CDF80621732000F06DF824481D
:1035900000F002F92248401F00F0E3F80121002268
:1035A000C9032048FDF7DCF8012240211E48FDF741
:1035B000D7F81349E03908463830FFF7A7FE022054
:1035C00000F078FA7D20C000FCF7D4FF002000F066
:1035D00071FAFA2000F054FA114DAD1F2878002836
:1035E000FCD012A0FFF7E0FC01210846FDF706FC25
:1035F00012A0FFF7D9FC2C70F0E70000005C00403F
:103600004C020020001000401A410000646179540F
:103610007269707065722056320A000050C3000053
:103620002A0000200008005000040050736C6565FB
:1036300070696E672E2E2E0A00000000776F6B6592
:10364000207570210A000000012110B5C903054B47
:10365000002801D0012200E000221846FDF780F882
:1036600010BD00000008005010B51C4C2170014630
:10367000052000F035F80021112000F031F8217804
:10368000122000F02DF80021132000F029F800216D
:10369000142000F025F80021152000F021F8002169
:1036A000162000F01DF82721062000F019F8082147
:1036B000002000F015F80321012000F011F803218B
:1036C000022000F00DF87F21042000F009F800210D
:1036D0001C2000F005F800F02BF810BD10000020B1
:1036E00070B504460D46002000F00CF8E006C00E50
:1036F000203000F0B3F9284600F0B0F9012000F0C6
:1037000001F870BD10B5054B002801D0012200E082
:10371000002240211846FDF723F810BD0004005098
:1037200010B50020FFF790FF0120FFF7EBFF10BD61
:1037300010B50020FFF7E6FFE22000F08FF901202E
:10374000FFF7E0FF70210720FFF7CAFF0020FFF717
:103750007BFF0B210020FFF7C3FF0120FFF774FF61
:1037600010BD10B504460020FFF76EFF052221466C
:103770000B2000F01EF80120FFF766FF10BD70B5AA
:103780000D460646002404E0305D00F067F9641C35
:10379000E4B2AC42F8D370BD10B504460146052230
:1037A0000A2000F006F805222146102000F001F85A
:1037B00010BD70B5044615460E460020FFF7A2FF67
:1037C000E006C00E203000F049F929463046FFF7E8
:1037D000D6FF0120FFF796FF70BD00001FB5112333
:1037E000012203A96C460EC4054C0246022321782F
:1037F0000448FDF79FF8A0716846007B04B010BD37
:1038000000000020C80000201FB51123022203A9D8
:103810006C460EC41346074C024621780648FDF755
:1038200089F8A0716846007B01026846407B04B0BD
:10383000084310BD00000020C80000203EB5112143
:103840001448FCF7A2FC112001900290114C124880
:1038500000940178022389221048FDF76BF8204676
:10386000217818380170A1784170E1782279090235
:1038700011434180E179227A090211438180617B01
:10388000A27B09021143C180E17B227C0902114322
:1038900001813EBD5400002000000020C80000202F
:1038A00070B50446FFF7BCFD0546002C05D0012C81
:1038B0001DD0022C3ED0002070BD0721602000F0FA
:1038C0003BF90521632000F037F93821692000F029
:1038D00033F90721782000F02FF90521792000F035
:1038E0002BF906217A2000F027F9062118E00B2198
:1038F000602000F021F90921632000F01DF97821F2
:10390000692000F019F90B21782000F015F9092140
:10391000792000F011F90A217A2000F00DF90A212E
:103920007B2000F009F9284600F020F80E4844708A
:10393000012070BD0F21602000F0FEF80D216320F2
:1039400000F0FAF8B821692000F0F6F80F2178208D
:1039500000F0F2F80D21792000F0EEF80E217A2027
:1039600000F0EAF80E21DBE70000002070B52649E0
:10397000884204D9494240182449884201D900208C
:1039800070BD45086020FFF729FFFFF7F5FC0446EE
:1039900001467D20C00000F0A3F8FF2800D9FF20D9
:1039A000C1B24B2000F0C8F82146012000F098F881
:1039B000FFF71AFD01465A2000F0D4F821462846A8
:1039C00000F08EF8FFF710FD01465E2000F0CAF807
:1039D0006320FFF703FFFFF7CFFC044601460120F9
:1039E00000F07EF8FFF700FD01465C2000F0BAF819
:1039F0002146284600F074F8FFF7F6FC01466120E6
:103A000000F0B0F8012070BDB0110000E0C8100057
:103A100010B50B20FFF7E2FE0F4C20710820FFF7D6
:103A2000DDFE607120794106490E0B2000F084F81C
:103A300060798107890F08200C3100F07DF80121A1
:103A40004D2000F079F8D820FFF7C8FE0146472046
:103A500000F072F810BD00000000002001B582B037
:103A60000021684601710A200090012301AA02A9E1
:103A70000248FDF70BFF684600790EBD14010020D7
:103A800010B50749C98941436C2000F083F8012132
:103A9000862000F051F84021872000F04DF810BD3D
:103AA0000000002010B5FCF761FE0149488110BDFF
:103AB00000000020FF280DD0084901220870896805
:103AC000012808D0002805D10B68186408684169EE
:103AD000114341617047FF20F6E700001400002009
:103AE00010B500034A088018FCF702FB10BD000067
:103AF00070B50F484188002917D0028980880D4D84
:103B00001418AC4200D92C462004FCF7F1FA01004D
:103B10000BD005204006FCF7EBFAA84200D9284656
:103B200081B2542000F01EF870BD0121C903F8E7EE
:103B30003C000020FFFF000013B584B011230122D8
:103B400005A96C460EC4054C0246022321780448A0
:103B5000FCF79EFFA07106B010BD00000000002021
:103B6000C80000201FB50B0A6A4613735173112356
:103B7000022203A96C460EC41346044C0246217867
:103B80000348FCF785FFA0711FBD00000000002066
:103B9000C80000201FB50B0E6A4613730B0C53733D
:103BA0000B0A9373D1731123042203A96C460EC42C
:103BB000044C0246022321780348FCF769FFA071F8
:103BC0001FBD000000000020C80000200000000011
:103BD000010306090D1219202934404E5E6F8194AD
:103BE000A8BBCEDEECF6FCFDFAF3E7D9C8B5A18E92
:103BF0007B6958493C30261E16100C08050201FF4F
:103C0000FFFFFFFF000000000000000000000000B8
:103C1000000102030406070809030406080C101833
:103C20002030000000000102030400004C3C0008AA
:103C3000000000203C00000012300008883C000812
:103C40003C0000204408000022300008520300001D
:103C50000000000000000000000000000000000064
:103C60000000000000000000000000000000000054
:103C700000BEADA5BABEDABBEDC00C00000000006E
:083C800080841E00000000001A
:04000005080000C12E
:00000001FF
