:020000040800F2
:1000000050050020D5000008E11700081D14000865
:1000100000000000000000000000000000000000E0
:100020000000000000000000000000009919000816
:100030000000000000000000291800089B190008BB
:100040000501000805010008050100080501000878
:100050000501000805010008050100080501000868
:100060000501000805010008050100080501000858
:100070000501000805010008050100080501000848
:100080000501000800000000000000000501000854
:100090000000000005010008050100080501000836
:1000A0000000000005010008050100080501000826
:1000B0000501000800000000050100080501000816
:1000C0000348854600F068F80048004729250008E5
:1000D000500500200C4880F308880C480168090E80
:1000E0000B4A914205D10B480B4901600B480C4962
:1000F00001600C4880470C480047FEE7FEE7FEE73A
:10010000FEE7FEE7FEE700005005002004000000C7
:100110001F00000018100240010000000000014014
:1001200000000000191A0008C100000830B50B4695
:10013000014600202022012409E00D46D5409D42C1
:1001400005D31D469540491B254695404019154647
:10015000521E002DF1DC30BD420005D04200120ECF
:1001600052428A4201DB00207047C90508187047D7
:10017000410040020122400AD205090E80187F2961
:1001800001DA00207047962903DC9622511AC840F4
:100190007047963988407047064C0125064E05E0A9
:1001A000E36807CC2B430C3C98471034B442F7D398
:1001B000FFF78AFFE82C0008082D000831B500F091
:1001C000B3F8009C0546601C00D0641C00F0ACF83D
:1001D000401BA042FAD338BDF8B5002389E00124C2
:1001E0009C402A46A44622407ED04C68022C01D076
:1001F000122C0CD1DC08A40027183C6A5D07ED0E18
:100200000F26AE40B4430E69AE4026433E620568F9
:100210005E000324B4400F79A543BF07BF0FB7406A
:100220002F4307604D68012D05D0022D03D0112DFD
:1002300001D0122D0ED18568CF68A543B7402F435A
:10024000876047686546AF430D79ED06ED0F9D4029
:100250003D434560C568A5438C68B4402C43C460E9
:100260004C68E40044D5264CA56901263543A561B8
:10027000A4699D0834400094224CAD002F19BC683D
:100280009D072E0F0F25B540AC430925ED06A8426A
:1002900001D100250AE01C4DA84201D1012505E04D
:1002A0001A4DA84201D1022500E00525B54025439D
:1002B000BD60174C25684E689543F60300D515437D
:1002C000256065684E689543B60300D515436560A3
:1002D000A5684E689543F60200D51543A560E5680C
:1002E0004E689543B60200E002E000D51543E56094
:1002F0005B1C0A681546DA4000D070E7F8BD0000C4
:1003000000100240000001400004004800080048BE
:100310000004014042694A4042617047002A01D00E
:100320008161704781627047014800687047000032
:100330002000002070B5040005D025466035687A9D
:10034000002802D006E0012070BD0020287220465F
:1003500000F0DCFF24206872206801684908490029
:100360000160204601F020FC0128EDD0606A0028E1
:1003700002D0204601F07EFB206841680922D202AB
:100380009143416020688168222291438160206806
:1003900081680822114381602068016801221143AD
:1003A0000160204601F0CCFB70BD70B502464032C2
:1003B0005378202B1CD11378012B19D001231370F3
:1003C00024245470046825689D43256004682568CA
:1003D0001E03B5432560046825680D432560006849
:1003E000016819430160202050700020107070BD1A
:1003F000022070BD70B5024640325378202B1BD1CD
:100400001378012B18D0012414702423537003682F
:100410001D68A5431D6005682B680F263602B3438F
:100420000902194329600068016821430160202006
:1004300050700020107070BD022070BD70B50400B7
:1004400006D02546403568780026002802D005E011
:10045000012070BD2E70204600F0A0F924206870A5
:10046000206801684908490001600F216068090699
:1004700088432168086121688A680120C00382439B
:100480008A60E1680129A16808D021229202114303
:1004900022689160E168022902D005E00143F7E794
:1004A00001212268C902516021684A680F4B1A4332
:1004B0004A602168CA688243CA606169206908434A
:1004C000A169090208432168C860216AE0690843FC
:1004D0002168086020680168012211430160666498
:1004E000202068702663AE70002070BD008000027E
:1004F000FFB5054604464035687883B0202873D19F
:100500000C98002871D00D9800286ED0287801280A
:100510006AD001202870FFF707FF074601220090EC
:100520001923D103204601F041F8002876D122207A
:1005300068704020A870002666640C9860620D9870
:10054000608566630E980090019704A90EC9204645
:1005500000F0B0FF002804D0606C2E70042860D03A
:100560005CE0618D09208002FF2905D9FF222285E8
:1005700001231B06009006E0618D21850090208DEF
:100580000123C2B25B062046049900F0FDFF0097EC
:100590000022042120460E9B01F008F800283DD1DE
:1005A0002068416A606A421C62620170208D401EB0
:1005B00081B22185608D401E6085002921D1608D2A
:1005C00000281ED000970022802120460E9B00F0BC
:1005D000EDFF002822D1608DFF2807D9FF22228558
:1005E00001231B06009608E02AE01AE0608D2085B2
:1005F0000096208D0123C2B25B062046049900F0CC
:10060000C3FF608D0028C2D13A4620460E9900F003
:10061000F1FF002807D0606C042802D0032007B047
:10062000F0BD0120FBE721682020C86121684A68ED
:10063000044B1A404A606870AE702E700020EEE7DE
:100640000220ECE700E800FEFFB505460446403511
:10065000687883B0202876D10C98002874D00D9843
:10066000002871D0287801286DD001202870FFF76C
:100670005BFE0746012200901923D103204600F0BB
:1006800095FF002853D1212068704020A8700026D3
:1006900066640C9860620D98608566630E980090A1
:1006A000019704A90EC9204600F039FF002804D0A4
:1006B000606C2E7004286AD039E0608DFF2805D95F
:1006C000FF22228501231B06009606E0608D20850F
:1006D0000096208D0123C2B25B062046049900F0EB
:1006E00053FF3A4620460E9900F0ABFF002803D096
:1006F000606C04284BD01AE0606A411C616221687A
:1007000000788862608D401E6085208D401E000448
:10071000000C208524D1608D002821D00097002274
:10072000802120460E9B00F041FF002802D00320CC
:1007300007B0F0BD608DFF2807D9FF222285012375
:100740001B06009608E024E021E0608D20850096DD
:10075000208D0123C2B25B062046049900F014FFED
:10076000608D0028BDD13A4620460E9900F042FF28
:100770000028BDD120682021C16120684268064B55
:100780001A4042606970AE702E700020D0E70120E0
:10079000CEE70220CCE7000000E800FE00B50068CC
:1007A0000F4987B0884218D10320400200901220E0
:1007B000019001200290032003900420049009205E
:1007C0006946C006FFF708FD0648C26901214905D0
:1007D0000A43C261C0690840059007B000BD00002F
:1007E000005400400010024002480168491C0160AA
:1007F000704700002000002010B506480168102254
:1008000011430160002000F007F800F017F8002005
:1008100010BD00000020024010B5044600F064F94D
:100820007D21C900FFF782FC00F054FD0022214623
:10083000501E00F025F8002010BD000008B50F483C
:100840008169012211438161816911400091C2696E
:1008500001040A43C261C0690022084000901146A9
:10086000501F00F00DF800221146901E00F008F80D
:1008700000221146501E00F003F808BD001002408F
:1008800010B500F0AFFF10BDF8B5044600683E4D4E
:10089000C00352D5E8690026C00007D4E9692804DE
:1008A0000143E961E9690140012600913748016887
:1008B000C90510D40168821511430160FFF734FDAA
:1008C000074604E0FFF730FDC01B642824D82F48FA
:1008D0000068C005F6D5286A03273F02384020D0BB
:1008E0006168394081421CD0286A2A6AB8430121D4
:1008F00009040A432A622A6A8A432A622862C007D4
:100900000FD0FFF711FD009008E0FFF70DFD0099F3
:10091000411A1F48814201D90320F8BD286A800787
:10092000F3D5286A6168B84308432862002E04D0D2
:10093000E969012000078143E9612078C00705D0FB
:10094000286BA1688008800008432863207880060F
:1009500005D5286B10218843E16808432863206887
:10096000800305D5286B802188436169084328638B
:100970002088400505D5286B40218843216908431C
:1009800028630020F8BD0000001002400070004005
:1009900088130000F8B505464E480E460068C007AB
:1009A000C00FB0420AD24B480168490849003143A0
:1009B00001600068C007C00FB04270D12878464C73
:1009C000800705D56068F0218843A9680843606006
:1009D0002878C00753D06868012817D0022818D09B
:1009E000032819D021688907002958DA6168890825
:1009F000890001436160FFF797FC69680746012998
:100A000013D002291DD0032927D034E0216889039F
:100A1000EAE721688901E7E7616BC903E4E7FFF7CB
:100A200083FCC11B2D48814223D860680007800FDA
:100A30000128F4D123E0FFF777FCC11B274881424E
:100A400017D860680007800F0228F4D117E0FFF77D
:100A50006BFCC11B214881420BD860680007800FE6
:100A60000328F4D10BE0FFF75FFCC11B1B48814258
:100A700001D90320F8BD60680007800FF3D1154845
:100A80000168C907C90FB1420BD90168490849007B
:100A9000314301600068C007C00FB04201D001209F
:100AA000F8BD2878400706D5606807210902884309
:100AB000E9680843606000F02DF86168084A09069B
:100AC000090F515CC840074908600020FFF7A4FEE9
:100AD0000020F8BD002002400010024088130000F2
:100AE000D02C000824000020014800687047000056
:100AF000240000200448054900684968044A490563
:100B0000490F515CC840704724000020001002408B
:100B1000E02C000830B516A30FCB89B06C460FC48B
:100B200017A30FCB0FC41A494A680C20144604407F
:100B30001848042C05D0184B082C04D00C2C00D1DC
:100B4000184609B030BD9402240F6D462C5DC96A69
:100B500004AD0907090FD203695C920F022A02D083
:100B6000032A00D11846FFF7E1FA6043E9E70000E5
:100B700002030405060708090A0B0C0D0E0F1010DE
:100B80000102030405060708090A0B0C0D0E0F10DD
:100B90000010024000127A00006CDC02FEB5044630
:100BA0000078F04EF04DC00748D068680007800F0D
:100BB00001281FD068680007800F022804D16868E8
:100BC000C003800F022815D06168012919D00120C7
:100BD0008004002901D0052917D02968B143296074
:100BE000296881432960606800281BD0FFF79CFBBF
:100BF000074613E02868800320D56068002876D077
:100C00001CE0286830432860EDE72968014329602B
:100C1000F7E7FFF789FBC01B642869D828688003C1
:100C2000F7D50BE0FFF780FB074604E0FFF77CFBFE
:100C3000C01B6428F1D828688003F7D42078800787
:100C40003ED568680007800F14D068680007800FE1
:100C5000022804D16868C003800F01280AD0E06828
:100C6000002828681DD0012108432860FFF75CFB9D
:100C700007460BE0286880070BD5E068012836D1CD
:100C800007E0FFF751FBC01B0228C6D82868800781
:100C9000F7D52868F82188432169C90008432860EE
:100CA0000EE0400840002860FFF73EFB074604E0E6
:100CB000FFF73AFBC01B0228AFD828688007F7D49B
:100CC0002078000724D5E0690028686A11D0012146
:100CD00008436862FFF728FB074604E0FFF724FBA0
:100CE000C01B022899D8686A8007F7D510E036E162
:100CF000D1E0400840006862FFF716FB074604E0B9
:100D0000FFF712FBC01B022887D8686A8007F7D458
:100D1000207804274007002861DA00200190E86964
:100D2000C00008D4E969B8060143E961E9690140F6
:100D30000120009101908D480168C90511D4016816
:100D4000821511430160FFF7EFFA009005E0FFF70D
:100D5000EBFA0099401A642897D884480068C005C7
:100D6000F5D5A06801280AD0002801D0052811D0A7
:100D7000286A400840002862286AB84302E0286ACE
:100D8000012108432862A068002812D0FFF7CCFA9E
:100D900000900AE0286A38432862F0E7FFF7C4FAB7
:100DA0000099411A7248814275D8286A8007F5D5A2
:100DB0000DE0FFF7B9FA009006E0FFF7B5FA0099E9
:100DC000411A6B48814266D8286A8007F5D4019899
:100DD000002804D0E969012000078143E9612078F7
:100DE000C00635D5606901280CD0401D686B24D041
:100DF00038436863686B400840006863FFF794FA03
:100E0000074622E0686B38436863686B012108433A
:100E10006863FFF789FA074604E0FFF785FAC01B0D
:100E2000022838D8686B8007F7D5686BF8218843AB
:100E3000A169C900084368630AE0B8436863F4E73E
:100E4000FFF772FAC01B022825D8686B8007F7D419
:100E50002078800637D568680007800F032813D0F4
:100E600068680007800F022804D16868C003800FFB
:100E7000032809D0206A0028686B16D030436863C5
:100E8000FFF752FA06460CE0686BC0031BD5206AD8
:100E9000012864D117E05BE0FFF746FA801B0228C7
:100EA00056D8686BC003F7D50DE0B0436863FFF711
:100EB0003BFA064604E0FFF737FA801B022847D8C2
:100EC000686BC003F7D4606A002846D069680907D8
:100ED000890F022943D0012636060228286805D04A
:100EE000B0432860FFF720FA044633E0B04328609F
:100EF000FFF71AFA074604E0FFF716FAC01B0228AC
:100F000026D828688001F7D4E86A216B000900011F
:100F10000843E862A16AE06A084369687B22D20359
:100F2000914308436860286830432860FFF7FCF964
:100F3000044604E0FFF7F8F9001B022808D82868E7
:100F40008001F7D509E0FFF7EFF9001B022801D96E
:100F50000320FEBD28688001F5D40020FEBD0120DD
:100F6000FEBD0000000001000010024000700040C3
:100F700088130000F8B5040007D000262546403548
:100F8000A662687F002802D005E00120F8BD2E7718
:100F9000204600F04BF802236B772068016840225E
:100FA000914301600721E0680902884201D90022CB
:100FB00001E0012212030F273F02B84202D088420B
:100FC00000D0A662276B002F05D1884201D9236388
:100FD00001E001202063A16860686369084321691A
:100FE000194308430123A1695B0219400843E169E1
:100FF0000843216A0843A16A084321680860616BBD
:10100000606AA36908431B0C0427E1683B4019434D
:1010100008432168104348602068C1697A029143FF
:10102000C1612666012068770020F8BD00B5006820
:101030000D4987B0884215D10C48826981140A4352
:101040008261806908400590E020009002200190B4
:101050000021032003900291049109206946C006F3
:10106000FFF7BAF807B000BD0030014000100240A1
:10107000FFB5044683B00120254640350090287F07
:1010800000270E4601280FD001202877FFF74CF9E2
:101090000190687F616801280DD0CA1FFD3A08D110
:1010A000A168002905D102E0022007B0F0BD0428A4
:1010B00001D00227FAE0002E7CD005980028FBD052
:1010C00006980028F8D0687F042801D005206877AA
:1010D00000202066059921640699E9800699A98077
:1010E000A6630699E1870699A187E0642065072336
:1010F000E1681B02994202D8E888012806D92068D5
:101100004268012109038A43426005E02068416882
:10111000012212031143416020680168490603D48B
:101120000168402211430160E1686068994242D938
:10113000002802D0E08F012835D121683088C860AE
:10114000E08F401EE087B61C2DE0009800280ED0EE
:10115000E08F00280BD020688168890707D5318887
:10116000C160E08F401EE0870020B61C0090E88838
:1011700000280ED020688168C9070AD0C068059988
:1011800008800598801C0590E888401EE8800120B2
:1011900000900C98401C06D0FFF7C6F80199411A40
:1011A0000C9881426DD2E08F0028CED1E8880028CB
:1011B000CBD16EE079E0002802D0E08F012862D127
:1011C000E08F012807D921683088C860E08F801E31
:1011D000E087B61C57E0216830780873E08F401E26
:1011E000E087761C4FE00098002818D0E08F002898
:1011F00015D020688168890711D5E18F012906D9AA
:101200003188C160E08F801EE087B61C05E0317830
:101210000173E08F401EE087761C00200090E88874
:10122000002824D020688168C90720D0E9880129D6
:1012300012D9C068059908800598801C0590E88837
:10124000801EE880E88801280FD8206841680122C4
:1012500012031143416008E0017B05980170059875
:10126000401C0590E888401EE880012000900C9802
:10127000401C08D0FFF758F80199401A0C99884291
:1012800001D3032712E0E08F0028ACD1E8880028C2
:10129000A9D12046019A0C9900F0C7FA002801D084
:1012A00020202066206E002800D0012701206877CA
:1012B000002028773846F8E6042204490428086903
:1012C00002D09043086170471043FBE700E000E064
:1012D00070470000094910B5401E884201D901201D
:1012E00010BD074C60610321081F00F07BFA00204D
:1012F000A06107202061002010BD0000FFFFFF005B
:1013000000E000E010B5FFF7E3FF10BD00B5006896
:101310000E4987B0884216D10D48C269012149049F
:101320000A43C261C0690840059004200090122061
:101330000190012103200390029104910920694644
:10134000C006FEF749FF07B000BD000000440040A2
:1013500000100240FFB5064604466036707A83B03E
:101360000D46202858D1002D0CD00598002809D012
:101370000120A1680003814207D12069002804D11F
:10138000E80702D0012007B0F0BD307A012843D031
:10139000012030720020E06621207072FEF7C4FF49
:1013A000019027464037059838820598788218E0E2
:1013B000788A401E7882069800900022802120467C
:1013C000019B00F089FC002818D10120A1680003CE
:1013D000814202D12069002812D02168287808852E
:1013E0006D1C788A0028E3D10698009000224021E5
:1013F0002046019B00F070FC002808D00320C2E7C3
:1014000028882168C005C00D0885AD1CE9E72020AB
:10141000707200203072B6E70220B4E7FEE7016880
:101420008A69D243920701D400228A6200688169E6
:10143000C943C90703D08169012211438161704703
:10144000F7B5044600680E468069C043C0062CD438
:1014500020272546403520688069C04380060FD587
:10146000701CF8D0002E05D0FEF75EFF0299401ADE
:10147000B042F0D96F700020A87028700320FEBD24
:1014800021681020C8612068C7612046FFF7C7FFA8
:1014900020684168064A11404160042060646F7012
:1014A0000020A87028700120FEBD0020FEBD0000B5
:1014B00000E800FEF8B504460120164640031D462C
:1014C000DAB20090079F0023204600F05DF83A460C
:1014D0002046069900F0B5F8002803D0606C042877
:1014E0001BD018E02846F5B2012809D02168300A3F
:1014F00088623A462046069900F0A3F80028EDD10C
:10150000206885620097002240212046069B00F05B
:101510004DF8002800D00320F8BD0120F8BDF8B533
:1015200004460120164640031D46DAB2C30200906D
:10153000079F204600F028F83A462046069900F01A
:1015400080F8002803D0606C04281BD018E02846DF
:10155000F5B2012809D02168300A88623A4620464F
:10156000069900F06EF80028EDD12068856200979A
:10157000002280212046069B00F018F8002800D0A9
:101580000320F8BD0120F8BD70B50568049C6868AB
:101590008905890D1204044E11431943304021433B
:1015A0000143696070BD0000009800FCF8B51C465E
:1015B00017460E46054611E0601C0FD0002C05D0E2
:1015C000FEF7B2FE0699401AA04207D92020403506
:1015D00068700020A87028700320F8BD2868816911
:1015E0003046884304D00020B842E5D00020F8BD42
:1015F0000120F9E770B516460D4604461AE032465A
:1016000029462046FFF71CFF002801D0012070BDAD
:10161000002D04D0FEF788FE801BA8420AD9616C19
:10162000202001436164403460700020A07020706D
:10163000032070BD20688069C0438006DFD400208D
:1016400070BD70B516460D4604461CE0324629466C
:101650002046FFF7F5FE002801D0012070BD681C70
:1016600011D0002D04D0FEF75FFE801BA8420AD9DE
:10167000616C202001436164403460700020A070E0
:101680002070032070BD20688069C0438007DDD4CE
:10169000002070BDF0B51A4887B0426901214904A5
:1016A0000A43426142690A400592426949000A437D
:1016B0004261406909260840F6060590002218217B
:1016C0003046FEF72BFE0F4F012202213846FEF76F
:1016D00025FE1820002401250090029469460195FA
:1016E00003943046FEF778FD02200090029469468C
:1016F000019503943846FEF76FFD07B0F0BD00007A
:10170000001002400004004810B512481049016062
:1017100011494160002181600161416181610122C3
:10172000C161C2600162FEF789FE002800D0FEE7B9
:1017300000210848FEF739FE002800D0FEE700210E
:101740000448FEF757FE002800D0FEE710BD000059
:10175000005400402C0000200E09002010B5114854
:101760000F490160FF21053141600021072281609E
:1017700012020161C2600122416152028261016272
:1017800018224162C26181620722C262016308219C
:101790004163FFF7EFFB002800D0FEE710BD00001B
:1017A000003001407800002010B50C480A49016063
:1017B000E1214902416000218160C16001618161D4
:1017C000C1610822016242614162FEF7B3FD002857
:1017D00000D0FEE710BD000000440040DC00002007
:1017E000704700008307FF22DB0E9A408907090E2D
:1017F000994000280BDA0007000F083883080848D2
:101800009B001818C36993430B43C3617047830857
:1018100004489B001B1818689043084318607047E1
:1018200000ED00E000E400E07047F8B50F460B461D
:1018300015460092032104460022C90200F01BF85D
:101840002026002812D13B46002280212046009508
:1018500000F05CF8002809D103213B460022490230
:101860002046009500F007F8002803D0206E304392
:1018700020660320F8BDF8B51D4617460E460446FF
:101880003DE0032149028E4205D1002F03D1017BA7
:10189000684601700078681C31D0002D05D0FEF735
:1018A00043FD0699401AA84229D320684168E022E6
:1018B000914341606068C11FFD390CD10121A068CE
:1018C000C903884202D04911884204D120680168C6
:1018D0004022914301600120A16A4003814207D167
:1018E00021680A6882430A6021680A6802430A6024
:1018F000012040346077002020770320F8BD206865
:1019000081683140B942BCD10020F8BDF8B51D4610
:1019100017460E46044633E0681C31D0002D05D032
:10192000FEF702FD0699401AA84229D320684168B3
:10193000E022914341606068C11FFD390CD1012153
:10194000A068C903884202D04911884204D12068A6
:1019500001684022914301600120A16A4003814255
:1019600007D121680A6882430A6021680A68024335
:101970000A60012040346077002020770320F8BD02
:10198000206881683046884304D00020B842C3D123
:101990000020F8BD0120F9E7704710B5FEF724FFDD
:1019A000FFF7B0FC10BD10B598B0222000900120C8
:1019B0000390089000241020099404906846FFF7D3
:1019C000EDF8002800D0FEE707200D9003200E90D0
:1019D0000F94012110940DA8FEF7DCFF002800D021
:1019E000FEE720201190149411A8FEF74DFF002867
:1019F00000D0FEE7FFF778F87D21C900FEF796FBDF
:101A0000FFF768FC0420FFF757FC00221146501E28
:101A1000FEF736FF18B010BD1348016801221143CC
:101A200001604168114A114041600168104A11404B
:101A300001600168012292049143016041683F22E4
:101A4000120491434160C16A09090901C162016B35
:101A5000FF22D43291430163416B4908490041633D
:101A60000021816070470000001002400CB8FF08A0
:101A7000FFFFF6FE10B5818CC90707D001684A68E0
:101A800001235B049A43836A1A434A60818C890765
:101A900007D501684A6801231B049A43C36A1A43A5
:101AA0004A60818C490707D501684A6801239B0475
:101AB0009A43036B1A434A60818C090707D5016872
:101AC0004A680123DB039A43436B1A434A60818CC3
:101AD000C90607D50268916801231B039943836BEC
:101AE00019439160818C890607D501688A680123B2
:101AF0005B039A43C36B1A438A60818C490612D5F3
:101B000003685A6801210905046C8A4322435A601C
:101B1000026C8A4207D10268516803235B0599432E
:101B2000436C19435160818C090607D501684A68E6
:101B30000123DB04806C9A4302434A6010BD00001D
:101B4000F8B500260446C666FEF7EEFB05461449C6
:101B5000206888421DD10068124F000709D5012175
:101B60002B46002249052046009700F0B5F80028D2
:101B70000DD12068006840070BD501212B460022BB
:101B800089052046009700F0A7F8002801D003201F
:101B9000F8BD202060346072A07226720020F8BD6B
:101BA00000380140FFFFFF01F8B504462369A26831
:101BB000E5691A43636910202B43002125681A4305
:101BC0002B680E463E4F3B4013432B6023685A68F8
:101BD00003252D03AA43E5682A435A60236AA269B4
:101BE00025681A43AB680B273F02BB431343AB6026
:101BF000344A2568954210D1334A126B9207920FEE
:101C00000ED0012A05D0022A05D0032A09D10220CC
:101C100007E0042005E0082003E02C4A954200D1AB
:101C200000200122E369D203934224D100280CD082
:101C300002280DD0042813D0082817D001260A093D
:101C400012010807400F10432FE0FEF753FF09E091
:101C500061681F4A48088018FEF768FA81B2EEE70B
:101C6000FEF758FF616840004A08F4E76168012206
:101C700048081204EFE7002808D0022809D00428F9
:101C80000BD0082814D001263046F8BDFEF732FFED
:101C900005E061680F4A48080CE0FEF73BFF616809
:101CA0004A088018FEF742FA80B22168C860EBE764
:101CB000616848088018FEF739FA80B2E860E3E707
:101CC000F369FFEF0038014000100240004400407B
:101CD0000024F40000127A00FFB581B017460E46CA
:101CE00004460A9D1DE0681C1BD0002D05D0FEF7A0
:101CF0001BFB0499401AA84213D920680168FF22EF
:101D0000A1329143016020688168490849008160DF
:101D1000202060346072A07200202072032005B081
:101D2000F0BD2068C1693046884304D00020B84225
:101D3000D9D00020F3E70120F9E70000F0B585B025
:101D4000892000F099FE012420430146892000F0FB
:101D500091FF0021882000F08DFF0121802000F0FC
:101D600089FF0121FF2000F085FF0021084600F0D7
:101D700081FF912000F080FEEF4988700121002052
:101D800000F078FF0021FF2000F074FF0021802088
:101D900000F070FF602000F06FFE12210143602010
:101DA00000F068FF7D20C00500F0F4FEFF21012057
:101DB00000F060FF03A902A800F030FB00287DD0EE
:101DC00006226946B02000F0DBFD0121FF2000F073
:101DD00051FF00214F2000F04DFF2C214E2000F03C
:101DE00049FF0021FF2000F045FFB421B62000F09C
:101DF00041FF6846007B002801D00C2500E000254B
:101E00006A46127A0021944608466A46A84201D3DF
:101E1000614508D1C4084707165D7F0F0123BB4009
:101E20009E43165508E0C308D35C4407640FE340A3
:101E3000DB0701D0491CC9B2401CC0B23028E5D331
:101E400006226946B02000F003FF0121FF2000F0C8
:101E500011FF0021084600F00DFF0021FF2000F0D7
:101E600009FF0021092000F005FF0021102000F0EB
:101E700001FF0021112000F0FDFE0121242000F0CF
:101E8000F9FEFF21252000F0F5FE0021752000F06D
:101E9000F1FE0121FF2000F0EDFE2C214E2000F08C
:101EA000E9FE0021482000F0E5FE2021302000F06E
:101EB000E1FE0021FF2000F0DDFE00E039E1092114
:101EC000302000F0D7FE0021542000F0D3FE042182
:101ED000312000F0CFFE0321322000F0CBFE832121
:101EE000402000F0C7FE2521462000F0C3FE00215F
:101EF000602000F0BFFE0021272000F0BBFE06217D
:101F0000502000F0B7FE0021512000F0B3FE9621D2
:101F1000522000F0AFFE0821562000F0ABFE302129
:101F2000572000F0A7FE0021612000F0A3FE002151
:101F3000622000F09FFE0021642000F09BFE002143
:101F4000652000F097FEA021662000F093FE01219D
:101F5000FF2000F08FFE3221222000F08BFE1421A2
:101F6000472000F087FEFF21492000F083FE00217A
:101F70004A2000F07FFE0021FF2000F07BFE0A21B6
:101F80007A2000F077FE00217B2000F073FE2121F3
:101F9000782000F06FFE0121FF2000F06BFE34215D
:101FA000232000F067FE0021422000F063FEFF21A5
:101FB000442000F05FFE2621452000F05BFE052155
:101FC000462000F057FE4021084600F053FE06214F
:101FD0000E2000F04FFE1A21202000F04BFE402181
:101FE000432000F047FE0021FF2000F043FE0321C4
:101FF000342000F03FFE4421352000F03BFE01215B
:10200000FF2000F037FE0421312000F033FE0921CB
:102010004B2000F02FFE05214C2000F02BFE042168
:102020004D2000F027FE0021FF2000F023FE0021BC
:10203000442000F01FFE2021452000F01BFE082157
:10204000472000F017FE2821482000F013FE002151
:10205000672000F00FFE0421702000F00BFE01212C
:10206000712000F007FEFE21722000F003FE002127
:10207000762000F0FFFD0021772000F0FBFD01211C
:10208000FF2000F0F7FD01210D2000F0F3FD0021FD
:10209000FF2000F0EFFD0121802000F0EBFDF82192
:1020A000012000F0E7FD0121FF2000F0E3FD012108
:1020B0008E2000F0DFFD0121002000F0DBFD00217B
:1020C000FF2000F0D7FD0021802000F0D3FD042187
:1020D0000A2000F0CFFD842000F0CEFCEF2101406B
:1020E000842000F0C7FD01210B2000F0C3FD00F0AB
:1020F0000FF9114CE821A060012000F0BBFDA068A1
:1021000000F0EAFC0121084600F0B4FD402000F098
:102110000DFC00280DD00221012000F0ABFD0020B5
:1021200000F004FC002804D0E821012000F0A2FD0A
:10213000012005B0F0BD0000000000200FB410B574
:1021400003A9044B044A029800F018F810BC08BC1C
:1021500004B01847F92200082800002002E008C84F
:10216000121F08C1002AFAD170477047002001E011
:1021700001C1121F002AFBD170470000FFB58DB0CE
:102180000446002506E025280AD0109A0F999047AA
:10219000641C6D1C20780028F5D1284611B0F0BDD4
:1021A00000270121484A009700E00743641C237878
:1021B0000846203B98401042F7D120782E2817D1AE
:1021C000042007436078641C2A280CD10E98641CF4
:1021D00002C800910E900BE000990A225143303959
:1021E0004018641C00902078014630390929F3D941
:1021F00020780028D1D0642808D0692806D0752816
:102200001ED0109A0F9990476D1C5BE00A200E9922
:10221000019001C90E91002802DA40422D2102E00E
:10222000390504D52B216A461172012103E0F90713
:1022300004D02021F7E70BAE0B910DE00021FAE767
:102240000A200E99019001C90E91F7E70199FDF757
:102250006DFF3031761E31700028F7D103A8801B46
:1022600020300190780701D5009801E0012000900E
:102270000199884201DD401A00E00020002700900B
:1022800006E002A8109AC05D0F9990476D1C7F1C54
:102290000B988742F5DB04E0109A30200F999047A5
:1022A0006D1C0099481E00900029F5DC05E030788F
:1022B000109A761C0F9990476D1C0199481E019049
:1022C0000029F4DC641C65E709280100C1B2000A9A
:1022D0008140491C88B27047002100280AD0401E66
:1022E00002E04008491C89B2020AFAD10902C0B2D0
:1022F000014388B27047000013B50A2301226946E2
:102300000248FFF727F800981CBD0000DC00002001
:1023100070B588B0A525AD00194E1A4C684600F07E
:1023200039F802A9684600F049F8684600780028A4
:1023300002D015490598441868468078002804D0D2
:10234000059812494000001905E0684640780028C9
:1023500002D00598611944186846C078002802D058
:1023600006986119441868460079002802D0079839
:10237000A119441806488460204608B070BD0000CA
:1023800026020000360B0000840D000064050000EA
:102390000000002010B50446012000F06DFBC106CE
:1023A000C90F21700107C90FA1704107C90F6170E2
:1023B0004106C90FE170C009207110BD70B5054616
:1023C0000C46002000F0A0F82080462000F054FBCE
:1023D000401CA080217800F007FCE060512000F054
:1023E00061FBFFF773FFE080217800F0FDFB2061C7
:1023F000012000F089F86080712000F053FBFFF7A6
:1024000065FF2081E978002902D0E188401A208107
:10241000A178208900F0E8FB606170BD70B50D46C1
:1024200006460121802000F025FC0121FF2000F05C
:1024300021FC0021084600F01DFC0621FF2000F0D1
:1024400019FC832000F018FB04210143832000F0D5
:1024500011FC0721FF2000F00DFC0121812000F07C
:1024600009FC0121802000F005FC6B21942000F084
:1024700001FC0021832000F0FDFBFDF755FF214CFE
:10248000E0800CE0A088002809D0FDF74DFFE1882E
:1024900080B2401AA188884201DD002070BD8320EF
:1024A00000F0EAFA0028EDD00121832000F0E2FBE1
:1024B000922000F0E1FA4106490E3170C0092870FF
:1024C0000021812000F0D6FB0621FF2000F0D2FB86
:1024D000832000F0D1FAFB210140832000F0CAFBE9
:1024E0000121FF2000F0C6FB0121002000F0C2FB0B
:1024F0000021FF2000F0BEFB0021802000F0BAFB8D
:10250000012070BD0000002010B5002803D0012874
:1025100003D0FF2010BD502000E0702000F0ACFA86
:10252000401C4006000E10BDFEF766F9FFF73BFAAF
:10253000FFF7B0F8FFF738F9FFF7E6F8FFF70EF905
:1025400031A0FFF7FBFD00F020F90421022000F08C
:10255000B3F8334800F0C8F93148401D00F076F96F
:1025600030A0FFF7EBFDFFF7E9FBFF242F48F53420
:1025700004802F4800F0B0FA294D6C272D1FAC1EA7
:10258000FF20F530FDF71AFE2F706F206870AF70D6
:1025900020780A210646FDF7C9FD3031E970761C26
:1025A000267024A0FFF7CAFD1D48001F00F05CF94B
:1025B00000F0F3F80028FBD100F0F9F86070002873
:1025C00002D0012802D004E01DA000E022A0FFF705
:1025D000B5FD00F030F96070014625A0FFF7AEFDB3
:1025E00000F008FA014629A0FFF7A8FD00F028FB3B
:1025F000002802D026A0FFF7A1FD09200821C0066F
:10260000FDF788FEBCE700006E726620696E697493
:1026100069616C697A696E672E2E2E0A00000000CF
:1026200012000020646F6E650A00000004000020A4
:10263000204E000073656E64696E672E2E2E0A00B0
:102640003E205472616E6D697373696F6E20776599
:102650006E74204F4B0D0A003E204D657373616709
:1026600065206973206C6F7374202E2E2E0D0A0066
:102670003E2052657472616E6D697373696F6E206E
:10268000636F756E743A2025640D0A0025640A0094
:1026900054494D454F55540A00000000092310B518
:1026A000DB06002801D0012200E00022102118469C
:1026B000FDF734FE10BD000010B51C4C2170014622
:1026C000052000F035F80021112000F031F82178C4
:1026D000122000F02DF80021132000F029F800212D
:1026E000142000F025F80021152000F021F8002129
:1026F000162000F01DF80621084600F019F8082100
:10270000002000F015F80321012000F011F803214A
:10271000022000F00DF84F21042000F009F80021FC
:102720001C2000F005F800F04FF810BD1C00002040
:1027300070B504460D46002000F00CF8E006C00E0F
:10274000203000F03FFA284600F03CFA012000F06B
:1027500001F870BD10B5054B002801D0012200E042
:10276000002202211846FDF7D9FD10BD00040048E3
:1027700010B50020FFF7EEFFFF2000F023FA04461B
:102780000120FFF7E7FF204610BD10B50020FFF73E
:1027900085FF0120FFF7DEFF10BD10B5FFF7E8FF52
:1027A0008006800F01D0002010BD012010BD10B5A3
:1027B000FFF7DEFF810601D5002010BDC00601D560
:1027C000012010BDFF2010BD10B50020FFF7C2FF93
:1027D000E22000F0F7F90120FFF7BCFF702107208D
:1027E000FFF7A6FF0020FFF759FF0B210020FFF79E
:1027F0009FFF0120FFF752FF10BD10B57021072089
:10280000FFF796FF0A210020FFF792FF10BD70B579
:10281000054616460C460020FFF79CFFE806C00E52
:1028200000F0D0F921463246084600F041F8012078
:10283000FFF790FF70BD08B5012269460820FFF739
:10284000E6FF684600780007000F08BD10B5044693
:102850000020FFF723FF052221460B2000F051F84E
:102860000120FFF71BFF10BD10B504460020FFF745
:1028700015FFFFF7C2FF0020FFF76CFFE12000F01B
:10288000A1F90120FFF766FF0020FFF763FFA020FA
:1028900000F098F905480178204600F018F801206A
:1028A000FFF758FF0120FFF7F9FE10BD1C000020C4
:1028B000F8B515460E460746002405E0385D00F0E1
:1028C00081F93055641CE4B2AC42F7D3F8BD70B561
:1028D0000D460646002404E0305D00F073F9641CE8
:1028E000E4B2AC42F8D370BD10B5044601460522EF
:1028F0000A2000F006F805222146102000F001F819
:1029000010BD70B5044615460E460020FFF722FFA5
:10291000E006C00E203000F055F929463046FFF79A
:10292000D6FF0120FFF716FF70BD0000012110B592
:102930000143002000F09EF9FDF7F6FC0F4CE0800B
:102940000CE0A088002809D0FDF7EEFCE18880B2F9
:10295000401AA188884201DD002010BD132000F03C
:102960008BF84007EDD001210B2000F083F9002106
:10297000084600F07FF9012010BD00000000002093
:102980003EB50B236C460EC4044C0246012321784D
:102990000348FDF7ADFDE0703EBD000000000020E3
:1029A0002C00002010B5FDF7BFFC104CE0800EE0BD
:1029B000A08800280BD0FDF7B7FCE18880B2401A50
:1029C000A188884203DD01206070094810BD1320F2
:1029D00000F052F84007EBD01E2000F063F80446E8
:1029E00001210B2000F046F9204610BD0000002018
:1029F000FFFF000010B50121802000F03BF901210C
:102A0000FF2000F037F90021084600F033F9184C98
:102A10009120A17800F02EF90121002000F02AF980
:102A20000021FF2000F026F90021802000F022F98B
:102A30000121002000F01EF9FDF776FCE0800EE099
:102A4000A08800280BD0FDF76FFCE18880B2401A07
:102A5000A188884203DD01206070064810BD002077
:102A600000F00AF8C007EBD1FFF79CFF10BD000093
:102A700000000020FFFF00001FB50B23012203A967
:102A80006C460EC41346054C024621780448FDF7F7
:102A90002FFDE0706846007B04B010BD00000020F0
:102AA0002C0000201FB50B23022203A96C460EC484
:102AB000074C0246012321780648FDF719FDE07016
:102AC0006846007B01026846407B04B0084310BDA5
:102AD000000000202C000020F0B50546A52628485F
:102AE000B600264F89B085422CD3264C6846FFF7A6
:102AF00051FC02A96846FFF761FC6846007800288F
:102B000002D021490598441868468078002804D0EE
:102B100005981E494000001905E0684640780028E5
:102B200002D00598A11944186846C078002802D040
:102B30000698A11944186846007900281CD0E019AD
:102B4000A84202D9002009B0F0BD69464989281A77
:102B5000C9B200F05FF86946C97880B2002903D095
:102B60006946C989081880B2FFF7B6FB0146712093
:102B700000F096F8064885600120E4E72602000090
:102B8000204E0000E8080000360B0000640500003D
:102B900000000020FF2110B5C905C84202D2084933
:102BA000884201DD002010BD0721FDF7D5FAFDF7B1
:102BB000DFFA81B2442000F073F8012010BD00005C
:102BC000B8FEFF4301B582B00021684601710A20BA
:102BD0000090012301AA02A90248FEF749FA6846BB
:102BE00000790EBD7800002070B5044608487D25A8
:102BF00041430846FF30ED00F5302946FDF796FACF
:102C00004443400820182946FDF790FA70BD0000A3
:102C1000002F3A0010B50446084848437D21FF3094
:102C2000C900F530FDF782FA01467D20C00044431B
:102C300048082018FDF77AFA10BD0000002F3A006E
:102C40000249002248784A707047000000000020C6
:102C50003EB50B236C460EC4044C0246012321787A
:102C60000348FDF7F1FCE0703EBD000000000020CD
:102C70002C00002013B584B00B23012205A96C465B
:102C80000EC41346044C024621780448FDF7DCFCD0
:102C9000E07006B010BD0000000000202C000020F5
:102CA0001FB50B0A6A46137351730B23022203A943
:102CB0006C460EC4044C0246012321780348FDF7FC
:102CC000C3FCE0701FBD0000000000202C000020AD
:102CD00000000000000000000102030406070809CC
:102CE0000000000001020304082D0008000000207D
:102CF0002C0000005C210008342D00082C0000206E
:102D0000240500006C2100085200000000000000B3
:102D100000000000000000000000E7E7E7E7E7D759
:102D2000D7D7D7D7000000000000000000127A00BB
:042D3000000000009F
:04000005080000C12E
:00000001FF
