:020000040800F2
:1000000070060020D50000089D2700085122000836
:1000100000000000000000000000000000000000E0
:10002000000000000000000000000000C3290008DC
:100030000000000000000000E5270008C5290008B6
:100040000501000805010008452800080501000811
:100050000501000805010008050100080501000868
:100060000501000805010008050100080501000858
:100070000501000805010008050100080501000848
:100080000501000800000000000000000501000854
:100090000000000005010008A92A00080501000869
:1000A0000000000005010008050100080501000826
:1000B0000501000800000000050100080501000816
:1000C0000348854600F06EF900480047793900087A
:1000D000700600200C4880F308880C480168090E5F
:1000E0000B4A914205D10B480B4901600B480C4962
:1000F00001600C4880470C480047FEE7FEE7FEE73A
:10010000FEE7FEE7FEE700007006002004000000A6
:100110001F00000018100240010000000000014014
:10012000000000004D2A0008C100000830B50B4651
:10013000014600202022012409E00D46D5409D42C1
:1001400005D31D469540491B254695404019154647
:10015000521E002DF1DC30BD10B5202A04DB08460C
:10016000203AD040002110BD0B46D340D04020247F
:10017000A21A91400843194610BD420005D0420022
:10018000120E52428A4201DB00207047C90508184E
:1001900070470000F0B51FB488B00B99099800248F
:1001A00048400999C00F490049080991C0070B99B7
:1001B0000090490049080B9109990898A646084300
:1001C0001CD00B990A98084318D0099801244000C4
:1001D000420D4800410D099824050003000B2043FF
:1001E00009900B980003000B20430B9050181C49FA
:1001F0004018002201901446104605E000200146F8
:100200000DB0F0BD032801DA034600E003239C464D
:10021000C11A0AAE0AE05F0008ADED5B4F00F75B64
:100220007D430027AA187C41491C5B1E6145F2DD15
:10023000410004AB5A522104120C0A43240C401C06
:100240000828DFDB01980290009970460191009028
:10025000059B049A0799069800F051F8D0E7000032
:100260000DFCFFFF0EB505490291002100910A46E1
:100270000B46019100F043F803B000BD33040000C9
:10028000410040020122400AD205090E80187F2950
:1002900001DA00207047962903DC9622511AC840E3
:1002A00070479639884070474A0009030123090BBB
:1002B0001B051943094B10B5520D9A4201DA002073
:1002C00010BD064B34339A4203DC9A1AFFF744FF01
:1002D00010BD03495118884010BD0000FF03000005
:1002E000CDFBFFFF10B5002B08DA0024401C614154
:1002F00092185B411A4301D14008400010BDF0B58F
:100300001FB482B005460C0003D0084603F0AEF8D7
:1003100002E003F0ABF82030024600902146284668
:1003200000F052F8049B059A04460F461843114307
:10033000084314D0184610431BD0009840210A1AD5
:1003400018460599FFF708FF05460E46009A0599DD
:10035000049800F039F8084305D0012004E0204655
:10036000394607B0F0BD0020C11705430E432C43AA
:10037000374300990E986305401A7905E40A002274
:100380000C43FD0A0A3002D500200146E9E70105C9
:10039000101969410C9C0D9D00196941FFF7A2FFDE
:1003A000DFE70000064C0125064E05E0E36807CCB8
:1003B0002B430C3C98471034B442F7D3FFF784FE2C
:1003C000644100088441000810B5202A04DB01467E
:1003D000203A9140002010BD914020239C1A0346F2
:1003E000E3401943904010BDF8B500250446403461
:1003F00000952278012A3BD00122227003689E6872
:10040000760776D43F4F4E68BE4254D09E6A0F782E
:10041000BA4016439E620123826B1B079A421FD08B
:10042000012A1DD0022A1BD0032A19D0042A17D072
:10043000052A15D0062A13D0072A11D002688B6826
:1004400056697607760FB3420AD05369DB08DB00A2
:100450005361006842690B7A5B075B0F1A43426184
:100460000868102806D0112804D0122802D045E0D0
:100470000220F8BD244A9368102809D011280AD018
:1004800001200006034393600868102806D035E079
:100490000120C005F6E701208005F3E71C481B4951
:1004A0000068FFF743FE0A21484300E0401E009029
:1004B0000028FBD122E0986A0E78B24090439862FF
:1004C0000868102803D0112801D0122816D10E492F
:1004D0008A68102807D0112808D00120000682431E
:1004E0008A600BE005E00120C005F8E701208005E7
:1004F000F5E7416C20221143416401250020207062
:100500002846F8BD011000000027014040420F00BE
:100510003C000020F8B500250446002803D0606C9C
:10052000002802D008E00120F8BD0020A06440218E
:100530000855204600F0A8F8606C1022C00600287C
:1005400070DB2068816849076CD4616C13019943A2
:1005500002231943616481688907890F012905D144
:100560000168C9070FD1C16809040CD4C1681823F8
:100570009943A3681943C1602068016963688900D1
:100580008908194301612068C1683D4B1940C16069
:10059000A069E1698003C9030843216A4B0318433A
:1005A000636B012B02D001231B0300E000231843DF
:1005B000E36818432369022B09D000231843236BF7
:1005C000666A5B0018430123012E02D00AE004236F
:1005D000F4E7002927D0616C202631436164A16CC7
:1005E0001943A164A16A0E46FF3EC23E02D0E66AEC
:1005F000314308432168CE680643CE600126A16BD3
:100600003607B14213D0012911D002290FD0032996
:100610000DD004290BD0052909D0062907D00729B8
:1006200005D010E028E0012109040843DAE7216839
:100630004E69F608F6004E6121684E69278F7F07E4
:100640007F0F3E434E612168C9680E4E31408142A2
:1006500007D10020A064606C80088000401C6064AA
:1006600008E0606C0221884310436064A06C18436A
:10067000A06401252846F8BD606C10436064F8E76B
:100680001902FEFFE7FF3F8300B500680C4987B001
:10069000884212D10B48826941150A438261806900
:1006A0000840059002200090032001900020029055
:1006B00009206946C00600F015F807B000BD00002B
:1006C000002401400010024031B500F0AFF8009C5A
:1006D0000546601C00D0641C00F0A8F8401BA04236
:1006E000FAD338BDF8B5002389E001249C402A469E
:1006F000A44622407ED04C68022C01D0122C0CD192
:10070000DC08A40027183C6A5D07ED0E0F26AE40FA
:10071000B4430E69AE4026433E6205685E00032482
:10072000B4400F79A543BF07BF0FB7402F43076001
:100730004D68012D05D0022D03D0112D01D0122DB1
:100740000ED18568CF68A543B7402F4387604768BF
:100750006546AF430D79ED06ED0F9D403D43456085
:10076000C568A5438C68B4402C43C4604C68E40061
:1007700044D5264CA56901263543A561A4699D0889
:1007800034400094224CAD002F19BC689D072E0FF9
:100790000F25B540AC430925ED06A84201D100253F
:1007A0000AE01C4DA84201D1012505E01A4DA842DE
:1007B00001D1022500E00525B5402543BD60174C59
:1007C00025684E689543F60300D515432560656896
:1007D0004E689543B60300D515436560A5684E681D
:1007E0009543F60200D51543A560E5684E6895432C
:1007F000B60200E002E000D51543E5605B1C0A6824
:100800001546DA4000D070E7F8BD00000010024045
:1008100000000140000400480008004800040140B6
:10082000002A01D0816170478162704701480068E9
:10083000704700003800002070B5040005D0254640
:100840006035687A002802D006E0012070BD0020E3
:100850002872204601F074FC242068722068016828
:10086000490849000160204602F026FB0128EDD02E
:10087000606A002802D0204602F084FA20684168AD
:100880000922D2029143416020688168222291436B
:1008900081602068816808221143816020680168B6
:1008A000012211430160204602F0D2FA70BD70B5FA
:1008B000024640325378202B1CD11378012B19D0DB
:1008C0000123137024245470046825689D43256017
:1008D000046825681E03B5432560046825680D4338
:1008E00025600068016819430160202050700020D5
:1008F000107070BD022070BD70B502464032537852
:10090000202B1BD11378012B18D001241470242321
:10091000537003681D68A5431D6005682B680F268A
:100920003602B34309021943296000680168214374
:100930000160202050700020107070BD022070BD3A
:1009400070B5040006D0254640356878002600289A
:1009500002D005E0012070BD2E70204600F0A0F905
:1009600024206870206801684908490001600F214F
:100970006068090688432168086121688A68012047
:10098000C00382438A60E1680129A16808D021225E
:100990009202114322689160E168022902D005E0C9
:1009A0000143F7E701212268C902516021684A68C2
:1009B0000F4B1A434A602168CA688243CA60616962
:1009C00020690843A169090208432168C860216AB7
:1009D000E06908432168086020680168012211432A
:1009E00001606664202068702663AE70002070BDD0
:1009F00000800002FFB5054604464035687883B0A4
:100A0000202873D10C98002871D00D9800286ED042
:100A1000287801286AD001202870FFF707FF0746D1
:100A2000012200901923D103204601F0D9FC0028AF
:100A300076D1222068704020A870002666640C9849
:100A400060620D98608566630E980090019704A916
:100A50000EC9204601F048FC002804D0606C2E70BE
:100A6000042860D05CE0618D09208002FF2905D94F
:100A7000FF22228501231B06009006E0618D21855F
:100A80000090208D0123C2B25B062046049901F03C
:100A900095FC00970022042120460E9B01F0A0FC4B
:100AA00000283DD12068416A606A421C6262017080
:100AB000208D401E81B22185608D401E60850029F9
:100AC00021D1608D00281ED0009700228021204671
:100AD0000E9B01F085FC002822D1608DFF2807D9EC
:100AE000FF22228501231B06009608E02AE01AE077
:100AF000608D20850096208D0123C2B25B062046C2
:100B0000049901F05BFC608D0028C2D13A46204672
:100B10000E9901F089FC002807D0606C042802D0EF
:100B2000032007B0F0BD0120FBE721682020C86149
:100B300021684A68044B1A404A606870AE702E7093
:100B40000020EEE70220ECE700E800FEFFB50546D6
:100B500004464035687883B0202876D10C98002868
:100B600074D00D98002871D0287801286DD001200C
:100B70002870FFF75BFE0746012200901923D1037E
:100B8000204601F02DFC002853D121206870402020
:100B9000A870002666640C9860620D986085666394
:100BA0000E980090019704A90EC9204601F0D1FBD0
:100BB000002804D0606C2E7004286AD039E0608D63
:100BC000FF2805D9FF22228501231B06009606E097
:100BD000608D20850096208D0123C2B25B062046E1
:100BE000049901F0EBFB3A4620460E9901F043FCD4
:100BF000002803D0606C04284BD01AE0606A411CC6
:100C00006162216800788862608D401E6085208D59
:100C1000401E0004000C208524D1608D002821D0C6
:100C200000970022802120460E9B01F0D9FB00286E
:100C300002D0032007B0F0BD608DFF2807D9FF2246
:100C4000228501231B06009608E024E021E0608D48
:100C500020850096208D0123C2B25B0620460499B0
:100C600001F0ACFB608D0028BDD13A4620460E99BC
:100C700001F0DAFB0028BDD120682021C161206885
:100C80004268064B1A4042606970AE702E700020B8
:100C9000D0E70120CEE70220CCE7000000E800FE0C
:100CA00000B500680F4987B0884218D10320400280
:100CB0000090122001900120029003200390042054
:100CC000049009206946C006FFF70CFD0648C2697A
:100CD000012149050A43C261C0690840059007B077
:100CE00000BD0000005400400010024002480168AE
:100CF000491C0160704700003800002010B506480C
:100D00000168102211430160002000F007F800F094
:100D100017F8002010BD00000020024010B5044666
:100D200000F06EF97D21C900FFF700FA00F07AFFAC
:100D300000222146501E00F02FF8002010BD0000B8
:100D400008B50F4881690122114381618169114011
:100D50000091C26901040A43C261C06900220840CF
:100D600000901146501F00F017F800221146901E07
:100D700000F012F800221146501E00F00DF808BDD8
:100D800000100240C106C90E0120884001490860D8
:100D90007047000000E100E010B501F001FD10BD5A
:100DA000F8B5044600683E4DC00352D5E8690026F8
:100DB000C00007D4E96928040143E961E9690140F9
:100DC0000126009137480168C90510D401688215D1
:100DD00011430160FFF72AFD074604E0FFF726FDF7
:100DE000C01B642824D82F480068C005F6D5286A9F
:100DF00003273F02384020D06168394081421CD02F
:100E0000286A2A6AB843012109040A432A622A6A25
:100E10008A432A622862C0070FD0FFF707FD0090BF
:100E200008E0FFF703FD0099411A1F48814201D9EC
:100E30000320F8BD286A8007F3D5286A6168B843A3
:100E400008432862002E04D0E9690120000781438D
:100E5000E9612078C00705D0286BA1688008800070
:100E6000084328632078800605D5286B1021884325
:100E7000E168084328632068800305D5286B80213A
:100E800088436169084328632088400505D5286B9D
:100E9000402188432169084328630020F8BD0000F1
:100EA000001002400070004088130000F8B50546AD
:100EB0004E480E460068C007C00FB0420AD24B48E9
:100EC000016849084900314301600068C007C00F4C
:100ED000B04270D12878464C800705D56068F02173
:100EE0008843A968084360602878C00753D06868C1
:100EF000012817D0022818D0032819D021688907A3
:100F0000002958DA61688908890001436160FFF7A8
:100F10008DFC69680746012913D002291DD00329D9
:100F200027D034E021688903EAE721688901E7E7EF
:100F3000616BC903E4E7FFF779FCC11B2D488142CF
:100F400023D860680007800F0128F4D123E0FFF761
:100F50006DFCC11B2748814217D860680007800FCD
:100F60000228F4D117E0FFF761FCC11B2148814240
:100F70000BD860680007800F0328F4D10BE0FFF75F
:100F800055FCC11B1B48814201D90320F8BD606894
:100F90000007800FF3D115480168C907C90FB14296
:100FA0000BD9016849084900314301600068C00756
:100FB000C00FB04201D00120F8BD2878400706D507
:100FC0006068072109028843E9680843606000F00F
:100FD0002DF86168084A0906090F515CC8400749A5
:100FE00008600020FFF79AFE0020F8BD00200240B4
:100FF00000100240881300004B4100083C00002014
:1010000001480068704700003C0000200448054982
:1010100000684968044A4905490F515CC840704757
:101020003C000020001002405B41000830B516A3D0
:101030000FCB89B06C460FC417A30FCB0FC41A494E
:101040004A680C20144604401848042C05D0184B5C
:10105000082C04D00C2C00D1184609B030BD9402E5
:10106000240F6D462C5DC96A04AD0907090FD20330
:10107000695C920F022A02D0032A00D11846FFF7BA
:1010800055F86043E9E70000020304050607080974
:101090000A0B0C0D0E0F10100102030405060708C1
:1010A000090A0B0C0D0E0F100010024000127A00FE
:1010B000006CDC02FEB504460078F04EF04DC0072F
:1010C00048D068680007800F01281FD068680007B3
:1010D000800F022804D16868C003800F022815D051
:1010E0006168012919D001208004002901D0052957
:1010F00017D02968B1432960296881432960606855
:1011000000281BD0FFF792FB074613E028688003F6
:1011100020D56068002876D01CE02868304328601D
:10112000EDE7296801432960F7E7FFF77FFBC01B64
:10113000642869D828688003F7D50BE0FFF776FBB1
:10114000074604E0FFF772FBC01B6428F1D828684B
:101150008003F7D4207880073ED568680007800FA9
:1011600014D068680007800F022804D16868C003A3
:10117000800F01280AD0E068002828681DD00121CE
:1011800008432860FFF752FB07460BE028688007FA
:101190000BD5E068012836D107E0FFF747FBC01BFD
:1011A0000228C6D828688007F7D52868F821884320
:1011B0002169C900084328600EE04008400028600B
:1011C000FFF734FB074604E0FFF730FBC01B0228A3
:1011D000AFD828688007F7D42078000724D5E069C5
:1011E0000028686A11D0012108436862FFF71EFBDE
:1011F000074604E0FFF71AFBC01B022899D8686A6B
:101200008007F7D510E036E1D1E040084000686281
:10121000FFF70CFB074604E0FFF708FBC01B0228A2
:1012200087D8686A8007F7D4207804274007002809
:1012300061DA00200190E869C00008D4E969B806C5
:101240000143E961E96901400120009101908D4865
:101250000168C90511D40168821511430160FFF7C7
:10126000E5FA009005E0FFF7E1FA0099401A6428DA
:1012700097D884480068C005F5D5A06801280AD031
:10128000002801D0052811D0286A400840002862B3
:10129000286AB84302E0286A012108432862A0684E
:1012A000002812D0FFF7C2FA00900AE0286A3843FB
:1012B0002862F0E7FFF7BAFA0099411A72488142B2
:1012C00075D8286A8007F5D50DE0FFF7AFFA0090D2
:1012D00006E0FFF7ABFA0099411A6B48814266D8E5
:1012E000286A8007F5D40198002804D0E969012014
:1012F00000078143E9612078C00635D5606901287F
:101300000CD0401D686B24D038436863686B40087C
:1013100040006863FFF78AFA074622E0686B3843AB
:101320006863686B012108436863FFF77FFA07462B
:1013300004E0FFF77BFAC01B022838D8686B8007EF
:10134000F7D5686BF8218843A169C9000843686331
:101350000AE0B8436863F4E7FFF768FAC01B0228A5
:1013600025D8686B8007F7D42078800637D5686861
:101370000007800F032813D068680007800F022839
:1013800004D16868C003800F032809D0206A0028B0
:10139000686B16D030436863FFF748FA06460CE0E6
:1013A000686BC0031BD5206A012864D117E05BE09D
:1013B000FFF73CFA801B022856D8686BC003F7D5AC
:1013C0000DE0B0436863FFF731FA064604E0FFF72B
:1013D0002DFA801B022847D8686BC003F7D4606AD7
:1013E000002846D069680907890F022943D00126E1
:1013F00036060228286805D0B0432860FFF716FAA1
:10140000044633E0B0432860FFF710FA074604E0D3
:10141000FFF70CFAC01B022826D828688001F7D4F1
:10142000E86A216B000900010843E862A16AE06AEA
:10143000084369687B22D2039143084368602868A7
:1014400030432860FFF7F2F9044604E0FFF7EEF9B5
:10145000001B022808D828688001F7D509E0FFF7AB
:10146000E5F9001B022801D90320FEBD2868800190
:10147000F5D40020FEBD0120FEBD000000000100EB
:1014800000100240007000408813000002484168CC
:10149000491C4160704700002000002010B5044640
:1014A00000688168C9040CD5C068C00509D520460C
:1014B000FFF7ECFF2168C86880221040FF388238AF
:1014C000C86001200249400448610120607710BDD6
:1014D0000004014070B5040003D0607F002802D0F2
:1014E00006E0012070BD00202077204600F04CF877
:1014F000022060772168CA20486221685320486230
:10150000204601F083F9FF250426002824D1206815
:1015100081681C4A1140816021688868626863693B
:10152000104322691A43104388602168E06808610B
:101530002068016922891204114301612068C16891
:1015400080229143C16020688068800608D42046CC
:1015500000F09EF9002803D0206845626677C0E756
:101560002068016C01229204914301642068016C9F
:10157000A269114301642068456201206077002060
:1015800070BD0000BFFF8FFF10B50068084988429A
:101590000DD10848016A0122D203114301620022E1
:1015A00011460220FFF7F8FB0220FFF7EBFB10BD0E
:1015B0000028004000100240F8B50446007F0B46AA
:1015C00001283ED0012020770220607720681F4646
:1015D000002620378068002A35D040064AD5187882
:1015E00001F001F9387801F0FEF818789D780004D0
:1015F00005435878D9780002090408430543387830
:10160000996900060543D869054358690543586838
:10161000084300902168CA2048622168532048622C
:1016200020688268FF2101318A4382602168C8688E
:1016300080221040FF388238C860FFF7F7F807466D
:1016400028E00220F8BD400600D4DE70187801F0D2
:10165000D2F80504587801F0CEF8000205439878D6
:1016600001F0C9F80543D87800040543387801F043
:10167000C2F8C5E7DE70B5E7FFF7D8F8C11B7D20DB
:10168000C000814206D92168FF20486203206077AC
:101690002677F8BD2068C068C007EDD02068C56116
:1016A00021680098486420688268FF2101310A435C
:1016B000826020688168012212031143816008481A
:1016C0000268012149040A43026082680A43826079
:1016D0002168FF2048620120607726770020F8BD4E
:1016E00000040140F8B50446007F0B46012815D0E0
:1016F00001202077022060775878002A10D001F06E
:1017000072F8987801F06FF8D8789D780004054356
:101710005878197800024903084316E00220F8BD02
:10172000C10603D5EF2108400A305870D87801F07F
:1017300062F80504587801F05EF8000205439878D5
:1017400001F059F805431878400305432168CA2081
:101750004862216853204862204601F057F800266D
:10176000FF27002811D110480540206845602068F7
:10177000C16880229143C1602068806880060BD4D4
:10178000204600F085F8002806D020684762042033
:10179000607726770120F8BD2068476201206077D6
:1017A00026770020F8BD00003FFFFF00F8B5044693
:1017B000007F0D4601280ED001202077022060779F
:1017C000206800278068002A07D0400618D52878AE
:1017D00001F009F815E00220F8BD400600D4EF70D2
:1017E000287801F008F80604687801F004F800028F
:1017F0000643A87800F0FFFF0643E878000409E0FC
:10180000EF702878AE78000406436878E978000223
:101810000904084306432168CA204862216853200E
:101820004862204600F0F2FF00281ED1174806400B
:1018300020680660206881680122920491438160DB
:101840002969E868084321688A681043886020682D
:10185000C16880229143C1602068806880060CD4F2
:10186000204600F015F8002807D02168FF204862C4
:101870000420607727770120F8BD2168FF204862A7
:101880000120607727770020F8BD00007F7F7F0070
:1018900070B504460068C168A0229143C160FEF79C
:1018A000C5FF7D260546F60006E0FEF7BFFF401B9C
:1018B000B04201D9032070BD2068C0688006F4D50D
:1018C000002070BDF8B5040007D00026254640353D
:1018D000A662687F002802D005E00120F8BD2E77BF
:1018E000204600F04BF802236B7720680168402205
:1018F000914301600721E0680902884201D9002272
:1019000001E0012212030F273F02B84202D08842B1
:1019100000D0A662276B002F05D1884201D923632E
:1019200001E001202063A1686068636908432169C0
:10193000194308430123A1695B0219400843E16987
:101940000843216A0843A16A084321680860616B63
:10195000606AA36908431B0C0427E1683B401943F4
:1019600008432168104348602068C1697A029143A6
:10197000C1612666012068770020F8BD00B50068C7
:101980000D4987B0884215D10C48826981140A43F9
:101990008261806908400590E0200090022001905B
:1019A0000021032003900291049109206946C0069A
:1019B000FEF798FE07B000BD003001400010024065
:1019C000FFB5044683B00120254640350090287FAE
:1019D00000270E4601280FD001202877FEF726FFAA
:1019E0000190687F616801280DD0CA1FFD3A08D1B7
:1019F000A168002905D102E0022007B0F0BD04284B
:101A000001D00227FAE0002E7CD005980028FBD0F8
:101A100006980028F8D0687F042801D00520687750
:101A200000202066059921640699E9800699A9801D
:101A3000A6630699E1870699A187E06420650723DC
:101A4000E1681B02994202D8E888012806D920687B
:101A50004268012109038A43426005E02068416829
:101A6000012212031143416020680168490603D432
:101A70000168402211430160E1686068994242D9DF
:101A8000002802D0E08F012835D121683088C86055
:101A9000E08F401EE087B61C2DE0009800280ED095
:101AA000E08F00280BD020688168890707D531882E
:101AB000C160E08F401EE0870020B61C0090E888DF
:101AC00000280ED020688168C9070AD0C06805992F
:101AD00008800598801C0590E888401EE880012059
:101AE00000900C98401C06D0FEF7A0FE0199411A08
:101AF0000C9881426DD2E08F0028CED1E888002872
:101B0000CBD16EE079E0002802D0E08F012862D1CD
:101B1000E08F012807D921683088C860E08F801ED7
:101B2000E087B61C57E0216830780873E08F401ECC
:101B3000E087761C4FE00098002818D0E08F00283E
:101B400015D020688168890711D5E18F012906D950
:101B50003188C160E08F801EE087B61C05E03178D7
:101B60000173E08F401EE087761C00200090E8881B
:101B7000002824D020688168C90720D0E98801297D
:101B800012D9C068059908800598801C0590E888DE
:101B9000801EE880E88801280FD82068416801226B
:101BA00012031143416008E0017B0598017005981C
:101BB000401C0590E888401EE880012000900C98A9
:101BC000401C08D0FEF732FE0199401A0C99884259
:101BD00001D3032712E0E08F0028ACD1E888002869
:101BE000A9D12046019A0C9900F034FE002801D0BA
:101BF00020202066206E002800D001270120687771
:101C0000002028773846F8E60422044904280869A9
:101C100002D09043086170471043FBE700E000E00A
:101C200070470000094910B5401E884201D90120C3
:101C300010BD074C60610321081F00F0B1FD0020BA
:101C4000A06107202061002010BD0000FFFFFF0001
:101C500000E000E010B5FFF7E3FF10BD70477047EC
:101C600070B502462032137F012B1BD0012313775E
:101C700002245477046865687026B543656004687B
:101C800065680E68354365600468A5688026B543BD
:101C9000A5600068846849680C438460537700201D
:101CA000107770BD022070BD70B5040005D02546C8
:101CB0002035687F002802D006E0012070BD00209A
:101CC0002877204600F00AF802206877211D206856
:101CD00000F0F2FE01206877002070BD08B50122F7
:101CE000016892070F48914207D1C169012211434F
:101CF000C161C0691040009008BD0B4A9142FBD100
:101D00008269012189040A438261806900220840B6
:101D1000009011461620FFF73FF81620FFF732F823
:101D200008BD0000001002400048014002220146A8
:101D300020314A7702681368012003431360487713
:101D4000002070470268D36801210B43D36000680C
:101D500002680A43026000207047F8B50546044651
:101D60002035287F012817D001272F770220687798
:101D7000226890687726FF23B0431B029843906047
:101D80000868502837D00EDC202857D006DC002801
:101D90004ED0102840D14EE00220F8BD302850D05F
:101DA000402839D13CE060282DD0702817D001227E
:101DB0001203801A0ED090422ED1CB684A688968EF
:101DC000206800F0C6FE206881680122920311435A
:101DD000816021E020688168C908C900F8E7CB6804
:101DE0004A688968206800F0B4FE21688868B043BA
:101DF0003043886010E0CA684968206800F09EFFA0
:101E00005021206806E0CA684968206800F0A7FFF2
:101E10006021206800F0A8FE6F7700202877F8BDC9
:101E2000CA684968206800F089FF40212068F1E70E
:101E300000212068EEE710212068EBE720212068D0
:101E4000E8E730212068E5E7704770B50446006890
:101E500001690025C9438907002915DBC168C94309
:101E6000890711D4E91E016101202077206880696B
:101E70008007204602D0FFF7E7FF04E000F0ACF84F
:101E8000204600F02DF9257720680169C9434907EC
:101E900017D4C168C943490713D40421C943016158
:101EA00002202077206880698005800F204602D0BC
:101EB000FFF7CAFF04E000F08FF8204600F010F9A9
:101EC000257720680169C943090716D4C168C94349
:101ED000090712D40821C943016104202077206832
:101EE000C0698007204602D0FFF7AEFF04E000F093
:101EF00073F8204600F0F4F8257720680169C9439B
:101F0000C90617D4C168C943C90613D41021C943EF
:101F10000161082020772068C0698005800F204675
:101F200002D0FFF791FF04E000F056F8204600F0E1
:101F3000D7F8257720680169C943C90708D1C16866
:101F4000C943C90704D1891E0161204600F0ECF89D
:101F500020680169C943090609D4C168C943090653
:101F600005D48021C94301612046FFF777FE206830
:101F70000169C943490609D4C168C943490605D462
:101F80004021C9430161204600F0D8F8206801696A
:101F9000C943890609D4C168C943890605D42021EB
:101FA000C94301612046FFF75AFE70BD00B50068C5
:101FB0000121890785B088420CD1082000900020BB
:101FC0000221029003900191049109206946C00604
:101FD000FEF788FB05B000BD7047F8B5064604461D
:101FE0002036307F0D4601280DD0012030770220A9
:101FF00070770427002A08D0042A16D0082A2AD08D
:102000000C2A4DD137E00220F8BD206800F0B4FD65
:102010002068816908221143816120688169B94380
:102020008161206881692A6912E0206800F0E0FD82
:10203000206882690121C9020A438261206881699E
:102040000122920291438161206881692A6912020A
:102050001143816124E0206800F004FE2068C26919
:1020600008210A43C2612068C169B943C16120687F
:10207000C1692A6912E0206800F030FE2068C16959
:102080000122D2021143C1612068C2690121890283
:102090008A43C2612068C1692A6912021143C16181
:1020A0000120707700203077F8BD70B5040005D0AE
:1020B00025462035687F002802D006E0012070BD4B
:1020C00000202877204600F00AF802206877211DBA
:1020D000206800F0F1FC01206877002070BD704797
:1020E0007047000010B504460068012200F026FD8C
:1020F0000A482168814205D00948814202D0094836
:10210000814204D1486C0122D20310434864206804
:102110000168012211430160002010BD002C014024
:10212000004401400048014010B50068024988425F
:1021300001D101F081FA10BD004801407047000054
:1021400000B500680E4987B0884216D10D48C269B3
:10215000012149040A43C261C06908400590042076
:10216000009012200190012103200390029104911C
:1021700009206946C006FEF7B5FA07B000BD0000A9
:102180000044004000100240FFB506460446603699
:10219000707A83B00D46202858D1002D0CD00598B8
:1021A000002809D00120A1680003814207D12069DD
:1021B000002804D1E80702D0012007B0F0BD307A32
:1021C000012843D0012030720020E0662120707287
:1021D000FEF72CFB0190274640370598388205987A
:1021E000788218E0788A401E788206980090002253
:1021F00080212046019B00F0F7FE002818D1012025
:10220000A1680003814202D12069002812D0216810
:10221000287808856D1C788A0028E3D106980090FC
:10222000002240212046019B00F0DEFE002808D05D
:102230000320C2E728882168C005C00D0885AD1CB1
:10224000E9E72020707200203072B6E70220B4E780
:10225000FEE701688A69D243920701D400228A62AC
:1022600000688169C943C90703D08169012211430C
:1022700081617047F7B5044600680E468069C04327
:10228000C0062CD420272546403520688069C043ED
:1022900080060FD5701CF8D0002E05D0FEF7C6FAC8
:1022A0000299401AB042F0D96F700020A8702870CF
:1022B0000320FEBD21681020C8612068C761204648
:1022C000FFF7C7FF20684168064A114041600420BB
:1022D00060646F700020A87028700120FEBD00208F
:1022E000FEBD000000E800FEF8B5044601201646D9
:1022F00040031D46DAB20090079F0023204600F0FD
:102300005DF83A462046069900F0B5F8002803D05B
:10231000606C04281BD018E02846F5B2012809D0CB
:102320002168300A88623A462046069900F0A3F8F0
:102330000028EDD1206885620097002240212046C8
:10234000069B00F04DF8002800D00320F8BD0120C6
:10235000F8BDF8B504460120164640031D46DAB222
:10236000C3020090079F204600F028F83A46204616
:10237000069900F080F8002803D0606C04281BD078
:1023800018E02846F5B2012809D02168300A886291
:102390003A462046069900F06EF80028EDD12068F4
:1023A00085620097002280212046069B00F018F8E5
:1023B000002800D00320F8BD0120F8BD70B50568E5
:1023C000049C68688905890D1204044E1143194361
:1023D000304021430143696070BD0000009800FC5B
:1023E000F8B51C4617460E46054611E0601C0FD096
:1023F000002C05D0FEF71AFA0699401AA04207D918
:102400002020403568700020A87028700320F8BD97
:10241000286881693046884304D00020B842E5D05E
:102420000020F8BD0120F9E770B516460D460446B8
:102430001AE0324629462046FFF71CFF002801D04B
:10244000012070BD002D04D0FEF7F0F9801BA842DA
:102450000AD9616C2020014361644034607000201F
:10246000A0702070032070BD20688069C043800682
:10247000DFD4002070BD70B516460D4604461CE042
:10248000324629462046FFF7F5FE002801D00120FC
:1024900070BD681C11D0002D04D0FEF7C7F9801B59
:1024A000A8420AD9616C2020014361644034607005
:1024B0000020A0702070032070BD20688069C04398
:1024C0008007DDD4002070BD3EB51548134901607A
:1024D000002141600124102204618260C160816199
:1024E000C1610422016242614162FF22C162C232C3
:1024F000446382620163FEF70DF8002800D0FEE716
:1025000001200003019006200290009469460448CF
:10251000FDF76AFF002800D0FEE73EBD0024014021
:1025200064000020F0B51D4887B0426901214904CC
:102530000A43426142690A400592426949000A43DE
:102540004261406909260840F606059000221021E4
:102550003046FEF765F9124F012202213846FEF798
:102560005FF90125002400956946304602950194E3
:10257000FEF7B8F810200090029469460195039484
:102580003046FEF7AFF802200090029469460195AC
:1025900003943846FEF7A6F807B0F0BD00100240DD
:1025A0000004004810B5124810490160114941600B
:1025B000002181600161416181610122C161C260CC
:1025C0000162FEF7BDF9002800D0FEE700210848AF
:1025D000FEF76DF9002800D0FEE700210448FEF761
:1025E0008BF9002800D0FEE710BD00000054004029
:1025F000B00000200E09002030B52449244891B0D5
:10260000002412C0102101608460C46004210461B0
:1026100041600838FEF75EFF002800D0FEE76846FC
:10262000047044708470039401226946184804942D
:10263000FFF7BCF8002800D0FEE7012568460575C5
:1026400045758575C4752A4605A91148FFF74AF8EE
:10265000002800D0FEE7684604764476052181769E
:102660000C4807940B9009940A940C940D9408A8B4
:102670000576FF2001300F90012206A90448FEF7DD
:102680009BFF002800D0FEE711B030BD00280040BD
:10269000FC0000200080808010B511480F490160C7
:1026A000FF21053141600021072281601202016192
:1026B000C2600122416152028261016218224162BC
:1026C000C26181620722C262016308214163FFF790
:1026D000F9F8002800D0FEE710BD000000300140EE
:1026E0001C01002010B501211D488EB08907016032
:1026F00000244621846041600461FF218461C1603F
:10270000FFF7D2FA002800D0FEE70120000307906F
:1027100007A91348FFF721FB002800D0FEE7104867
:10272000FFF7C3FC002800D0FEE70B940BA90C4870
:102730000C94FFF795FA002800D0FEE76020009087
:10274000019402940C22694604940548FFF745FC65
:10275000002800D0FEE70248FFF728FC0EB010BDAD
:102760008001002010B50C480A4901604B21090284
:10277000416000218160C16001618161C161082205
:10278000016242614162FEF757F8002800D0FEE77F
:1027900010BD00000044004000020020704700000F
:1027A0008307FF22DB0E9A408907090E9940002813
:1027B0000BDA0007000F0838830808489B00181838
:1027C000C36993430B43C3617047830804489B006C
:1027D0001B181868904308431860704700ED00E02C
:1027E00000E400E0704701090A2200075143000F8E
:1027F0004018C0B27047002102E00A38C0B2491C3C
:102800000A28FAD20907090E0843704770B5044632
:102810000068C168490613D40021C943C160FEF7AE
:1028200005F87D260546F60006E0FDF7FFFF401B94
:10283000B04201D9032070BD2068C0684006F4D5BD
:10284000002070BD10B50248FEF728FE10BD000044
:10285000FC000020F8B50F460B46154600920321F8
:1028600004460022C90200F01BF82026002812D1DD
:102870003B46002280212046009500F05CF80028AD
:1028800009D103213B46002249022046009500F071
:1028900007F8002803D0206E304320660320F8BDDF
:1028A000F8B51D4617460E4604463DE00321490291
:1028B0008E4205D1002F03D1017B6846017000785C
:1028C000681C31D0002D05D0FDF7B0FF0699401AE5
:1028D000A84229D320684168E022914341606068A2
:1028E000C11FFD390CD10121A068C903884202D063
:1028F0004911884204D12068016840229143016057
:102900000120A16A4003814207D121680A688243FD
:102910000A6021680A6802430A6001204034607737
:10292000002020770320F8BD206881683140B9423B
:10293000BCD10020F8BDF8B51D4617460E4604462A
:1029400033E0681C31D0002D05D0FDF76FFF0699EC
:10295000401AA84229D320684168E022914341608F
:102960006068C11FFD390CD10121A068C9038842EC
:1029700002D04911884204D1206801684022914365
:1029800001600120A16A4003814207D121680A68E1
:1029900082430A6021680A6802430A6001204034C9
:1029A0006077002020770320F8BD206881683046DA
:1029B000884304D00020B842C3D10020F8BD0120D4
:1029C000F9E7704710B5FEF791F9FFF743F910BD2D
:1029D00010B598B01A2000900120102103900491A6
:1029E000059000240790099406916846FEF762FB63
:1029F000002800D0FEE707200D900E940F940021D0
:102A000010940DA8FEF752FA002800D0FEE70E48F9
:102A10001190C0111290149411A8FEF7C1F900286A
:102A200000D0FEE7FEF7ECFA7D21C900FDF77EFB42
:102A3000FFF7F8F80420FFF7E7F800221146501ED0
:102A4000FEF7AAF918B010BD200001001348016874
:102A50000122114301604168114A1140416001683F
:102A6000104A114001600168012292049143016003
:102A700041683F22120491434160C16A090909017A
:102A8000C162016BFF22D43291430163416B49085B
:102A9000490041630021816070470000001002403E
:102AA0000CB8FF08FFFFF6FE10B50248FFF7CDF99E
:102AB00010BD0000C0010020F0B502681A4B0124CF
:102AC000A4071A4D984203D0A04201D0A84203D1D6
:102AD0007026B2434E683243154E164F98420AD0C4
:102AE000A04208D0A84206D0134CA04203D0B04266
:102AF00001D0B84204D103242402A243CC6822436B
:102B00008024A2434C69224302608A68C2620A6838
:102B10008262984203D0B04201D0B84201D1096923
:102B2000016301214161F0BD002C0140000400401F
:102B300000440140004801400020004010B501233E
:102B4000046A8B409C430462036A8A401343036215
:102B500010BD30B58468FF252D021B021343AC4322
:102B60000B432343836030BD826870239A430A433A
:102B700007210A4382607047F0B5026A520852008A
:102B80000262056A436882697024A24392080C6855
:102B900092001443022295438A68134E2A43114D32
:102BA000A84204D0B04202D0104FB84206D1082744
:102BB000BA43CF681743042297433A46A84204D049
:102BC000B04202D0094DA84206D103252D02AB43E5
:102BD0004D691D438B692B434360846149684163A0
:102BE0000262F0BD002C0140004401400048014059
:102BF00070B5026A10239A430262046A43688269CC
:102C000073252D02AA430D682D02154320229443FB
:102C10008A6812012243104CA04208D11446CA68A7
:102C20008026B443120122434024A24305E00B4C0A
:102C3000A04202D00A4CA04208D10324A402A3431C
:102C40004C69A4001C438B699B002343436085614E
:102C500049688163026270BD002C0140004401405C
:102C60000048014070B5026AFF2301339A430262B3
:102C7000046A4368C2697025AA4392080D689200ED
:102C800015430122520294438A6812022243104CD7
:102C9000A04207D1C414A243CC68240222430615E3
:102CA000B24305E00B4CA04202D00B4CA04208D12D
:102CB00003242403A3434C6924011C438B691B0197
:102CC00023434360C5614968C163026270BD00006F
:102CD000002C0140004401400048014030B5026A28
:102CE00001231B039A430262056A4268C369732485
:102CF0002402A3430C6824021C4301235B039D436D
:102D00008B681B032B430A4DA84205D0094DA842EE
:102D100002D0094DA84205D10125AD03AA434D6952
:102D2000AD012A434260C46149680164036230BD59
:102D3000002C0140004401400048014030B5036AC6
:102D4000046A6408640004628469F025AC431201DB
:102D500022430A24A3430B438261036230BD30B592
:102D6000036A1024A34303628469036A0F252D03B9
:102D70001203AC432243A024A343090119438261F7
:102D8000016230BD10B5818CC90707D001684A685F
:102D900001235B049A43836A1A434A60818C890742
:102DA00007D501684A6801231B049A43C36A1A4382
:102DB0004A60818C490707D501684A6801239B0452
:102DC0009A43036B1A434A60818C090707D501684F
:102DD0004A680123DB039A43436B1A434A60818CA0
:102DE000C90607D50268916801231B039943836BC9
:102DF00019439160818C890607D501688A6801238F
:102E00005B039A43C36B1A438A60818C490612D5CF
:102E100003685A6801210905046C8A4322435A60F9
:102E2000026C8A4207D10268516803235B0599430B
:102E3000436C19435160818C090607D501684A68C3
:102E40000123DB04806C9A4302434A6010BD0000FA
:102E5000F8B500260446C666FDF7E8FC05461449A9
:102E6000206888421DD10068124F000709D5012152
:102E70002B46002249052046009700F0B5F80028AF
:102E80000DD12068006840070BD501212B46002298
:102E900089052046009700F0A7F8002801D00320FC
:102EA000F8BD202060346072A07226720020F8BD48
:102EB00000380140FFFFFF01F8B504462369A2680E
:102EC000E5691A43636910202B43002125681A43E2
:102ED0002B680E463E4F3B4013432B6023685A68D5
:102EE00003252D03AA43E5682A435A60236AA26991
:102EF00025681A43AB680B273F02BB431343AB6003
:102F0000344A2568954210D1334A126B9207920FCA
:102F10000ED0012A05D0022A05D0032A09D10220A9
:102F200007E0042005E0082003E02C4A954200D188
:102F300000200122E369D203934224D100280CD05F
:102F400002280DD0042813D0082817D001260A091A
:102F500012010807400F10432FE0FEF757F809E071
:102F600061681F4A48088018FDF7E0F881B2EEE773
:102F7000FEF75CF8616840004A08F4E761680122E6
:102F800048081204EFE7002808D0022809D00428D6
:102F90000BD0082814D001263046F8BDFEF736F8CD
:102FA00005E061680F4A48080CE0FEF73FF86168E9
:102FB0004A088018FDF7BAF880B22168C860EBE7CC
:102FC000616848088018FDF7B1F880B2E860E3E76F
:102FD000F369FFEF00380140001002400044004058
:102FE0000024F40000127A00FFB581B017460E46A7
:102FF00004460A9D1DE0681C1BD0002D05D0FDF77E
:1030000015FC0499401AA84213D920680168FF22D0
:10301000A1329143016020688168490849008160BC
:10302000202060346072A07200202072032005B05E
:10303000F0BD2068C1693046884304D00020B84202
:10304000D9D00020F3E70120F9E70000F0B585B002
:10305000892000F037FF012420430146892001F038
:103060002DF80021882001F029F80121802001F0AD
:1030700025F80121FF2001F021F80021084601F088
:103080001DF8912000F01EFFEF49887001210020FB
:1030900001F014F80021FF2001F010F80021802039
:1030A00001F00CF8602000F00DFF122101436020B8
:1030B00001F004F87D20C00500F092FFFF210120FF
:1030C00000F0FCFF03A902A800F07AFB00287DD0E5
:1030D00006226946B02000F079FE0121FF2000F0B1
:1030E000EDFF00214F2000F0E9FF2C214E2000F0E1
:1030F000E5FF0021FF2000F0E1FFB421B62000F041
:10310000DDFF6846007B002801D00C2500E000258B
:103110006A46127A0021944608466A46A84201D3BC
:10312000614508D1C4084707165D7F0F0123BB40E6
:103130009E43165508E0C308D35C4407640FE34080
:10314000DB0701D0491CC9B2401CC0B23028E5D30E
:1031500006226946B02000F09FFF0121FF2000F009
:10316000ADFF0021084600F0A9FF0021FF2000F07C
:10317000A5FF0021092000F0A1FF0021102000F090
:103180009DFF0021112000F099FF0121242000F073
:1031900095FFFF21252000F091FF0021752000F010
:1031A0008DFF0121FF2000F089FF2C214E2000F02F
:1031B00085FF0021482000F081FF2021302000F011
:1031C0007DFF0021FF2000F079FF00E039E10921B7
:1031D000302000F073FF0021542000F06FFF042125
:1031E000312000F06BFF0321322000F067FF8321C4
:1031F000402000F063FF2521462000F05FFF002102
:10320000602000F05BFF0021272000F057FF06211F
:10321000502000F053FF0021512000F04FFF962175
:10322000522000F04BFF0821562000F047FF3021CC
:10323000572000F043FF0021612000F03FFF0021F4
:10324000622000F03BFF0021642000F037FF0021E6
:10325000652000F033FFA021662000F02FFF012140
:10326000FF2000F02BFF3221222000F027FF142145
:10327000472000F023FFFF21492000F01FFF00211D
:103280004A2000F01BFF0021FF2000F017FF0A2159
:103290007A2000F013FF00217B2000F00FFF212196
:1032A000782000F00BFF0121FF2000F007FF342100
:1032B000232000F003FF0021422000F0FFFEFF2149
:1032C000442000F0FBFE2621452000F0F7FE0521FA
:1032D000462000F0F3FE4021084600F0EFFE0621F4
:1032E0000E2000F0EBFE1A21202000F0E7FE402126
:1032F000432000F0E3FE0021FF2000F0DFFE032169
:10330000342000F0DBFE4421352000F0D7FE0121FF
:10331000FF2000F0D3FE0421312000F0CFFE092170
:103320004B2000F0CBFE05214C2000F0C7FE04210D
:103330004D2000F0C3FE0021FF2000F0BFFE002161
:10334000442000F0BBFE2021452000F0B7FE0821FC
:10335000472000F0B3FE2821482000F0AFFE0021F6
:10336000672000F0ABFE0421702000F0A7FE0121D1
:10337000712000F0A3FEFE21722000F09FFE0021CC
:10338000762000F09BFE0021772000F097FE0121BF
:10339000FF2000F093FE01210D2000F08FFE0021A0
:1033A000FF2000F08BFE0121802000F087FEF82135
:1033B000012000F083FE0121FF2000F07FFE0121AB
:1033C0008E2000F07BFE0121002000F077FE00211E
:1033D000FF2000F073FE0021802000F06FFE04212A
:1033E0000A2000F06BFE842000F06CFDEF2101400C
:1033F000842000F063FE01210B2000F05FFE00F04E
:1034000059F9114CE821A060012000F057FEA06896
:1034100000F088FD0121084600F050FE402000F039
:10342000ABFC00280DD00221012000F047FE002057
:1034300000F0A2FC002804D0E821012000F03EFEAC
:10344000012005B0F0BD0000000000200FB410B551
:1034500003A9044B044A029800F02EF810BC08BCE3
:1034600004B018479D360008400000202021020CBF
:1034700001D010211046020A01D010460839020975
:1034800001D01046091F820801D01046891E42084B
:1034900001D0881E7047081A704702E008C8121F42
:1034A00008C1002AFAD170477047002001E001C12D
:1034B000121F002AFBD17047FFB58DB004460025CE
:1034C00006E025280AD0109A0F999047641C6D1CBD
:1034D00020780028F5D1284611B0F0BD0027012141
:1034E000484A009700E00743641C23780846203BC5
:1034F00098401042F7D120782E2817D10420074396
:103500006078641C2A280CD10E98641C02C80091B3
:103510000E900BE000990A22514330394018641C88
:1035200000902078014630390929F3D92078002805
:10353000D1D0642808D0692806D075281ED0109AEA
:103540000F9990476D1C5BE00A200E99019001C90C
:103550000E91002802DA40422D2102E0390504D5FF
:103560002B216A461172012103E0F90704D02021C2
:10357000F7E70BAE0B910DE00021FAE70A200E9958
:10358000019001C90E91F7E70199FCF7CFFD3031A9
:10359000761E31700028F7D103A8801B20300190DF
:1035A000780701D5009801E0012000900199884238
:1035B00001DD401A00E000200027009006E002A88C
:1035C000109AC05D0F9990476D1C7F1C0B98874225
:1035D000F5DB04E0109A30200F9990476D1C00999C
:1035E000481E00900029F5DC05E03078109A761C22
:1035F0000F9990476D1C0199481E01900029F4DC39
:10360000641C65E70928010010B50A4C6060084693
:10361000A160FEF78BFBA068FEF747FD0C21A068B8
:10362000FEF760FD6068FEF78DFB0020E060207013
:1036300010BD00001000002010B50B490A4AC868F0
:10364000401CC86009789468012905D0022905D07A
:1036500000202168086410BDFF20FAE73321FCF741
:1036600065FD0248405CF4E71000002018410008A6
:10367000C1B2000A8140491C88B27047002100286D
:103680000AD0401E02E04008491C89B2020AFAD161
:103690000902C0B2014388B27047000013B50A2383
:1036A000012269460248FEF76FFD00981CBD00002C
:1036B0000002002070B588B0A525AD00194E1A4C47
:1036C000684600F039F802A9684600F049F86846F3
:1036D0000078002802D0154905984418684680787B
:1036E000002804D0059812494000001905E06846FA
:1036F0004078002802D00598611944186846C078BF
:10370000002802D0069861194418684600790028FC
:1037100002D00798A119441806488460204608B0D2
:1037200070BD000026020000360B0000840D000072
:10373000640500000000002010B50446012000F0E0
:10374000C1FBC106C90F21700107C90FA170410754
:10375000C90F61704106C90FE170C009207110BD29
:1037600070B505460C46002000F0A0F820804620E9
:1037700000F0A8FB401CA080217800F061FCE06014
:10378000512000F0B5FBFFF773FFE080217800F0D7
:1037900057FC2061012000F089F86080712000F062
:1037A000A7FBFFF765FF2081E978002902D0E188B7
:1037B000401A2081A178208900F042FC606170BD30
:1037C00070B50D4606460121802000F077FC0121EE
:1037D000FF2000F073FC0021084600F06FFC06217A
:1037E000FF2000F06BFC832000F06CFB0421014300
:1037F000832000F063FC0721FF2000F05FFC012123
:10380000812000F05BFC0121802000F057FC6B213F
:10381000942000F053FC0021832000F04FFCFDF7C2
:1038200005F8214CE0800CE0A088002809D0FCF7C6
:10383000FDFFE18880B2401AA188884201DD0020A6
:1038400070BD832000F03EFB0028EDD001218320D5
:1038500000F034FC922000F035FB4106490E317037
:10386000C00928700021812000F028FC0621FF20DB
:1038700000F024FC832000F025FBFB210140832085
:1038800000F01CFC0121FF2000F018FC01210020A9
:1038900000F014FC0021FF2000F010FC002180202B
:1038A00000F00CFC012070BD0000002010B50028C5
:1038B00003D0012803D0FF2010BD502000E070206D
:1038C00000F000FB401C4006000E10BD70B5124C0D
:1038D0000026354600F0B4FA69006052861964206B
:1038E000FCF7F2FE6D1C102DF4DB320900210846B6
:1038F0004300E35A401C9B1A5B4359181028F7DB1E
:10390000FF2009092D30814201D890B270BD03A07B
:10391000FFF79CFDDCE70000440000200A63616CB7
:103920006962726174696F6E206661696C6564209A
:103930002D2076617269616E636520746F6F206CF3
:10394000617267653A2025642C207265747279690A
:103950006E672E2E2E0A000010B5FCF783FC044A79
:10396000044BFCF717FCFCF79FFC80B210BD000075
:103970001D5A643BDF4FD53FFDF7C0F9FFF728F82C
:10398000FEF7D0FDFEF7EEFEFEF70CFEFEF784FE1E
:10399000FEF7A8FE44484349016007214160002129
:1039A00081600161414A4161C2608161FEF77CF939
:1039B000002800D0FEE7FEF787FD3B493A48403932
:1039C000FFF722FE022000F035FB7D200001FCF70E
:1039D0007BFEFFF73BFBFF203549F530088035487B
:1039E00000F0A0FAFEF708FE33A0FFF72FFD00F06D
:1039F00020F90421782000F0B3F8354800F09BF955
:103A00003348401D00F057F932A0FFF71FFD33A0E7
:103A1000FFF71CFDFFF75AFF06B234A0FFF716FDB3
:103A2000B0B2FFF799FF05460024204600F002FBE4
:103A3000274F0C3F00F004FA00B2301A00D5404284
:103A400000B2002C02D0012C1FD027E0A84225DDB7
:103A5000012000F0EFFA27A0FFF7F8FC1C48001F38
:103A600000F038F900F0EDF80028FBD100F0F3F891
:103A70003870002802D0012802D004E021A000E024
:103A800026A0FFF7E3FC012408E0A84206DA0020A4
:103A900000F0D0FA27A0FFF7D9FC00243220FCF771
:103AA00013FEC7E700480140C00100201A41000092
:103AB00004000020204E0000696E697469616C6921
:103AC0007A696E67204E52462E2E2E0A00000000A4
:103AD0002C000020646F6E650A00000063616C6951
:103AE00062726174696E672E2E2E0A00646F6E65B5
:103AF000210A00007472696767657265642121217B
:103B00000A0000005472616E6D697373696F6E20F4
:103B100077656E74204F4B0A000000004D6573738B
:103B2000616765206973206C6F7374202E2E2E0AD6
:103B30000000000072657475726E65642121210AAF
:103B400000000000092310B5DB06002801D0012287
:103B500000E0002210211846FCF762FE10BD0000B4
:103B600010B51C4C21700146052000F035F80021ED
:103B7000112000F031F82178122000F02DF80021FA
:103B8000132000F029F80021142000F025F800216E
:103B9000152000F021F80021162000F01DF8062164
:103BA000084600F019F80821002000F015F803215C
:103BB000012000F011F80321022000F00DF84F2140
:103BC000042000F009F800211C2000F005F800F0A6
:103BD0004FF810BD0C00002070B504460D460020C3
:103BE00000F00CF8E006C00E203000F011FA284674
:103BF00000F00EFA012000F001F870BD10B5054B81
:103C0000002801D0012200E0002202211846FCF722
:103C100007FE10BD0004004810B50020FFF7EEFFBE
:103C2000FF2000F0F5F904460120FFF7E7FF2046EA
:103C300010BD10B50020FFF785FF0120FFF7DEFF64
:103C400010BD10B5FFF7E8FF8006800F01D00020FF
:103C500010BD012010BD10B5FFF7DEFF810601D5B4
:103C6000002010BDC00601D5012010BDFF2010BDF1
:103C700010B50020FFF7C2FFE22000F0C9F90120D3
:103C8000FFF7BCFF70210720FFF7A6FF0020FFF71A
:103C900059FF0B210020FFF79FFF0120FFF752FF84
:103CA00010BD10B570210720FFF796FF0A210020F4
:103CB000FFF792FF10BD10B504460020FFF742FF4A
:103CC000052221460B2000F043F80120FFF73AFFC0
:103CD00010BD000010B504460020FFF733FFFFF7CA
:103CE000E0FF0020FFF78AFFE12000F091F90120BA
:103CF000FFF784FF0020FFF781FFA02000F088F984
:103D000005480178204600F009F80120FFF776FF0A
:103D10000120FFF717FF10BD0C00002070B50D4605
:103D20000646002404E0305D00F072F9641CE4B241
:103D3000AC42F8D370BD10B50446014605220A20F6
:103D400000F006F805222146102000F001F810BD11
:103D500070B5044615460E460020FFF74FFFE006FB
:103D6000C00E203000F054F929463046FFF7D6FF48
:103D70000120FFF743FF70BD012110B50143002072
:103D800000F09CF9FCF752FD0F4CE0800CE0A0889D
:103D9000002809D0FCF74AFDE18880B2401AA188CA
:103DA000884201DD002010BD132000F08BF8400791
:103DB000EDD001210B2000F081F90021084600F030
:103DC0007DF9012010BD0000000000203EB50B234E
:103DD0006C460EC4044C0246012321780348FCF7CC
:103DE00009FEE0703EBD000000000020B000002091
:103DF00010B5FCF71BFD104CE0800EE0A0880028F9
:103E00000BD0FCF713FDE18880B2401AA1888842EC
:103E100003DD01206070094810BD132000F052F846
:103E20004007EBD01E2000F063F8044601210B2070
:103E300000F044F9204610BD00000020FFFF000004
:103E400010B50121802000F039F90121FF2000F098
:103E500035F90021084600F031F9184C9120A1787D
:103E600000F02CF90121002000F028F90021FF20AA
:103E700000F024F90021802000F020F90121002029
:103E800000F01CF9FCF7D2FCE0800EE0A0880028CE
:103E90000BD0FCF7CBFCE18880B2401AA1888842A5
:103EA00003DD01206070064810BD002000F00AF814
:103EB000C007EBD1FFF79CFF10BD00000000002001
:103EC000FFFF00001FB50B23012203A96C460EC49F
:103ED0001346054C024621780448FCF78BFDE07040
:103EE0006846007B04B010BD00000020B000002038
:103EF0001FB50B23022203A96C460EC4074C0246D1
:103F0000012321780648FCF775FDE0706846007BC8
:103F100001026846407B04B0084310BD0000002049
:103F2000B0000020F0B50546A5262848B600264F6B
:103F300089B085422CD3264C6846FFF7FDFB02A9C9
:103F40006846FFF70DFC68460078002802D021493A
:103F50000598441868468078002804D005981E49C2
:103F60004000001905E068464078002802D0059816
:103F7000A11944186846C078002802D00698A119F3
:103F800044186846007900281CD0E019A84202D9DC
:103F9000002009B0F0BD69464989281AC9B200F06D
:103FA00065F86946C97880B2002903D06946C98995
:103FB000081880B2FFF762FB0146712000F094F808
:103FC000064885600120E4E726020000204E00003C
:103FD000E8080000360B0000640500000000002027
:103FE000FF2110B5C905C84202D20849884201DD47
:103FF000002010BD0721FCF7C0F8FCF741F981B2A1
:10400000442000F071F8012010BD0000B8FEFF430D
:1040100001B582B00021684601710A200090012399
:1040200001AA02A90248FDF7CBFC684600790EBD43
:104030001C0100200149087070470000100000209A
:1040400070B5044608487D2541430846FF30ED0021
:10405000F5302946FCF76AF8444340082018294601
:10406000FCF764F870BD0000002F3A0010B504465C
:10407000084848437D21FF30C900F530FCF756F869
:1040800001467D20C000444348082018FCF74EF844
:1040900010BD0000002F3A003EB50B236C460EC445
:1040A000044C0246012321780348FCF74FFDE070E1
:1040B0003EBD000000000020B000002013B584B019
:1040C0000B23012205A96C460EC41346044C02467C
:1040D00021780448FCF73AFDE07006B010BD0000FE
:1040E00000000020B00000201FB50B0A6A461373C1
:1040F00051730B23022203A96C460EC4044C0246E2
:10410000012321780348FCF721FDE0701FBD00006A
:1041100000000020B000002000000000010306099C
:104120000D1219202934404E5E6F8194A8BBCEDE5B
:10413000ECF6FCFDFAF3E7D9C8B5A18E7B695849C6
:104140003C30261E16100C0805020100000000007D
:104150000000000102030406070809000000000136
:104160000203040084410008000000204400000015
:104170009A340008C8410008440000202C060000C2
:10418000AA340008520000000000000000000000F7
:10419000000000000000000000000000000000001F
:1041A0000000000000000000000000004655434BE6
:1041B000DEADBEEFBBFFFFFFFFFF00000000000011
:0841C00000127A00000000006B
:04000005080000C12E
:00000001FF
