:020000040800F2
:1000000098050020D5000008FD1E00088D1A000884
:1000100000000000000000000000000000000000E0
:100020000000000000000000000000002321000884
:100030000000000000000000451F00082521000806
:100040000501000805010008A51F000805010008BA
:100050000501000805010008050100080501000868
:100060000501000805010008050100080501000858
:100070000501000805010008050100080501000848
:100080000501000800000000000000000501000854
:100090000000000005010008050100080501000836
:1000A0000000000005010008050100080501000826
:1000B0000501000800000000050100080501000816
:1000C0000348854600F06EF900480047912D00086E
:1000D000980500200C4880F308880C480168090E38
:1000E0000B4A914205D10B480B4901600B480C4962
:1000F00001600C4880470C480047FEE7FEE7FEE73A
:10010000FEE7FEE7FEE7000098050020040000007F
:100110001F00000018100240010000000000014014
:1001200000000000A9210008C100000830B50B46FE
:10013000014600202022012409E00D46D5409D42C1
:1001400005D31D469540491B254695404019154647
:10015000521E002DF1DC30BD10B5202A04DB08460C
:10016000203AD040002110BD0B46D340D04020247F
:10017000A21A91400843194610BD420005D0420022
:10018000120E52428A4201DB00207047C90508184E
:1001900070470000F0B51FB488B00B99099800248F
:1001A00048400999C00F490049080991C0070B99B7
:1001B0000090490049080B9109990898A646084300
:1001C0001CD00B990A98084318D0099801244000C4
:1001D000420D4800410D099824050003000B2043FF
:1001E00009900B980003000B20430B9050181C49FA
:1001F0004018002201901446104605E000200146F8
:100200000DB0F0BD032801DA034600E003239C464D
:10021000C11A0AAE0AE05F0008ADED5B4F00F75B64
:100220007D430027AA187C41491C5B1E6145F2DD15
:10023000410004AB5A522104120C0A43240C401C06
:100240000828DFDB01980290009970460191009028
:10025000059B049A0799069800F051F8D0E7000032
:100260000DFCFFFF0EB505490291002100910A46E1
:100270000B46019100F043F803B000BD33040000C9
:10028000410040020122400AD205090E80187F2950
:1002900001DA00207047962903DC9622511AC840E3
:1002A00070479639884070474A0009030123090BBB
:1002B0001B051943094B10B5520D9A4201DA002073
:1002C00010BD064B34339A4203DC9A1AFFF744FF01
:1002D00010BD03495118884010BD0000FF03000005
:1002E000CDFBFFFF10B5002B08DA0024401C614154
:1002F00092185B411A4301D14008400010BDF0B58F
:100300001FB482B005460C0003D0084602F0EEFA96
:1003100002E002F0EBFA2030024600902146284627
:1003200000F052F8049B059A04460F461843114307
:10033000084314D0184610431BD0009840210A1AD5
:1003400018460599FFF708FF05460E46009A0599DD
:10035000049800F039F8084305D0012004E0204655
:10036000394607B0F0BD0020C11705430E432C43AA
:10037000374300990E986305401A7905E40A002274
:100380000C43FD0A0A3002D500200146E9E70105C9
:10039000101969410C9C0D9D00196941FFF7A2FFDE
:1003A000DFE70000064C0125064E05E0E36807CCB8
:1003B0002B430C3C98471034B442F7D3FFF784FE2C
:1003C000103500083035000810B5202A04DB01463E
:1003D000203A9140002010BD914020239C1A0346F2
:1003E000E3401943904010BD31B500F0AFF8009CD8
:1003F0000546601C00D0641C00F0A8F8401BA04219
:10040000FAD338BDF8B5002389E001249C402A4680
:10041000A44622407ED04C68022C01D0122C0CD174
:10042000DC08A40027183C6A5D07ED0E0F26AE40DD
:10043000B4430E69AE4026433E6205685E00032465
:10044000B4400F79A543BF07BF0FB7402F430760E4
:100450004D68012D05D0022D03D0112D01D0122D94
:100460000ED18568CF68A543B7402F4387604768A2
:100470006546AF430D79ED06ED0F9D403D43456068
:10048000C568A5438C68B4402C43C4604C68E40044
:1004900044D5264CA56901263543A561A4699D086C
:1004A00034400094224CAD002F19BC689D072E0FDC
:1004B0000F25B540AC430925ED06A84201D1002522
:1004C0000AE01C4DA84201D1012505E01A4DA842C1
:1004D00001D1022500E00525B5402543BD60174C3C
:1004E00025684E689543F60300D515432560656879
:1004F0004E689543B60300D515436560A5684E6800
:100500009543F60200D51543A560E5684E6895430E
:10051000B60200E002E000D51543E5605B1C0A6806
:100520001546DA4000D070E7F8BD00000010024028
:100530000000014000040048000800480004014099
:10054000002A01D0816170478162704701480068CC
:10055000704700002800002070B5040005D0254633
:100560006035687A002802D006E0012070BD0020C6
:100570002872204601F002FA24206872206801687F
:10058000490849000160204601F0D6FE0128EDD05F
:10059000606A002802D0204601F034FE20684168DD
:1005A0000922D2029143416020688168222291434E
:1005B0008160206881680822114381602068016899
:1005C000012211430160204601F082FE70BD70B52A
:1005D000024640325378202B1CD11378012B19D0BE
:1005E0000123137024245470046825689D432560FA
:1005F000046825681E03B5432560046825680D431B
:1006000025600068016819430160202050700020B7
:10061000107070BD022070BD70B502464032537834
:10062000202B1BD11378012B18D001241470242304
:10063000537003681D68A5431D6005682B680F266D
:100640003602B34309021943296000680168214357
:100650000160202050700020107070BD022070BD1D
:1006600070B5040006D0254640356878002600287D
:1006700002D005E0012070BD2E70204600F0A0F9E8
:1006800024206870206801684908490001600F2132
:100690006068090688432168086121688A6801202A
:1006A000C00382438A60E1680129A16808D0212241
:1006B0009202114322689160E168022902D005E0AC
:1006C0000143F7E701212268C902516021684A68A5
:1006D0000F4B1A434A602168CA688243CA60616945
:1006E00020690843A169090208432168C860216A9A
:1006F000E06908432168086020680168012211430D
:1007000001606664202068702663AE70002070BDB2
:1007100000800002FFB5054604464035687883B086
:10072000202873D10C98002871D00D9800286ED025
:10073000287801286AD001202870FFF707FF0746B4
:10074000012200901923D103204601F067FA002806
:1007500076D1222068704020A870002666640C982C
:1007600060620D98608566630E980090019704A9F9
:100770000EC9204601F0D6F9002804D0606C2E7016
:10078000042860D05CE0618D09208002FF2905D932
:10079000FF22228501231B06009006E0618D218542
:1007A0000090208D0123C2B25B062046049901F01F
:1007B00023FA00970022042120460E9B01F02EFA16
:1007C00000283DD12068416A606A421C6262017063
:1007D000208D401E81B22185608D401E60850029DC
:1007E00021D1608D00281ED0009700228021204654
:1007F0000E9B01F013FA002822D1608DFF2807D943
:10080000FF22228501231B06009608E02AE01AE059
:10081000608D20850096208D0123C2B25B062046A4
:10082000049901F0E9F9608D0028C2D13A462046CA
:100830000E9901F017FA002807D0606C042802D046
:10084000032007B0F0BD0120FBE721682020C8612C
:1008500021684A68044B1A404A606870AE702E7076
:100860000020EEE70220ECE700E800FEFFB50546B9
:1008700004464035687883B0202876D10C9800284B
:1008800074D00D98002871D0287801286DD00120EF
:100890002870FFF75BFE0746012200901923D10361
:1008A000204601F0BBF9002853D121206870402078
:1008B000A870002666640C9860620D986085666377
:1008C0000E980090019704A90EC9204601F05FF927
:1008D000002804D0606C2E7004286AD039E0608D46
:1008E000FF2805D9FF22228501231B06009606E07A
:1008F000608D20850096208D0123C2B25B062046C4
:10090000049901F079F93A4620460E9901F0D1F99F
:10091000002803D0606C04284BD01AE0606A411CA8
:100920006162216800788862608D401E6085208D3C
:10093000401E0004000C208524D1608D002821D0A9
:1009400000970022802120460E9B01F067F90028C5
:1009500002D0032007B0F0BD608DFF2807D9FF2229
:10096000228501231B06009608E024E021E0608D2B
:1009700020850096208D0123C2B25B062046049993
:1009800001F03AF9608D0028BDD13A4620460E9913
:1009900001F068F90028BDD120682021C1612068DC
:1009A0004268064B1A4042606970AE702E7000209B
:1009B000D0E70120CEE70220CCE7000000E800FEEF
:1009C00000B500680F4987B0884218D10320400263
:1009D0000090122001900120029003200390042037
:1009E000049009206946C006FFF70CFD0648C2695D
:1009F000012149050A43C261C0690840059007B05A
:100A000000BD000000540040001002400248016890
:100A1000491C0160704700002800002010B50648FE
:100A20000168102211430160002000F007F800F077
:100A300017F8002010BD00000020024010B5044649
:100A400000F06EF97D21C900FFF770FB00F07AFF1E
:100A500000222146501E00F02FF8002010BD00009B
:100A600008B50F48816901221143816181691140F4
:100A70000091C26901040A43C261C06900220840B2
:100A800000901146501F00F017F800221146901EEA
:100A900000F012F800221146501E00F00DF808BDBB
:100AA00000100240C106C90E0120884001490860BB
:100AB0007047000000E100E010B501F021FA10BD20
:100AC000F8B5044600683E4DC00352D5E8690026DB
:100AD000C00007D4E96928040143E961E9690140DC
:100AE0000126009137480168C90510D401688215B4
:100AF00011430160FFF72AFD074604E0FFF726FDDA
:100B0000C01B642824D82F480068C005F6D5286A81
:100B100003273F02384020D06168394081421CD011
:100B2000286A2A6AB843012109040A432A622A6A08
:100B30008A432A622862C0070FD0FFF707FD0090A2
:100B400008E0FFF703FD0099411A1F48814201D9CF
:100B50000320F8BD286A8007F3D5286A6168B84386
:100B600008432862002E04D0E96901200007814370
:100B7000E9612078C00705D0286BA1688008800053
:100B8000084328632078800605D5286B1021884308
:100B9000E168084328632068800305D5286B80211D
:100BA00088436169084328632088400505D5286B80
:100BB000402188432169084328630020F8BD0000D4
:100BC000001002400070004088130000F8B5054690
:100BD0004E480E460068C007C00FB0420AD24B48CC
:100BE000016849084900314301600068C007C00F2F
:100BF000B04270D12878464C800705D56068F02156
:100C00008843A968084360602878C00753D06868A3
:100C1000012817D0022818D0032819D02168890785
:100C2000002958DA61688908890001436160FFF78B
:100C30008DFC69680746012913D002291DD00329BC
:100C400027D034E021688903EAE721688901E7E7D2
:100C5000616BC903E4E7FFF779FCC11B2D488142B2
:100C600023D860680007800F0128F4D123E0FFF744
:100C70006DFCC11B2748814217D860680007800FB0
:100C80000228F4D117E0FFF761FCC11B2148814223
:100C90000BD860680007800F0328F4D10BE0FFF742
:100CA00055FCC11B1B48814201D90320F8BD606877
:100CB0000007800FF3D115480168C907C90FB14279
:100CC0000BD9016849084900314301600068C00739
:100CD000C00FB04201D00120F8BD2878400706D5EA
:100CE0006068072109028843E9680843606000F0F2
:100CF0002DF86168084A0906090F515CC840074988
:100D000008600020FFF79AFE0020F8BD0020024096
:100D10000010024088130000F83400082C00002066
:100D200001480068704700002C0000200448054975
:100D300000684968044A4905490F515CC84070473A
:100D40002C000020001002400835000830B516A322
:100D50000FCB89B06C460FC417A30FCB0FC41A4931
:100D60004A680C20144604401848042C05D0184B3F
:100D7000082C04D00C2C00D1184609B030BD9402C8
:100D8000240F6D462C5DC96A04AD0907090FD20313
:100D9000695C920F022A02D0032A00D11846FFF79D
:100DA000C5F96043E9E700000203040506070809E6
:100DB0000A0B0C0D0E0F10100102030405060708A4
:100DC000090A0B0C0D0E0F100010024000127A00E1
:100DD000006CDC02FEB504460078F04EF04DC00712
:100DE00048D068680007800F01281FD06868000796
:100DF000800F022804D16868C003800F022815D034
:100E00006168012919D001208004002901D0052939
:100E100017D02968B1432960296881432960606837
:100E200000281BD0FFF792FB074613E028688003D9
:100E300020D56068002876D01CE028683043286000
:100E4000EDE7296801432960F7E7FFF77FFBC01B47
:100E5000642869D828688003F7D50BE0FFF776FB94
:100E6000074604E0FFF772FBC01B6428F1D828682E
:100E70008003F7D4207880073ED568680007800F8C
:100E800014D068680007800F022804D16868C00386
:100E9000800F01280AD0E068002828681DD00121B1
:100EA00008432860FFF752FB07460BE028688007DD
:100EB0000BD5E068012836D107E0FFF747FBC01BE0
:100EC0000228C6D828688007F7D52868F821884303
:100ED0002169C900084328600EE0400840002860EE
:100EE000FFF734FB074604E0FFF730FBC01B022886
:100EF000AFD828688007F7D42078000724D5E069A8
:100F00000028686A11D0012108436862FFF71EFBC0
:100F1000074604E0FFF71AFBC01B022899D8686A4D
:100F20008007F7D510E036E1D1E040084000686264
:100F3000FFF70CFB074604E0FFF708FBC01B022885
:100F400087D8686A8007F7D42078042740070028EC
:100F500061DA00200190E869C00008D4E969B806A8
:100F60000143E961E96901400120009101908D4848
:100F70000168C90511D40168821511430160FFF7AA
:100F8000E5FA009005E0FFF7E1FA0099401A6428BD
:100F900097D884480068C005F5D5A06801280AD014
:100FA000002801D0052811D0286A40084000286296
:100FB000286AB84302E0286A012108432862A06831
:100FC000002812D0FFF7C2FA00900AE0286A3843DE
:100FD0002862F0E7FFF7BAFA0099411A7248814295
:100FE00075D8286A8007F5D50DE0FFF7AFFA0090B5
:100FF00006E0FFF7ABFA0099411A6B48814266D8C8
:10100000286A8007F5D40198002804D0E9690120F6
:1010100000078143E9612078C00635D56069012861
:101020000CD0401D686B24D038436863686B40085F
:1010300040006863FFF78AFA074622E0686B38438E
:101040006863686B012108436863FFF77FFA07460E
:1010500004E0FFF77BFAC01B022838D8686B8007D2
:10106000F7D5686BF8218843A169C9000843686314
:101070000AE0B8436863F4E7FFF768FAC01B022888
:1010800025D8686B8007F7D42078800637D5686844
:101090000007800F032813D068680007800F02281C
:1010A00004D16868C003800F032809D0206A002893
:1010B000686B16D030436863FFF748FA06460CE0C9
:1010C000686BC0031BD5206A012864D117E05BE080
:1010D000FFF73CFA801B022856D8686BC003F7D58F
:1010E0000DE0B0436863FFF731FA064604E0FFF70E
:1010F0002DFA801B022847D8686BC003F7D4606ABA
:10110000002846D069680907890F022943D00126C3
:1011100036060228286805D0B0432860FFF716FA83
:10112000044633E0B0432860FFF710FA074604E0B6
:10113000FFF70CFAC01B022826D828688001F7D4D4
:10114000E86A216B000900010843E862A16AE06ACD
:10115000084369687B22D20391430843686028688A
:1011600030432860FFF7F2F9044604E0FFF7EEF998
:10117000001B022808D828688001F7D509E0FFF78E
:10118000E5F9001B022801D90320FEBD2868800173
:10119000F5D40020FEBD0120FEBD000000000100CE
:1011A00000100240007000408813000002484168AF
:1011B000491C4160704700001000002010B5044633
:1011C00000688168C9040CD5C068C00509D52046EF
:1011D000FFF7ECFF2168C86880221040FF38823892
:1011E000C86001200249400448610120607710BDB9
:1011F0000004014070B5040003D0607F002802D0D5
:1012000006E0012070BD00202077204600F04CF859
:10121000022060772168CA20486221685320486212
:10122000204600F0A3FEFF250426002824D12068D4
:1012300081681C4A1140816021688868626863691E
:10124000104322691A43104388602168E0680861EE
:101250002068016922891204114301612068C16874
:1012600080229143C16020688068800608D42046AF
:1012700000F09EF9002803D0206845626677C0E739
:101280002068016C01229204914301642068016C82
:10129000A269114301642068456201206077002043
:1012A00070BD0000BFFF8FFF10B50068084988427D
:1012B0000DD10848016A0122D203114301620022C4
:1012C00011460220FFF7F8FB0220FFF7EBFB10BDF1
:1012D0000028004000100240F8B50446007F0B468D
:1012E00001283ED0012020770220607720681F4629
:1012F000002620378068002A35D040064AD5187865
:1013000000F021FE387800F01EFE18789D78000469
:1013100005435878D9780002090408430543387812
:10132000996900060543D86905435869054358681B
:10133000084300902168CA2048622168532048620F
:1013400020688268FF2101318A4382602168C86871
:1013500080221040FF388238C860FFF7F7F8074650
:1013600028E00220F8BD400600D4DE70187800F0B6
:10137000F2FD0504587800F0EEFD00020543987870
:1013800000F0E9FD0543D87800040543387800F003
:10139000E2FDC5E7DE70B5E7FFF7D8F8C11B7D2099
:1013A000C000814206D92168FF204862032060778F
:1013B0002677F8BD2068C068C007EDD02068C561F9
:1013C00021680098486420688268FF2101310A433F
:1013D00082602068816801221203114381600848FD
:1013E0000268012149040A43026082680A4382605C
:1013F0002168FF2048620120607726770020F8BD31
:1014000000040140F8B50446007F0B46012815D0C2
:1014100001202077022060775878002A10D000F051
:1014200092FD987800F08FFDD8789D7800040543F0
:101430005878197800024903084316E00220F8BDE5
:10144000C10603D5EF2108400A305870D87800F063
:1014500082FD0504587800F07EFD0002054398786F
:1014600000F079FD05431878400305432168CA2040
:101470004862216853204862204600F077FD00262C
:10148000FF27002811D110480540206845602068DA
:10149000C16880229143C1602068806880060BD4B7
:1014A000204600F085F8002806D020684762042016
:1014B000607726770120F8BD2068476201206077B9
:1014C00026770020F8BD00003FFFFF00F8B5044676
:1014D000007F0D4601280ED0012020770220607782
:1014E000206800278068002A07D0400618D5287891
:1014F00000F029FD15E00220F8BD400600D4EF7091
:10150000287800F028FD0604687800F024FD000229
:101510000643A87800F01FFD0643E878000409E0C0
:10152000EF702878AE78000406436878E978000206
:101530000904084306432168CA20486221685320F1
:101540004862204600F012FD00281ED117480640D0
:1015500020680660206881680122920491438160BE
:101560002969E868084321688A6810438860206810
:10157000C16880229143C1602068806880060CD4D5
:10158000204600F015F8002807D02168FF204862A7
:101590000420607727770120F8BD2168FF2048628A
:1015A0000120607727770020F8BD00007F7F7F0053
:1015B00070B504460068C168A0229143C160FEF77F
:1015C000C5FF7D260546F60006E0FEF7BFFF401B7F
:1015D000B04201D9032070BD2068C0688006F4D5F0
:1015E000002070BDF8B5040007D000262546403520
:1015F000A662687F002802D005E00120F8BD2E77A2
:10160000204600F04BF802236B77206801684022E7
:10161000914301600721E0680902884201D9002254
:1016200001E0012212030F273F02B84202D0884294
:1016300000D0A662276B002F05D1884201D9236311
:1016400001E001202063A1686068636908432169A3
:10165000194308430123A1695B0219400843E1696A
:101660000843216A0843A16A084321680860616B46
:10167000606AA36908431B0C0427E1683B401943D7
:1016800008432168104348602068C1697A02914389
:10169000C1612666012068770020F8BD00B50068AA
:1016A0000D4987B0884215D10C48826981140A43DC
:1016B0008261806908400590E0200090022001903E
:1016C0000021032003900291049109206946C0067D
:1016D000FEF798FE07B000BD003001400010024048
:1016E000FFB5044683B00120254640350090287F91
:1016F00000270E4601280FD001202877FEF726FF8D
:101700000190687F616801280DD0CA1FFD3A08D199
:10171000A168002905D102E0022007B0F0BD04282D
:1017200001D00227FAE0002E7CD005980028FBD0DB
:1017300006980028F8D0687F042801D00520687733
:1017400000202066059921640699E9800699A98000
:10175000A6630699E1870699A187E06420650723BF
:10176000E1681B02994202D8E888012806D920685E
:101770004268012109038A43426005E0206841680C
:10178000012212031143416020680168490603D415
:101790000168402211430160E1686068994242D9C2
:1017A000002802D0E08F012835D121683088C86038
:1017B000E08F401EE087B61C2DE0009800280ED078
:1017C000E08F00280BD020688168890707D5318811
:1017D000C160E08F401EE0870020B61C0090E888C2
:1017E00000280ED020688168C9070AD0C068059912
:1017F00008800598801C0590E888401EE88001203C
:1018000000900C98401C06D0FEF7A0FE0199411AEA
:101810000C9881426DD2E08F0028CED1E888002854
:10182000CBD16EE079E0002802D0E08F012862D1B0
:10183000E08F012807D921683088C860E08F801EBA
:10184000E087B61C57E0216830780873E08F401EAF
:10185000E087761C4FE00098002818D0E08F002821
:1018600015D020688168890711D5E18F012906D933
:101870003188C160E08F801EE087B61C05E03178BA
:101880000173E08F401EE087761C00200090E888FE
:10189000002824D020688168C90720D0E988012960
:1018A00012D9C068059908800598801C0590E888C1
:1018B000801EE880E88801280FD82068416801224E
:1018C00012031143416008E0017B059801700598FF
:1018D000401C0590E888401EE880012000900C988C
:1018E000401C08D0FEF732FE0199401A0C9988423C
:1018F00001D3032712E0E08F0028ACD1E88800284C
:10190000A9D12046019A0C9900F054FB002801D07F
:1019100020202066206E002800D001270120687753
:10192000002028773846F8E604220449042808698C
:1019300002D09043086170471043FBE700E000E0ED
:1019400070470000094910B5401E884201D90120A6
:1019500010BD074C60610321081F00F0D1FA002080
:10196000A06107202061002010BD0000FFFFFF00E4
:1019700000E000E010B5FFF7E3FF10BD00B5006820
:101980000E4987B0884216D10D48C2690121490429
:101990000A43C261C06908400590042000901220EB
:1019A00001900121032003900291049109206946CE
:1019B000C006FEF727FD07B000BD00000044004050
:1019C00000100240FFB5064604466036707A83B0C8
:1019D0000D46202858D1002D0CD00598002809D09C
:1019E0000120A1680003814207D12069002804D1A9
:1019F000E80702D0012007B0F0BD307A012843D0BB
:101A0000012030720020E06621207072FEF79EFDFA
:101A1000019027464037059838820598788218E06B
:101A2000788A401E78820698009000228021204605
:101A3000019B00F019FD002818D10120A1680003C6
:101A4000814202D12069002812D0216828780885B7
:101A50006D1C788A0028E3D106980090002240216E
:101A60002046019B00F000FD002808D00320C2E7BB
:101A700028882168C005C00D0885AD1CE9E7202035
:101A8000707200203072B6E70220B4E7FEE701680A
:101A90008A69D243920701D400228A620068816970
:101AA000C943C90703D0816901221143816170478D
:101AB000F7B5044600680E468069C043C0062CD4C2
:101AC00020272546403520688069C04380060FD511
:101AD000701CF8D0002E05D0FEF738FD0299401A90
:101AE000B042F0D96F700020A87028700320FEBDAE
:101AF00021681020C8612068C7612046FFF7C7FF32
:101B000020684168064A11404160042060646F709B
:101B10000020A87028700120FEBD0020FEBD00003E
:101B200000E800FEF8B504460120164640031D46B5
:101B3000DAB20090079F0023204600F05DF83A4695
:101B40002046069900F0B5F8002803D0606C042800
:101B50001BD018E02846F5B2012809D02168300AC8
:101B600088623A462046069900F0A3F80028EDD195
:101B7000206885620097002240212046069B00F0E5
:101B80004DF8002800D00320F8BD0120F8BDF8B5BD
:101B900004460120164640031D46DAB2C3020090F7
:101BA000079F204600F028F83A462046069900F0A4
:101BB00080F8002803D0606C04281BD018E0284669
:101BC000F5B2012809D02168300A88623A462046D9
:101BD000069900F06EF80028EDD120688562009724
:101BE000002280212046069B00F018F8002800D033
:101BF0000320F8BD0120F8BD70B50568049C686835
:101C00008905890D1204044E1143194330402143C4
:101C10000143696070BD0000009800FCF8B51C46E7
:101C200017460E46054611E0601C0FD0002C05D06B
:101C3000FEF78CFC0699401AA04207D920204035B7
:101C400068700020A87028700320F8BD286881699A
:101C50003046884304D00020B842E5D00020F8BDCB
:101C60000120F9E770B516460D4604461AE03246E3
:101C700029462046FFF71CFF002801D0012070BD37
:101C8000002D04D0FEF762FC801BA8420AD9616CCB
:101C9000202001436164403460700020A0702070F7
:101CA000032070BD20688069C0438006DFD4002017
:101CB00070BD70B516460D4604461CE032462946F6
:101CC0002046FFF7F5FE002801D0012070BD681CFA
:101CD00011D0002D04D0FEF739FC801BA8420AD990
:101CE000616C202001436164403460700020A0706A
:101CF0002070032070BD20688069C0438007DDD458
:101D0000002070BDF0B51D4887B04269012149042B
:101D10000A43426142690A400592426949000A4306
:101D20004261406909260840F60605900022182104
:101D30003046FEF705FC124F012202213846FEF71D
:101D4000FFFB012500240095694630460295019469
:101D5000FEF758FB18200090029469460195039401
:101D60003046FEF74FFB0220009002946946019531
:101D700003943846FEF746FB07B0F0BD0010024062
:101D80000004004810B51248104901601149416033
:101D9000002181600161416181610122C161C260F4
:101DA0000162FEF75DFC002800D0FEE70021084834
:101DB000FEF70DFC002800D0FEE700210448FEF7E6
:101DC0002BFC002800D0FEE710BD000000540040AE
:101DD000540000200E09002030B52449244891B059
:101DE000002412C0082101608460C4600461416065
:101DF0000838FFF7FFF9002800D0FEE768460470B6
:101E00004470847003940122694619480494FFF7D2
:101E10005DFB002800D0FEE7012568460575457585
:101E20008575C4752A4605A91148FFF7EBFA002805
:101E300000D0FEE7684604764476052181760D4899
:101E400007940B9009940A940C940D9408A80576B5
:101E5000FF2001300F90012206A90548FFF73CFA48
:101E6000002800D0FEE711B030BD0000002800407F
:101E7000A00000200080808010B511480F4901604B
:101E8000FF210531416000210722816012020161BA
:101E9000C2600122416152028261016218224162E4
:101EA000C26181620722C262016308214163FFF7B8
:101EB00099FB002800D0FEE710BD00000030014073
:101EC000C000002010B50C480A4901604B210902EE
:101ED000416000218160C16001618161C1610822AE
:101EE000016242614162FEF737FB002800D0FEE745
:101EF00010BD000000440040240100207047000095
:101F00008307FF22DB0E9A408907090E99400028BB
:101F10000BDA0007000F0838830808489B001818E0
:101F2000C36993430B43C3617047830804489B0014
:101F30001B181868904308431860704700ED00E0D4
:101F400000E400E0704701090A2200075143000F36
:101F50004018C0B27047002102E00A38C0B2491CE4
:101F60000A28FAD20907090E0843704770B50446DB
:101F70000068C168490613D40021C943C160FEF757
:101F8000E5FA7D260546F60006E0FEF7DFFA401B7F
:101F9000B04201D9032070BD2068C0684006F4D566
:101FA000002070BD10B50248FFF708F910BD000011
:101FB000A0000020F8B50F460B46154600920321FD
:101FC00004460022C90200F01BF82026002812D186
:101FD0003B46002280212046009500F05CF8002856
:101FE00009D103213B46002249022046009500F01A
:101FF00007F8002803D0206E304320660320F8BD88
:10200000F8B51D4617460E4604463DE00321490239
:102010008E4205D1002F03D1017B68460170007804
:10202000681C31D0002D05D0FEF790FA0699401AB1
:10203000A84229D320684168E0229143416060684A
:10204000C11FFD390CD10121A068C903884202D00B
:102050004911884204D120680168402291430160FF
:102060000120A16A4003814207D121680A688243A6
:102070000A6021680A6802430A60012040346077E0
:10208000002020770320F8BD206881683140B942E4
:10209000BCD10020F8BDF8B51D4617460E460446D3
:1020A00033E0681C31D0002D05D0FEF74FFA0699B9
:1020B000401AA84229D320684168E0229143416038
:1020C0006068C11FFD390CD10121A068C903884295
:1020D00002D04911884204D120680168402291430E
:1020E00001600120A16A4003814207D121680A688A
:1020F00082430A6021680A6802430A600120403472
:102100006077002020770320F8BD20688168304682
:10211000884304D00020B842C3D10020F8BD01207C
:10212000F9E7704710B5FEF771FCFFF723FC10BD0F
:1021300010B598B00A2000900120002410210390CF
:102140000994079004916846FEF744FE002800D0E9
:10215000FEE707200D900E940F94002110940DA817
:10216000FEF734FD002800D0FEE70E481190C011A4
:102170001290149411A8FEF7A3FC002800D0FEE7EB
:10218000FEF7CEFD7D21C900FDF7D0FFFFF7DAFB9A
:102190000420FFF7C9FB00221146501EFEF78CFCFD
:1021A00018B010BD2000010013480168012211433E
:1021B00001604168114A114041600168104A1140B4
:1021C00001600168012292049143016041683F224D
:1021D000120491434160C16A09090901C162016B9E
:1021E000FF22D43291430163416B490849004163A6
:1021F0000021816070470000001002400CB8FF0809
:10220000FFFFF6FE10B5818CC90707D001684A6848
:1022100001235B049A43836A1A434A60818C8907CD
:1022200007D501684A6801231B049A43C36A1A430D
:102230004A60818C490707D501684A6801239B04DD
:102240009A43036B1A434A60818C090707D50168DA
:102250004A680123DB039A43436B1A434A60818C2B
:10226000C90607D50268916801231B039943836B54
:1022700019439160818C890607D501688A6801231A
:102280005B039A43C36B1A438A60818C490612D55B
:1022900003685A6801210905046C8A4322435A6085
:1022A000026C8A4207D10268516803235B05994397
:1022B000436C19435160818C090607D501684A684F
:1022C0000123DB04806C9A4302434A6010BD000086
:1022D000F8B500260446C666FEF738F905461449E7
:1022E000206888421DD10068124F000709D50121DE
:1022F0002B46002249052046009700F0B5F800283B
:102300000DD12068006840070BD501212B46002223
:1023100089052046009700F0A7F8002801D0032087
:10232000F8BD202060346072A07226720020F8BDD3
:1023300000380140FFFFFF01F8B504462369A26899
:10234000E5691A43636910202B43002125681A436D
:102350002B680E463E4F3B4013432B6023685A6860
:1023600003252D03AA43E5682A435A60236AA2691C
:1023700025681A43AB680B273F02BB431343AB608E
:10238000344A2568954210D1334A126B9207920F56
:102390000ED0012A05D0022A05D0032A09D1022035
:1023A00007E0042005E0082003E02C4A954200D114
:1023B00000200122E369D203934224D100280CD0EB
:1023C00002280DD0042813D0082817D001260A09A6
:1023D00012010807400F10432FE0FEF7A7FC09E0A9
:1023E00061681F4A48088018FDF7A0FE81B2EEE739
:1023F000FEF7ACFC616840004A08F4E7616801221E
:1024000048081204EFE7002808D0022809D0042861
:102410000BD0082814D001263046F8BDFEF786FC04
:1024200005E061680F4A48080CE0FEF78FFC616820
:102430004A088018FDF77AFE80B22168C860EBE791
:10244000616848088018FDF771FE80B2E860E3E734
:10245000F369FFEF003801400010024000440040E3
:102460000024F40000127A00FFB581B017460E4632
:1024700004460A9D1DE0681C1BD0002D05D0FEF708
:1024800065F80499401AA84213D920680168FF2210
:10249000A132914301602068816849084900816048
:1024A000202060346072A07200202072032005B0EA
:1024B000F0BD2068C1693046884304D00020B8428E
:1024C000D9D00020F3E70120F9E70000F0B585B08E
:1024D000892000F0EDFE012420430146892000F010
:1024E000DDFF0021882000F0D9FF0121802000F0CD
:1024F000D5FF0121FF2000F0D1FF0021084600F0A8
:10250000CDFF912000F0D4FEEF498870012100201A
:1025100000F0C4FF0021FF2000F0C0FF0021802058
:1025200000F0BCFF602000F0C3FE122101436020D8
:1025300000F0B4FF7D20C00500F048FFFF2101201E
:1025400000F0ACFF03A902A800F046FB00287DD0F4
:1025500006226946B02000F02FFE0121FF2000F086
:102560009DFF00214F2000F099FF2C214E2000F00C
:1025700095FF0021FF2000F091FFB421B62000F06C
:102580008DFF6846007B002801D00C2500E0002567
:102590006A46127A0021944608466A46A84201D348
:1025A000614508D1C4084707165D7F0F0123BB4072
:1025B0009E43165508E0C308D35C4407640FE3400C
:1025C000DB0701D0491CC9B2401CC0B23028E5D39A
:1025D00006226946B02000F04FFF0121FF2000F0E5
:1025E0005DFF0021084600F059FF0021FF2000F0A8
:1025F00055FF0021092000F051FF0021102000F0BC
:102600004DFF0021112000F049FF0121242000F09E
:1026100045FFFF21252000F041FF0021752000F03B
:102620003DFF0121FF2000F039FF2C214E2000F05A
:1026300035FF0021482000F031FF2021302000F03C
:102640002DFF0021FF2000F029FF00E039E10921E2
:10265000302000F023FF0021542000F01FFF042150
:10266000312000F01BFF0321322000F017FF8321EF
:10267000402000F013FF2521462000F00FFF00212D
:10268000602000F00BFF0021272000F007FF06214B
:10269000502000F003FF0021512000F0FFFE9621A2
:1026A000522000F0FBFE0821562000F0F7FE3021FA
:1026B000572000F0F3FE0021612000F0EFFE002122
:1026C000622000F0EBFE0021642000F0E7FE002114
:1026D000652000F0E3FEA021662000F0DFFE01216E
:1026E000FF2000F0DBFE3221222000F0D7FE142173
:1026F000472000F0D3FEFF21492000F0CFFE00214B
:102700004A2000F0CBFE0021FF2000F0C7FE0A2186
:102710007A2000F0C3FE00217B2000F0BFFE2121C3
:10272000782000F0BBFE0121FF2000F0B7FE34212D
:10273000232000F0B3FE0021422000F0AFFEFF2175
:10274000442000F0ABFE2621452000F0A7FE052125
:10275000462000F0A3FE4021084600F09FFE06211F
:102760000E2000F09BFE1A21202000F097FE402151
:10277000432000F093FE0021FF2000F08FFE032194
:10278000342000F08BFE4421352000F087FE01212B
:10279000FF2000F083FE0421312000F07FFE09219C
:1027A0004B2000F07BFE05214C2000F077FE042139
:1027B0004D2000F073FE0021FF2000F06FFE00218D
:1027C000442000F06BFE2021452000F067FE082128
:1027D000472000F063FE2821482000F05FFE002122
:1027E000672000F05BFE0421702000F057FE0121FD
:1027F000712000F053FEFE21722000F04FFE0021F8
:10280000762000F04BFE0021772000F047FE0121EA
:10281000FF2000F043FE01210D2000F03FFE0021CB
:10282000FF2000F03BFE0121802000F037FEF82160
:10283000012000F033FE0121FF2000F02FFE0121D6
:102840008E2000F02BFE0121002000F027FE002149
:10285000FF2000F023FE0021802000F01FFE042155
:102860000A2000F01BFE842000F022FDEF21014031
:10287000842000F013FE01210B2000F00FFE00F079
:1028800025F9114CE821A060012000F007FEA068A6
:1028900000F03EFD0121084600F000FE402000F05F
:1028A00061FC00280DD00221012000F0F7FD00207E
:1028B00000F058FC002804D0E821012000F0EEFDD3
:1028C000012005B0F0BD0000000000200FB410B5DD
:1028D00003A9044B044A029800F02EF810BC08BC6F
:1028E00004B01847B52A0008300000202021020C4F
:1028F00001D010211046020A01D010460839020901
:1029000001D01046091F820801D01046891E4208D6
:1029100001D0881E7047081A704702E008C8121FCD
:1029200008C1002AFAD170477047002001E001C1B8
:10293000121F002AFBD17047FFB58DB00446002559
:1029400006E025280AD0109A0F999047641C6D1C48
:1029500020780028F5D1284611B0F0BD00270121CC
:10296000484A009700E00743641C23780846203B50
:1029700098401042F7D120782E2817D10420074321
:102980006078641C2A280CD10E98641C02C800913F
:102990000E900BE000990A22514330394018641C14
:1029A00000902078014630390929F3D92078002891
:1029B000D1D0642808D0692806D075281ED0109A76
:1029C0000F9990476D1C5BE00A200E99019001C998
:1029D0000E91002802DA40422D2102E0390504D58B
:1029E0002B216A461172012103E0F90704D020214E
:1029F000F7E70BAE0B910DE00021FAE70A200E99E4
:102A0000019001C90E91F7E70199FDF78FFB303175
:102A1000761E31700028F7D103A8801B203001906A
:102A2000780701D5009801E00120009001998842C3
:102A300001DD401A00E000200027009006E002A817
:102A4000109AC05D0F9990476D1C7F1C0B988742B0
:102A5000F5DB04E0109A30200F9990476D1C009927
:102A6000481E00900029F5DC05E03078109A761CAD
:102A70000F9990476D1C0199481E01900029F4DCC4
:102A8000641C65E709280100C1B2000A8140491CA5
:102A900088B27047002100280AD0401E02E040089A
:102AA000491C89B2020AFAD10902C0B2014388B2B4
:102AB0007047000013B50A23012269460248FEF759
:102AC00081FF00981CBD00002401002070B588B073
:102AD000A525AD00194E1A4C684600F039F802A938
:102AE000684600F049F868460078002802D0154989
:102AF0000598441868468078002804D00598124943
:102B00004000001905E068464078002802D005988A
:102B1000611944186846C078002802D006986119E7
:102B2000441868460079002802D00798A119441873
:102B300006488460204608B070BD000026020000F0
:102B4000360B0000840D000064050000000000202A
:102B500010B50446012000F0ABFBC106C90F21707F
:102B60000107C90FA1704107C90F61704106C90F64
:102B7000E170C009207110BD70B505460C460020FB
:102B800000F0A0F82080462000F092FB401CA080BE
:102B9000217800F045FCE060512000F09FFBFFF73A
:102BA00073FFE080217800F03BFC2061012000F001
:102BB00089F86080712000F091FBFFF765FF2081AC
:102BC000E978002902D0E188401A2081A178208983
:102BD00000F026FC606170BD70B50D46064601210F
:102BE000802000F05BFC0121FF2000F057FC002159
:102BF000084600F053FC0621FF2000F04FFC832024
:102C000000F056FB04210143832000F047FC07211C
:102C1000FF2000F043FC0121812000F03FFC012156
:102C2000802000F03BFC6B21942000F037FC002159
:102C3000832000F033FCFDF789FC214CE0800CE0A0
:102C4000A088002809D0FDF781FCE18880B2401AF5
:102C5000A188884201DD002070BD832000F028FBA0
:102C60000028EDD00121832000F018FC922000F014
:102C70001FFB4106490E3170C009287000218120D8
:102C800000F00CFC0621FF2000F008FC832000F07F
:102C90000FFBFB210140832000F000FC0121FF20FD
:102CA00000F0FCFB0121002000F0F8FB0021FF20D8
:102CB00000F0F4FB0021802000F0F0FB012070BD4B
:102CC0000000002010B5002803D0012803D0FF2009
:102CD00010BD502000E0702000F0EAFA401C4006D1
:102CE000000E10BD70B5124C0026354600F09EFA5D
:102CF0006900605286196420FDF776FB6D1C102D6B
:102D0000F4DB3209002108464300E35A401C9B1AB9
:102D10005B4359181028F7DBFF2009092D30814249
:102D200001D890B270BD03A0FFF7D0FDDCE7000032
:102D3000340000200A63616C6962726174696F6EAD
:102D4000206661696C6564202D2076617269616E10
:102D5000636520746F6F206C617267653A2025642B
:102D60002C207265747279696E672E2E2E0A00000F
:102D700010B5FDF777FA044A044BFDF70BFAFDF79F
:102D800093FA80B210BD00001D5A643BDF4FD53F5F
:102D9000FDF744FEFFF7CCF9FEF7B4FFFFF792F81A
:102DA000FEF7F0FFFFF768F80927FF060122082168
:102DB0003846FDF7C5FB7D200001FDF715FB00221D
:102DC00008213846FDF7BCFBFFF780FBFF203349A5
:102DD000F5300880324800F09BFAFEF7FDFF31A085
:102DE000FFF774FD00F01BF90421782000F0AEF825
:102DF000324800F096F93148401D00F052F930A0F9
:102E0000FFF764FD30A0FFF761FDFFF76BFF06B22F
:102E100031A0FFF75BFDB0B2FFF7AAFF0546002423
:102E200000F004FA00B2301A00D5404200B2002C83
:102E300002D0012C23D02DE0A8422BDD28A0FFF7E3
:102E400045FD1E48001F00F03BF900F0F0F8002897
:102E5000FBD100F0F6F819490C390870002802D0AF
:102E6000012802D004E022A000E027A0FFF72EFDF9
:102E7000012208213846FDF763FB01240AE0A8423D
:102E800008DA27A0FFF722FD002208213846FDF7C7
:102E900057FB00243220FDF7A7FAC1E70400002009
:102EA000204E0000696E697469616C697A696E67A9
:102EB000204E52462E2E2E0A000000001C0000203C
:102EC000646F6E650A00000063616C696272617410
:102ED000696E672E2E2E0A00646F6E65210A00004F
:102EE0007472696767657265642121210A000000B8
:102EF0005472616E6D697373696F6E2077656E745D
:102F0000204F4B0A000000004D6573736167652018
:102F10006973206C6F7374202E2E2E0A000000003F
:102F200072657475726E65642121210A00000000CB
:102F3000092310B5DB06002801D0012200E00022A1
:102F400010211846FDF7FCFA10BD000010B51C4C0E
:102F500021700146052000F035F80021112000F015
:102F600031F82178122000F02DF80021132000F014
:102F700029F80021142000F025F80021152000F088
:102F800021F80021162000F01DF80621084600F067
:102F900019F80821002000F015F80321012000F0A5
:102FA00011F80321022000F00DF84F21042000F059
:102FB00009F800211C2000F005F800F04FF810BDC2
:102FC0000C00002070B504460D46002000F00CF8FF
:102FD000E006C00E203000F011FA284600F00EFA8C
:102FE000012000F001F870BD10B5054B002801D09C
:102FF000012200E0002202211846FDF7A1FA10BDCF
:103000000004004810B50020FFF7EEFFFF2000F09D
:10301000F5F904460120FFF7E7FF204610BD10B583
:103020000020FFF785FF0120FFF7DEFF10BD10B580
:10303000FFF7E8FF8006800F01D0002010BD0120BF
:1030400010BD10B5FFF7DEFF810601D5002010BDD1
:10305000C00601D5012010BDFF2010BD10B5002015
:10306000FFF7C2FFE22000F0C9F90120FFF7BCFF23
:1030700070210720FFF7A6FF0020FFF759FF0B2163
:103080000020FFF79FFF0120FFF752FF10BD10B592
:1030900070210720FFF796FF0A210020FFF792FF1B
:1030A00010BD10B504460020FFF742FF052221465F
:1030B0000B2000F043F80120FFF73AFF10BD00009D
:1030C00010B504460020FFF733FFFFF7E0FF0020B4
:1030D000FFF78AFFE12000F091F90120FFF784FF5C
:1030E0000020FFF781FFA02000F088F90548017853
:1030F000204600F009F80120FFF776FF0120FFF7D6
:1031000017FF10BD0C00002070B50D4606460024C8
:1031100004E0305D00F072F9641CE4B2AC42F8D314
:1031200070BD10B50446014605220A2000F006F8DD
:1031300005222146102000F001F810BD70B50446AC
:1031400015460E460020FFF74FFFE006C00E203068
:1031500000F054F929463046FFF7D6FF0120FFF76B
:1031600043FF70BD012110B50143002000F096F926
:10317000FDF7ECF90F4CE0800CE0A088002809D0A6
:10318000FDF7E4F9E18880B2401AA188884201DDA8
:10319000002010BD132000F08BF84007EDD0012176
:1031A0000B2000F07BF90021084600F077F90120A0
:1031B00010BD0000000000203EB50B236C460EC47D
:1031C000044C0246012321780348FDF7A3FAE0707E
:1031D0003EBD0000000000205400002010B5FDF7A7
:1031E000B5F9104CE0800EE0A08800280BD0FDF768
:1031F000ADF9E18880B2401AA188884203DD012040
:103200006070094810BD132000F052F84007EBD061
:103210001E2000F063F8044601210B2000F03EF967
:10322000204610BD00000020FFFF000010B5012166
:10323000802000F033F90121FF2000F02FF9002158
:10324000084600F02BF9184C9120A17800F026F9DF
:103250000121002000F022F90021FF2000F01EF9DA
:103260000021802000F01AF90121002000F016F959
:10327000FDF76CF9E0800EE0A08800280BD0FDF788
:1032800065F9E18880B2401AA188884203DD0120F7
:103290006070064810BD002000F00AF8C007EBD1AE
:1032A000FFF79CFF10BD000000000020FFFF0000A2
:1032B0001FB50B23012203A96C460EC41346054C0F
:1032C000024621780448FDF725FAE0706846007B45
:1032D00004B010BD00000020540000201FB50B23D7
:1032E000022203A96C460EC4074C02460123217832
:1032F0000648FDF70FFAE0706846007B0102684659
:10330000407B04B0084310BD0000002054000020A2
:10331000F0B50546A5262848B600264F89B0854257
:103320002CD3264C6846FFF713FC02A96846FFF72A
:1033300023FC68460078002802D0214905984418EB
:1033400068468078002804D005981E49400000197E
:1033500005E068464078002802D00598A119441875
:103360006846C078002802D00698A119441868461B
:10337000007900281CD0E019A84202D9002009B029
:10338000F0BD69464989281AC9B200F05FF869465C
:10339000C97880B2002903D06946C989081880B26B
:1033A000FFF778FB0146712000F08EF80648856033
:1033B0000120E4E726020000204E0000E80800009B
:1033C000360B00006405000000000020FF2110B54E
:1033D000C905C84202D20849884201DD002010BD5B
:1033E0000721FCF7CAFEFCF74BFF81B2442000F036
:1033F0006BF8012010BD0000B8FEFF4301B582B09C
:103400000021684601710A200090012301AA02A947
:103410000248FEF765F9684600790EBDC00000203D
:1034200070B5044608487D2541430846FF30ED004D
:10343000F5302946FCF77AFE444340082018294617
:10344000FCF774FE70BD0000002F3A0010B5044672
:10345000084848437D21FF30C900F530FCF766FE7F
:1034600001467D20C000444348082018FCF75EFE5A
:1034700010BD0000002F3A003EB50B236C460EC471
:10348000044C0246012321780348FDF7EFF9E07070
:103490003EBD0000000000205400002013B584B0A1
:1034A0000B23012205A96C460EC41346044C0246A8
:1034B00021780448FDF7DAF9E07006B010BD00008D
:1034C00000000020540000201FB50B0A6A46137349
:1034D00051730B23022203A96C460EC4044C02460E
:1034E000012321780348FDF7C1F9E0701FBD0000FA
:1034F0000000002054000020000000000000000038
:103500000102030406070809000000000102030489
:103510003035000800000020340000001A2900089F
:103520006435000834000020640500002A290008E2
:103530005200000000000000000000000000000039
:1035400000000000000000004655434BDEADBEEF1A
:10355000BBFFFFFFFFFF00000000000000127A0029
:043560000000000067
:04000005080000C12E
:00000001FF
