:020000040800F2
:10000000700D0020D500000851210008551F000880
:1000100000000000000000000000000000000000E0
:100020000000000000000000000000009126000811
:1000300000000000000000002125000893260008B1
:100040000501000805010008050100080501000878
:1000500005010008A702000805010008B102000818
:100060000501000805010008050100080501000858
:100070000501000805010008050100080501000848
:100080000501000800000000000000000501000854
:1000900000000000050100086927000805010008AC
:1000A0000000000005010008050100080501000826
:1000B0000501000800000000050100088137000864
:1000C0000348854600F0A2F800480047413D00087B
:1000D000700D00200C4880F308880C480168090E58
:1000E0000B4A914205D10B480B4901600B480C4962
:1000F00001600C4880470C480047FEE7FEE7FEE73A
:10010000FEE7FEE7FEE70000700D0020040000009F
:100110001F00000018100240010000000000014014
:10012000000000000D270008C100000830B50B4694
:10013000014600202022012409E00D46D5409D42C1
:1001400005D31D469540491B254695404019154647
:10015000521E002DF1DC30BD10B5202A04DB08460C
:10016000203AD040002110BD0B46D340D04020247F
:10017000A21A91400843194610BDD2B201E00270A4
:10018000401C491EFBD270470022F6E710B513460B
:100190000A4604461946FFF7F0FF204610BD421CF0
:1001A0000178401C0029FBD1801A7047F0B51FB4BC
:1001B0000646002082B005464024019100901BE0D5
:1001C000019922460F463046FFF7C6FF049A059B69
:1001D000801A994110D310461946224600F028F89B
:1001E000361A8F410197224601200021009F00F01E
:1001F0001FF838184D4100902046641E0028DFDCAF
:10020000019B00982946324607B0F0BD064C0125F7
:10021000064E05E0E36807CC2B430C3C98471034AE
:10022000B442F7D3FFF750FFF84300081844000822
:1002300010B5202A04DB0146203A9140002010BD71
:10024000914020239C1A0346E3401943904010BD7F
:1002500070B58C180578401C6B075B0F01D10378D3
:10026000401C2A1106D10278401C03E006780E706B
:10027000401C491C5B1EF9D12B0705D40023521EDC
:100280000DD40B70491CFAE70378401CCB1A921C62
:1002900003E01D780D70491C5B1C521EF9D5A1426C
:1002A000D8D3002070BD10B5022000F023F810BD97
:1002B00010B5FF20013000F01DF810BD31B500F081
:1002C000CFF8009C0546601C00D0641C00F0C8F804
:1002D000401BA042FAD338BD0121054A022804D0B0
:1002E000C31FF93B00D15170704711707047000077
:1002F0002000002010B504494A69024202D048613A
:10030000FFF7EAFF10BD000000040140F8B500232C
:1003100089E001249C402A46A44622407ED04C68B5
:10032000022C01D0122C0CD1DC08A40027183C6A46
:100330005D07ED0E0F26AE40B4430E69AE40264376
:100340003E6205685E000324B4400F79A543BF07F1
:10035000BF0FB7402F4307604D68012D05D0022D18
:1003600003D0112D01D0122D0ED18568CF68A54381
:10037000B7402F43876047686546AF430D79ED0668
:10038000ED0F9D403D434560C568A5438C68B44072
:100390002C43C4604C68E40044D5264CA569012672
:1003A0003543A561A4699D0834400094224CAD00FA
:1003B0002F19BC689D072E0F0F25B540AC430925AA
:1003C000ED06A84201D100250AE01C4DA84201D14A
:1003D000012505E01A4DA84201D1022500E00525BE
:1003E000B5402543BD60174C25684E689543F6031C
:1003F00000D51543256065684E689543B60300D562
:1004000015436560A5684E689543F60200D515430F
:10041000A560E5684E689543B60200E002E000D5AD
:100420001543E5605B1C0A681546DA4000D070E7AA
:10043000F8BD000000100240000001400004004828
:1004400000080048000401400069084000D0012075
:100450007047002A01D081617047816270470000B7
:1004600001480068704700007000002070B504006B
:1004700005D025466035687A002802D006E00120C4
:1004800070BD00202872204601F0DCFC2420687238
:1004900020680168490849000160204602F036FBE7
:1004A0000128EDD0606A002802D0204602F094FABC
:1004B000206841680922D202914341602068816826
:1004C0002222914381602068816808221143816063
:1004D00020680168012211430160204602F0E2FA1F
:1004E00070BD000002480168491C016070470000AF
:1004F0007000002010B50648016810221143016009
:10050000002000F007F800F017F8002010BD0000F0
:100510000020024010B5044600F0A8FE7D21C9006D
:10052000FFF704FE01F098FA00222146501E00F069
:1005300037F8002010BD000008B51248816901227B
:1005400011438161816911400091C26901040A432C
:10055000C261C0690022084000901146501F00F09F
:100560001FF800221146901E00F01AF800221146D2
:10057000501E00F015F80448016810221143016074
:1005800008BD00000010024000000140C106C90E75
:1005900001208840014908607047000000E100E048
:1005A00010B501F0D7FD10BD10B50C0606D54906F3
:1005B000490E1C2461430818283004E01C246143C0
:1005C0000818FF30093099B2002A06D00122827241
:1005D000C180190C0181002010BD0022827281802F
:1005E000F9E71C224A43121810B5FF30FF300230E1
:1005F000926BC06902F079FD10BD1C224A431218AB
:1006000010B5FF30FF32FF30013202309269C0690D
:1006100002F0C6FD10BD0000F0B54A06520E1346AA
:100620001C256A43CC091218002C01D0283201E0A5
:10063000FF32093204461370C909FF345170E134A6
:10064000217A01293DD001212172957A494B002D53
:100650004949557837D0002D05681678AC465BD0EF
:10066000B600AD5B6F0404D5444F0D403D43674673
:10067000BD5305681678AC46B600AD5B6F0605D570
:100680003C4F0D4040373D436746BD5315780668E3
:10069000AF00F55B0D4039490D43F553364F1178E6
:1006A00030373D40066889001D4375521178334A42
:1006B00000688900F13A15401D4345520020207220
:1006C000F0BD0220F0BD002D05681678AC4610D0B4
:1006D000B600AD5B6F0605D50D40264940310D4390
:1006E00061468D5305681078234A8100685A30327C
:1006F0000EE0B600AD5B6F0404D50D401F490D43FD
:1007000061468D53056810781C4A8100685AF13A99
:10071000104018436852D1E7B600AD5B6F0404D5B2
:10072000164F0D403D436746BD5305681678AC46ED
:10073000B600AD5B6F0605D50E4F0D4040373D430B
:100740006746BD5315780768AE00BD5B0D4009498B
:1007500040310D43BD53094F1678F13F3D400168CC
:10076000B6001D438D531178034A8900006830326A
:10077000A1E70000808000008F8F000080C0000093
:10078000F0B54B06CA095B0E002A04D01C225A435E
:100790001218283204E01C224A431218FF32093290
:1007A0000024947013700346C909FF335170E1337C
:1007B000197A01291AD00121197251781A4C00298D
:1007C0001178066814D08D00715B4F0603D5214067
:1007D000164C21437153117800688A00124C815ADB
:1007E0003034214010246140202414E00220F0BD68
:1007F0008D00715B4F0403D521400D4C2143715393
:10080000117800688A000A4C815AF13C2140012489
:100810002403614064006140044C403C2143815208
:1008200000201872F0BD00008F8F0000C080000013
:1008300080C00000F0B54D066D0E2E461C246543A9
:10084000CF092C18002F01D0283401E0FF340934DF
:100850002670C90961700146FF31E260E131E37041
:100860008C46097A01290DD0012261460A72E2788C
:100870009349002A08D0012A20D0022A0DD0032A49
:1008800025D111E00220F0BD237802689B00D55AE3
:100890000D40FF35FF35023504E0237802689B00E8
:1008A000D55A0D40D55212E02278036892009D5A25
:1008B0000D40032149026918995208E02378026823
:1008C0009B00D55A0D40012189026918D152267822
:1008D0000768B5007B5B7B497B4A0B40134333437E
:1008E0007B53A57A002D53D02578784E0B400768AE
:1008F000AD0033437B53E38850265D0803686D00E9
:10090000F65AF6182378DF0001239B02FB18F552F4
:10091000238950265D0803686D00F65AF61823787F
:10092000DF005311FB18F55263780768002B23781A
:1009300075D09D007B5B5E0403D5654E0B40334351
:100940007B53237807689D007B5B5E0604D55E4E73
:100950000B40403633437B53237805689E00AB5BE6
:100960000B405B490B43AB53564E21783036334036
:100970000568890013436B522178554C0068890043
:10098000F13C234013434352002061460872F0BDFE
:100990006378002BA3881FD05D0803685026F65AA1
:1009A0006D00F6182378DF0001239B02FB18F55237
:1009B000237807689D007B5B5E0604D50B404249A7
:1009C00040310B437B53016820783E4C8300C85A6A
:1009D00030342040202440E05D0803685026F65A59
:1009E0006D00F6182378DF003A4BFB18F5520368C8
:1009F0005025ED5A374EEB182578B61CED00AD1991
:100A00005E19E3683E2B0BD9DD022D0CDB0601D10C
:100A10006D1EADB2AB020125ED032B4307E020E0D4
:100A2000DD032D0CDB0701D06D1CADB2AB023380B2
:100A3000237807689D007B5B5E0403D50B40244947
:100A40000B437B5301682078214C8300C85AF13C4A
:100A50002040012424036040640060401043C852D9
:100A600092E79D007B5B5E0403D5194E0B40334338
:100A70007B53237807689D007B5B5E0604D5124E8E
:100A80000B40403633437B53237805689E00AB5BB5
:100A90000B400D4940310B43AB530D4E2178F13ED5
:100AA00033400126360373407600734005688900A1
:100AB00013436B522178034C89000068303460E79F
:100AC0008F8900008F8F00008080000080810000EF
:100AD00080C0000004040000F0B54D066D0E1C241B
:100AE0006C432418FF340934636122610022A2613F
:100AF00062702570E5681E46AB4201D92B46F21A9A
:100B00006261A67A49060122890DD203002E2F4D7B
:100B100006680CD05027BF5BBE192F1FC919761865
:100B20003E2B15D9D902090CDF060CD00DE0502759
:100B3000BF5B4919BE19751820E08902114300E016
:100B40008902298032E0491E89B28902114306E0F8
:100B5000D903090CDF0701D0491C89B28902318011
:100B60006178002902D0012918D01FE001685026C1
:100B7000765A71182678F60075194D193E2B06D94C
:100B8000D902090CDB06D8D1491E89B2D5E7D903B1
:100B9000090CDA07D4D0491C89B2D1E70168502288
:100BA000525A51182278D20052198B52016820787B
:100BB000074B8200885A184001231B0358405B00F2
:100BC0005840044B184388520020F0BD0604000032
:100BD0008FBF000080800000F0B50246FF32E13296
:100BE000137A012B0BD001244F06CB097F0E147210
:100BF000002B06D01C237B431B18283306E0022061
:100C0000F0BD1C234B431B18FF3309339C701F702E
:100C1000CE095E70012424031025114B002F0BD048
:100C20004906C90D002E10D004680E4E605A30409F
:100C300068401843605210E001680B4E088830404D
:100C4000604068401843088007E00568064E685A0F
:100C5000303E304060401843685200201072F0BDB2
:100C600080800000BF8F0000BFBF0000F0B50646C7
:100C70001D464806400E1C2343439C19E563A263AE
:100C8000002222640123283463702070E0682B4620
:100C9000854203D90546181A606100E06261A07AB6
:100CA0002A4F002810D0227830689200825C4906D2
:100CB0005206890D002A16DA5022125A10183A1DCF
:100CC00089184552228914E0ABB2A28821693068A4
:100CD00001F013FC30685021095A08182178C90026
:100CE000C919455220E05022125A1018C91945520C
:100CF000E288ABB22169306801F0FFFB61781448EB
:100D0000002902D0012907D00EE0217832688B003B
:100D1000D15A01400F4805E0217832688B00D15A42
:100D200001400D480143D152207831688200084BC0
:100D3000885A303318401023584020235840054B20
:100D4000403B184388520020F0BD00000204000020
:100D50008F8F0000C080000080C0000070B5044686
:100D6000006840308088C00B02D0204601F014FAA1
:100D700020684030818849050AD58188334A11406E
:100D80008180204600F0DAF80021204600F000F9CA
:100D9000206840308188490403D581882C4A11405D
:100DA0008180206840308188890403D58188294A60
:100DB000114081802068403081880425C9040029C1
:100DC00010DA0188A9430180BD202168000240316A
:100DD0000880204600F0BEF82068403081881E4A16
:100DE00011408180206840308188090517D58188AD
:100DF0001A4A11408180206840300188082211433E
:100E000001802068403001882943018020684030FB
:100E10008088C043C00402D5204600F0E3F8206873
:100E200040308188890506D581880D4A114081802E
:100E3000204600F0A5F8206840308188C90503D518
:100E40008188084A1140818070BD0000FFFB0000CE
:100E5000FFBF0000FFDF0000FFEF0000FFF7000012
:100E6000FFFD0000FFFE0000F8B500270446002843
:100E700007D02646FF36E136707A0025002802D0DA
:100E800005E00120F8BD3572204600F03BF8032054
:100E9000707201210BE01C207843021910462030AB
:100EA00041720772C572556395637F1CD563606894
:100EB000B842F0D800200BE01C2242431219FF3246
:100EC000013255721072D57255619561401CD56121
:100ED00062688242F0D8206840300180206840304B
:100EE0000580206840308580206840300582BF2022
:100EF0002268000240321080203425717172002077
:100F0000F8BD000008B500680A49884210D10A48B7
:100F1000C2690121C9050A43C261C06900220840B3
:100F2000009011461F20FFF73BFB1F20FFF72EFB11
:100F300008BD0000005C00400010024010B5C41D58
:100F4000FF34FA340121E06902F01BFAE06902F093
:100F5000E0F910BD10B504468069002806D00748A6
:100F6000016906229143016101F099FBFF34FF34CE
:100F70000234E06902F0F0F910BD000000ED00E07D
:100F8000FF3010B5FF300230C06902F0EBF910BD40
:100F90000246FF32E132137A012B08D0012313728B
:100FA000002906D020300171002010727047022005
:100FB00070470068802140308181F5E710B58721B6
:100FC00089000A580146FF31ED31104602F0EFF971
:100FD00010BD00684030018B0122D2031143018310
:100FE0000020704710B50446FF30FF300230C06962
:100FF00002F032FAA069002804D0034801690622F1
:101000001143016110BD000000ED00E0F8B5044699
:1010100000683E4DC00352D5E8690026C00007D4E1
:10102000E96928040143E961E96901400126009169
:1010300037480168C90510D4016882151143016061
:10104000FFF70EFA074604E0FFF70AFAC01B642810
:1010500024D82F480068C005F6D5286A03273F0228
:10106000384020D06168394081421CD0286A2A6A01
:10107000B843012109040A432A622A6A8A432A6280
:101080002862C0070FD0FFF7EBF9009008E0FFF7E8
:10109000E7F90099411A1F48814201D90320F8BDA0
:1010A000286A8007F3D5286A6168B8430843286234
:1010B000002E04D0E969012000078143E96120780E
:1010C000C00705D0286BA16880088000084328630A
:1010D0002078800605D5286B10218843E1680843F5
:1010E00028632068800305D5286B802188436169C7
:1010F000084328632088400505D5286B4021884394
:101100002169084328630020F8BD00000010024058
:101110000070004088130000F8B505464E480E46A2
:101120000068C007C00FB0420AD24B4801684908A6
:101130004900314301600068C007C00FB04270D160
:101140002878464C800705D56068F0218843A96857
:10115000084360602878C00753D06868012817D01A
:10116000022818D0032819D021688907002958DAE5
:1011700061688908890001436160FFF771F9696856
:101180000746012913D002291DD0032927D034E0B6
:1011900021688903EAE721688901E7E7616BC903F0
:1011A000E4E7FFF75DF9C11B2D48814223D8606851
:1011B0000007800F0128F4D123E0FFF751F9C11B8C
:1011C0002748814217D860680007800F0228F4D1B1
:1011D00017E0FFF745F9C11B214881420BD8606831
:1011E0000007800F0328F4D10BE0FFF739F9C11B8A
:1011F0001B48814201D90320F8BD60680007800FB9
:10120000F3D115480168C907C90FB1420BD901686C
:1012100049084900314301600068C007C00FB0426F
:1012200001D00120F8BD2878400706D56068072165
:1012300009028843E9680843606000F02DF861689E
:10124000084A0906090F515CC84007490860002098
:10125000FFF760F90020F8BD0020024000100240B6
:10126000881300006F4300087400002001480068E4
:101270007047000074000020044805490068496870
:10128000044A4905490F515CC8407047740000206A
:10129000001002407F43000830B516A30FCB89B081
:1012A0006C460FC417A30FCB0FC41A494A680C2011
:1012B000144604401848042C05D0184B082C04D0C0
:1012C0000C2C00D1184609B030BD9402240F6D4695
:1012D0002C5DC96A04AD0907090FD203695C920F3E
:1012E000022A02D0032A00D11846FEF71FFF6043EE
:1012F000E9E7000002030405060708090A0B0C0DC4
:101300000E0F10100102030405060708090A0B0C52
:101310000D0E0F100010024000127A00006CDC026B
:10132000FEB504460078F04EF04DC00748D068681E
:101330000007800F01281FD068680007800F02286F
:1013400004D16868C003800F022815D061680129A4
:1013500019D001208004002901D0052917D029685F
:10136000B1432960296881432960606800281BD047
:10137000FFF776F8074613E02868800320D56068F9
:10138000002876D01CE0286830432860EDE7296803
:1013900001432960F7E7FFF763F8C01B642869D8A9
:1013A00028688003F7D50BE0FFF75AF8074604E0FA
:1013B000FFF756F8C01B6428F1D828688003F7D4DB
:1013C000207880073ED568680007800F14D06868D1
:1013D0000007800F022804D16868C003800F01282D
:1013E0000AD0E068002828681DD001210843286041
:1013F000FFF736F807460BE0286880070BD5E06852
:10140000012836D107E0FFF72BF8C01B0228C6D809
:1014100028688007F7D52868F82188432169C90022
:10142000084328600EE0400840002860FFF718F8E5
:10143000074604E0FFF714F8C01B0228AFD828685D
:101440008007F7D42078000724D5E0690028686A6F
:1014500011D0012108436862FFF702F8074604E053
:10146000FEF7FEFFC01B022899D8686A8007F7D5EF
:1014700010E036E1D1E0400840006862FEF7F0FF7E
:10148000074604E0FEF7ECFFC01B022887D8686A15
:101490008007F7D4207804274007002861DA00206D
:1014A0000190E869C00008D4E969B8060143E96120
:1014B000E96901400120009101908D480168C9054A
:1014C00011D40168821511430160FEF7C9FF009035
:1014D00005E0FEF7C5FF0099401A642897D88448B4
:1014E0000068C005F5D5A06801280AD0002801D001
:1014F000052811D0286A400840002862286AB843AD
:1015000002E0286A012108432862A068002812D05E
:10151000FEF7A6FF00900AE0286A38432862F0E749
:10152000FEF79EFF0099411A7248814275D8286AD9
:101530008007F5D50DE0FEF793FF009006E0FEF77B
:101540008FFF0099411A6B48814266D8286A80074C
:10155000F5D40198002804D0E969012000078143EF
:10156000E9612078C00635D5606901280CD0401D9E
:10157000686B24D038436863686B40084000686338
:10158000FEF76EFF074622E0686B38436863686BBE
:10159000012108436863FEF763FF074604E0FEF796
:1015A0005FFFC01B022838D8686B8007F7D5686BCF
:1015B000F8218843A169C900084368630AE0B84379
:1015C0006863F4E7FEF74CFFC01B022825D8686B60
:1015D0008007F7D42078800637D568680007800F29
:1015E000032813D068680007800F022804D16868B8
:1015F000C003800F032809D0206A0028686B16D02A
:1016000030436863FEF72CFF06460CE0686BC003AE
:101610001BD5206A012864D117E05BE0FEF720FFAC
:10162000801B022856D8686BC003F7D50DE0B04385
:101630006863FEF715FF064604E0FEF711FF801B06
:10164000022847D8686BC003F7D4606A002846D0E8
:1016500069680907890F022943D001263606022846
:10166000286805D0B0432860FEF7FAFE044633E050
:10167000B0432860FEF7F4FE074604E0FEF7F0FEF4
:10168000C01B022826D828688001F7D4E86A216B9D
:10169000000900010843E862A16AE06A084369683A
:1016A0007B22D20391430843686028683043286056
:1016B000FEF7D6FE044604E0FEF7D2FE001B022829
:1016C00008D828688001F7D509E0FEF7C9FE001B9D
:1016D000022801D90320FEBD28688001F5D400202E
:1016E000FEBD0120FEBD0000000001000010024010
:1016F0000070004088130000F8B5040007D00026F1
:1017000025464035A662687F002802D005E001200A
:10171000F8BD2E77204600F04BF802236B77206847
:1017200001684022914301600721E0680902884274
:1017300001D9002201E0012212030F273F02B84223
:1017400002D0884200D0A662276B002F05D18842C4
:1017500001D9236301E001202063A1686068636907
:1017600008432169194308430123A1695B02194019
:101770000843E1690843216A0843A16A08432168D4
:101780000860616B606AA36908431B0C0427E16869
:101790003B40194308432168104348602068C169F1
:1017A0007A029143C1612666012068770020F8BD66
:1017B00000B500680D4987B0884215D10C48826990
:1017C00081140A438261806908400590E0200090FE
:1017D000022001900021032003900291049109202E
:1017E0006946C006FEF792FD07B000BD003001401B
:1017F00000100240FFB5044683B001202546403565
:101800000090287F00270E4601280FD0012028775E
:10181000FEF726FE0190687F616801280DD0CA1F7F
:10182000FD3A08D1A168002905D102E0022007B0E5
:10183000F0BD042801D00227FAE0002E7CD00598E4
:101840000028FBD006980028F8D0687F042801D033
:101850000520687700202066059921640699E980B3
:101860000699A980A6630699E1870699A187E06495
:1018700020650723E1681B02994202D8E888012805
:1018800006D920684268012109038A43426005E0C5
:1018900020684168012212031143416020680168F9
:1018A000490603D40168402211430160E168606881
:1018B000994242D9002802D0E08F012835D1216811
:1018C0003088C860E08F401EE087B61C2DE000988D
:1018D00000280ED0E08F00280BD02068816889078F
:1018E00007D53188C160E08F401EE0870020B61C1C
:1018F0000090E88800280ED020688168C9070AD0C7
:10190000C068059908800598801C0590E888401EED
:10191000E880012000900C98401C06D0FEF7A0FD46
:101920000199411A0C9881426DD2E08F0028CED1E6
:10193000E8880028CBD16EE079E0002802D0E08F63
:10194000012862D1E08F012807D921683088C8605A
:10195000E08F801EE087B61C57E02168307808735E
:10196000E08F401EE087761C4FE00098002818D0DA
:10197000E08F002815D020688168890711D5E18F94
:10198000012906D93188C160E08F801EE087B61C2E
:1019900005E031780173E08F401EE087761C00205F
:1019A0000090E888002824D020688168C90720D0EA
:1019B000E988012912D9C068059908800598801C1A
:1019C0000590E888801EE880E88801280FD8206804
:1019D0004168012212031143416008E0017B059830
:1019E00001700598401C0590E888401EE8800120A1
:1019F00000900C98401C08D0FEF732FD0199401A67
:101A00000C99884201D3032712E0E08F0028ACD163
:101A1000E8880028A9D12046019A0C9900F081FDA0
:101A2000002801D020202066206E002800D0012749
:101A300001206877002028773846F8E60422044918
:101A40000428086902D09043086170471043FBE7FF
:101A500000E000E070470000094910B5401E8842D0
:101A600001D9012010BD074C60610321081F00F05F
:101A700071FB0020A06107202061002010BD000044
:101A8000FFFFFF0000E000E010B5FFF7E3FF10BD2F
:101A90007047704770B5040005D025462035687F33
:101AA000002802D006E0012070BD002028772046E3
:101AB00000F00AF802206877211D206800F05CFE23
:101AC00001206877002070BD08B5104A01681048F1
:101AD000914207D1C26981150A43C261C0690840B9
:101AE000009008BD0B4A9142FBD182690121890413
:101AF0000A4382618069002208400090012116207B
:101B0000FEF74EFD1620FEF741FD08BD0020004007
:101B100000100240004801400222014620314A776D
:101B20000268136801200343136048770020704760
:101B30000268D36801210B43D360006802680A433E
:101B4000026000207047704770B504460068016964
:101B50000025C9438907002915DBC168C9438907E6
:101B600011D4E91E01610120207720688069800777
:101B7000204602D0FFF7E7FF04E000F0AFF8204670
:101B800000F030F9257720680169C943490717D467
:101B9000C168C943490713D40421C9430161022024
:101BA0002077206880698005800F204602D0FFF7EB
:101BB000CAFF04E000F092F8204600F013F9257700
:101BC00020680169C943090716D4C168C9430907D8
:101BD00012D40821C9430161042020772068C0691C
:101BE0008007204602D0FFF7AEFF04E000F076F851
:101BF000204600F0F7F8257720680169C943C90637
:101C000017D4C168C943C90613D41021C94301615F
:101C1000082020772068C0698005800F204602D008
:101C2000FFF791FF04E000F059F8204600F0DAF8E1
:101C3000257720680169C943C90708D1C168C9432C
:101C4000C90704D1891E0161204600F0EFF8206821
:101C50000169C943090609D4C168C943090605D405
:101C60008021C94301612046FFF712FF2068016906
:101C7000C943490609D4C168C943490605D440216E
:101C8000C9430161204600F0DBF820680169C943BF
:101C9000890609D4C168C943890605D42021C943EE
:101CA00001612046FFF7F5FE70BD000000B5006839
:101CB000094985B088420DD1102000900220019082
:101CC0000020029003900420049009206946C00679
:101CD000FEF71CFB05B000BD002000407047F8B5C2
:101CE000064604462036307F0D4601280DD00120DF
:101CF0003077022070770427002A08D0042A16D0F3
:101D0000082A2AD00C2A4DD137E00220F8BD2068DD
:101D100000F080FD206881690822114381612068FC
:101D20008169B9438161206881692A6912E020686C
:101D300000F0ACFD206882690121C9020A4382617A
:101D40002068816901229202914381612068816942
:101D50002A6912021143816124E0206800F0D0FD5D
:101D60002068C26908210A43C2612068C169B94379
:101D7000C1612068C1692A6912E0206800F0FCFD99
:101D80002068C1690122D2021143C1612068C26981
:101D9000012189028A43C2612068C1692A6912024D
:101DA0001143C1610120707700203077F8BD70B514
:101DB000040005D025462035687F002802D006E0C3
:101DC000012070BD00202877204600F00AF802208C
:101DD0006877211D206800F0CFFC01206877002083
:101DE00070BD70477047000010B5044600680122BE
:101DF00000F004FD0A482168814205D0094881426B
:101E000002D00948814204D1486C0122D203104318
:101E1000486420680168012211430160002010BD60
:101E2000002C0140004401400048014010B500680A
:101E30000249884201D101F079FE10BD00480140FD
:101E40007047000000B500680E4987B0884216D17F
:101E50000D48C269012149040A43C261C0690840B2
:101E6000059004200090122001900121032003908E
:101E70000291049109206946C006FEF747FA07B0AF
:101E800000BD00000044004000100240FFB50646BF
:101E900004466036707A83B00D46202858D1002D54
:101EA0000CD00598002809D00120A16800038142C8
:101EB00007D12069002804D1E80702D0012007B02B
:101EC000F0BD307A012843D0012030720020E06656
:101ED00021207072FEF7C4FA01902746403705981A
:101EE00038820598788218E0788A401E78820698B1
:101EF0000090002280212046019B00F09FFE0028D8
:101F000018D10120A1680003814202D12069002874
:101F100012D02168287808856D1C788A0028E3D1C2
:101F200006980090002240212046019B00F086FE8A
:101F3000002808D00320C2E728882168C005C00D0A
:101F40000885AD1CE9E72020707200203072B6E7EA
:101F50000220B4E7FEE70000F0B5354887B04269DB
:101F6000012189040A43426142690A40059242699B
:101F700009010A43426142690A40059242694911D6
:101F80000A434261406909270840FF060590012283
:101F900008213846FEF75DFA002202212548FEF7A7
:101FA00058FAFF2001300090234800240190694630
:101FB00002942048FEF7AAF90125022669461F4827
:101FC000029600950194FEF7A1F9694638460296FB
:101FD00000950194FEF79AF9194801906946009618
:101FE00002953846FEF792F908200090029469465F
:101FF000019503943846FEF789F9029469460D4825
:10200000009601950394FEF781F900221146052000
:10201000FEF7C6FA0520FEF7B9FA002202210720D2
:10202000FEF7BEFA0720FEF7B1FA07B0F0BD0000D8
:102030000010024000040048000011100014004885
:102040000000211010B511480F490160FF21053132
:10205000416000210722816012020161C2600122F9
:10206000416152028261016218224162C261816251
:102070000722C262016308214163FFF73DFB00288C
:1020800000D0FEE710BD00000030014044010020F8
:1020900010B5154888B013490160002413498460C5
:1020A00041600461FF218461C160FFF7F3FC0028F7
:1020B00000D0FEE70C48FFF77AFE002800D0FEE7CC
:1020C000602000900194029400226946049406481E
:1020D000FFF705FE002800D0FEE70348FFF7E6FD06
:1020E00008B010BD00200040A80100205F090000DA
:1020F00010B50C480A490160E12149024160002104
:102100008160C16001618161C16108220162426137
:102110004162FEF7ABF9002800D0FEE710BD0000D9
:10212000004400402802002010B50022054906485E
:1021300000F09CFF0549044801F0BDF9024801F098
:102140000BFA10BD3C000020180300207C0000208A
:10215000704700008307FF22DB0E9A408907090EB3
:10216000994000280BDA0007000F08388308084858
:102170009B001818C36993430B43C36170478308DE
:1021800004489B001B181868904308431860704768
:1021900000ED00E000E400E0F0B585B0044600206A
:1021A000694688802646203678E19A8917073F0FCE
:1021B00026D0B9000291425A9A80998809047DD5A7
:1021C000BE490A400299425238461C21484305192B
:1021D000FF350935A87A0028206870D029788A0050
:1021E000825A52046CD55022125ACB00B4491218AC
:1021F0005918515A8905890D00917DD0EA88BDE0B2
:102200009A89D20627D40188AE4A2546114001801A
:1022100020685021095A283508182978CA00A84989
:102220005118405A8005800D2064A16B0818A063E6
:1022300000212046FEF7D5F930790028B4D068692E
:102240000028B1D13079802108432168403188814C
:102250000020307122E12546FF35028809359A8039
:102260009B881B0519D5098A09182878C20094484B
:10227000001D1018085A294683059B0DAB61AA88DA
:10228000E431206800F024F920688C4A018811406C
:1022900001802046FEF792FE00E169468988090424
:1022A000D8D58649864F0A40028020685021095AB5
:1022B0003F1D09182878C000C01902E085E03DE004
:1022C0004FE0085A83059B0DAB6108D0AA882969A5
:1022D000206800F0FDF8A9692869401828610021EC
:1022E0002046FEF78AF9206801464030008A4018EF
:1022F000C119E8683E2800E044E00AD9C202120C85
:10230000C00601D1521E92B290020122D2031043A4
:1023100006E0C203120CC00701D0521C92B2900218
:1023200008802168684A0888104001221203504042
:1023300052005040654A10430880AFE05021095ACE
:102340000A182978CB005E49091D5918515A890588
:10235000890D009121D0AA882969009B00F0B8F866
:102360001BE05022CB00125A55491218091D59186A
:10237000515A8905890D009104D02A892969009B49
:1023800000F0A6F8297820688A004E4B815A8033E5
:1023900019404E4B403319438152A96900980818DF
:1023A000A861296900980A182A616B69002B03D07B
:1023B000E9680098814204D929782046FEF71DF982
:1023C00003E029782046FEF787FB684680880006F0
:1023D00064D51C204743206802993A4A415A3D1966
:1023E0001140029A28358152A87A0028206811D01D
:1023F00029788A00825C52061ED55022125AC900E2
:1024000012182F480818105A83059B0DAB6124D071
:10241000EA881EE05021095A09182878C200284885
:102420001018085A83059B0DAB6121D0AA88296931
:10243000206800F062F81BE05022125AC9001218FE
:102440001F48001D0818105A83059B0DAB6104D06E
:102450002A892969206800F050F8287822688000CD
:10246000184B115A80331940174BF133194311524D
:1024700020685021095A09182878C20010481018FD
:10248000085A8005800DA86129690A182A616B69BC
:102490002978002B20460DD0FEF7E8FB2068014686
:1024A00040318A886B469A81120400D57DE600206F
:1024B00005B0F0BDFEF795F8F0E700008F0F0000C3
:1024C000020400000F8F00008FBF0000808000001A
:1024D000101810B5012292025C088018002C07D059
:1024E00002880A70120A4A70801C891C641EF7D187
:1024F000DA0701D00078087010BD101801225B1CAB
:10250000920210B55B088018002B08D04A780C782E
:10251000120222430280801C891C5B1EF6D110BD72
:102520007047F8B50F460B46154600920321044646
:102530000022C90200F01BF82026002812D13B46D9
:10254000002280212046009500F05CF8002809D187
:1025500003213B46002249022046009500F007F87F
:10256000002803D0206E304320660320F8BDF8B564
:102570001D4617460E4604463DE0032149028E42A1
:1025800005D1002F03D1017B684601700078681CDB
:1025900031D0002D05D0FDF763FF0699401AA842FF
:1025A00029D320684168E022914341606068C11FDF
:1025B000FD390CD10121A068C903884202D049111C
:1025C000884204D1206801684022914301600120C3
:1025D000A16A4003814207D121680A6882430A60E8
:1025E00021680A6802430A600120403460770020B5
:1025F00020770320F8BD206881683140B942BCD102
:102600000020F8BDF8B51D4617460E46044633E0D7
:10261000681C31D0002D05D0FDF722FF0699401A25
:10262000A84229D320684168E02291434160606854
:10263000C11FFD390CD10121A068C903884202D015
:102640004911884204D12068016840229143016009
:102650000120A16A4003814207D121680A688243B0
:102660000A6021680A6802430A60012040346077EA
:10267000002020770320F8BD206881683046884319
:1026800004D00020B842C3D10020F8BD0120F9E7F2
:10269000704710B5FDF726FFFFF7F6F910BD10B52E
:1026A00098B02020009001200024089009946846EA
:1026B000FEF736FE002800D0FEE707200D9003202D
:1026C0000E900F94012110940DA8FEF725FD00280F
:1026D00000D0FEE7012040041694119011A8FEF7E7
:1026E00095FC002800D0FEE7FEF7C0FD7D21C90063
:1026F000FDF71CFDFFF7B0F90420FFF79FF900225A
:102700001146501EFDF74CFF18B010BD134801686C
:102710000122114301604168114A11404160016882
:10272000104A114001600168012292049143016046
:1027300041683F22120491434160C16A09090901BD
:10274000C162016BFF22D43291430163416B49089E
:102750004900416300218160704700000010024081
:102760000CB8FF08FFFFF6FE10B50248FFF7ECF9C2
:1027700010BD0000E8010020F0B502681A4B0124EA
:10278000A4071A4D984203D0A04201D0A84203D119
:102790007026B2434E683243154E164F98420AD007
:1027A000A04208D0A84206D0134CA04203D0B042A9
:1027B00001D0B84204D103242402A243CC682243AE
:1027C0008024A2434C69224302608A68C2620A687C
:1027D0008262984203D0B04201D0B84201D1096967
:1027E000016301214161F0BD002C01400004004063
:1027F00000440140004801400020004010B5012382
:10280000046A8B409C430462036A8A401343036258
:1028100010BD0000F0B5026A520852000262056A5B
:10282000436882697024A24392080C6892001443A2
:10283000022295438A68134E2A43114DA84204D0C0
:10284000B04202D0104FB84206D10827BA43CF6831
:102850001743042297433A46A84204D0B04202D01C
:10286000094DA84206D103252D02AB434D691D43F6
:102870008B692B4343608461496841630262F0BD08
:10288000002C0140004401400048014070B5026A3C
:1028900010239A430262046A4368826973252D02F9
:1028A000AA430D682D021543202294438A68120121
:1028B0002243104CA04208D11446CA688026B44373
:1028C000120122434024A24305E00B4CA04202D057
:1028D0000A4CA04208D10324A402A3434C69A400DB
:1028E0001C438B699B002343436085614968816376
:1028F000026270BD002C01400044014000480140CC
:1029000070B5026AFF2301339A430262046A436886
:10291000C2697025AA4392080D68920015430122EE
:10292000520294438A6812022243104CA04207D1FB
:10293000C414A243CC68240222430615B24305E026
:102940000B4CA04202D00B4CA04208D1032424031C
:10295000A3434C6924011C438B691B01234343603F
:10296000C5614968C163026270BD0000002C01406E
:10297000004401400048014030B5026A01231B03B6
:102980009A430262056A4268C36973242402A3431E
:102990000C6824021C4301235B039D438B681B03CB
:1029A0002B430A4DA84205D0094DA84202D0094D3B
:1029B000A84205D10125AD03AA434D69AD012A43C3
:1029C0004260C46149680164036230BD002C01406B
:1029D000004401400048014010B5818CC90707D070
:1029E00001684A6801235B049A43836A1A434A6078
:1029F000818C890707D501684A6801231B049A4323
:102A0000C36A1A434A60818C490707D501684A683E
:102A100001239B049A43036B1A434A60818C090784
:102A200007D501684A680123DB039A43436B1A43C5
:102A30004A60818CC90607D50268916801231B038F
:102A40009943836B19439160818C890607D501688E
:102A50008A6801235B039A43C36B1A438A60818CA3
:102A6000490612D503685A6801210905046C8A4396
:102A700022435A60026C8A4207D1026851680323DC
:102A80005B059943436C19435160818C090607D556
:102A900001684A680123DB04806C9A4302434A6060
:102AA00010BD0000F8B500260446C666FDF7D8FC48
:102AB00005461449206888421DD10068124F00075E
:102AC00009D501212B46002249052046009700F038
:102AD000B5F800280DD12068006840070BD501210A
:102AE0002B46002289052046009700F0A7F8002811
:102AF00001D00320F8BD202060346072A0722672DD
:102B00000020F8BD00380140FFFFFF01F8B5044682
:102B10002369A268E5691A43636910202B430021E9
:102B200025681A432B680E463E4F3B4013432B60EB
:102B300023685A6803252D03AA43E5682A435A608F
:102B4000236AA26925681A43AB680B273F02BB437F
:102B50001343AB60344A2568954210D1334A126B57
:102B60009207920F0ED0012A05D0022A05D0032A1F
:102B700009D1022007E0042005E0082003E02C4AE8
:102B8000954200D100200122E369D203934224D16F
:102B900000280CD002280DD0042813D0082817D004
:102BA00001260A0912010807400F10432FE0FEF723
:102BB00063FB09E061681F4A48088018FDF7B6FA10
:102BC00081B2EEE7FEF768FB616840004A08F4E76F
:102BD0006168012248081204EFE7002808D00228A3
:102BE00009D004280BD0082814D001263046F8BD9F
:102BF000FEF742FB05E061680F4A48080CE0FEF76B
:102C00004BFB61684A088018FDF790FA80B2216892
:102C1000C860EBE7616848088018FDF787FA80B262
:102C2000E860E3E7F369FFEF00380140001002407D
:102C3000004400400024F40000127A00FFB581B087
:102C400017460E4604460A9D1DE0681C1BD0002D49
:102C500005D0FDF705FC0499401AA84213D9206855
:102C60000168FF22A1329143016020688168490810
:102C700049008160202060346072A07200202072C0
:102C8000032005B0F0BD2068C1693046884304D0F8
:102C90000020B842D9D00020F3E70120F9E710B5B1
:102CA00085229200125852689047002010BD1346AA
:102CB00010B50A46002100F019FB002010BD134694
:102CC00010B50A46002100F0CFFB002010BD10B562
:102CD0000446802100F09AFB0021204600F096FB7C
:102CE00010BD10B5FF210522F5310A5000231A4608
:102CF000194600F0FBFA002010BD10B5FF23022496
:102D0000F5331C5082611346C2610A46002100F06F
:102D1000ABFB002010BD10B5FF210422F5310A5095
:102D200000231A46194600F09FFB002010BD00004A
:102D300010B50A46024903A000F0D4F8004810BDBF
:102D40007007002048494420436F6E6669670000A1
:102D500012200880004870475C00002010B50A4629
:102D6000024903A000F0BEF8004810BD7007002023
:102D700048494420496E74657266616365000000CD
:102D800004200880004870475800002010B50A460B
:102D9000024903A000F0A6F8004810BD700700200B
:102DA00053544D6963726F656C656374726F6E69BD
:102DB0006373000010B50A46024903A000F092F8C0
:102DC000004810BD7007002053544D333220487521
:102DD0006D616E20696E74657266616365000000E6
:102DE00010B50A46024903A000F07CF8004810BD67
:102DF00070070020303030303030303030303141EA
:102E000000000000F8B50D4604464988FF300A0A64
:102E1000FF300230130000F0E1FC084905091649B3
:102E2000493E46490069237C02682AE0217C02264B
:102E30004069002905D0C16A684688470146467046
:102E400040E0816AF8E7C9B20B0000F0C7FC060455
:102E5000080F13171E2F0069227C436802E00069E7
:102E6000227C836869461046984712E00069227CFC
:102E7000C368F7E70069227C0369F3E70069237CF4
:102E8000426969461846904703E00069227C8369DD
:102E9000E8E7014616E0217C002907D14069416B33
:102EA00068468847F5E7217C002904D0294620465A
:102EB000FFF70DFFF8BD4069016B684688470722A0
:102EC00001464270684600880028F3D0EA88002A4C
:102ED000F0D0824200D90246684602802046FFF7C1
:102EE0000CFFF8BD70B5002300281CD00446002557
:102EF00002E06D1CEDB2641C2678002EF9D16C0046
:102F0000A41C1480CC5403225B1CCA5400245B1CF8
:102F100006E0CA545B1CDAB28C54521CD3B2401C7B
:102F20000278002AF5D170BDFF300021FF30023059
:102F3000806901730846704710B50446812100F08E
:102F4000C1F8FF34FF340234A069002803D000F038
:102F500011FC0020A061002010BD00002221018092
:102F600000487047B40000200A21018000487047E3
:102F7000E400002070B505460024052303228121CA
:102F800000F09EF9102000F0F7FBFF35FF35023509
:102F9000A861002803D000210173204670BD0124E0
:102FA000FBE710B51346FF244322FD34D200245C16
:102FB0001258032C08D1147B002C05D10124147362
:102FC0000A46812100F050FA002010BD70B543235D
:102FD0000022DB000D781B586026144635401BD0BC
:102FE000202D3ED14A78022A13D0032A0AD00A2A79
:102FF0000BD00B2A03D0FFF76AFE022070BD887841
:1030000018602EE00122194622E04888000A586024
:1030100027E00122191D1BE04D78062D04D00A2D52
:1030200019D00B2D1DD11AE04B881B0A222B02D080
:10303000212B06D00BE0CA884E2A00D94E220A4C1A
:1030400005E0094CCA88183C092A00D90922214602
:10305000FFF753FE05E0012219460831F8E78878AA
:103060009860002070BD0000F000002010B500281E
:1030700013D0C31DFF33FA335C69002C01D0002448
:103080005C61002900D01961FF210123FD310B543F
:10309000027000F0BFF8002010BD022010BD10B576
:1030A000FF30FF3002300024006AFDF769FB002882
:1030B00006D0012801D0022801D0022400E001241A
:1030C000204610BD10B5FF30FF3002300024006AEA
:1030D000FDF7A2FA002806D0012801D0022801D06D
:1030E000022400E00124204610BDFEB50446FF3056
:1030F000E51DE130FF35FA3513460190002908D06F
:1031000068694269002A49D00198007F032843D0AA
:1031100044E02646FF3681362046716F143002297E
:1031200034D1C26881680092914207D9891A8160BE
:103130008AB219462046FFF7C2FD13E040681146E7
:103140000746FCF7F3FF002913D10098874210D3FC
:10315000B06F87420DD2002211462046FFF7AFFD27
:103160000020B06700231A461946204600F0BEF83A
:103170000CE06869C168002905D00198007F032828
:1031800001D1204688472046FFF7ABFD287801286B
:1031900004D10020287001E0204690470020FEBDA9
:1031A00070B50546FF35E1352B46203316460446FB
:1031B000002907D058698269002A29D0287F03286E
:1031C00024D025E0FF21F531E01D0959FD30032908
:1031D0001ED18268C1688A420BD9511A8160C068C9
:1031E000814200D301468AB231462046FFF75FFD97
:1031F0000EE058690169002904D0287F032801D115
:10320000204688472046FFF786FD01E0204690478C
:10321000002070BD10B51949C41DC861FF3418499C
:10322000FA34184821620860022208208A60486047
:103230000020C8608861C8610A6108620846FDF71D
:1032400013FE002804D0FF2135310FA000F0A0FAB2
:10325000002218231146206AFDF7A6F95823002200
:103260008021206AFDF7A0F9FF230133002281218C
:10327000206AFDF799F9002010BD000050070020DA
:1032800050050020005C00402E2E2F5372632F75D6
:103290007362645F636F6E662E630000FF30CA095D
:1032A000FF3049060230490E1C23006A59430818B2
:1032B000002A01D0203001E0FF300130807A7047D1
:1032C00070B5FF301D46FF30023013460024006AFF
:1032D0002A46FDF7AFFA002806D0012801D00228BF
:1032E00001D0022400E00124204670BD10B5FF305B
:1032F000FF3002300024006AFDF7EEFB002806D004
:10330000012801D0022801D0022400E00124204637
:1033100010BD70B50022044640231146FFF7D0FFD0
:103320004025FF20113005512B46002280212046E8
:10333000FFF7C6FFFF200121FD3025620155E01D8A
:10334000FF30FA308169002904D040692179426850
:1033500020469047002070BDFF30E130417F01776B
:103360000020704710B5FF21FD31095C032906D10B
:10337000852189000958C969002900D088470020A3
:1033800010BD01740020704710B5FF30FF300230CF
:103390000024006AFDF7FCFD002806D0012801D0BA
:1033A000022801D0022400E00124204610BD70B59F
:1033B00004464120C0002018054600F068F8214668
:1033C000FF3181310122084680304A67C2898A670D
:1033D000007AC106C90E0AD001290DD0022910D0E9
:1033E000C109C901204600F011F8002070BD29462E
:1033F000204600F0B6F8F8E72946204600F09DF98F
:10340000F3E72946204600F023F9EEE710B5FF3038
:10341000FF3002300024006AFDF7DEFB002806D0F2
:10342000012801D0022801D0022400E00124204616
:1034300010BD10B5FF30FF3002300024006AFDF7E8
:10344000C8FD002806D0012801D0022801D002249E
:1034500000E00124204610BDFF30E130017F4177BC
:10346000042101770020704710B5FF30FF30023093
:103470000024006AFDF7FAFB002806D0012801D0DD
:10348000022801D0022400E00124204610BD0A7861
:1034900002704A784270CB788A781B02D218428038
:1034A0004B790A791B02D21882808A79C97909027C
:1034B0005118C180704702460020002904D0FF3215
:1034C000FF320232516170470220704710B58522E9
:1034D000920012580224002A04D012689047002853
:1034E00000D10024204610BD70B50E468978194DD4
:1034F00004462970012904D931462046FFF7E7FB2D
:1035000070BD2046FF30E130027F022A15D0032A29
:10351000F2D1002917D0606888420AD0C1B2204693
:10352000FFF7BDFB297861602046FFF7CFFF022837
:10353000E2D02046FFF7EFFB70BD0029F9D003224F
:1035400061600277F0E70222027720466160FFF7B0
:10355000A6FBEEE77800002010B5FFF76AFF002019
:1035600010BDF8B500220092C61DFF364C781746F4
:10357000FA3632460125203A230000F02FF90A3CA2
:10358000564150410906412B2841FFF73BFC5DE0C5
:1035900004468888002818D1C888002815D1887862
:1035A00017464606107F760E03280ED0BE773146AA
:1035B0002046FFF7E9FE2046FFF7ADFB002E02D0C4
:1035C0000220387742E03D7740E0204618E0FFF7E0
:1035D0008BFF3BE0CB88012B12D1127F022A02D055
:1035E000032A0DD104E0012201460831876013E06F
:1035F0000122011D10E0127F022A04D0032A02D00A
:10360000FFF765FB22E0C5607168002901D0032146
:10361000C160014602220C31FFF76FFB16E0044641
:103620004888012812D1756009E00446107F0228FD
:1036300001D00328C9D14888012807D17760706973
:103640008268204690472046FFF765FB0098F8BD4A
:10365000F8B504460D462878E61D4006FF360027DB
:103660000979800FFA36012809D06A783046203867
:10367000002A38D0012A1ED0032A3DD106E0706905
:1036800029468268204690470020F8BD007F022826
:1036900017D003282CD16888002806D1002904D02F
:1036A000802902D02046FFF7B1FE70692946826862
:1036B0002046904713E0007F022802D0032817D14C
:1036C00004E0002918D080291AD115E06888002864
:1036D00012D1480603D02046FFF7E1FCE5E720467B
:1036E000FFF719FB08E0007F022807D003280BD062
:1036F00029462046FFF7EBFA3846F8BD4806FBD0CE
:103700002046FFF783FEF7E7C80904D04806400DBE
:103710000519143504E04806400D0519FF35053537
:103720002046FFF7BBFD002800D0012028600222C0
:1037300029462046FFF7E1FADEE770B50446FF3080
:10374000E130007F0D4603280FD1287901280CD8DD
:10375000852080000059826820469047E88800282C
:1037600006D12046FFF7D7FA02E02046FFF7AFFA6E
:10377000002070BD70470000004870473C050020E5
:1037800010B50248FDF7EAFA10BD00005005002010
:10379000FEE700000FB410B503A9044B044A0298D9
:1037A00000F038F810BC08BC04B018478D3B000886
:1037B000400100200FB410B504A9074B02AA0398DA
:1037C00000F028F8044602A9002000F091F92046F4
:1037D00010BC08BC04B01847F13A000830B4744675
:1037E000641E2578641CAB4200D21D46635D5B00FD
:1037F000E31830BC184702E008C8121F08C1002AAD
:10380000FAD170477047002001E001C1121F002A61
:10381000FBD17047FFB58FB00F460446002606E087
:1038200025280AD0129A11999047641C761C20789A
:103830000028F5D1304613B0F0BD00250121A14A82
:10384000009500E00543641C23780846203B98401F
:103850001042F7D120782E2815D104200543607836
:10386000641C2A280AD101CF641C00900BE0009947
:103870000A22514330394018641C009020780146D8
:1038800030390929F3D920786C280ED004DC4C2873
:1038900013D06A2812D104E074280ED07A280DD1F2
:1038A0000BE001204005054307E00121090562788E
:1038B0000D43824201D16D18641C641C2078864639
:1038C00069284AD008DC0028B4D058286DD0632875
:1038D00010D0642808D140E070286BD0732812D033
:1038E000752860D0782860D0129A70461199904758
:1038F000761CE5E03878694608720020487202A814
:103900000190012003E0386801900020C0433F1D72
:1039100069070CD5002500E06D1C00998D420FDA77
:103920008542F9DB0199495D0029F5D108E00025C0
:1039300000E06D1C8542FCDB0199495D0029F8D14E
:10394000761907E0019801990078491C0191129AB3
:10395000119990476D1EF5D2B2E00A200290002125
:103960006802400F039102280CD001CFC117844692
:1039700000290DDA624608465242002181419446F0
:103980002D2008E0FF1DFF08FF0003CF8446EFE76E
:10399000280504D52B206A46107401203CE0E80776
:1039A0003AD02020F7E70A2000E010200021039100
:1039B000029007E010200290002104200543082017
:1039C000039100906802400F022810D001CF00211F
:1039D000844600200D9028071FD5704670280CD013
:1039E000029A1020039B42401A430CD015E0FF1DA1
:1039F000FF08FF0003CF8446EBE740206A461074BF
:103A000001200D900CE06046084306D030206A4645
:103A100010747046507402200D907046582804D0DF
:103A200029A001900DA80E900DE02CA0F9E76046AA
:103A3000039B029AFCF7BAFB019B84469B5C0E9A9F
:103A4000521E0E92137060460843F0D10E9805A9DD
:103A5000081A20300190680701D5009801E0012084
:103A600000900199884203DD01460198081A00E0A0
:103A700000200025009006E004A8129A405D1199EC
:103A800090476D1C761C0D988542F5DB04E0129A78
:103A9000302011999047761C0099481E009000290B
:103AA000F5DC08E00E980E990078491C0E91129AE8
:103AB00011999047761C0199481E01900029F1DC6C
:103AC000641CB4E60928010030313233343536370E
:103AD000383961626364656600000000303132335A
:103AE00034353637383941424344454600000000FA
:103AF0000A68531C0B6010707047000070B50A4CC8
:103B0000002560600846A16009684D63FEF704F86F
:103B1000A068FEF74CF90021A068FEF765F960681F
:103B2000FEF706F8257070BD0800002010B5154995
:103B3000C868401CC8600A69801A4861114A09783F
:103B40009468012907D0022907D00F4A03290FD012
:103B5000042911D013E0FF2007E066280FD233219B
:103B6000FCF7E4FA08483338405C2168486310BD2C
:103B7000102804D2105CF8E70007000FFAE70320D2
:103B8000F3E70000080000205F43000813B50A2394
:103B9000012269460248FEF779F900981CBD000031
:103BA0002802002010B509200121C006FCF74CFCBA
:103BB000044601210848FCF747FC012C02D0002CE8
:103BC00004D005E0002803D1012010BD012801D058
:103BD000002010BD022010BD00140048FF2805D0B1
:103BE000FE2803D0FD2801D0002070470120704737
:103BF00070B50E46054600240DE0285D012100F059
:103C000011F83046FCF75AFB285D00F04FF83046BB
:103C1000FCF754FB641C2846FCF7C1FAA042ECD820
:103C200070BD000010B50346FFF7D8FF002803D091
:103C3000184600F083F910BD194A882B02D3883B3F
:103C4000D8B20BE0802B07D350780124803B9C40F6
:103C500020435070002001E01248C05C002905D0CC
:103C6000010603D55178022319435170410690781B
:103C7000490E88420CD0D078884209D01079884209
:103C800006D00220135C002B08D0401C0528F9DB6D
:103C9000052203490448FFF784F910BD1154F7E7E2
:103CA00001000020AC4200081803002010B50246B5
:103CB000FFF794FF002802D000F030F810BD14493F
:103CC000882A02D3883AD0B20BE0802A07D34878FA
:103CD0000123803A934098434870002001E00D484A
:103CE000805C020603D54A78FD231A404A704206DA
:103CF000520E022000230C5C944200D10B54401C55
:103D00000528F8DB052202490348FFF74AF910BDF0
:103D100001000020AC4200081803002010B501206B
:103D2000054900220A54401C0528FBDB05220249F4
:103D30000248FFF736F910BD0100002018030020EB
:103D4000FCF7D8FBFEF7ABFCFEF706F9FEF7D0F95F
:103D5000FEF778F9FEF7E8F948484749016000277F
:103D60002F21876041600761476145498761C160D4
:103D7000FDF790FE002800D0FEE7FEF789F93F49E5
:103D80003E484039FFF7BAFE022000F087FA0024CF
:103D9000FF25F5352846FCF791FA641C042CF9DB65
:103DA00038A0FFF7F7FC00F084F90621732000F03B
:103DB000F3F83A4800F0E7F93848401D00F0B9F947
:103DC00037A0FFF7E7FC002000F068FA334D0A3512
:103DD0002E46143E00F028FA30780028FAD044E04D
:103DE000032000F05BFA2D480A3000F03DF92EA0C8
:103DF000FFF7D0FC0024295D2EA0FFF7CBFC641C4C
:103E0000062CF8DB27A0FFF7C5FC6878B22804D0A1
:103E1000D42810D0A12822D024E0FFF7C3FE00F060
:103E2000D3F9688841BA7180A88842BAB28023A0C9
:103E3000FFF7B0FC16E0688841BAF180A88842BA62
:103E4000328128A0FFF7A6FCF0883249884209D2C7
:103E500031A0FFF79FFC042000F020FA02E033A01D
:103E6000FFF798FC0FA0FFF795FC00F0F0F8002892
:103E7000B6D13770AEE7000000480140E8010020ED
:103E80001A410000696E697469616C697A696E67CC
:103E9000204E52462E2E2E0A000000002A0000203E
:103EA000646F6E650A00000072656365697665641B
:103EB0003A2000003078257820000000636D6420EF
:103EC000747970653A20747269676765720A626115
:103ED00073653A2025642C20746869733A20256440
:103EE0000A000000636D6420747970653A20737471
:103EF000617475730A766261745F6D563A20256449
:103F00002C20737461745F636F756E743A2025643E
:103F10000A000000AC0D00004C4F572042415454A1
:103F20004552592121212121210A0000636D64207D
:103F3000747970653A20746573740A0010B50021B5
:103F4000FF2804D0FE2804D0FD2804D004E08021FE
:103F500002E0812100E07F210120064A0023135462
:103F6000401C0528FBDB9170052202490248FFF73F
:103F700018F810BD010000201803002010B5054BF3
:103F8000002801D0012200E0002202211846FCF79F
:103F900060FA10BD0004004810B51C4C21700146A9
:103FA000052000F035F80021112000F031F82178CB
:103FB000122000F02DF80021132000F029F8002134
:103FC000142000F025F80021152000F021F8002130
:103FD000162000F01DF82721062000F019F83821DE
:103FE000002000F015F80321012000F011F8032152
:103FF000022000F00DF84F21042000F009F8002104
:104000001C2000F005F800F05CF810BD0000002056
:1040100070B504460D46002000F00CF8E006C00E16
:10402000203000F029F9284600F026F9012000F0A0
:1040300001F870BD092310B5DB06002801D001226C
:1040400000E0002208211846FCF703FA10BD10B565
:1040500000F022F8400605D400F060F8002801D0F6
:10406000002010BD012010BD10B504460020FFF750
:10407000E1FF612000F000F9064821460278084679
:1040800000F065F80120FFF7D5FF40210720FFF77A
:10409000BFFF10BD0000002010B50020FFF7CAFFD1
:1040A000FF2000F0E9F804460120FFF7C3FF204697
:1040B00010BD10B50020FFF761FF0120FFF7BAFF28
:1040C00010BD10B50020FFF7B5FFE22000F0D4F8D6
:1040D0000120FFF7AFFF70210720FFF799FF0020B5
:1040E000FFF74CFF3B210020FFF792FF0120FFF775
:1040F00045FF10BD70B5054616460C460020FFF77B
:1041000099FFE806C00E00F0B7F82146324608468F
:1041100000F01DF80120FFF78DFF70BD08B50122EA
:1041200069461720FFF7E6FF68460078C007C00F12
:1041300008BD10B504460020FFF720FF05222146E8
:104140000B2000F02DF80120FFF718FF10BDF8B587
:1041500015460E460746002405E0385D00F08CF851
:104160003055641CE4B2AC42F7D3F8BD70B50D46CF
:104170000646002404E0305D00F07EF8641CE4B2E2
:10418000AC42F8D370BD10B50446014605220A20A2
:1041900000F006F805222146102000F001F810BDBD
:1041A00070B5044615460E460020FFF743FFE006B3
:1041B000C00E203000F060F829463046FFF7D6FFE9
:1041C0000120FFF737FF70BD10B5002817D0012878
:1041D0001FD0022812D100218320FFF723FD2220C7
:1041E000FCF76CF800216C20FFF71CFD2220FCF787
:1041F00065F8FFF793FD2220FCF760F810BD002161
:104200008320FFF70FFD2220FCF758F800216420DF
:10421000EAE700218220FFF705FD2220FCF74EF897
:104220000021D020E0E700003EB5104C6078002867
:104230001BD080210E48FBF7A7FF2089142148439B
:10424000E288A18802900091019220461430027801
:10425000638808490648FFF7ADFA14210448FFF7C0
:10426000C7FCFFF75BFD002060703EBD2000002012
:10427000980200208843000801B582B000216846FA
:1042800001710A200090012301AA02A90248FDF74A
:10429000B1FA684600790EBD440100200249087059
:1042A000C868086170470000080000200000000096
:1042B000000000002A2B2800000000000000000081
:1042C0000000000000000000000000002C9EB4A0D0
:1042D000A1A2A434A6A7A5AE362D3738271E1F20CD
:1042E000212223242526B333B62EB7B89F84858692
:1042F0008788898A8B8C8D8E8F90919293949596D6
:104300009798999A9B9C9D2F3130A3AD3504050653
:104310000708090A0B0C0D0E0F10111213141516B5
:104320001718191A1B1C1DAFB1B0B5000000000012
:10433000010306090D1219202934404E5E6F819445
:10434000A8BBCEDEECF6FCFDFAF3E7D9C8B5A18E2A
:104350007B6958493C30261E16100C08050201FFE7
:10436000FFFFFF00000000FFFFFFFF000000000054
:104370000000000000000001020304060708090015
:1043800000000001020304000A7472616E736D691B
:10439000747465722049443A20307825780A626145
:1043A00073656C696E653A2025646D6D0A6C617386
:1043B0007420747269676765722064697374616ED2
:1043C00063653A2025646D6D0A696E707574207698
:1043D0006F6C746167653A2025646D560A706F775B
:1043E00065722D6F6E2074696D653A202564206DAD
:1043F000696E757465730A00184400080000002097
:104400004401000050020008E44400084401002078
:104410002C0C00000638000811022801800BBEADEC
:10442000A5BABEDABBEDC00C13512D1B0881041ACE
:104430008D041AB5041AE1041A31041A5D04170434
:1044400003090412013202164083042B576D020146
:1044500002036C53127A13752F1B0839041ACD040A
:10446000819A290C811A5D1469041A6904140902DD
:104470002213010125E03209041B01030B15092158
:1044800011011401224E160705810305220A791233
:10449000314B0A0688297F101405010906A1018500
:1044A0000105077501950819E029E7151809250187
:1044B0008102950375080A15640507191429658199
:1044C0001EC0050C0901292C02050C21292D6014A0
:1044D00009B509B609B709B809CD09E209E909EA38
:0444E0008102C00095
:04000005080000C12E
:00000001FF
