:020000040800F2
:1000000058140020D5000008A9380008F53200086F
:1000100000000000000000000000000000000000E0
:10002000000000000000000000000000573E000833
:100030000000000000000000793C0008593E000864
:100040000501000805010008D93C00080501000869
:100050000501000805010008050100080501000868
:100060000501000805010008050100080501000858
:100070000501000805010008050100080501000848
:100080000501000800000000000000000501000854
:1000900000000000050100084D3F000805010008B0
:1000A0000000000005010008050100080501000826
:1000B000050100080000000005010008615100086A
:1000C0000348854600F0B0F9004800471D6000086D
:1000D000581400200C4880F308880C480168090E69
:1000E0000B4A914205D10B480B4901600B480C4962
:1000F00001600C4880470C480047FEE7FEE7FEE73A
:10010000FEE7FEE7FEE700005814002004000000B0
:100110001F00000018100240010000000000014014
:1001200000000000F13E0008C100000830B50B4699
:10013000014600202022012409E00D46D5409D42C1
:1001400005D31D469540491B254695404019154647
:10015000521E002DF1DC30BD10B5202A04DB08460C
:10016000203AD040002110BD0B46D340D04020247F
:10017000A21A91400843194610BDD2B201E00270A4
:10018000401C491EFBD270470022F6E710B513460B
:100190000A4604461946FFF7F0FF204610BD42000C
:1001A00005D04200120E52428A4201DB0020704705
:1001B000C905081870470000F0B51FB488B00B9946
:1001C0000998002448400999C00F4900490809913D
:1001D000C0070B990090490049080B9109990898AC
:1001E000A64608431CD00B990A98084318D00998D2
:1001F00001244000420D4800410D099824050003E8
:10020000000B204309900B980003000B20430B9038
:1002100050181C494018002201901446104605E071
:10022000002001460DB0F0BD032801DA034600E0CE
:1002300003239C46C11A0AAE0AE05F0008ADED5BDD
:100240004F00F75B7D430027AA187C41491C5B1EC9
:100250006145F2DD410004AB5A522104120C0A43FD
:10026000240C401C0828DFDB01980290009970469E
:1002700001910090059B049A0799069800F081F877
:10028000D0E700000DFCFFFF0EB5054902910021EB
:1002900000910A460B46019100F073F803B000BDCF
:1002A00033040000410040020122400AD205090E39
:1002B00080187F2901DA00207047962903DC9622F6
:1002C000511AC84070479639884070474A00090360
:1002D0000123090B1B051943094B10B5520D9A4216
:1002E00001DA002010BD064B34339A4203DC9A1A1F
:1002F000FFF732FF10BD03495118884010BD0000C0
:10030000FF030000CDFBFFFFF0B51FB40646002041
:1003100082B005464024019100901BE001992246DD
:100320000F463046FFF718FF049A059B801A994143
:1003300010D310461946224600F088F8361A8F412D
:100340000197224601200021009F00F07FF8381815
:100350004D4100902046641E0028DFDC019B009880
:100360002946324607B0F0BD10B5002B08DA00244C
:10037000401C614192185B411A4301D14008400082
:1003800010BDF0B51FB482B005460C0003D008467E
:1003900005F000F902E005F0FDF82030024600907B
:1003A0002146284600F052F8049B059A04460F4661
:1003B00018431143084314D0184610431BD000982B
:1003C00040210A1A18460599FFF7C6FE05460E4653
:1003D000009A0599049800F039F8084305D00120E7
:1003E00004E02046394607B0F0BD0020C1170543A0
:1003F0000E432C43374300990E986305401A790544
:10040000E40A00220C43FD0A0A3002D5002001460E
:10041000E9E70105101969410C9C0D9D001969411E
:10042000FFF7A2FFDFE70000064C0125064E05E0BE
:10043000E36807CC2B430C3C98471034B442F7D305
:10044000FFF742FE506C0008706C000810B5202ABF
:1004500004DB0146203A9140002010BD914020234A
:100460009C1A0346E3401943904010BD70B58C18A8
:100470000578401C6B075B0F01D10378401C2A11E3
:1004800006D10278401C03E006780E70401C491C1F
:100490005B1EF9D12B0705D40023521E0DD40B701F
:1004A000491CFAE70378401CCB1A921C03E01D7824
:1004B0000D70491C5B1C521EF9D5A142D8D30020F7
:1004C00070BD70B5044600688168490720D5816811
:1004D00010264907002905DA8168890702D4816856
:1004E0003143816000F0CAFB05460DE000F0C6FB19
:1004F000401B022808D9606C30436064A06C012165
:100500000843A064084670BD206880684007EDD4A9
:10051000002070BDF8B50446006881688907890F1E
:10052000012928D10168C90702D1C168090422D56F
:100530008168052211401025012601290FD181680B
:1005400002221143816021680320086000F096FBBD
:1005500007460CE000F092FBC01B022807D9606C34
:1005600028436064A06C3043A0640120F8BD20687B
:100570008068C007EED10020F8BD0000F8B5044641
:1005800000200090206881688907890F012905D122
:100590000168C9072CD1C168090429D48168154AAA
:1005A000102611400125002915D181682943816059
:1005B000124811490068FFF7B9FD00E0401E0090A5
:1005C0000028FBD100F05AFB07460CE000F056FB78
:1005D000C01B022807D9606C30436064A06C2843BC
:1005E000A0640120F8BD20680068C043C007EDD1B9
:1005F0000020F8BD1700008040420F00B800002026
:1006000010B5042811DD0B4C202806D021280CD071
:1006100022280AD0232808D109E000F02FFB7D21F1
:10062000C900884201D901202060002010BD0020AF
:10063000FAE70000440000200020704710B50022B7
:100640000549064804F03BF803490448803904F0A2
:100650002CF8002010BD0000D80D0020F40400206C
:1006600010B50A6804460146054805F0A0FC21467D
:10067000044804F01AF8034803F0F1FF002010BD0D
:1006800048020020F40400200A4610B50C49097FF6
:10069000032901D0022010BD094920318969FF31A9
:1006A000FF3102314969002901D0012010BD014606
:1006B000044804F004F8034804F046F810BD0000B4
:1006C000D4060020F4040020F8B500250446403488
:1006D00000952278012A3BD00122227003689E688F
:1006E000760776D43F4F4E68BE4254D09E6A0F784C
:1006F000BA4016439E620123826B1B079A421FD0A9
:10070000012A1DD0022A1BD0032A19D0042A17D08F
:10071000052A15D0062A13D0072A11D002688B6843
:1007200056697607760FB3420AD05369DB08DB00BF
:100730005361006842690B7A5B075B0F1A434261A1
:100740000868102806D0112804D0122802D045E0ED
:100750000220F8BD244A9368102809D011280AD035
:1007600001200006034393600868102806D035E096
:100770000120C005F6E701208005F3E71C481B496E
:100780000068FFF7D3FC0A21484300E0401E0090B8
:100790000028FBD122E0986A0E78B240904398621C
:1007A0000868102803D0112801D0122816D10E494C
:1007B0008A68102807D0112808D00120000682433B
:1007C0008A600BE005E00120C005F8E70120800504
:1007D000F5E7416C2022114341640125002020707F
:1007E0002846F8BD011000000027014040420F00DC
:1007F000B80000200068006C70470000F8B50025C4
:100800000446002803D0606C002802D008E00120D4
:10081000F8BD0020A06440210855204600F0A8F84B
:10082000606C1022C006002870DB206881684907D0
:100830006CD4616C1301994302231943616481688C
:100840008907890F012905D10168C9070FD1C1683E
:1008500009040CD4C16818239943A3681943C160E3
:10086000206801696368890089081943016120686B
:10087000C1683D4B1940C160A069E1698003C903AB
:100880000843216A4B031843636B012B02D00123F9
:100890001B0300E000231843E36818432369022B7D
:1008A00009D000231843236B666A5B0018430123B9
:1008B000012E02D00AE00423F4E7002927D0616C5E
:1008C000202631436164A16C1943A164A16A0E46DC
:1008D000FF3EC23E02D0E66A314308432168CE683B
:1008E0000643CE600126A16B3607B14213D0012921
:1008F00011D002290FD003290DD004290BD00529CE
:1009000009D0062907D0072905D010E028E00121E9
:1009100009040843DAE721684E69F608F6004E61DB
:1009200021684E69278F7F077F0F3E434E61216804
:10093000C9680E4E3140814207D10020A064606C2E
:1009400080088000401C606408E0606C02218843DD
:1009500010436064A06C1843A06401252846F8BDCC
:10096000606C10436064F8E71902FEFFE7FF3F8305
:1009700000B500680C4987B0884212D10B488269E3
:1009800041150A4382618069084005900220009069
:10099000032001900020029009206946C00600F063
:1009A000C3F807B000BD0000002401400010024061
:1009B000F8B504464069254640350E4608280BD058
:1009C0002068C068C00709D0606C202108436064BB
:1009D000002028700120F8BD082700E00C2700F057
:1009E0004DF9009011E0701C0FD0002E05D000F0E2
:1009F00045F90099401AB04207D9606C04210843B8
:100A00006064002028700320F8BD20680068384228
:100A1000E9D0606C01214902084360642068C16824
:100A200009058A0F0C21002A1AD1226A002A17D13F
:100A30000268120714D5826853070122002B08DBD5
:100A400043688B434360606C1302984310436064B7
:100A500006E0606C202318436064A06C1043A0641F
:100A6000A069002801D1206801600020F8BD0000C5
:100A700070B50446216800208968490721D42546BD
:100A80004035297801291CD001212970E16901290B
:100A900004D02046FFF772FD002811D1616C0A4A8C
:100AA0001140FF220132114361640021A1642970C9
:100AB00022681C21116021688A6804231A438A6015
:100AC00070BD022070BD0000FEF1FFFF70B505464D
:100AD000044640352878012807D001262E7020468C
:100AE000FFF7EFFC002802D00CE0022070BD20468A
:100AF000FFF710FD002805D1616CFF220132914300
:100B0000314361640021297070BD31B500F0B6F841
:100B1000009C0546601C00D0641C00F0AFF8401B30
:100B2000A042FAD338BD0000F8B5002389E00124C3
:100B30009C402A46A44622407ED04C68022C01D01C
:100B4000122C0CD1DC08A40027183C6A5D07ED0EBE
:100B50000F26AE40B4430E69AE4026433E620568A0
:100B60005E000324B4400F79A543BF07BF0FB74011
:100B70002F4307604D68012D05D0022D03D0112DA4
:100B800001D0122D0ED18568CF68A543B7402F4301
:100B9000876047686546AF430D79ED06ED0F9D40D0
:100BA0003D434560C568A5438C68B4402C43C46090
:100BB0004C68E40044D5264CA56901263543A5615F
:100BC000A4699D0834400094224CAD002F19BC68E4
:100BD0009D072E0F0F25B540AC430925ED06A84211
:100BE00001D100250AE01C4DA84201D1012505E0F4
:100BF0001A4DA84201D1022500E00525B540254344
:100C0000BD60174C25684E689543F60300D5154323
:100C1000256065684E689543B60300D51543656049
:100C2000A5684E689543F60200D51543A560E568B2
:100C30004E689543B60200E002E000D51543E5603A
:100C40005B1C0A681546DA4000D070E7F8BD00006A
:100C50000010024000000140000400480008004865
:100C6000000401400069084000D001207047002ABC
:100C700001D08161704781627047000001480068BF
:100C800070470000B400002070B5040005D0254670
:100C90006035687A002802D006E0012070BD00208F
:100CA0002872204602F09EFA2420687220680168AB
:100CB000490849000160204603F050FB0128EDD0AF
:100CC000606A002802D0204603F0AEFA206841682E
:100CD0000922D20291434160206881682222914317
:100CE0008160206881680822114381602068016862
:100CF000012211430160204603F0FCFA70BD70B57B
:100D0000024640325378202B1CD11378012B19D086
:100D10000123137024245470046825689D432560C2
:100D2000046825681E03B5432560046825680D43E3
:100D30002560006801681943016020205070002080
:100D4000107070BD022070BD70B5024640325378FD
:100D5000202B1BD11378012B18D0012414702423CD
:100D6000537003681D68A5431D6005682B680F2636
:100D70003602B34309021943296000680168214320
:100D80000160202050700020107070BD022070BDE6
:100D900070B5040006D02546403568780026002846
:100DA00002D005E0012070BD2E70204600F0A0F9B1
:100DB00024206870206801684908490001600F21FB
:100DC0006068090688432168086121688A680120F3
:100DD000C00382438A60E1680129A16808D021220A
:100DE0009202114322689160E168022902D005E075
:100DF0000143F7E701212268C902516021684A686E
:100E00000F4B1A434A602168CA688243CA6061690D
:100E100020690843A169090208432168C860216A62
:100E2000E0690843216808602068016801221143D5
:100E300001606664202068702663AE70002070BD7B
:100E400000800002FFB5054604464035687883B04F
:100E5000202873D10C98002871D00D9800286ED0EE
:100E6000287801286AD001202870FFF707FF07467D
:100E7000012200901923D103204602F003FB002831
:100E800076D1222068704020A870002666640C98F5
:100E900060620D98608566630E980090019704A9C2
:100EA0000EC9204602F072FA002804D0606C2E7041
:100EB000042860D05CE0618D09208002FF2905D9FB
:100EC000FF22228501231B06009006E0618D21850B
:100ED0000090208D0123C2B25B062046049902F0E7
:100EE000BFFA00970022042120460E9B02F0CAFAA6
:100EF00000283DD12068416A606A421C626201702C
:100F0000208D401E81B22185608D401E60850029A4
:100F100021D1608D00281ED000970022802120461C
:100F20000E9B02F0AFFA002822D1608DFF2807D96E
:100F3000FF22228501231B06009608E02AE01AE022
:100F4000608D20850096208D0123C2B25B0620466D
:100F5000049902F085FA608D0028C2D13A462046F5
:100F60000E9902F0B3FA002807D0606C042802D072
:100F7000032007B0F0BD0120FBE721682020C861F5
:100F800021684A68044B1A404A606870AE702E703F
:100F90000020EEE70220ECE700E800FEFFB5054682
:100FA00004464035687883B0202876D10C98002814
:100FB00074D00D98002871D0287801286DD00120B8
:100FC0002870FFF75BFE0746012200901923D1032A
:100FD000204602F057FA002853D1212068704020A3
:100FE000A870002666640C9860620D986085666340
:100FF0000E980090019704A90EC9204602F0FBF953
:10100000002804D0606C2E7004286AD039E0608D0E
:10101000FF2805D9FF22228501231B06009606E042
:10102000608D20850096208D0123C2B25B0620468C
:10103000049902F015FA3A4620460E9902F06DFA2C
:10104000002803D0606C04284BD01AE0606A411C71
:101050006162216800788862608D401E6085208D05
:10106000401E0004000C208524D1608D002821D072
:1010700000970022802120460E9B02F003FA0028F0
:1010800002D0032007B0F0BD608DFF2807D9FF22F2
:10109000228501231B06009608E024E021E0608DF4
:1010A00020850096208D0123C2B25B06204604995C
:1010B00002F0D6F9608D0028BDD13A4620460E993F
:1010C00002F004FA0028BDD120682021C161206807
:1010D0004268064B1A4042606970AE702E70002064
:1010E000D0E70120CEE70220CCE7000000E800FEB8
:1010F00000B500680D4987B0884214D112210191D2
:101100000320012100900291049103906946084850
:10111000FFF70AFD0748C269012149050A43C26178
:10112000C0690840059007B000BD000000540040B1
:10113000001400480010024070B504000FD0216870
:101140001348086021681348086003CC4160206898
:10115000083C21688860FFF791FD054608E0012002
:1011600070BDFFF78BFD401B272801D9032070BD00
:101170002068C0680028F4D120680269E1688A42CA
:1011800001D0016101E004490160002070BD000050
:10119000CCCC000055550000AAAA00000068024906
:1011A0000160002070470000AAAA00000248016800
:1011B000491C016070470000B400002010B50648CB
:1011C0000168102211430160002000F007F800F0D0
:1011D00017F8002010BD00000020024010B50446A2
:1011E00000F0CCFE7D21C900FEF7A0FF01F064FDF8
:1011F00000222146501E00F037F8002010BD0000EC
:1012000008B5124881690122114381618169114049
:101210000091C26901040A43C261C069002208400A
:1012200000901146501F00F01FF800221146901E3A
:1012300000F01AF800221146501E00F015F804487C
:10124000016810221143016008BD00000010024037
:1012500000000140C106C90E012088400149086014
:101260007047000000E100E010B502F01FFB10BD68
:1012700010B50C0606D54906490E1C246143081812
:10128000283004E01C2461430818FF30093099B26B
:10129000002A06D001228272C180190C018100202F
:1012A00010BD002282728180F9E71C224A43121885
:1012B00010B5FF30FF300230926BC06903F0F1FBD4
:1012C00010BD1C224A43121810B5FF30FF32FF3008
:1012D000013202309269C06903F03EFC10BD00008B
:1012E000F0B54A06520E13461C256A43CC09121863
:1012F000002C01D0283201E0FF320932044613707D
:10130000C909FF345170E134217A01293DD001210E
:101310002172957A494B002D4949557837D0002DD7
:1013200005681678AC465BD0B600AD5B6F0404D59B
:10133000444F0D403D436746BD5305681678AC46A3
:10134000B600AD5B6F0605D53C4F0D4040373D43C1
:101350006746BD5315780668AF00F55B0D40394907
:101360000D43F553364F117830373D4006688900FC
:101370001D4375521178334A00688900F13A1540CF
:101380001D43455200202072F0BD0220F0BD002D0B
:1013900005681678AC4610D0B600AD5B6F0605D573
:1013A0000D40264940310D4361468D530568107844
:1013B000234A8100685A30320EE0B600AD5B6F04FC
:1013C00004D50D401F490D4361468D5305681078C3
:1013D0001C4A8100685AF13A104018436852D1E71C
:1013E000B600AD5B6F0404D5164F0D403D43674614
:1013F000BD5305681678AC46B600AD5B6F0605D5E3
:101400000E4F0D4040373D436746BD531578076882
:10141000AE00BD5B0D40094940310D43BD53094F3E
:101420001678F13F3D400168B6001D438D53117899
:10143000034A890000683032A1E700008080000084
:101440008F8F000080C00000F0B54B06CA095B0E0C
:10145000002A04D01C225A431218283204E01C220D
:101460004A431218FF320932002494701370034665
:10147000C909FF335170E133197A01291AD00121CA
:10148000197251781A4C00291178066814D08D0011
:10149000715B4F0603D52140164C214371531178DF
:1014A00000688A00124C815A303421401024614077
:1014B000202414E00220F0BD8D00715B4F0403D5A1
:1014C00021400D4C21437153117800688A000A4C69
:1014D000815AF13C214001242403614064006140B1
:1014E000044C403C2143815200201872F0BD0000A2
:1014F0008F8F0000C080000080C000004906490EA8
:101500001C2251430818FF300130008C80B2704714
:10151000F0B54D066D0E2E461C246543CF092C18E0
:10152000002F01D0283401E0FF3409342670C909A6
:1015300061700146FF31E260E131E3708C46097A67
:1015400001290DD0012261460A72E2789349002AEE
:1015500008D0012A20D0022A0DD0032A25D111E07B
:101560000220F0BD237802689B00D55A0D40FF355C
:10157000FF35023504E0237802689B00D55A0D4000
:10158000D55212E02278036892009D5A0D40032143
:1015900049026918995208E0237802689B00D55ADD
:1015A0000D40012189026918D15226780768B500DB
:1015B0007B5B7B497B4A0B40134333437B53A57AC8
:1015C000002D53D02578784E0B400768AD0033438B
:1015D0007B53E38850265D0803686D00F65AF618C1
:1015E0002378DF0001239B02FB18F5522389502644
:1015F0005D0803686D00F65AF6182378DF00531172
:10160000FB18F55263780768002B237875D09D008E
:101610007B5B5E0403D5654E0B4033437B532378DD
:1016200007689D007B5B5E0604D55E4E0B4040362E
:1016300033437B53237805689E00AB5B0B405B49CB
:101640000B43AB53564E2178303633400568890042
:1016500013436B522178554C00688900F13C2340BC
:1016600013434352002061460872F0BD6378002B9B
:10167000A3881FD05D0803685026F65A6D00F6183F
:101680002378DF0001239B02FB18F55223780768BB
:101690009D007B5B5E0604D50B40424940310B4305
:1016A0007B53016820783E4C8300C85A3034204078
:1016B000202440E05D0803685026F65A6D00F618B5
:1016C0002378DF003A4BFB18F55203685025ED5A9A
:1016D000374EEB182578B61CED00AD195E19E3689E
:1016E0003E2B0BD9DD022D0CDB0601D16D1EADB2F8
:1016F000AB020125ED032B4307E020E0DD032D0CB9
:10170000DB0701D06D1CADB2AB02338023780768D4
:101710009D007B5B5E0403D50B4024490B437B5348
:1017200001682078214C8300C85AF13C20400124F4
:1017300024036040640060401043C85292E79D005B
:101740007B5B5E0403D5194E0B4033437B532378F8
:1017500007689D007B5B5E0604D5124E0B40403649
:1017600033437B53237805689E00AB5B0B400D49E8
:1017700040310B43AB530D4E2178F13E33400126EF
:1017800036037340760073400568890013436B523B
:101790002178034C89000068303460E78F890000AD
:1017A0008F8F0000808000008081000080C00000DA
:1017B00004040000F0B54D066D0E1C246C43241883
:1017C000FF340934636122610022A26162702570D6
:1017D000E5681E46AB4201D92B46F21A6261A67A31
:1017E00049060122890DD203002E2F4D06680CD028
:1017F0005027BF5BBE192F1FC91976183E2B15D96C
:10180000D902090CDF060CD00DE05027BF5B491947
:10181000BE19751820E08902114300E08902298071
:1018200032E0491E89B28902114306E0D903090C4E
:10183000DF0701D0491C89B2890231806178002913
:1018400002D0012918D01FE001685026765A71187D
:101850002678F60075194D193E2B06D9D902090CC8
:10186000DB06D8D1491E89B2D5E7D903090CDA07BE
:10187000D4D0491C89B2D1E701685022525A51187C
:101880002278D20052198B5201682078074B8200CF
:10189000885A184001231B0358405B005840044BF2
:1018A000184388520020F0BD060400008FBF0000DE
:1018B00080800000F0B50246FF32E132137A012B3E
:1018C0000BD001244F06CB097F0E1472002B06D0DB
:1018D0001C237B431B18283306E00220F0BD1C2389
:1018E0004B431B18FF3309339C701F70CE095E7089
:1018F000012424031025114B002F0BD04906C90DDC
:10190000002E10D004680E4E605A304068401843D4
:10191000605210E001680B4E08883040604068401B
:101920001843088007E00568064E685A303E30408C
:1019300060401843685200201072F0BD80800000A3
:10194000BF8F0000BFBF0000F0B506461D46480629
:10195000400E1C2343439C19E563A26300222264CA
:101960000123283463702070E0682B46854203D938
:101970000546181A606100E06261A07A2A4F0028CB
:1019800010D0227830689200825C49065206890D98
:10199000002A16DA5022125A10183A1D8918455298
:1019A000228914E0ABB2A2882169306802F051F9B3
:1019B00030685021095A08182178C900C9194552C0
:1019C00020E05022125A1018C9194552E288ABB2D1
:1019D0002169306802F03DF961781448002902D08D
:1019E000012907D00EE0217832688B00D15A0140DE
:1019F0000F4805E0217832688B00D15A01400D482C
:101A00000143D152207831688200084B885A303324
:101A100018401023584020235840054B403B1843A2
:101A200088520020F0BD0000020400008F8F0000EB
:101A3000C080000080C0000070B5044600684030DF
:101A40008088C00B02D0204601F052FF2068403051
:101A5000818849050AD58188334A11408180204612
:101A600000F0DAF80021204600F000F9206840304C
:101A70008188490403D581882C4A114081802068DF
:101A800040308188890403D58188294A11408180AA
:101A90002068403081880425C904002910DA0188B3
:101AA000A9430180BD202168000240310880204602
:101AB00000F0BEF82068403081881E4A11408180C5
:101AC000206840308188090517D581881A4A11405D
:101AD00081802068403001880822114301802068FD
:101AE0004030018829430180206840308088C0430D
:101AF000C00402D5204600F0E3F820684030818819
:101B0000890506D581880D4A11408180204600F064
:101B1000A5F8206840308188C90503D58188084A26
:101B20001140818070BD0000FFFB0000FFBF00007E
:101B3000FFDF0000FFEF0000FFF70000FFFD0000E7
:101B4000FFFE0000F8B500270446002807D026460F
:101B5000FF36E136707A0025002802D005E001202A
:101B6000F8BD3572204600F03BF803207072012169
:101B70000BE01C2078430219104620304172077296
:101B8000C572556395637F1CD5636068B842F0D811
:101B900000200BE01C2242431219FF320132557221
:101BA0001072D57255619561401CD56162688242A0
:101BB000F0D82068403001802068403005802068DF
:101BC00040308580206840300582BF2022680002B6
:101BD000403210802034257171720020F8BD000061
:101BE00008B500680A49884210D10A48C269012133
:101BF000C9050A43C261C06900220840009011462D
:101C00001F20FFF731FB1F20FFF724FB08BD00005A
:101C1000005C00400010024010B5C41DFF34FA34CF
:101C20000121E06903F09DF8E06903F062F810BD5E
:101C300010B504468069002806D0074801690622CD
:101C40009143016102F00EF9FF34FF340234E06980
:101C500003F072F810BD000000ED00E0FF3010B599
:101C6000FF300230C06903F06DF810BD0246FF324C
:101C7000E132137A012B08D001231372002906D018
:101C800020300171002010727047022070470068F8
:101C9000802140308181F5E710B5872189000A58FD
:101CA0000146FF31ED31104603F071F810BD0068B8
:101CB0004030018B0122D203114301830020704781
:101CC00010B50446FF30FF300230C06903F0B4F8AD
:101CD000A069002804D0034801690622114301616C
:101CE00010BD000000ED00E00A4B1A689208920057
:101CF00002431A600848036904221343036101295F
:101D000006D040BF20BF20BF0169914301617047E9
:101D100030BFF9E70070004000ED00E0F8B5044680
:101D200000683E4DC00352D5E8690026C00007D4C4
:101D3000E96928040143E961E9690140012600914C
:101D400037480168C90510D4016882151143016044
:101D5000FEF794FF074604E0FEF790FFC01B6428DF
:101D600024D82F480068C005F6D5286A03273F020B
:101D7000384020D06168394081421CD0286A2A6AE4
:101D8000B843012109040A432A622A6A8A432A6263
:101D90002862C0070FD0FEF771FF009008E0FEF741
:101DA0006DFF0099411A1F48814201D90320F8BDF7
:101DB000286A8007F3D5286A6168B8430843286217
:101DC000002E04D0E969012000078143E9612078F1
:101DD000C00705D0286BA1688008800008432863ED
:101DE0002078800605D5286B10218843E1680843D8
:101DF00028632068800305D5286B802188436169AA
:101E0000084328632088400505D5286B4021884376
:101E10002169084328630020F8BD0000001002403B
:101E20000070004088130000F8B505464E480E4685
:101E30000068C007C00FB0420AD24B480168490889
:101E40004900314301600068C007C00FB04270D143
:101E50002878464C800705D56068F0218843A9683A
:101E6000084360602878C00753D06868012817D0FD
:101E7000022818D0032819D021688907002958DAC8
:101E800061688908890001436160FEF7F7FE6968AF
:101E90000746012913D002291DD0032927D034E099
:101EA00021688903EAE721688901E7E7616BC903D3
:101EB000E4E7FEF7E3FEC11B2D48814223D86068AA
:101EC0000007800F0128F4D123E0FEF7D7FEC11BE5
:101ED0002748814217D860680007800F0228F4D194
:101EE00017E0FEF7CBFEC11B214881420BD860688A
:101EF0000007800F0328F4D10BE0FEF7BFFEC11BE3
:101F00001B48814201D90320F8BD60680007800F9B
:101F1000F3D115480168C907C90FB1420BD901684F
:101F200049084900314301600068C007C00FB04252
:101F300001D00120F8BD2878400706D56068072148
:101F400009028843E9680843606000F02DF8616881
:101F5000084A0906090F515CC8400749086000207B
:101F6000FFF73CF90020F8BD0020024000100240BD
:101F700088130000356C0008B80000200148006894
:101F800070470000B800002004480549006849680F
:101F9000044A4905490F515CC8407047B800002009
:101FA00000100240456C000830B516A30FCB89B075
:101FB0006C460FC417A30FCB0FC41A494A680C20F4
:101FC000144604401848042C05D0184B082C04D0A3
:101FD0000C2C00D1184609B030BD9402240F6D4678
:101FE0002C5DC96A04AD0907090FD203695C920F21
:101FF000022A02D0032A00D11846FEF797F8604360
:10200000E9E7000002030405060708090A0B0C0DA6
:102010000E0F10100102030405060708090A0B0C35
:102020000D0E0F100010024000127A00006CDC024E
:10203000FEB504460078F04EF04DC00748D0686801
:102040000007800F01281FD068680007800F022852
:1020500004D16868C003800F022815D06168012987
:1020600019D001208004002901D0052917D0296842
:10207000B1432960296881432960606800281BD02A
:10208000FEF7FCFD074613E02868800320D5606852
:10209000002876D01CE0286830432860EDE72968E6
:1020A00001432960F7E7FEF7E9FDC01B642869D802
:1020B00028688003F7D50BE0FEF7E0FD074604E053
:1020C000FEF7DCFDC01B6428F1D828688003F7D434
:1020D000207880073ED568680007800F14D06868B4
:1020E0000007800F022804D16868C003800F012810
:1020F0000AD0E068002828681DD001210843286024
:10210000FEF7BCFD07460BE0286880070BD5E068AA
:10211000012836D107E0FEF7B1FDC01B0228C6D862
:1021200028688007F7D52868F82188432169C90005
:10213000084328600EE0400840002860FEF79EFD3E
:10214000074604E0FEF79AFDC01B0228AFD82868B6
:102150008007F7D42078000724D5E0690028686A52
:1021600011D0012108436862FEF788FD074604E0AC
:10217000FEF784FDC01B022899D8686A8007F7D54E
:1021800010E036E1D1E0400840006862FEF776FDDD
:10219000074604E0FEF772FDC01B022887D8686A74
:1021A0008007F7D4207804274007002861DA002050
:1021B0000190E869C00008D4E969B8060143E96103
:1021C000E96901400120009101908D480168C9052D
:1021D00011D40168821511430160FEF74FFD009094
:1021E00005E0FEF74BFD0099401A642897D8844813
:1021F0000068C005F5D5A06801280AD0002801D0E4
:10220000052811D0286A400840002862286AB8438F
:1022100002E0286A012108432862A068002812D041
:10222000FEF72CFD00900AE0286A38432862F0E7A8
:10223000FEF724FD0099411A7248814275D8286A38
:102240008007F5D50DE0FEF719FD009006E0FEF7DA
:1022500015FD0099411A6B48814266D8286A8007AB
:10226000F5D40198002804D0E969012000078143D2
:10227000E9612078C00635D5606901280CD0401D81
:10228000686B24D038436863686B4008400068631B
:10229000FEF7F4FC074622E0686B38436863686B1E
:1022A000012108436863FEF7E9FC074604E0FEF7F6
:1022B000E5FCC01B022838D8686B8007F7D5686B2F
:1022C000F8218843A169C900084368630AE0B8435C
:1022D0006863F4E7FEF7D2FCC01B022825D8686BC0
:1022E0008007F7D42078800637D568680007800F0C
:1022F000032813D068680007800F022804D168689B
:10230000C003800F032809D0206A0028686B16D00C
:1023100030436863FEF7B2FC06460CE0686BC0030E
:102320001BD5206A012864D117E05BE0FEF7A6FC0C
:10233000801B022856D8686BC003F7D50DE0B04368
:102340006863FEF79BFC064604E0FEF797FC801BE3
:10235000022847D8686BC003F7D4606A002846D0CB
:1023600069680907890F022943D001263606022829
:10237000286805D0B0432860FEF780FC044633E0AF
:10238000B0432860FEF77AFC074604E0FEF776FCCF
:10239000C01B022826D828688001F7D4E86A216B80
:1023A000000900010843E862A16AE06A084369681D
:1023B0007B22D20391430843686028683043286039
:1023C000FEF75CFC044604E0FEF758FC001B022804
:1023D00008D828688001F7D509E0FEF74FFC001BFC
:1023E000022801D90320FEBD28688001F5D4002011
:1023F000FEBD0120FEBD00000000010000100240F3
:1024000000700040881300007047000010B50446BB
:1024100000688168C9040CD5C068C00509D520468C
:10242000FFF7F2FF2168C86880221040FF38823829
:10243000C86001200249400448610120607710BD56
:1024400000040140F8B50446007F012818D0012699
:102450002677022060772168CA20486221685320CD
:1024600048622068816832029143816020688168F7
:10247000120191438160FEF701FC054600270FE041
:102480000220F8BDFEF7FAFB411B7D20C00081420F
:1024900006D92168FF204862032060772777F8BDBE
:1024A0002068C068C007EDD02168FF2048626677C9
:1024B00027770020F8BD10B500680B464068C021A2
:1024C000C94301400002000ECC04D870E40E5C70D9
:1024D0008C06A40E0904490F9C701970002A0AD1B9
:1024E00001F0CBFBD870587801F0C7FB5870987892
:1024F00001F0C3FB9870002010BD000030B50B4602
:102500000168896A5960016809694904490C996040
:10251000006804680F482146014088024D04800E7F
:1025200018706D0E49065D70490E99706102490E72
:1025300040242140D970002A0AD101F09EFB187076
:10254000587801F09AFB5870987801F096FB9870D3
:10255000002030BD7F7F7F0070B5040003D0607F16
:10256000002802D006E0012070BD00202077204620
:1025700000F04CF8022060772168CA204862216888
:1025800053204862204601F08BFBFF2504260028DB
:1025900024D1206881681C4A1140816021688868C4
:1025A00062686369104322691A4310438860216896
:1025B000E068086120680169228912041143016101
:1025C0002068C16880229143C160206880688006CD
:1025D00008D4204600F09EF9002803D02068456208
:1025E0006677C0E72068016C012292049143016480
:1025F0002068016CA26911430164206845620120D2
:102600006077002070BD0000BFFF8FFF10B500682D
:10261000084988420DD10848016A0122D2031143BA
:102620000162002201210220FEF71EFE0220FEF7B9
:1026300011FE10BD0028004000100240F8B504460D
:10264000007F0B4601283ED00120207702206077D2
:1026500020681F46002620378068002A35D04006B3
:102660004AD5187801F009FB387801F006FB187894
:102670009D78000405435878D9780002090408437E
:1026800005433878996900060543D86905435869B8
:1026900005435868084300902168CA2048622168B1
:1026A0005320486220688268FF2101318A4382609A
:1026B0002168C86880221040FF388238C860FEF761
:1026C000DDFA074628E00220F8BD400600D4DE709F
:1026D000187801F0DAFA0504587801F0D6FA000209
:1026E0000543987801F0D1FA0543D87800040543F2
:1026F000387801F0CAFAC5E7DE70B5E7FEF7BEFA32
:10270000C11B7D20C000814206D92168FF2048629C
:10271000032060772677F8BD2068C068C007EDD039
:102720002068C56121680098486420688268FF219C
:1027300001310A438260206881680122120311433B
:10274000816008480268012149040A4302608268E6
:102750000A4382602168FF20486201206077267763
:102760000020F8BD00040140F8B50446007F0B4688
:10277000012815D001202077022060775878002AA0
:1027800010D001F07AFA987801F077FAD8789D782D
:10279000000405435878197800024903084316E0FD
:1027A0000220F8BDC10603D5EF2108400A30587059
:1027B000D87801F06AFA0504587801F066FA000248
:1027C0000543987801F061FA054318784003054302
:1027D0002168CA204862216853204862204601F0DF
:1027E0005FFA0026FF27002811D110480540206815
:1027F00045602068C16880229143C160206880687C
:1028000080060BD4204600F085F8002806D020680A
:1028100047620420607726770120F8BD2068476270
:102820000120607726770020F8BD00003FFFFF0001
:10283000F8B50446007F0D4601280ED00120207710
:1028400002206077206800278068002A07D04006B1
:1028500018D5287801F011FA15E00220F8BD4006DD
:1028600000D4EF70287801F010FA0604687801F0BF
:102870000CFA00020643A87801F007FA0643E8784C
:10288000000409E0EF702878AE7800040643687809
:10289000E97800020904084306432168CA20486217
:1028A000216853204862204601F0FAF900281ED121
:1028B000174806402068066020688168012292045B
:1028C000914381602969E868084321688A68104358
:1028D00088602068C16880229143C1602068806858
:1028E00080060CD4204600F015F8002807D0216897
:1028F000FF2048620420607727770120F8BD216817
:10290000FF2048620120607727770020F8BD000093
:102910007F7F7F0070B504460068C168A0229143A4
:10292000C160FEF7ABF97D260546F60006E0FEF72E
:10293000A5F9401BB04201D9032070BD2068C068D2
:102940008006F4D5002070BD0248016902221143BF
:102950000161704700E000E0F8B5040007D00026F0
:1029600025464035A662687F002802D005E0012098
:10297000F8BD2E77204600F04BF802236B772068D5
:1029800001684022914301600721E0680902884202
:1029900001D9002201E0012212030F273F02B842B1
:1029A00002D0884200D0A662276B002F05D1884252
:1029B00001D9236301E001202063A1686068636995
:1029C00008432169194308430123A1695B021940A7
:1029D0000843E1690843216A0843A16A0843216862
:1029E0000860616B606AA36908431B0C0427E168F7
:1029F0003B40194308432168104348602068C1697F
:102A00007A029143C1612666012068770020F8BDF3
:102A100000B500680D4987B0884215D10C4882691D
:102A200081140A438261806908400590E02000908B
:102A300002200190002103200390029104910920BB
:102A40006946C006FEF770F807B000BD00300140CF
:102A500000100240FFB5044683B0012025464035F2
:102A60000090287F00270E4601280FD001202877EC
:102A7000FEF704F90190687F616801280DD0CA1F34
:102A8000FD3A08D1A168002905D102E0022007B073
:102A9000F0BD042801D00227FAE0002E7CD0059872
:102AA0000028FBD006980028F8D0687F042801D0C1
:102AB0000520687700202066059921640699E98041
:102AC0000699A980A6630699E1870699A187E06423
:102AD00020650723E1681B02994202D8E888012893
:102AE00006D920684268012109038A43426005E053
:102AF0002068416801221203114341602068016887
:102B0000490603D40168402211430160E16860680E
:102B1000994242D9002802D0E08F012835D121689E
:102B20003088C860E08F401EE087B61C2DE000981A
:102B300000280ED0E08F00280BD02068816889071C
:102B400007D53188C160E08F401EE0870020B61CA9
:102B50000090E88800280ED020688168C9070AD054
:102B6000C068059908800598801C0590E888401E7B
:102B7000E880012000900C98401C06D0FEF77EF8FB
:102B80000199411A0C9881426DD2E08F0028CED174
:102B9000E8880028CBD16EE079E0002802D0E08FF1
:102BA000012862D1E08F012807D921683088C860E8
:102BB000E08F801EE087B61C57E0216830780873EC
:102BC000E08F401EE087761C4FE00098002818D068
:102BD000E08F002815D020688168890711D5E18F22
:102BE000012906D93188C160E08F801EE087B61CBC
:102BF00005E031780173E08F401EE087761C0020ED
:102C00000090E888002824D020688168C90720D077
:102C1000E988012912D9C068059908800598801CA7
:102C20000590E888801EE880E88801280FD8206891
:102C30004168012212031143416008E0017B0598BD
:102C400001700598401C0590E888401EE88001202E
:102C500000900C98401C08D0FEF710F80199401A1B
:102C60000C99884201D3032712E0E08F0028ACD1F1
:102C7000E8880028A9D12046019A0C9901F034F87F
:102C8000002801D020202066206E002800D00127D7
:102C900001206877002028773846F8E604220449A6
:102CA0000428086902D09043086170471043FBE78D
:102CB00000E000E070470000094910B5401E88425E
:102CC00001D9012010BD074C60610321081F00F0ED
:102CD000EDFD0020A06107202061002010BD000054
:102CE000FFFFFF0000E000E010B5FFF7E3FF10BDBD
:102CF00002480169022291430161704700E000E04F
:102D00007047704770B502462032137F012B1BD0ED
:102D10000123137702245477046865687026B5434D
:102D20006560046865680E68354365600468A56879
:102D30008026B543A5600068846849680C438460B8
:102D400053770020107770BD022070BD70B504006D
:102D500005D025462035687F002802D006E00120F6
:102D600070BD00202877204600F00AF8022068771E
:102D7000211D206801F0F2F801206877002070BD65
:102D800008B50122016892070F48914207D1C16935
:102D900001221143C161C0691040009008BD0B4A77
:102DA0009142FBD18269012189040A4382618069D1
:102DB00000220840009011461620FEF755FA162012
:102DC000FEF748FA08BD000000100240004801402C
:102DD0000222014620314A7702681368012003432A
:102DE00013604877002070470268D36801210B43C5
:102DF000D360006802680A43026000207047F8B59B
:102E0000054604462035287F012817D001272F7753
:102E100002206877226890687726FF23B0431B0260
:102E2000984390600868502837D00EDC202857D08F
:102E300006DC00284ED0102840D14EE00220F8BD1C
:102E4000302850D0402839D13CE060282DD070285F
:102E500017D001221203801A0ED090422ED1CB68D7
:102E60004A688968206801F0C6F8206881680122F4
:102E700092031143816021E020688168C908C9007C
:102E8000F8E7CB684A688968206801F0B4F82168DF
:102E90008868B0433043886010E0CA684968206899
:102EA00001F09EF95021206806E0CA684968206850
:102EB00001F0A7F96021206801F0A8F86F770020E1
:102EC0002877F8BDCA684968206801F089F940216F
:102ED0002068F1E700212068EEE710212068EBE789
:102EE00020212068E8E730212068E5E7704770B5C9
:102EF0000446006801690025C9438907002915DBDC
:102F0000C168C943890711D4E91E016101202077F6
:102F1000206880698007204602D0FFF7E7FF04E0C1
:102F200000F0ACF8204600F02DF925772068016903
:102F3000C943490717D4C168C943490713D40421B9
:102F4000C943016102202077206880698005800FD5
:102F5000204602D0FFF7CAFF04E000F08FF82046B9
:102F600000F010F9257720680169C943090716D4D4
:102F7000C168C943090712D40821C943016104206B
:102F800020772068C0698007204602D0FFF7AEFF97
:102F900004E000F073F8204600F0F4F8257720688C
:102FA0000169C943C90617D4C168C943C90613D406
:102FB0001021C9430161082020772068C06980057D
:102FC000800F204602D0FFF791FF04E000F056F892
:102FD000204600F0D7F8257720680169C943C90762
:102FE00008D1C168C943C90704D1891E01612046BF
:102FF00000F0ECF820680169C943090609D4C168EA
:10300000C943090605D48021C94301612046FFF761
:1030100077FE20680169C943490609D4C168C943DC
:10302000490605D44021C9430161204600F0D8F883
:1030300020680169C943890609D4C168C943890662
:1030400005D42021C94301612046FFF75AFE70BD17
:1030500000B500680121890785B088420CD108209D
:103060000090002002210290039001910491092018
:103070006946C006FDF758FD05B000BD7047F8B5BC
:10308000064604462036307F0D4601280DD001202B
:103090003077022070770427002A08D0042A16D03F
:1030A000082A2AD00C2A4DD137E00220F8BD20682A
:1030B00000F0B4FF20688169082211438161206813
:1030C0008169B9438161206881692A6912E02068B9
:1030D00000F0E0FF206882690121C9020A43826191
:1030E000206881690122920291438161206881698F
:1030F0002A6912021143816124E0206801F004F87A
:103100002068C26908210A43C2612068C169B943C5
:10311000C1612068C1692A6912E0206801F030F8B5
:103120002068C1690122D2021143C1612068C269CD
:10313000012189028A43C2612068C1692A69120299
:103140001143C1610120707700203077F8BD70B560
:10315000040005D025462035687F002802D006E00F
:10316000012070BD00202877204600F00AF80220D8
:103170006877211D206800F0F1FE012068770020AB
:1031800070BD70477047000010B50446006801220A
:1031900000F026FF0A482168814205D00948814293
:1031A00002D00948814204D1486C0122D203104365
:1031B000486420680168012211430160002010BDAD
:1031C000002C0140004401400048014010B5006857
:1031D0000249884201D102F097FB10BD004801402E
:1031E0007047000000B500680E4987B0884216D1CC
:1031F0000D48C269012149040A43C261C0690840FF
:1032000005900420009012200190012103200390DA
:103210000291049109206946C006FDF785FC07B0BC
:1032200000BD00000044004000100240FFB506460B
:1032300004466036707A83B00D46202858D1002DA0
:103240000CD00598002809D00120A1680003814214
:1032500007D12069002804D1E80702D0012007B077
:10326000F0BD307A012843D0012030720020E066A2
:1032700021207072FDF702FD019027464037059826
:1032800038820598788218E0788A401E78820698FD
:103290000090002280212046019B01F0F7F80028D1
:1032A00018D10120A1680003814202D120690028C1
:1032B00012D02168287808856D1C788A0028E3D10F
:1032C00006980090002240212046019B01F0DEF884
:1032D000002808D00320C2E728882168C005C00D57
:1032E0000885AD1CE9E72020707200203072B6E737
:1032F0000220B4E7FEE701688A69D243920701D44D
:1033000000228A6200688169C943C90703D08169C4
:103310000122114381617047F7B5044600680E46EB
:103320008069C043C0062CD420272546403520683C
:103330008069C04380060FD5701CF8D0002E05D0E0
:10334000FDF79CFC0299401AB042F0D96F70002042
:10335000A87028700320FEBD21681020C861206875
:10336000C7612046FFF7C7FF20684168064A114041
:103370004160042060646F700020A87028700120F4
:10338000FEBD0020FEBD000000E800FEF8B50446CA
:103390000120164640031D46DAB20090079F002325
:1033A000204600F05DF83A462046069900F0B5F850
:1033B000002803D0606C04281BD018E02846F5B222
:1033C000012809D02168300A88623A4620460699C9
:1033D00000F0A3F80028EDD1206885620097002254
:1033E00040212046069B00F04DF8002800D0032025
:1033F000F8BD0120F8BDF8B504460120164640038B
:103400001D46DAB2C3020090079F204600F028F85C
:103410003A462046069900F080F8002803D0606CF8
:1034200004281BD018E02846F5B2012809D02168ED
:10343000300A88623A462046069900F06EF8002865
:10344000EDD1206885620097002280212046069BEE
:1034500000F018F8002800D00320F8BD0120F8BDC6
:1034600070B50568049C68688905890D1204044ECE
:1034700011431943304021430143696070BD00008E
:10348000009800FCF8B51C4617460E46054611E0AC
:10349000601C0FD0002C05D0FDF7F0FB0699401AF8
:1034A000A04207D92020403568700020A8702870FD
:1034B0000320F8BD286881693046884304D0002085
:1034C000B842E5D00020F8BD0120F9E770B51646F6
:1034D0000D4604461AE0324629462046FFF71CFFF7
:1034E000002801D0012070BD002D04D0FDF7C6FBDF
:1034F000801BA8420AD9616C2020014361644034DA
:1035000060700020A0702070032070BD206880696A
:10351000C0438006DFD4002070BD70B516460D464E
:1035200004461CE0324629462046FFF7F5FE0028F7
:1035300001D0012070BD681C11D0002D04D0FDF712
:103540009DFB801BA8420AD9616C20200143616465
:10355000403460700020A0702070032070BD20688F
:103560008069C0438007DDD4002070BD3EB515489A
:10357000134901600021416001241022046182602E
:10358000C1608161C1610422016242614162FF2226
:10359000C162C232446382620163FDF72FF90028E1
:1035A00000D0FEE701200003019006200290009465
:1035B00069460448FDF788F8002800D0FEE73EBDC4
:1035C00000240140D8020020F0B5294887B04269A4
:1035D000012189040A43426142690A400592426915
:1035E00009010A43426142690A4005924269491150
:1035F0000A4342614069092608400122F606059007
:1036000011463046FDF733FB002210213046FDF70E
:103610002EFB184F012202213846FDF728FBFF2020
:103620000130002400900194694602943846FDF769
:103630007BFA1120012501900294694600950394BC
:103640003046FDF771FA102000900294694601950A
:1036500003943046FDF768FA022000900294694610
:10366000019503943846FDF75FFA07B0F0BD0000FE
:10367000001002400004004810B5124810490160D3
:103680001149416000218160016141618161012234
:10369000C161C2600162FDF77BFB002800D0FEE73C
:1036A00000210848FDF72BFB002800D0FEE7002191
:1036B0000448FDF749FB002800D0FEE710BD0000DC
:1036C00000540040240300205B3D300030B5244905
:1036D000244891B0002412C044608460C460122168
:1036E000046101600838FEF737FF002800D0FEE7CC
:1036F0006846047044708470039400226946194837
:103700000494FFF795F8002800D0FEE701256846ED
:10371000057545758575C475002205A91148FFF723
:1037200023F8002800D0FEE7684604764476052199
:103730008176C80707940B9009940A940C940D9411
:1037400008A80576FF2001300F90002206A9054841
:10375000FEF774FF002800D0FEE711B030BD000076
:10376000002800408003002010B510480E49016079
:10377000FF210531416000210722816012020161B1
:10378000C2600122416152028261016241620822EB
:1037900081620723C261C36242630163FFF7DCF801
:1037A000002800D0FEE710BD00300140A00300203B
:1037B00010B501211D488EB08907016000241C4905
:1037C000846041600461FF218461C160FFF7BEFA3B
:1037D000002800D0FEE701200003079007A9134846
:1037E000FFF70DFB002800D0FEE71048FFF7AFFC05
:1037F000002800D0FEE70B940BA90C480C94FFF7AF
:1038000081FA002800D0FEE7602000900194029425
:103810000C22694604940548FFF731FC002800D0CB
:10382000FEE70248FFF714FC0EB010BD04040020B0
:103830001F03000010B50E480C490160E121490248
:10384000416000218160C160016181610822C16124
:103850004261016230214162510281634900C163CA
:10386000FDF712FA002800D0FEE710BD004400402A
:103870008404002010B500220749084801F0D2F85E
:103880000749064801F007FB0649044800F003FF1A
:10389000024801F051FB10BD70000020F40400202C
:1038A0009C010020A4000020704700008307FF2235
:1038B000DB0E9A408907090E994000280BDA0007B1
:1038C000000F0838830808489B001818C369934301
:1038D0000B43C3617047830804489B001B1818689A
:1038E000904308431860704700ED00E000E400E0FA
:1038F000F0B585B00446002069468880264620360B
:1039000078E19A8917073F0F26D0B9000291425AF1
:103910009A80998809047DD5BE490A40029942528D
:1039200038461C2148430519FF350935A87A002877
:10393000206870D029788A00825A52046CD55022AF
:10394000125ACB00B44912185918515A8905890DD9
:1039500000917DD0EA88BDE09A89D20627D40188FB
:10396000AE4A25461140018020685021095A283569
:1039700008182978CA00A8495118405A8005800DB6
:103980002064A16B0818A06300212046FDF78DFC80
:1039900030790028B4D068690028B1D1307980210D
:1039A00008432168403188810020307122E125469A
:1039B000FF35028809359A809B881B0519D5098A2D
:1039C00009182878C2009448001D1018085A294682
:1039D00083059B0DAB61AA88E431206800F024F9CF
:1039E00020688C4A0188114001802046FEF754F976
:1039F00000E1694689880904D8D58649864F0A407E
:103A0000028020685021095A3F1D09182878C000FB
:103A1000C01902E085E03DE04FE0085A83059B0DA8
:103A2000AB6108D0AA882969206800F0FDF8A9696F
:103A300028694018286100212046FDF742FC2068D3
:103A400001464030008A4018C119E8683E2800E06D
:103A500044E00AD9C202120CC00601D1521E92B231
:103A600090020122D203104306E0C203120CC007E9
:103A700001D0521C92B2900208802168684A0888DE
:103A8000104001221203504052005040654A10433A
:103A90000880AFE05021095A0A182978CB005E4906
:103AA000091D5918515A8905890D009121D0AA88FC
:103AB0002969009B00F0B8F81BE05022CB00125A95
:103AC00055491218091D5918515A8905890D009137
:103AD00004D02A892969009B00F0A6F8297820687B
:103AE0008A004E4B815A803319404E4B4033194364
:103AF0008152A96900980818A861296900980A18D4
:103B00002A616B69002B03D0E9680098814204D9CF
:103B100029782046FDF7D5FB03E029782046FDF7FC
:103B200049FE68468088000664D51C20474320680B
:103B300002993A4A415A3D191140029A2835815258
:103B4000A87A0028206811D029788A00825C520661
:103B50001ED55022125AC90012182F480818105AA0
:103B600083059B0DAB6124D0EA881EE05021095AE1
:103B700009182878C20028481018085A83059B0D98
:103B8000AB6121D0AA882969206800F062F81BE0A7
:103B90005022125AC90012181F48001D0818105A46
:103BA00083059B0DAB6104D02A892969206800F048
:103BB00050F8287822688000184B115A8033194039
:103BC000174BF1331943115220685021095A091833
:103BD0002878C20010481018085A8005800DA86186
:103BE00029690A182A616B692978002B20460DD0B3
:103BF000FDF7AAFE2068014640318A886B469A810B
:103C0000120400D57DE6002005B0F0BDFDF74DFBA8
:103C1000F0E700008F0F0000020400000F8F00008B
:103C20008FBF000080800000101810B501229202A2
:103C30005C088018002C07D002880A70120A4A70AB
:103C4000801C891C641EF7D1DA0701D00078087047
:103C500010BD101801225B1C920210B55B08801881
:103C6000002B08D04A780C78120222430280801C74
:103C7000891C5B1EF6D110BD704701090A2200079E
:103C80005143000F4018C0B27047002102E00A38CB
:103C9000C0B2491C0A28FAD20907090E0843704726
:103CA00070B504460068C168490613D40021C943B1
:103CB000C160FCF7E3FF7D260546F60006E0FCF751
:103CC000DDFF401BB04201D9032070BD2068C068F1
:103CD0004006F4D5002070BD10B50248FEF796FBF3
:103CE00010BD000080030020F8B50F460B461546B6
:103CF0000092032104460022C90200F01BF820268E
:103D0000002812D13B46002280212046009500F079
:103D10005CF8002809D103213B46002249022046D5
:103D2000009500F007F8002803D0206E304320668D
:103D30000320F8BDF8B51D4617460E4604463DE083
:103D4000032149028E4205D1002F03D1017B684631
:103D500001700078681C31D0002D05D0FCF78EFF73
:103D60000699401AA84229D320684168E02291436D
:103D700041606068C11FFD390CD10121A068C903F1
:103D8000884202D04911884204D12068016840224B
:103D9000914301600120A16A4003814207D121685B
:103DA0000A6882430A6021680A6802430A600120A7
:103DB00040346077002020770320F8BD20688168B8
:103DC0003140B942BCD10020F8BDF8B51D461746B8
:103DD0000E46044633E0681C31D0002D05D0FCF7B8
:103DE0004DFF0699401AA84229D320684168E02275
:103DF000914341606068C11FFD390CD10121A06869
:103E0000C903884202D04911884204D12068016860
:103E10004022914301600120A16A4003814207D101
:103E200021680A6882430A6021680A6802430A60BE
:103E3000012040346077002020770320F8BD2068FF
:103E400081683046884304D00020B842C3D10020A6
:103E5000F8BD0120F9E7704710B5FDF7A7F9FEF7A7
:103E600043FF10BD70B598B03A2000900120039038
:103E70001025079008900590C003002404950226A1
:103E800006950A9009960B940C946846FEF7D0F8B4
:103E9000002800D0FEE70720139015940021149607
:103EA000169413A8FDF7C0FF002800D0FEE70F48C6
:103EB0000D90012040020E90109512940DA8FDF770
:103EC0002DFF002800D0FEE7FEF758F87D21C9003D
:103ED000FCF72CF9FEF7F0FE0420FEF7DFFE0022CF
:103EE0001146501EFDF7C0F918B070BD2000030048
:103EF000134801680122114301604168114A1140D1
:103F000041600168104A1140016001680122920479
:103F10009143016041683F22120491434160C16AAC
:103F200009090901C162016BFF22D4329143016387
:103F3000416B4908490041630021816070470000DE
:103F4000001002400CB8FF08FFFFF6FE10B5024853
:103F5000FEF7CDFF10BD000044040020F0B502685C
:103F60001A4B0124A4071A4D984203D0A04201D055
:103F7000A84203D17026B2434E683243154E164F05
:103F800098420AD0A04208D0A84206D0134CA042C2
:103F900003D0B04201D0B84204D103242402A2438A
:103FA000CC6822438024A2434C69224302608A6881
:103FB000C2620A688262984203D0B04201D0B8421D
:103FC00001D10969016301214161F0BD002C01406B
:103FD000000400400044014000480140002000402F
:103FE00010B50123046A8B409C430462036A8A4033
:103FF0001343036210BD30B58468FF252D021B02F8
:104000001343AC430B432343836030BD826870236A
:104010009A430A4307210A4382607047F0B5026A57
:10402000520852000262056A436882697024A24302
:1040300092080C6892001443022295438A68134E3A
:104040002A43114DA84204D0B04202D0104FB842CA
:1040500006D10827BA43CF681743042297433A464C
:10406000A84204D0B04202D0094DA84206D103258F
:104070002D02AB434D691D438B692B434360846123
:10408000496841630262F0BD002C014000440140D8
:104090000048014070B5026A10239A430262046A24
:1040A0004368826973252D02AA430D682D021543CA
:1040B000202294438A6812012243104CA04208D166
:1040C0001446CA688026B443120122434024A24306
:1040D00005E00B4CA04202D00A4CA04208D10324B8
:1040E000A402A3434C69A4001C438B699B00234397
:1040F0004360856149688163026270BD002C0140A4
:10410000004401400048014070B5026AFF230133BA
:104110009A430262046A4368C2697025AA439208FE
:104120000D68920015430122520294438A681202DC
:104130002243104CA04207D1C414A243CC682402ED
:1041400022430615B24305E00B4CA04202D00B4CB3
:10415000A04208D103242403A3434C6924011C4337
:104160008B691B0123434360C5614968C1630262D7
:1041700070BD0000002C0140004401400048014097
:1041800030B5026A01231B039A430262056A426842
:10419000C36973242402A3430C6824021C43012333
:1041A0005B039D438B681B032B430A4DA84205D03C
:1041B000094DA84202D0094DA84205D10125AD0301
:1041C000AA434D69AD012A434260C4614968016454
:1041D000036230BD002C0140004401400048014012
:1041E00030B5036A046A6408640004628469F025D7
:1041F000AC43120122430A24A3430B4382610362AE
:1042000030BD30B5036A1024A34303628469036A96
:104210000F252D031203AC432243A024A34309011D
:1042200019438261016230BD10B5818CC90707D086
:1042300001684A6801235B049A43836A1A434A600F
:10424000818C890707D501684A6801231B049A43BA
:10425000C36A1A434A60818C490707D501684A68D6
:1042600001239B049A43036B1A434A60818C09071C
:1042700007D501684A680123DB039A43436B1A435D
:104280004A60818CC90607D50268916801231B0327
:104290009943836B19439160818C890607D5016826
:1042A0008A6801235B039A43C36B1A438A60818C3B
:1042B000490612D503685A6801210905046C8A432E
:1042C00022435A60026C8A4207D102685168032374
:1042D0005B059943436C19435160818C090607D5EE
:1042E00001684A680123DB04806C9A4302434A60F8
:1042F00010BD0000F8B500260446C666FCF7BEFCFB
:1043000005461449206888421DD10068124F0007F5
:1043100009D501212B46002249052046009700F0CF
:10432000B5F800280DD12068006840070BD50121A1
:104330002B46002289052046009700F0A7F80028A8
:1043400001D00320F8BD202060346072A072267274
:104350000020F8BD00380140FFFFFF01F8B504461A
:104360002369A268E5691A43636910202B43002181
:1043700025681A432B680E463E4F3B4013432B6083
:1043800023685A6803252D03AA43E5682A435A6027
:10439000236AA26925681A43AB680B273F02BB4317
:1043A0001343AB60344A2568954210D1334A126BEF
:1043B0009207920F0ED0012A05D0022A05D0032AB7
:1043C00009D1022007E0042005E0082003E02C4A80
:1043D000954200D100200122E369D203934224D107
:1043E00000280CD002280DD0042813D0082817D09C
:1043F00001260A0912010807400F10432FE0FDF7BC
:10440000C3FD09E061681F4A48088018FBF78EFE6B
:1044100081B2EEE7FDF7C8FD616840004A08F4E7A5
:104420006168012248081204EFE7002808D002283A
:1044300009D004280BD0082814D001263046F8BD36
:10444000FDF7A2FD05E061680F4A48080CE0FDF7A2
:10445000ABFD61684A088018FBF768FE80B22168EE
:10446000C860EBE7616848088018FBF75FFE80B220
:10447000E860E3E7F369FFEF003801400010024015
:10448000004400400024F40000127A00FFB581B01F
:1044900017460E4604460A9D1DE0681C1BD0002DE1
:1044A00005D0FCF7EBFB0499401AA84213D9206809
:1044B0000168FF22A13291430160206881684908A8
:1044C00049008160202060346072A0720020207258
:1044D000032005B0F0BD2068C1693046884304D090
:1044E0000020B842D9D00020F3E70120F9E7FF30DF
:1044F000FF3002308069002806D0FF300021FF30F5
:1045000002304161084670470220704770B5C21DF5
:10451000FF32FA321546946900F058FBE11DFF3175
:10452000FA31C860A869002808D04868E969CA68F3
:104530008321890061189047002070BD022070BD62
:1045400070B504460025812100F098FA012120462B
:1045500000F094FA8221204600F090FAFF34FF34F4
:104560000234A069002807D0E06940688047A0694C
:1045700000F0F0FD0020A061284670BDFF3010B5AE
:10458000FF301A300AC8002B0AD0CC1DFF34FA3491
:104590002078FF2804D09B6862789847FF2020701D
:1045A000002010BD0A21018000487047C40000208F
:1045B00043210180004870471401002043210180FD
:1045C00000487047D0000020432101800048704718
:1045D00058010020F8B50446007C0126002576022B
:1045E000002830D0402302228121204600F058FBD1
:1045F000402302220121204600F052FB082303221F
:104600008221204600F04CFB8720800000F0A4FDB2
:10461000E11DFF31FA31886100281CD00746C869C6
:1046200000688047FF370020FF3702377861B861A4
:10463000207C7A68002810D040230121204600F019
:1046400045FB2846F8BD334602228121204600F072
:1046500027FB3346CDE70125F3E73346EDE710B5F9
:104660004321C9000958002913D0027C002A09D02F
:10467000FF31FF3102314A684023012100F026FB5F
:10468000002010BDFF31FF31023101235B024A6877
:10469000F3E7022010BD02460220002904D0FF32B9
:1046A000FF3202320020D1617047FF30FF3002300C
:1046B0008069FF30FF300230416000207047FF30DA
:1046C000FF3002308069FF30FF30023002618160CC
:1046D0000020704770B50C46C11D0546FF31FA3108
:1046E000207860228E69024022D0202A28D1E288D8
:1046F000002A16D0000607D5C96960788B68314654
:104700009847E288314618E0F01DFF306178FA30B2
:104710000170A1794170E2883146284600F050F8D6
:104720000EE0C96960788B6800222146984707E04F
:1047300060780A2804D103490122284600F05CF879
:10474000002070BDC000002010B54321C9000958E9
:10475000002911D0FF31FF3102314A69002A01D00E
:10476000012010BD01224A610A8A93B28A68812120
:1047700000F06AFB002010BD022010BD10B585229C
:104780009200125852689047002010BD134610B591
:104790000A46002100F09AFA002010BD134610B519
:1047A0000A46002100F050FB002010BD10B5044661
:1047B000802100F01BFB0021204600F017FB10BDFC
:1047C00010B5FF230324F5331C50C31DF9339A6041
:1047D000DA6013460A46002100F078FA002010BD86
:1047E00010B5FF210522F5310A5000231A4619465B
:1047F00000F06CFA002010BD10B5FF230224F53341
:104800001C5082611346C2610A46002100F01CFB65
:10481000002010BD10B5FF210422F5310A500023FD
:104820001A46194600F010FB002010BD10B50A46CC
:10483000024903A000F0D4F8004810BD580B002036
:1048400043444320436F6E6669670000122008806E
:10485000004870479000002010B50A46024903A0A6
:1048600000F0BEF8004810BD580B00204344432020
:10487000496E7465726661636500000004200880FB
:10488000004870478C00002010B50A46024903A07A
:1048900000F0A6F8004810BD580B002064656B7549
:1048A0004E756B656D00000010B50A46024903A005
:1048B00000F096F8004810BD580B00204461797450
:1048C000726970706572205669727475616C2053DC
:1048D000657269616C20506F7274000010B50A46F1
:1048E000024903A000F07CF8004810BD580B0020DE
:1048F0003030303030303030303031410000000066
:10490000F8B50D4604464988FF300A0AFF300230E8
:10491000130000F056FE084905091649493E46496C
:104920000069237C02682AE0217C02264069002974
:1049300005D0C16A684688470146467040E0816AF2
:10494000F8E7C9B20B0000F03CFE0604080F13178D
:104950001E2F0069227C436802E00069227C836884
:1049600069461046984712E00069227CC368F7E761
:104970000069227C0369F3E70069237C4269694688
:104980001846904703E00069227C8369E8E7014606
:1049900016E0217C002907D14069416B68468847B1
:1049A000F5E7217C002904D029462046FFF7FEFECA
:1049B000F8BD4069016B684688470722014642708E
:1049C000684600880028F3D0EA88002AF0D08242A6
:1049D00000D90246684602802046FFF70DFFF8BD69
:1049E00070B5002300281CD00446002502E06D1C91
:1049F000EDB2641C2678002EF9D16C00A41C148042
:104A0000CC5403225B1CCA5400245B1C06E0CA542D
:104A10005B1CDAB28C54521CD3B2401C0278002AC0
:104A2000F5D170BD10B5002813D0C31DFF33FA3384
:104A30005C69002C01D000245C61002900D0196160
:104A4000FF210123FD310B54027000F0C7F8002054
:104A500010BD022010BD10B5FF30FF300230002421
:104A6000006AFCF7F1FC002806D0012801D00228DA
:104A700001D0022400E00124204610BD10B5FF3013
:104A8000FF3002300024006AFCF72AFC002806D020
:104A9000012801D0022801D0022400E00124204690
:104AA00010BDFEB50446FF30E51DE130FF35FA3597
:104AB00013460190002908D068694269002A49D04C
:104AC0000198007F032843D044E02646FF36813614
:104AD0002046716F1430022934D1C2688168009277
:104AE000914207D9891A81608AB219462046FFF798
:104AF00055FE13E0406811460746FBF717FB0029F7
:104B000013D10098874210D3B06F87420DD2002294
:104B100011462046FFF742FE0020B06700231A46E8
:104B20001946204600F0D2F80CE06869C1680029F7
:104B300005D00198007F032801D1204688472046F0
:104B4000FFF74EFE2878012804D10020287001E0EC
:104B5000204690470020FEBD70B50546FF35E13583
:104B60002B46203316460446002907D0586982692F
:104B7000002A29D0287F032824D025E0FF21F53101
:104B8000E01D0959FD3003291ED18268C1688A429F
:104B90000BD9511A8160C068814200D301468AB2A4
:104BA00031462046FFF7F2FD0EE058690169002901
:104BB00004D0287F032801D1204688472046FFF7EC
:104BC00029FE01E020469047002070BDFF3010B55F
:104BD000FF300230006AFCF791FC10BD10B51F4990
:104BE000C41DC861FF341E49FA341E4821620860A2
:104BF000022208208A6048600020C8608861C8617D
:104C00000A6108620846FCF79DFF002804D0FF21D6
:104C1000353115A000F0ACFC002218231146206AA3
:104C2000FCF726FB582300228021206AFCF720FB9A
:104C3000C02300228121206AFCF71AFBFF231133D5
:104C400000220121206AFCF713FBFF23013300221D
:104C50008221206AFCF70CFB002010BD380B0020DD
:104C600038090020005C00402E2E2F5372632F75F0
:104C70007362645F636F6E662E630000FF30CA0963
:104C8000FF3049060230490E1C23006A59430818B8
:104C9000002A01D0203001E0FF300130807A7047D7
:104CA00070B5FF301D46FF30023013460024006A05
:104CB0002A46FCF72DFC002806D0012801D0022846
:104CC00001D0022400E00124204670BD10B5FF3061
:104CD000FF3002300024006AFCF76CFD002806D08B
:104CE000012801D0022801D0022400E0012420463E
:104CF00010BD70B50022044640231146FFF7D0FFD7
:104D00004025FF20113005512B46002280212046EE
:104D1000FFF7C6FFFF200121FD3025620155E01D90
:104D2000FF30FA308169002904D040692179426856
:104D300020469047002070BDFF30E130417F017771
:104D40000020704710B5FF21FD31095C032906D111
:104D5000852189000958C969002900D088470020A9
:104D600010BD01740020704710B5FF30FF300230D5
:104D70000024006AFCF77AFF002806D0012801D041
:104D8000022801D0022400E00124204610BD70B5A5
:104D900004464120C0002018054600F068F821466E
:104DA000FF3181310122084680304A67C2898A6713
:104DB000007AC106C90E0AD001290DD0022910D0EF
:104DC000C109C901204600F011F8002070BD294634
:104DD000204600F0B6F8F8E72946204600F09DF995
:104DE000F3E72946204600F023F9EEE710B5FF303F
:104DF000FF3002300024006AFCF75CFD002806D07A
:104E0000012801D0022801D0022400E0012420461C
:104E100010BD10B5FF30FF3002300024006AFCF7EF
:104E200046FF002806D0012801D0022801D0022424
:104E300000E00124204610BDFF30E130017F4177C2
:104E4000042101770020704710B5FF30FF30023099
:104E50000024006AFCF778FD002806D0012801D064
:104E6000022801D0022400E00124204610BD0A7867
:104E700002704A784270CB788A781B02D21842803E
:104E80004B790A791B02D21882808A79C979090282
:104E90005118C180704702460020002904D0FF321B
:104EA000FF320232516170470220704710B58522EF
:104EB000920012580224002A04D012689047002859
:104EC00000D10024204610BD70B50E468978194DDA
:104ED00004462970012904D931462046FFF766FCB3
:104EE00070BD2046FF30E130027F022A15D0032A30
:104EF000F2D1002917D0606888420AD0C1B220469A
:104F0000FFF73CFC297861602046FFF7CFFF0228BD
:104F1000E2D02046FFF77EFC70BD0029F9D00322C5
:104F200061600277F0E70222027720466160FFF7B6
:104F300025FCEEE7BC00002010B5FFF76AFF00205B
:104F400010BDF8B500220092C61DFF364C781746FA
:104F5000FA3632460125203A230000F032FB0A3CA3
:104F6000564150410906412B2841FFF7C9FC5DE03D
:104F700004468888002818D1C888002815D1887868
:104F800017464606107F760E03280ED0BE773146B0
:104F90002046FFF7E9FE2046FFF73CFC002E02D03A
:104FA0000220387742E03D7740E0204618E0FFF7E6
:104FB0008BFF3BE0CB88012B12D1127F022A02D05B
:104FC000032A0DD104E0012201460831876013E075
:104FD0000122011D10E0127F022A04D0032A02D010
:104FE000FFF7E4FB22E0C5607168002901D00321CE
:104FF000C160014602220C31FFF7FEFB16E00446B9
:105000004888012812D1756009E00446107F022803
:1050100001D00328C9D14888012807D17760706979
:105020008268204690472046FFF7F4FB0098F8BDC1
:10503000F8B504460D462878E61D4006FF360027E1
:105040000979800FFA36012809D06A78304620386D
:10505000002A38D0012A1ED0032A3DD106E070690B
:1050600029468268204690470020F8BD007F02282C
:1050700017D003282CD16888002806D1002904D035
:10508000802902D02046FFF7B1FE70692946826868
:105090002046904713E0007F022802D0032817D152
:1050A00004E0002918D080291AD115E0688800286A
:1050B00012D1480603D02046FFF7CDFCE5E7204695
:1050C000FFF7A8FB08E0007F022807D003280BD0D9
:1050D00029462046FFF76AFB3846F8BD4806FBD054
:1050E0002046FFF783FEF7E7C80904D04806400DC5
:1050F0000519143504E04806400D0519FF3505353E
:105100002046FFF7BBFD002800D0012028600222C6
:1051100029462046FFF770FBDEE770B50446FF30F6
:10512000E130007F0D4603280FD1287901280CD8E3
:10513000852080000059826820469047E888002832
:1051400006D12046FFF766FB02E02046FFF72EFB64
:10515000002070BD7047000000487047180700200D
:1051600010B50248FCF768FC10BD000038090020AB
:10517000F0B585B0892001F019FB012420430146D8
:10518000892001F00BFD0021882001F007FD01219D
:10519000802001F003FD0121FF2001F0FFFC002130
:1051A000084601F0FBFC912001F000FBEF498870FC
:1051B0000121002001F0F2FC0021FF2001F0EEFCB3
:1051C0000021802001F0EAFC602001F0EFFA1221BA
:1051D0000143602001F0E2FC7D20C00501F010FCDD
:1051E000FF21012001F0DAFC03A902A800F084FDF0
:1051F00000287DD006226946B02001F051FA012135
:10520000FF2001F0CBFC00214F2001F0C7FC2C2136
:105210004E2001F0C3FC0021FF2001F0BFFCB421AF
:10522000B62001F0BBFC6846007B002801D00C25AD
:1052300000E000256A46127A0021944608466A4634
:10524000A84201D3614508D1C4084707165D7F0F06
:105250000123BB409E43165508E0C308D35C4407B6
:10526000640FE340DB0701D0491CC9B2401CC0B247
:105270003028E5D306226946B02001F07DFC0121EB
:10528000FF2001F08BFC0021084601F087FC002183
:10529000FF2001F083FC0021092001F07FFC0021A8
:1052A000102001F07BFC0021112001F077FC01218E
:1052B000242001F073FCFF21252001F06FFC002168
:1052C000752001F06BFC0121FF2001F067FC2C210F
:1052D0004E2001F063FC0021482001F05FFC2021FA
:1052E000302001F05BFC0021FF2001F057FC00E0C2
:1052F00039E10921302001F051FC0021542001F056
:105300004DFC0421312001F049FC0321322001F041
:1053100045FC8321402001F041FC2521462001F07D
:105320003DFC0021602001F039FC0021272001F024
:1053300035FC0621502001F031FC0021512001F004
:105340002DFC9621522001F029FC0821562001F065
:1053500025FC3021572001F021FC0021612001F0C3
:105360001DFC0021622001F019FC0021642001F0E5
:1053700015FC0021652001F011FCA021662001F040
:105380000DFC0121FF2001F009FC3221222001F057
:1053900005FC1421472001F001FCFF21492001F008
:1053A000FDFB00214A2001F0F9FB0021FF2001F064
:1053B000F5FB0A217A2001F0F1FB00217B2001F0AE
:1053C000EDFB2121782001F0E9FB0121FF2001F014
:1053D000E5FB3421232001F0E1FB0021422001F014
:1053E000DDFBFF21442001F0D9FB2621452001F0FF
:1053F000D5FB0521462001F0D1FB4021084601F0F4
:10540000CDFB06210E2001F0C9FB1A21202001F05E
:10541000C5FB4021432001F0C1FB0021FF2001F02A
:10542000BDFB0321342001F0B9FB4421352001F0FC
:10543000B5FB0121FF2001F0B1FB0421312001F077
:10544000ADFB09214B2001F0A9FB05214C2001F007
:10545000A5FB04214D2001F0A1FB0021FF2001F05C
:105460009DFB0021442001F099FB2021452001F003
:1054700095FB0821472001F091FB2821482001F0ED
:105480008DFB0021672001F089FB0421702001F0D1
:1054900085FB0121712001F081FBFE21722001F0CA
:1054A0007DFB0021762001F079FB0021772001F0BF
:1054B00075FB0121FF2001F071FB01210D2001F09E
:1054C0006DFB0021FF2001F069FB0121802001F02C
:1054D00065FBF821012001F061FB0121FF2001F0B3
:1054E0005DFB01218E2001F059FB0121002001F01C
:1054F00055FB0021FF2001F051FB0021802001F02D
:105500004DFB04210A2001F049FB842001F04EF9F3
:10551000EF210140842001F041FB01210B2001F02B
:105520003DFB00F063FB114CE821A060012001F07D
:1055300035FBA06801F006FA0121084601F02EFBB8
:10554000402001F083F800280DD00221012001F055
:1055500025FB002001F07AF8002804D0E821012082
:1055600001F01CFB012005B0F0BD00000000002090
:10557000FEE700000FB410B503A9044B044A0298DB
:1055800000F03CF810BC08BC04B01847CD5B000824
:10559000D40100202021020C01D010211046020A63
:1055A00001D010460839020901D01046091F8208AF
:1055B00001D01046891E420801D0881E7047081A83
:1055C000704730B47446641E2578641CAB4200D228
:1055D0001D46635D5B00E31830BC184702E008C855
:1055E000121F08C1002AFAD170477047002001E05D
:1055F00001C1121F002AFBD170470000FFB58FB018
:105600000F460446002606E025280AD0129A119972
:105610009047641C761C20780028F5D1304613B0E2
:10562000F0BD00250121A14A009500E00543641C5E
:1056300023780846203B98401042F7D120782E2846
:1056400015D1042005436078641C2A280AD101CFB3
:10565000641C00900BE000990A2251433039401835
:10566000641C00902078014630390929F3D920784C
:105670006C280ED004DC4C2813D06A2812D104E028
:1056800074280ED07A280DD10BE001204005054387
:1056900007E00121090562780D43824201D16D18AE
:1056A000641C641C2078864669284AD008DC0028DF
:1056B000B4D058286DD0632810D0642808D140E0B9
:1056C00070286BD0732812D0752860D0782860D0ED
:1056D000129A704611999047761CE5E03878694631
:1056E00008720020487202A80190012003E0386887
:1056F00001900020C0433F1D69070CD5002500E044
:105700006D1C00998D420FDA8542F9DB0199495DE4
:105710000029F5D108E0002500E06D1C8542FCDB86
:105720000199495D0029F8D1761907E0019801999E
:105730000078491C0191129A119990476D1EF5D27B
:10574000B2E00A20029000216802400F0391022873
:105750000CD001CFC117844600290DDA62460846F5
:1057600052420021814194462D2008E0FF1DFF0890
:10577000FF0003CF8446EFE7280504D52B206A46B7
:10578000107401203CE0E8073AD02020F7E70A2017
:1057900000E0102000210391029007E01020029009
:1057A0000021042005430820039100906802400F67
:1057B000022810D001CF0021844600200D90280738
:1057C0001FD5704670280CD0029A1020039B4240CF
:1057D0001A430CD015E0FF1DFF08FF0003CF8446DD
:1057E000EBE740206A46107401200D900CE0604603
:1057F000084306D030206A46107470465074022068
:105800000D907046582804D029A001900DA80E9044
:105810000DE02CA0F9E76046039B029AFAF774FDAD
:10582000019B84469B5C0E9A521E0E92137060463A
:105830000843F0D10E9805A9081A20300190680796
:1058400001D5009801E0012000900199884203DD14
:1058500001460198081A00E000200025009006E0AB
:1058600004A8129A405D119990476D1C761C0D9802
:105870008542F5DB04E0129A302011999047761C9E
:105880000099481E00900029F5DC08E00E980E995A
:105890000078491C0E91129A11999047761C019933
:1058A000481E01900029F1DC641CB4E609280100BF
:1058B0003031323334353637383961626364656686
:1058C0000000000030313233343536373839414248
:1058D000434445460000000010B50A4C606008468D
:1058E000A160FDF775FAA068FDF731FC0C21A068F6
:1058F000FDF74AFC6068FDF777FA0020E060207051
:1059000010BD00002C00002010B50C490B4AC868DF
:10591000401CC86009789468022909D0032906D17F
:105920000A21FAF703FC0648405C2168086410BDB0
:105930003321FAF7FBFB02483338F5E72C0000204F
:105940002B6C0008F3B5019F00257F1E15E0019820
:105950000024461B761E0CE000996000009A095A4C
:1059600080184288914202D9811C01F089F8641C98
:10597000A4B2A642F0DC6D1CADB2BD42E7DBFCBDBB
:1059800030B514460D46034600F0D8FA1870C3200F
:105990005870280A9870DD70200A18715C7130BD4B
:1059A00030B514460D46034600F0C8FA1870B22010
:1059B0005870280A9870DD70200A18715C7130BD2B
:1059C00010B50B4A034614780020002C0BD0012C94
:1059D00008D1002B06D1107052680120891A0829BD
:1059E00000D9022010BD012BFCD11370516010BDF5
:1059F0003C00002070B505460B48FBF739F8FF2145
:105A0000F5310948FAF7D4FF0748FAF7F3FEC4B2B4
:105A10000548FBF75BF822461A204243214603A0C3
:105A20002A60FFF7A7FD70BDD80200206368313AF5
:105A30002025642C20766261743A2025640A0000D7
:105A4000C1B2000A8140491C88B2704770B5044653
:105A500006202070FF2060700123A370E3700C20EB
:105A600020711920607100F069FAA0710025E571BC
:105A70002078002800D123707D202178C000FAF71B
:105A800055FB6179401A801E00B22081002800DA9F
:105A9000258170BD10B50446017812A0FFF76AFD9C
:105AA000617816A0FFF766FDA17819A0FFF762FDE7
:105AB000E1781BA0FFF75EFD21791EA0FFF75AFDDC
:105AC000617923A0FFF756FDA17928A0FFF752FDC9
:105AD000E1792BA0FFF74EFD0821615E2CA0FFF7B6
