:020000040800F2
:10000000A0060020D5000008152F0008852900084B
:1000100000000000000000000000000000000000E0
:100020000000000000000000000000003B3100085C
:1000300000000000000000005D2F00083D310008B6
:100040000501000805010008BD2F00080501000892
:100050000501000805010008050100080501000868
:100060000501000805010008050100080501000858
:100070000501000805010008050100080501000848
:100080000501000800000000000000000501000854
:1000900000000000050100082132000805010008E9
:1000A0000000000005010008050100080501000826
:1000B0000501000800000000050100080501000816
:1000C0000348854600F03EFA0048004719450008FD
:1000D000A00600200C4880F308880C480168090E2F
:1000E0000B4A914205D10B480B4901600B480C4962
:1000F00001600C4880470C480047FEE7FEE7FEE73A
:10010000FEE7FEE7FEE70000A00600200400000076
:100110001F00000018100240010000000000014014
:1001200000000000C5310008C100000830B50B46D2
:10013000014600202022012409E00D46D5409D42C1
:1001400005D31D469540491B254695404019154647
:10015000521E002DF1DC30BD10B5202A04DB08460C
:10016000203AD040002110BD0B46D340D04020247F
:10017000A21A91400843194610BDD2B201E00270A4
:10018000401C491EFBD270470022F6E710B513460B
:100190000A4604461946FFF7F0FF204610BD42000C
:1001A00005D04200120E52428A4201DB0020704705
:1001B000C905081870470000F0B51FB488B00B9946
:1001C0000998002448400999C00F4900490809913D
:1001D000C0070B990090490049080B9109990898AC
:1001E000A64608431CD00B990A98084318D00998D2
:1001F00001244000420D4800410D099824050003E8
:10020000000B204309900B980003000B20430B9038
:1002100050181C494018002201901446104605E071
:10022000002001460DB0F0BD032801DA034600E0CE
:1002300003239C46C11A0AAE0AE05F0008ADED5BDD
:100240004F00F75B7D430027AA187C41491C5B1EC9
:100250006145F2DD410004AB5A522104120C0A43FD
:10026000240C401C0828DFDB01980290009970469E
:1002700001910090059B049A0799069800F00FF9E8
:10028000D0E700000DFCFFFFF0B50C465C4085B0E8
:10029000E40FE40703944C000026640859009446D8
:1002A000490802460296224321D062460A431ED0E4
:1002B0006200570D4A000E032303550D0124024628
:1002C0002C492405781B1B0B360B4018234326436F
:1002D000614600901C46501AB44103D30098401C5C
:1002E000009002E0921800985B41002803DA002099
:1002F000014605B0F0BD00200121090507468646EC
:1003000011E064461D46141BB54106D36546521BD9
:10031000B341744607430C43A646CD07400849083D
:10032000284392185B4105460D43EAD11046184315
:1003300013D06046194650407140084306D06046CD
:10034000101AB34106D20122002306E00022012345
:10035000DB0702E00122D2435310009874460105E6
:10036000381C6141029C039D0019694100F08AF824
:10037000BFE70000FD03000070B54B005B080343BE
:100380000BD04B005C0D002633466542B341D417B9
:10039000AD1AA34102DB0020014670BD12053018E2
:1003A000514170BD0EB505490291002100910A46E8
:1003B0000B46019100F073F803B000BD3304000058
:1003C000410040020122400AD205090E80187F290F
:1003D00001DA00207047962903DC9622511AC840A2
:1003E00070479639884070474A0009030123090B7A
:1003F0001B051943094B10B5520D9A4201DA002032
:1004000010BD064B34339A4203DC9A1AFFF7A4FE60
:1004100010BD03495118884010BD0000FF030000C3
:10042000CDFBFFFFF0B51FB40646002082B00546A5
:100430004024019100901BE0019922460F4630466E
:10044000FFF78AFE049A059B801A994110D3104643
:100450001946224600F088F8361A8F410197224645
:1004600001200021009F00F07FF838184D410090D6
:100470002046641E0028DFDC019B00982946324696
:1004800007B0F0BD10B5002B08DA0024401C614114
:1004900092185B411A4301D14008400010BDF0B5ED
:1004A0001FB482B005460C0003D0084603F09AFB47
:1004B00002E003F097FB20300246009021462846D8
:1004C00000F052F8049B059A04460F461843114366
:1004D000084314D0184610431BD0009840210A1A34
:1004E00018460599FFF738FE05460E46009A05990D
:1004F000049800F039F8084305D0012004E02046B4
:10050000394607B0F0BD0020C11705430E432C4308
:10051000374300990E986305401A7905E40A0022D2
:100520000C43FD0A0A3002D500200146E9E7010527
:10053000101969410C9C0D9D00196941FFF7A2FF3C
:10054000DFE70000064C0125064E05E0E36807CC16
:100550002B430C3C98471034B442F7D3FFF7B4FD5B
:10056000744F0008944F000810B5202A04DB0146A0
:10057000203A9140002010BD914020239C1A034650
:10058000E3401943904010BD70B50446006881688F
:10059000490720D5816810264907002905DA8168B6
:1005A000890702D481683143816000F0DDFB054694
:1005B0000DE000F0D9FB401B022808D9606C3043E5
:1005C0006064A06C01210843A064084670BD2068E7
:1005D00080684007EDD4002070BDF8B5044600687F
:1005E00081688907890F012928D10168C90702D1CB
:1005F000C168090422D58168052211401025012611
:1006000001290FD1816802221143816021680320F2
:10061000086000F0A9FB07460CE000F0A5FBC01B3A
:10062000022807D9606C28436064A06C3043A06442
:100630000120F8BD20688068C007EED10020F8BD19
:10064000F8B5044600200090206881688907890F6A
:10065000012905D10168C9072CD1C168090429D431
:100660008168154A102611400125002915D181689D
:1006700029438160124811490068FFF757FD00E0E7
:10068000401E00900028FBD100F06EFB07460CE0F6
:1006900000F06AFBC01B022807D9606C304360641D
:1006A000A06C2843A0640120F8BD20680068C04306
:1006B000C007EDD10020F8BD1700008040420F00B8
:1006C00058000020F8B500250446403400952278F3
:1006D000012A3BD00122227003689E68760776D4F7
:1006E0003F4F4E68BE4254D09E6A0F78BA401643C0
:1006F0009E620123826B1B079A421FD0012A1DD0E4
:10070000022A1BD0032A19D0042A17D0052A15D093
:10071000062A13D0072A11D002688B68566976071B
:10072000760FB3420AD05369DB08DB0053610068DF
:1007300042690B7A5B075B0F1A4342610868102815
:1007400006D0112804D0122802D045E00220F8BDBE
:10075000244A9368102809D011280AD001200006E5
:10076000034393600868102806D035E00120C005D7
:10077000F6E701208005F3E71C481B490068FFF7F6
:10078000D5FC0A21484300E0401E00900028FBD120
:1007900022E0986A0E78B240904398620868102868
:1007A00003D0112801D0122816D10E498A681028CA
:1007B00007D0112808D00120000682438A600BE090
:1007C00005E00120C005F8E701208005F5E7416C50
:1007D0002022114341640125002020702846F8BDE5
:1007E000011000000027014040420F005800002087
:1007F0000068006C70470000F8B50025044600282A
:1008000003D0606C002802D008E00120F8BD002071
:10081000A06440210855204600F0BCF8606C10220E
:10082000C006002870DB2068816849076CD4616CC1
:100830001301994302231943616481688907890F71
:10084000012905D10168C9070FD1C16809040CD479
:10085000C16818239943A3681943C16020680169DE
:10086000636889008908194301612068C1683D4BAC
:100870001940C160A069E1698003C9030843216A86
:100880004B031843636B012B02D001231B0300E0D1
:1008900000231843E36818432369022B09D000237F
:1008A0001843236B666A5B0018430123012E02D0B4
:1008B0000AE00423F4E7002927D0616C20263143A5
:1008C0006164A16C1943A164A16A0E46FF3EC23E59
:1008D00002D0E66A314308432168CE680643CE6001
:1008E0000126A16B3607B14213D0012911D002298C
:1008F0000FD003290DD004290BD0052909D00629D2
:1009000007D0072905D010E028E001210904084399
:10091000DAE721684E69F608F6004E6121684E69F3
:10092000278F7F077F0F3E434E612168C9680E4EB7
:100930003140814207D10020A064606C80088000B3
:10094000401C606408E0606C0221884310436064CE
:10095000A06C1843A06401252846F8BD606C1043C4
:100960006064F8E71902FEFFE7FF3F8310B50068F7
:100970000649884209D1064881694215914381613F
:1009800009200221C00600F0E1F810BD002401405A
:100990000010024000B500680C4987B0884212D1AF
:1009A0000B48826941150A438261806908400590BD
:1009B0000220009003200190002002900920694647
:1009C000C00600F027F907B000BD00000024014078
:1009D00000100240F8B504464069254640350E46F1
:1009E00008280BD02068C068C00709D0606C20219F
:1009F00008436064002028700120F8BD082700E04B
:100A00000C2700F0B1F9009011E0701C0FD0002EFF
:100A100005D000F0A9F90099401AB04207D9606CDE
:100A2000042108436064002028700320F8BD20687A
:100A300000683842E9D0606C0121490208436064D3
:100A40002068C16809058A0F0C21002A1AD1226A80
:100A5000002A17D10268120714D5826853070122B1
:100A6000002B08DB43688B434360606C13029843A0
:100A70001043606406E0606C202318436064A06C3F
:100A80001043A064A069002801D120680160002003
:100A9000F8BD000070B50446216800208968490748
:100AA00021D425464035297801291CD001212970FF
:100AB000E169012904D02046FFF7C2FD002811D1C9
:100AC000616C0A4A1140FF22013211436164002126
:100AD000A164297022681C21116021688A6804239E
:100AE0001A438A6070BD022070BD0000FEF1FFFF56
:100AF00070B50546044640352878012807D0012600
:100B00002E702046FFF740FD002802D00CE00220A6
:100B100070BD2046FFF761FD002805D1616CFF2202
:100B200001329143314361640021297070BD31B5B8
:100B300000F01AF9009C0546601C00D0641C00F00F
:100B400013F9401BA042FAD338BD0000F0B50023D2
:100B500053E001229A4014460A404DD006685F00D7
:100B60000325BD40AE43AC460660DD08AD002D1840
:100B70002E6AAE465D07EF0E0F25BD40AE437546AB
:100B80002E6286686546AE4386604568A54345602B
:100B9000C4686546AC43C4609D081A4CAD002D196D
:100BA000AF689C07260F0F24B440A4463C40092799
:100BB000FF06B84201D100270AE0134FB84201D125
:100BC000012705E0114FB84201D1022700E00527B7
:100BD000B740A74210D1AE686446A643AE600C4C45
:100BE000256895432560656895436560A5689543CC
:100BF000A560E5689543E5605B1C0A46DA40A8D12C
:100C0000F0BD00000000014000040048000800485A
:100C100000040140F8B5002389E001249C402A46E5
:100C2000A44622407ED04C68022C01D0122C0CD15C
:100C3000DC08A40027183C6A5D07ED0E0F26AE40C5
:100C4000B4430E69AE4026433E6205685E0003244D
:100C5000B4400F79A543BF07BF0FB7402F430760CC
:100C60004D68012D05D0022D03D0112D01D0122D7C
:100C70000ED18568CF68A543B7402F43876047688A
:100C80006546AF430D79ED06ED0F9D403D43456050
:100C9000C568A5438C68B4402C43C4604C68E4002C
:100CA00044D5264CA56901263543A561A4699D0854
:100CB00034400094224CAD002F19BC689D072E0FC4
:100CC0000F25B540AC430925ED06A84201D100250A
:100CD0000AE01C4DA84201D1012505E01A4DA842A9
:100CE00001D1022500E00525B5402543BD60174C24
:100CF00025684E689543F60300D515432560656861
:100D00004E689543B60300D515436560A5684E68E7
:100D10009543F60200D51543A560E5684E689543F6
:100D2000B60200E002E000D51543E5605B1C0A68EE
:100D30001546DA4000D070E7F8BD00000010024010
:100D40000000014000040048000800480004014081
:100D50000069084000D001207047002A01D081615D
:100D600070478162704700000148006870470000CA
:100D70005400002070B5040005D025466035687A1F
:100D8000002802D006E0012070BD00202872204615
:100D900001F070FD2420687220680168490849004C
:100DA0000160204602F044FC0128EDD0606A002872
:100DB00002D0204602F0A2FB206841680922D2023C
:100DC00091434160206881682222914381602068BC
:100DD0008168082211438160206801680122114363
:100DE0000160204602F0F0FB70BD70B50246403253
:100DF0005378202B1CD11378012B19D001231370A9
:100E000024245470046825689D432560046825687F
:100E10001E03B5432560046825680D4325600068FE
:100E2000016819430160202050700020107070BDCF
:100E3000022070BD70B5024640325378202B1BD182
:100E40001378012B18D001241470242353700368E5
:100E50001D68A5431D6005682B680F263602B34345
:100E600009021943296000680168214301602020BC
:100E700050700020107070BD022070BD70B504006D
:100E800006D02546403568780026002802D005E0C7
:100E9000012070BD2E70204600F0B6F92420687045
:100EA000206801684908490001600F21606809064F
:100EB00088432168086121688A680120C003824351
:100EC0008A60E1680129A16808D0212292021143B9
:100ED00022689160E168022902D005E00143F7E74A
:100EE00001212268C902516021684A680F4B1A43E8
:100EF0004A602168CA688243CA6061692069084300
:100F0000A169090208432168C860216AE0690843B1
:100F1000216808602068016801221143016066644D
:100F2000202068702663AE70002070BD0080000233
:100F3000FFB5054604464035687883B0202873D154
:100F40000C98002871D00D9800286ED028780128C0
:100F50006AD001202870FFF707FF074601220090A2
:100F60001923D103204601F0D5FD002876D1222097
:100F700068704020A870002666640C9860620D9826
:100F8000608566630E980090019704A90EC92046FB
:100F900001F044FD002804D0606C2E70042860D05D
:100FA0005CE0618D09208002FF2905D9FF2222859E
:100FB00001231B06009006E0618D21850090208DA5
:100FC0000123C2B25B062046049901F091FD00970F
:100FD0000022042120460E9B01F09CFD00283DD1FB
:100FE0002068416A606A421C62620170208D401E66
:100FF00081B22185608D401E6085002921D1608DE0
:1010000000281ED000970022802120460E9B01F070
:1010100081FD002822D1608DFF2807D9FF2222857B
:1010200001231B06009608E02AE01AE0608D208567
:101030000096208D0123C2B25B062046049901F080
:1010400057FD608D0028C2D13A4620460E9901F026
:1010500085FD002807D0606C042802D0032007B06B
:10106000F0BD0120FBE721682020C86121684A68A3
:10107000044B1A404A606870AE702E700020EEE794
:101080000220ECE700E800FEFFB5054604464035C7
:10109000687883B0202876D10C98002874D00D98F9
:1010A000002871D0287801286DD001202870FFF722
:1010B0005BFE0746012200901923D103204601F070
:1010C00029FD002853D1212068704020A8700026F7
:1010D00066640C9860620D98608566630E98009057
:1010E000019704A90EC9204601F0CDFC002804D0C8
:1010F000606C2E7004286AD039E0608DFF2805D915
:10110000FF22228501231B06009606E0608D2085C4
:101110000096208D0123C2B25B062046049901F09F
:10112000E7FC3A4620460E9901F03FFD002803D027
:10113000606C04284BD01AE0606A411C616221682F
:1011400000788862608D401E6085208D401E0004FE
:10115000000C208524D1608D002821D0009700222A
:10116000802120460E9B01F0D5FC002802D00320F0
:1011700007B0F0BD608DFF2807D9FF22228501232B
:101180001B06009608E024E021E0608D2085009693
:10119000208D0123C2B25B062046049901F0A8FC11
:1011A000608D0028BDD13A4620460E9901F0D6FC4C
:1011B0000028BDD120682021C16120684268064B0B
:1011C0001A4042606970AE702E700020D0E7012096
:1011D000CEE70220CCE7000000E800FE10B5006872
:1011E0000649884209D10648C16901225205914346
:1011F000C16103210348FFF7A9FC10BD0054004062
:10120000001002400014004800B500680D4987B086
:10121000884214D1122101910320012100900291F2
:101220000491039069460848FFF7F4FC0748C26937
:10123000012149050A43C261C0690840059007B011
:1012400000BD00000054004000140048001002409F
:1012500070B504000FD02168134808602168134856
:10126000086003CC41602068083C21688860FFF773
:101270007BFD054608E0012070BDFFF775FD401BB2
:10128000272801D9032070BD2068C0680028F4D148
:1012900020680269E1688A4201D0016101E00449E5
:1012A0000160002070BD0000CCCC0000555500004E
:1012B000AAAA0000006802490160002070470000EF
:1012C000AAAA000002480168491C0160704700009A
:1012D0005400002010B50648016810221143016037
:1012E000002000F007F800F017F8002010BD000003
:1012F0000020024010B5044600F0A2F97D21C9008B
:10130000FEF714FF00F0F6FF00222146501E00F009
:1013100039F8002010BD000008B50F48816901228E
:1013200011438161816911400091C26901040A433E
:10133000C261C0690022084000901146501F00F0B1
:1013400021F800221146901E00F01CF800221146E0
:10135000501E00F017F808BD00100240C106C90E6B
:1013600001208840014908607047000080E100E0EA
:10137000C106C90E0120884001490860704700007D
:1013800000E100E010B501F0C7FD10BD054801689F
:1013900002221143016004480169042211430161E2
:1013A00030BF70470070004000ED00E00A4B1A6843
:1013B0009208920002431A6008480369042213430A
:1013C0000361012906D040BF20BF20BF01699143BE
:1013D0000161704730BFF9E70070004000ED00E0A8
:1013E000F8B5044600683E4DC00352D5E8690026B2
:1013F000C00007D4E96928040143E961E9690140B3
:101400000126009137480168C90510D4016882158A
:1014100011430160FFF7A8FC074604E0FFF7A4FCB6
:10142000C01B642824D82F480068C005F6D5286A58
:1014300003273F02384020D06168394081421CD0E8
:10144000286A2A6AB843012109040A432A622A6ADF
:101450008A432A622862C0070FD0FFF785FC0090FC
:1014600008E0FFF781FC0099411A1F48814201D929
:101470000320F8BD286A8007F3D5286A6168B8435D
:1014800008432862002E04D0E96901200007814347
:10149000E9612078C00705D0286BA168800880002A
:1014A000084328632078800605D5286B10218843DF
:1014B000E168084328632068800305D5286B8021F4
:1014C00088436169084328632088400505D5286B57
:1014D000402188432169084328630020F8BD0000AB
:1014E000001002400070004088130000F8B5054667
:1014F0004E480E460068C007C00FB0420AD24B48A3
:10150000016849084900314301600068C007C00F05
:10151000B04270D12878464C800705D56068F0212C
:101520008843A968084360602878C00753D068687A
:10153000012817D0022818D0032819D0216889075C
:10154000002958DA61688908890001436160FFF762
:101550000BFC69680746012913D002291DD0032915
:1015600027D034E021688903EAE721688901E7E7A9
:10157000616BC903E4E7FFF7F7FBC11B2D4881420C
:1015800023D860680007800F0128F4D123E0FFF71B
:10159000EBFBC11B2748814217D860680007800F0A
:1015A0000228F4D117E0FFF7DFFBC11B214881427D
:1015B0000BD860680007800F0328F4D10BE0FFF719
:1015C000D3FBC11B1B48814201D90320F8BD6068D1
:1015D0000007800FF3D115480168C907C90FB14250
:1015E0000BD9016849084900314301600068C00710
:1015F000C00FB04201D00120F8BD2878400706D5C1
:101600006068072109028843E9680843606000F0C8
:101610002DF86168084A0906090F515CC84007495E
:1016200008600020FFF766FE0020F8BD00200240A1
:101630000010024088130000594F00085800002095
:101640000148006870470000580000200448054920
:1016500000684968044A4905490F515CC840704711
:101660005800002000100240694F000830B516A352
:101670000FCB89B06C460FC417A30FCB0FC41A4908
:101680004A680C20144604401848042C05D0184B16
:10169000082C04D00C2C00D1184609B030BD94029F
:1016A000240F6D462C5DC96A04AD0907090FD203EA
:1016B000695C920F022A02D0032A00D11846FEF775
:1016C00035FD6043E9E70000020304050607080949
:1016D0000A0B0C0D0E0F101001020304050607087B
:1016E000090A0B0C0D0E0F100010024000127A00B8
:1016F000006CDC02FEB504460078F04EF04DC007E9
:1017000048D068680007800F01281FD0686800076C
:10171000800F022804D16868C003800F022815D00A
:101720006168012919D001208004002901D0052910
:1017300017D02968B143296029688143296060680E
:1017400000281BD0FFF710FB074613E02868800332
:1017500020D56068002876D01CE0286830432860D7
:10176000EDE7296801432960F7E7FFF7FDFAC01BA1
:10177000642869D828688003F7D50BE0FFF7F4FAEE
:10178000074604E0FFF7F0FAC01B6428F1D8286888
:101790008003F7D4207880073ED568680007800F63
:1017A00014D068680007800F022804D16868C0035D
:1017B000800F01280AD0E068002828681DD0012188
:1017C00008432860FFF7D0FA07460BE02868800737
:1017D0000BD5E068012836D107E0FFF7C5FAC01B3A
:1017E0000228C6D828688007F7D52868F8218843DA
:1017F0002169C900084328600EE0400840002860C5
:10180000FFF7B2FA074604E0FFF7AEFAC01B022862
:10181000AFD828688007F7D42078000724D5E0697E
:101820000028686A11D0012108436862FFF79CFA1A
:10183000074604E0FFF798FAC01B022899D8686AA7
:101840008007F7D510E036E1D1E04008400068623B
:10185000FFF78AFA074604E0FFF786FAC01B022862
:1018600087D8686A8007F7D42078042740070028C3
:1018700061DA00200190E869C00008D4E969B8067F
:101880000143E961E96901400120009101908D481F
:101890000168C90511D40168821511430160FFF781
:1018A00063FA009005E0FFF75FFA0099401A642898
:1018B00097D884480068C005F5D5A06801280AD0EB
:1018C000002801D0052811D0286A4008400028626D
:1018D000286AB84302E0286A012108432862A06808
:1018E000002812D0FFF740FA00900AE0286A384337
:1018F0002862F0E7FFF738FA0099411A72488142EE
:1019000075D8286A8007F5D50DE0FFF72DFA00900D
:1019100006E0FFF729FA0099411A6B48814266D820
:10192000286A8007F5D40198002804D0E9690120CD
:1019300000078143E9612078C00635D56069012838
:101940000CD0401D686B24D038436863686B400836
:1019500040006863FFF708FA074622E0686B3843E7
:101960006863686B012108436863FFF7FDF9074668
:1019700004E0FFF7F9F9C01B022838D8686B80072C
:10198000F7D5686BF8218843A169C90008436863EB
:101990000AE0B8436863F4E7FFF7E6F9C01B0228E2
:1019A00025D8686B8007F7D42078800637D568681B
:1019B0000007800F032813D068680007800F0228F3
:1019C00004D16868C003800F032809D0206A00286A
:1019D000686B16D030436863FFF7C6F906460CE023
:1019E000686BC0031BD5206A012864D117E05BE057
:1019F000FFF7BAF9801B022856D8686BC003F7D5E9
:101A00000DE0B0436863FFF7AFF9064604E0FFF767
:101A1000ABF9801B022847D8686BC003F7D4606A13
:101A2000002846D069680907890F022943D001269A
:101A300036060228286805D0B0432860FFF794F9DD
:101A4000044633E0B0432860FFF78EF9074604E010
:101A5000FFF78AF9C01B022826D828688001F7D42E
:101A6000E86A216B000900010843E862A16AE06AA4
:101A7000084369687B22D203914308436860286861
:101A800030432860FFF770F9044604E0FFF76CF973
:101A9000001B022808D828688001F7D509E0FFF765
:101AA00063F9001B022801D90320FEBD28688001CC
:101AB000F5D40020FEBD0120FEBD000000000100A5
:101AC00000100240007000408813000010B5114C57
:101AD0000F492069FEF72AFB00290CD10E48FEF7BA
:101AE00059FF01F08BF8A11C0846123002F0A0FA51
:101AF0000948FEF73BFF19212069FEF717FB002973
:101B000002D1A089401CA0812069401C206110BD29
:101B1000701700002C0000208000002010B5044643
:101B200000688168C9040CD5C068C00509D5204685
:101B3000FFF7CCFF2168C86880221040FF38823848
:101B4000C86001200249400448610120607710BD4F
:101B50000004014070B5040003D0607F002802D06B
:101B600006E0012070BD00202077204600F060F8DC
:101B7000022060772168CA204862216853204862A9
:101B8000204601F0FFF9FF250426002824D1206813
:101B900081681C4A114081602168886862686369B5
:101BA000104322691A43104388602168E068086185
:101BB0002068016922891204114301612068C1680B
:101BC00080229143C16020688068800608D4204646
:101BD00000F0B2F9002803D0206845626677C0E7BC
:101BE0002068016C01229204914301642068016C19
:101BF000A2691143016420684562012060770020DA
:101C000070BD0000BFFF8FFF10B500680649884215
:101C100008D10648016A0122D203914301620220E1
:101C2000FFF79CFB10BD00000028004000100240A0
:101C300010B50068084988420DD10848016A0122A0
:101C4000D20311430162002201210220FFF79AFB17
:101C50000220FFF78DFB10BD00280040001002405D
:101C6000F8B50446007F0B4601283ED001202077BE
:101C70000220607720681F46002620378068002AEF
:101C800035D040064AD5187801F069F9387801F066
:101C900066F918789D78000405435878D9780002D1
:101CA0000904084305433878996900060543D86953
:101CB0000543586905435868084300902168CA20C5
:101CC000486221685320486220688268FF21013100
:101CD0008A4382602168C86880221040FF388238B9
:101CE000C860FFF741F8074628E00220F8BD40062B
:101CF00000D4DE70187801F03AF90504587801F044
:101D000036F900020543987801F031F90543D87897
:101D100000040543387801F02AF9C5E7DE70B5E71D
:101D2000FFF722F8C11B7D20C000814206D921683F
:101D3000FF204862032060772677F8BD2068C068DE
:101D4000C007EDD02068C56121680098486420680C
:101D50008268FF2101310A43826020688168012284
:101D600012031143816008480268012149040A43B3
:101D7000026082680A4382602168FF204862012075
:101D8000607726770020F8BD00040140F8B50446CE
:101D9000007F0B46012815D00120207702206077B4
:101DA0005878002A10D001F0DAF8987801F0D7F8C6
:101DB000D8789D78000405435878197800024903C3
:101DC000084316E00220F8BDC10603D5EF21084004
:101DD0000A305870D87801F0CAF80504587801F034
:101DE000C6F800020543987801F0C1F80543187859
:101DF000400305432168CA20486221685320486295
:101E0000204601F0BFF80026FF27002811D1104816
:101E10000540206845602068C16880229143C16008
:101E20002068806880060BD4204600F085F80028E2
:101E300006D0206847620420607726770120F8BD2D
:101E4000206847620120607726770020F8BD0000F7
:101E50003FFFFF00F8B50446007F0D4601280ED075
:101E60000120207702206077206800278068002A00
:101E700007D0400618D5287801F071F815E0022047
:101E8000F8BD400600D4EF70287801F070F8060421
:101E9000687801F06CF800020643A87801F067F852
:101EA0000643E878000409E0EF702878AE78000473
:101EB00006436878E978000209040843064321686C
:101EC000CA204862216853204862204601F05AF82F
:101ED00000281ED1174806402068066020688168E7
:101EE00001229204914381602969E86808432168CE
:101EF0008A68104388602068C16880229143C1606D
:101F00002068806880060CD4204600F015F8002870
:101F100007D02168FF2048620420607727770120DE
:101F2000F8BD2168FF2048620120607727770020F4
:101F3000F8BD00007F7F7F0070B504460068C1686F
:101F4000A0229143C160FEF70FFF7D260546F600F3
:101F500006E0FEF709FF401BB04201D9032070BD27
:101F60002068C0688006F4D5002070BDF8B5040074
:101F700007D0002625464035A662687F002802D09B
:101F800005E00120F8BD2E77204600F05FF802231F
:101F90006B77206801684022914301600721E06867
:101FA0000902884201D9002201E0012212030F2711
:101FB0003F02B84202D0884200D0A662276B002FB1
:101FC00005D1884201D9236301E001202063A16883
:101FD0006068636908432169194308430123A169C3
:101FE0005B0219400843E1690843216A0843A16A7A
:101FF000084321680860616B606AA36908431B0C91
:102000000427E1683B4019430843216810434860B6
:102010002068C1697A029143C16126660120687710
:102020000020F8BD10B500680649884209D106486D
:1020300081698214914381610920E021C006FEF785
:1020400085FD10BD003001400010024000B5006861
:102050000D4987B0884215D10C48826981140A4322
:102060008261806908400590E02000900220019084
:102070000021032003900291049109206946C006C3
:10208000FEF7C8FD07B000BD00300140001002405F
:10209000FFB5044683B00120254640350090287FD7
:1020A00000270E4601280FD001202877FEF75CFE9E
:1020B0000190687F616801280DD0CA1FFD3A08D1E0
:1020C000A168002905D102E0022007B0F0BD042874
:1020D00001D00227FAE0002E7CD005980028FBD022
:1020E00006980028F8D0687F042801D0052068777A
:1020F00000202066059921640699E9800699A98047
:10210000A6630699E1870699A187E0642065072305
:10211000E1681B02994202D8E888012806D92068A4
:102120004268012109038A43426005E02068416852
:10213000012212031143416020680168490603D45B
:102140000168402211430160E1686068994242D908
:10215000002802D0E08F012835D121683088C8607E
:10216000E08F401EE087B61C2DE0009800280ED0BE
:10217000E08F00280BD020688168890707D5318857
:10218000C160E08F401EE0870020B61C0090E88808
:1021900000280ED020688168C9070AD0C068059958
:1021A00008800598801C0590E888401EE880012082
:1021B00000900C98401C06D0FEF7D6FD0199411AFC
:1021C0000C9881426DD2E08F0028CED1E88800289B
:1021D000CBD16EE079E0002802D0E08F012862D1F7
:1021E000E08F012807D921683088C860E08F801E01
:1021F000E087B61C57E0216830780873E08F401EF6
:10220000E087761C4FE00098002818D0E08F002867
:1022100015D020688168890711D5E18F012906D979
:102220003188C160E08F801EE087B61C05E0317800
:102230000173E08F401EE087761C00200090E88844
:10224000002824D020688168C90720D0E9880129A6
:1022500012D9C068059908800598801C0590E88807
:10226000801EE880E88801280FD820684168012294
:1022700012031143416008E0017B05980170059845
:10228000401C0590E888401EE880012000900C98D2
:10229000401C08D0FEF768FD0199401A0C9988424D
:1022A00001D3032712E0E08F0028ACD1E888002892
:1022B000A9D12046019A0C9900F088FE002801D08F
:1022C00020202066206E002800D00127012068779A
:1022D000002028773846F8E60422044904280869D3
:1022E00002D09043086170471043FBE700E000E034
:1022F00070470000094910B5401E884201D90120ED
:1023000010BD074C60610321081F00F005FE00208E
:10231000A06107202061002010BD0000FFFFFF002A
:1023200000E000E010B5FFF7E3FF10BD7047704715
:1023300070B502462032137F012B1BD00123137787
:1023400002245477046865687026B54365600468A4
:1023500065680E68354365600468A5688026B543E6
:10236000A5600068846849680C4384605377002046
:10237000107770BD022070BD70B5040005D02546F1
:102380002035687F002802D006E0012070BD0020C3
:102390002877204600F026F802206877211D206863
:1023A00000F046FF01206877002070BD10B50122C3
:1023B000016892070948914204D1C169490849005E
:1023C000C16110BD064A9142FBD18169012292048C
:1023D000914381611620FEF7C1FF10BD001002403D
:1023E0000048014008B50122016892070F48914258
:1023F00007D1C16901221143C161C0691040009039
:1024000008BD0B4A9142FBD18269012189040A432C
:102410008261806900220840009011461620FEF774
:10242000B1FF1620FEF7A4FF08BD00000010024017
:10243000004801400222014620314A7702681368B1
:102440000120034313604877002070470268D36877
:1024500001210B43D360006802680A430260002038
:102460007047F8B5054604462035287F012817D067
:1024700001272F7702206877226890687726FF234C
:10248000B0431B02984390600868502837D00EDC98
:10249000202857D006DC00284ED0102840D14EE02E
:1024A0000220F8BD302850D0402839D13CE06028C7
:1024B0002DD0702817D001221203801A0ED090421E
:1024C0002ED1CB684A688968206800F0FEFE20683B
:1024D0008168012292031143816021E020688168B4
:1024E000C908C900F8E7CB684A688968206800F025
:1024F000ECFE21688868B0433043886010E0CA6809
:102500004968206800F0D6FF5021206806E0CA68BC
:102510004968206800F0DFFF6021206800F0E0FEDD
:102520006F7700202877F8BDCA684968206800F0F6
:10253000C1FF40212068F1E700212068EEE710216B
:102540002068EBE720212068E8E730212068E5E7F4
:10255000704770B50446006801690025C9438907C2
:10256000002915DBC168C943890711D4E91E01613F
:1025700001202077206880698007204602D0FFF77D
:10258000E7FF04E000F0ACF8204600F02DF92577D5
:1025900020680169C943490717D4C168C94349077D
:1025A00013D40421C9430161022020772068806987
:1025B0008005800F204602D0FFF7CAFF04E000F03C
:1025C0008FF8204600F010F9257720680169C9438B
:1025D000090716D4C168C943090712D40821C943A1
:1025E0000161042020772068C0698007204602D05E
:1025F000FFF7AEFF04E000F073F8204600F0F4F8B7
:10260000257720680169C943C90617D4C168C94341
:10261000C90613D41021C94301610820207720681E
:10262000C0698005800F204602D0FFF791FF04E0CB
:1026300000F056F8204600F0D7F8257720680169A9
:10264000C943C90708D1C168C943C90704D1891E54
:102650000161204600F0ECF820680169C9430906D1
:1026600009D4C168C943090605D48021C943016161
:102670002046FFF75BFE20680169C943490609D47B
:10268000C168C943490605D44021C94301612046B8
:1026900000F0D8F820680169C943890609D4C168E7
:1026A000C943890605D42021C94301612046FFF7AB
:1026B0003EFE70BD00B500680121890785B08842E3
:1026C0000CD108200090002002210290039001917B
:1026D000049109206946C006FEF79CFA05B000BDCA
:1026E0007047F8B5064604462036307F0D4601286F
:1026F0000DD001203077022070770427002A08D0FF
:10270000042A16D0082A2AD00C2A4DD137E00220FC
:10271000F8BD206800F0ECFD2068816908221143B3
:10272000816120688169B9438161206881692A6972
:1027300012E0206800F018FE206882690121C902B9
:102740000A4382612068816901229202914381617A
:10275000206881692A6912021143816124E020689E
:1027600000F03CFE2068C26908210A43C26120686B
:10277000C169B943C1612068C1692A6912E0206852
:1027800000F068FE2068C1690122D2021143C161D4
:102790002068C269012189028A43C2612068C16937
:1027A0002A6912021143C16101207077002030773D
:1027B000F8BD70B5040005D025462035687F002897
:1027C00002D006E0012070BD00202877204600F0EE
:1027D0000AF802206877211D206800F029FD0120F9
:1027E0006877002070BD70477047000010B5044640
:1027F0000068012200F05EFD0A482168814205D090
:102800000948814202D00948814204D1486C012222
:10281000D20310434864206801680122114301601B
:10282000002010BD002C0140004401400048014040
:1028300010B500680249884201D101F07FFB10BD4C
:10284000004801407047000010B500680749884201
:102850000AD10748C169012252049143C16109208C
:102860000421C006FEF772F910BD000000440040CC
:102870000010024000B500680E4987B0884216D1AA
:102880000D48C269012149040A43C261C069084078
:102890000590042000901220019001210320039054
:1028A0000291049109206946C006FEF7B3F907B00A
:1028B00000BD00000044004000100240FFB5064685
:1028C00004466036707A83B00D46202858D1002D1A
:1028D0000CD00598002809D00120A168000381428E
:1028E00007D12069002804D1E80702D0012007B0F1
:1028F000F0BD307A012843D0012030720020E0661C
:1029000021207072FEF730FA019027464037059873
:1029100038820598788218E0788A401E7882069876
:102920000090002280212046019B00F019FF002822
:1029300018D10120A1680003814202D1206900283A
:1029400012D02168287808856D1C788A0028E3D188
:1029500006980090002240212046019B00F000FFD5
:10296000002808D00320C2E728882168C005C00DD0
:102970000885AD1CE9E72020707200203072B6E7B0
:102980000220B4E7FEE701688A69D243920701D4C6
:1029900000228A6200688169C943C90703D081693E
:1029A0000122114381617047F7B5044600680E4665
:1029B0008069C043C0062CD42027254640352068B6
:1029C0008069C04380060FD5701CF8D0002E05D05A
:1029D000FEF7CAF90299401AB042F0D96F70002090
:1029E000A87028700320FEBD21681020C8612068EF
:1029F000C7612046FFF7C7FF20684168064A1140BB
:102A00004160042060646F700020A870287001206D
:102A1000FEBD0020FEBD000000E800FEF8B5044643
:102A20000120164640031D46DAB20090079F00239E
:102A3000204600F05DF83A462046069900F0B5F8C9
:102A4000002803D0606C04281BD018E02846F5B29B
:102A5000012809D02168300A88623A462046069942
:102A600000F0A3F80028EDD12068856200970022CD
:102A700040212046069B00F04DF8002800D003209E
:102A8000F8BD0120F8BDF8B5044601201646400304
:102A90001D46DAB2C3020090079F204600F028F8D6
:102AA0003A462046069900F080F8002803D0606C72
:102AB00004281BD018E02846F5B2012809D0216867
:102AC000300A88623A462046069900F06EF80028DF
:102AD000EDD1206885620097002280212046069B68
:102AE00000F018F8002800D00320F8BD0120F8BD40
:102AF00070B50568049C68688905890D1204044E48
:102B000011431943304021430143696070BD000007
:102B1000009800FCF8B51C4617460E46054611E025
:102B2000601C0FD0002C05D0FEF71EF90699401A44
:102B3000A04207D92020403568700020A870287076
:102B40000320F8BD286881693046884304D00020FE
:102B5000B842E5D00020F8BD0120F9E770B516466F
:102B60000D4604461AE0324629462046FFF71CFF70
:102B7000002801D0012070BD002D04D0FEF7F4F82C
:102B8000801BA8420AD9616C202001436164403453
:102B900060700020A0702070032070BD20688069E4
:102BA000C0438006DFD4002070BD70B516460D46C8
:102BB00004461CE0324629462046FFF7F5FE002871
:102BC00001D0012070BD681C11D0002D04D0FEF78B
:102BD000CBF8801BA8420AD9616C202001436164B4
:102BE000403460700020A0702070032070BD206809
:102BF0008069C0438007DDD4002070BD3EB51A480F
:102C000018490160002141600124102204618260A2
:102C1000C1608161C1610822046242614162FF2298
:102C2000C162C232446382620163FDF7E5FD0028A0
:102C300000D0FEE7012000030190062002900094DE
:102C400069460948FDF73EFD002800D0FEE7112047
:102C5000009069460448FDF735FD002800D0FEE7E6
:102C60003EBD00000024014080000020F0B529484E
:102C700087B04269012189040A43426142690A40DE
:102C80000592426909010A43426142690A4005927C
:102C9000426949110A4342614069092608400122FC
:102CA000F606059011463046FEF757F8002210212F
:102CB0003046FEF752F8184F012202213846FEF73F
:102CC0004CF8FF20013000240090019469460294E2
:102CD0003846FDF79FFF11200125019002946946B7
:102CE000009503943046FDF795FF10200090029464
:102CF0006946019503943046FDF78CFF0220009051
:102D000002946946019503943846FDF783FF07B0A6
:102D1000F0BD0000001002400004004810B5124849
:102D200010490160114941600021816001614161E8
:102D300081610122C161C2600162FEF79FF8002833
:102D400000D0FEE700210848FEF74FF8002800D029
:102D5000FEE700210448FEF76DF8002800D0FEE7EA
:102D600010BD000000540040CC0000200E090020DF
:102D700030B52449244891B0002412C044608460D6
:102D8000C4607D21046101600838FEF7E3FE00287D
:102D900000D0FEE7684604704470847003940122FA
:102DA000694619480494FFF755F8002800D0FEE75B
:102DB00001256846057545758575C4752A4605A9BA
:102DC0001148FEF7E3FF002800D0FEE768460476CE
:102DD0004476052181760D4807940B9009940A9456
:102DE0000C940D9408A80576FF2001300F90012265
:102DF00006A90548FEF734FF002800D0FEE711B011
:102E000030BD0000002800402801002000808080A4
:102E100010B510480E490160FF21053141600021C5
:102E20000722816012020161C260012241615202E7
:102E3000826101624162082281620723C261C3622A
:102E400042630163FFF792F8002800D0FEE710BD4F
:102E5000003001404801002010B501211E488EB00D
:102E600089070160FF210024903184604160046182
:102E7000FF218461C160FFF77FFA002800D0FEE7E0
:102E800001200003079007A91348FFF7EAFA00287A
:102E900000D0FEE71048FFF78CFC002800D0FEE7CA
:102EA0000B940BA90C480C94FFF742FA002800D0B1
:102EB000FEE760200090019402940C22694604947D
:102EC0000548FFF70EFC002800D0FEE70248FFF798
:102ED000F1FB0EB010BD0000AC01002010B50C4895
:102EE0000A490160E1214902416000218160C1601D
:102EF00001618161C1610822016242614162FDF7A5
:102F000039FF002800D0FEE710BD0000004400405B
:102F10002C020020704700008307FF22DB0E9A403E
:102F20008907090E994000280BDA0007000F0838BE
:102F3000830808489B001818C36993430B43C36177
:102F40007047830804489B001B1818689043084387
:102F50001860704700ED00E000E400E070470109F0
:102F60000A2200075143000F4018C0B270470021E9
:102F700002E00A38C0B2491C0A28FAD20907090E31
:102F80000843704770B504460068C168490613D409
:102F90000021C943C160FDF7E7FE7D260546F60026
:102FA00006E0FDF7E1FE401BB04201D9032070BDF1
:102FB0002068C0684006F4D5002070BD10B50248F6
:102FC000FEF7ACFD10BD000028010020F8B50F464B
:102FD0000B4615460092032104460022C90200F068
:102FE0001BF82026002812D13B46002280212046D3
:102FF000009500F05CF8002809D103213B4600222F
:1030000049022046009500F007F8002803D0206E02
:10301000304320660320F8BDF8B51D4617460E461E
:1030200004463DE0032149028E4205D1002F03D121
:10303000017B684601700078681C31D0002D05D0F6
:10304000FDF792FE0699401AA84229D320684168EC
:10305000E022914341606068C11FFD390CD101211C
:10306000A068C903884202D04911884204D120686F
:1030700001684022914301600120A16A400381421E
:1030800007D121680A6882430A6021680A680243FE
:103090000A60012040346077002020770320F8BDCB
:1030A000206881683140B942BCD10020F8BDF8B534
:1030B0001D4617460E46044633E0681C31D0002DED
:1030C00005D0FDF751FE0699401AA84229D3206881
:1030D0004168E022914341606068C11FFD390CD115
:1030E0000121A068C903884202D04911884204D155
:1030F000206801684022914301600120A16A4003D9
:10310000814207D121680A6882430A6021680A68FF
:1031100002430A60012040346077002020770320BA
:10312000F8BD206881683046884304D00020B8424A
:10313000C3D10020F8BD0120F9E7704710B5FEF7B4
:10314000C1F8FFF7EFF810BD10B598B01A20009045
:103150000120102103900491059000240790099408
:1031600006916846FEF7C6FA002800D0FEE7072061
:103170000D900E940F94002110940DA8FEF7B6F94F
:10318000002800D0FEE70E481190C0111290149450
:1031900011A8FEF725F9002800D0FEE7FEF750FA47
:1031A0007D21C900FCF7C2FFFFF7A4F80420FFF758
:1031B00093F800221146501EFEF7E4F818B010BD37
:1031C0002000010013480168012211430160416899
:1031D000114A114041600168104A114001600168C4
:1031E000012292049143016041683F2212049143FD
:1031F0004160C16A09090901C162016BFF22D43231
:1032000091430163416B490849004163002181609A
:1032100070470000001002400CB8FF08FFFFF6FEE8
:1032200010B50248FFF795F910BD0000EC01002031
:10323000F0B502681A4B0124A4071A4D984203D036
:10324000A04201D0A84203D17026B2434E68324357
:10325000154E164F98420AD0A04208D0A84206D078
:10326000134CA04203D0B04201D0B84204D1032491
:103270002402A243CC6822438024A2434C69224307
:1032800002608A68C2620A688262984203D0B042D1
:1032900001D0B84201D10969016301214161F0BD4A
:1032A000002C01400004004000440140004801405F
:1032B0000020004010B50123046A8B409C43046247
:1032C000036A8A401343036210BD30B58468FF254A
:1032D0002D021B021343AC430B432343836030BDD9
:1032E000826870239A430A4307210A438260704729
:1032F000F0B5026A520852000262056A43688269A8
:103300007024A24392080C68920014430222954351
:103310008A68134E2A43114DA84204D0B04202D00D
:10332000104FB84206D10827BA43CF68174304228A
:1033300097433A46A84204D0B04202D0094DA84271
:1033400006D103252D02AB434D691D438B692B43E9
:1033500043608461496841630262F0BD002C014012
:10336000004401400048014070B5026A10239A43AE
:103370000262046A4368826973252D02AA430D68BC
:103380002D021543202294438A6812012243104CD7
:10339000A04208D11446CA688026B44312012243D1
:1033A0004024A24305E00B4CA04202D00A4CA042AC
:1033B00008D10324A402A3434C69A4001C438B69D5
:1033C0009B0023434360856149688163026270BD4D
:1033D000002C0140004401400048014070B5026AE1
:1033E000FF2301339A430262046A4368C26970256D
:1033F000AA4392080D689200154301225202944399
:103400008A6812022243104CA04207D1C414A2437E
:10341000CC68240222430615B24305E00B4CA042BF
:1034200002D00B4CA04208D103242403A3434C69CF
:1034300024011C438B691B0123434360C561496818
:10344000C163026270BD0000002C014000440140D5
:103450000048014030B5026A01231B039A4302620F
:10346000056A4268C36973242402A3430C682402DA
:103470001C4301235B039D438B681B032B430A4DB5
:10348000A84205D0094DA84202D0094DA84205D155
:103490000125AD03AA434D69AD012A434260C461D1
:1034A00049680164036230BD002C014000440140C2
:1034B0000048014030B5036A046A6408640004628D
:1034C0008469F025AC43120122430A24A3430B4331
:1034D0008261036230BD30B5036A1024A3430362E6
:1034E0008469036A0F252D031203AC432243A024F1
:1034F000A343090119438261016230BD10B5818C7B
:10350000C90707D001684A6801235B049A43836AAC
:103510001A434A60818C890707D501684A680123EC
:103520001B049A43C36A1A434A60818C490707D532
:1035300001684A6801239B049A43036B1A434A605B
:10354000818C090707D501684A680123DB039A4388
:10355000436B1A434A60818CC90607D5026891689B
:1035600001231B039943836B19439160818C890666
:1035700007D501688A6801235B039A43C36B1A432A
:103580008A60818C490612D503685A6801210905B1
:10359000046C8A4322435A60026C8A4207D1026853
:1035A000516803235B059943436C19435160818C37
:1035B000090607D501684A680123DB04806C9A4339
:1035C00002434A6010BD0000F8B500260446C666F6
:1035D000FDF7CAFB05461449206888421DD10068E2
:1035E000124F000709D501212B460022490520462C
:1035F000009700F0B5F800280DD12068006840075A
:103600000BD501212B46002289052046009700F0AA
:10361000A7F8002801D00320F8BD20206034607294
:10362000A07226720020F8BD00380140FFFFFF01A4
:10363000F8B504462369A268E5691A436369102056
:103640002B43002125681A432B680E463E4F3B4012
:1036500013432B6023685A6803252D03AA43E568AA
:103660002A435A60236AA26925681A43AB680B276C
:103670003F02BB431343AB60344A2568954210D1E7
:10368000334A126B9207920F0ED0012A05D0022AFC
:1036900005D0032A09D1022007E0042005E0082014
:1036A00003E02C4A954200D100200122E369D203B5
:1036B000934224D100280CD002280DD0042813D026
:1036C000082817D001260A0912010807400F1043E5
:1036D0002FE0FDF7BBFF09E061681F4A480880182A
:1036E000FCF724FD81B2EEE7FDF7C0FF6168400002
:1036F0004A08F4E76168012248081204EFE700284D
:1037000008D0022809D004280BD0082814D001269C
:103710003046F8BDFDF79AFF05E061680F4A48089A
:103720000CE0FDF7A3FF61684A088018FCF7FEFC77
:1037300080B22168C860EBE7616848088018FCF730
:10374000F5FC80B2E860E3E7F369FFEF0038014081
:1037500000100240004400400024F40000127A00EF
:10376000FFB581B017460E4604460A9D1DE0681C51
:103770001BD0002D05D0FDF7F7FA0499401AA84296
:1037800013D920680168FF22A132914301602068AB
:103790008168490849008160202060346072A0720D
:1037A00000202072032005B0F0BD2068C1693046BA
:1037B000884304D00020B842D9D00020F3E701208C
:1037C000F9E70000F0B585B0892001F0FFF9012488
:1037D00020430146892001F073FB0021882001F07D
:1037E0006FFB0121802001F06BFB0121FF2001F024
:1037F00067FB0021084601F063FB912001F0E6F928
:10380000EF4988700121002001F05AFB0021FF20C0
:1038100001F056FB0021802001F052FB602001F0F6
:10382000D5F912210143602001F04AFB7D20C0053B
:1038300001F082FAFF21012001F042FB03A902A856
:1038400000F04EFD00287DD006226946B02001F030
:1038500041F90121FF2001F033FB00214F2001F04D
:103860002FFB2C214E2001F02BFB0021FF2001F02B
:1038700027FBB421B62001F023FB6846007B00281B
:1038800001D00C2500E000256A46127A00219446FA
:1038900008466A46A84201D3614508D1C4084707D3
:1038A000165D7F0F0123BB409E43165508E0C308F9
:1038B000D35C4407640FE340DB0701D0491CC9B265
:1038C000401CC0B23028E5D306226946B02001F082
:1038D000E5FA0121FF2001F0F3FA0021084601F08A
:1038E000EFFA0021FF2001F0EBFA0021092001F09E
:1038F000E7FA0021102001F0E3FA0021112001F085
:10390000DFFA0121242001F0DBFAFF21252001F05C
:10391000D7FA0021752001F0D3FA0121FF2001F030
:10392000CFFA2C214E2001F0CBFA0021482001F0E3
:10393000C7FA2021302001F0C3FA0021FF2001F056
:10394000BFFA00E039E10921302001F0B9FA002185
:10395000542001F0B5FA0421312001F0B1FA03211D
:10396000322001F0ADFA8321402001F0A9FA25218F
:10397000462001F0A5FA0021602001F0A1FA002103
:10398000272001F09DFA0621502001F099FA00212C
:10399000512001F095FA9621522001F091FA082168
:1039A000562001F08DFA3021572001F089FA0021CC
:1039B000612001F085FA0021622001F081FA0021E6
:1039C000642001F07DFA0021652001F079FAA02140
:1039D000662001F075FA0121FF2001F071FA322111
:1039E000222001F06DFA1421472001F069FAFF212D
:1039F000492001F065FA00214A2001F061FA002116
:103A0000FF2001F05DFA0A217A2001F059FA002125
:103A10007B2001F055FA2121782001F051FA012193
:103A2000FF2001F04DFA3421232001F049FA002152
:103A3000422001F045FAFF21442001F041FA2621FD
:103A4000452001F03DFA0521462001F039FA4021D8
:103A5000084601F035FA06210E2001F031FA1A214C
:103A6000202001F02DFA4021432001F029FA002105
:103A7000FF2001F025FA0321342001F021FA44212E
:103A8000352001F01DFA0121FF2001F019FA04216F
:103A9000312001F015FA09214B2001F011FA05211E
:103AA0004C2001F00DFA04214D2001F009FA00210B
:103AB000FF2001F005FA0021442001F001FA202145
:103AC000452001F0FDF90821472001F0F9F92821EE
:103AD000482001F0F5F90021672001F0F1F90421F7
:103AE000702001F0EDF90121712001F0E9F9FE21CA
:103AF000722001F0E5F90021762001F0E1F90021C2
:103B0000772001F0DDF90121FF2001F0D9F9012131
:103B10000D2001F0D5F90021FF2001F0D1F901219C
:103B2000802001F0CDF9F821012001F0C9F901212F
:103B3000FF2001F0C5F901218E2001F0C1F901211A
:103B4000002001F0BDF90021FF2001F0B9F90021AA
:103B5000802001F0B5F904210A2001F0B1F9842098
:103B600001F034F8EF210140842001F0A9F901218E
:103B70000B2001F0A5F900F02DFB114CE821A0600D
:103B8000012001F09DF9A06801F078F801210846B4
:103B900001F096F9402000F073FF00280DD00221BB
:103BA000012001F08DF9002000F06AFF002804D008
:103BB000E821012001F084F9012005B0F0BD0000EA
:103BC000000000200FB410B503A9044B044A02986A
:103BD00000F02EF810BC08BC04B01847BD41000826
:103BE0005C0000202021020C01D010211046020AA6
:103BF00001D010460839020901D01046091F820879
:103C000001D01046891E420801D0881E7047081A4C
:103C1000704702E008C8121F08C1002AFAD1704795
:103C20007047002001E001C1121F002AFBD170473C
:103C3000FFB58FB00F460446002606E025280AD0BF
:103C4000129A11999047641C761C20780028F5D1AF
:103C5000304613B0F0BD00250121A14A009500E0D7
:103C60000543641C23780846203B98401042F7D156
:103C700020782E2815D1042005436078641C2A285A
:103C80000AD101CF641C00900BE000990A22514335
:103C900030394018641C00902078014630390929D9
:103CA000F3D920786C280ED004DC4C2813D06A2875
:103CB00012D104E074280ED07A280DD10BE0012037
:103CC0004005054307E00121090562780D43824262
:103CD00001D16D18641C641C2078864669284AD07E
:103CE00008DC0028B4D058286DD0632810D0642890
:103CF00008D140E070286BD0732812D0752860D0AE
:103D0000782860D0129A704611999047761CE5E0A9
:103D10003878694608720020487202A80190012094
:103D200003E0386801900020C0433F1D69070CD5AF
:103D3000002500E06D1C00998D420FDA8542F9DB09
:103D40000199495D0029F5D108E0002500E06D1CCE
:103D50008542FCDB0199495D0029F8D1761907E01D
:103D6000019801990078491C0191129A1199904784
:103D70006D1EF5D2B2E00A20029000216802400FC9
:103D8000039102280CD001CFC117844600290DDA17
:103D90006246084652420021814194462D2008E0A7
:103DA000FF1DFF08FF0003CF8446EFE7280504D579
:103DB0002B206A46107401203CE0E8073AD020200E
:103DC000F7E70A2000E0102000210391029007E0AD
:103DD0001020029000210420054308200391009048
:103DE0006802400F022810D001CF00218446002035
:103DF0000D9028071FD5704670280CD0029A10200D
:103E0000039B42401A430CD015E0FF1DFF08FF0042
:103E100003CF8446EBE740206A46107401200D90E2
:103E20000CE06046084306D030206A4610747046A5
:103E3000507402200D907046582804D029A001909B
:103E40000DA80E900DE02CA0F9E76046039B029AA6
:103E5000FCF7E8FA019B84469B5C0E9A521E0E9278
:103E6000137060460843F0D10E9805A9081A203057
:103E70000190680701D5009801E0012000900199A8
:103E8000884203DD01460198081A00E00020002561
:103E9000009006E004A8129A405D119990476D1CAD
:103EA000761C0D988542F5DB04E0129A30201199BA
:103EB0009047761C0099481E00900029F5DC08E028
:103EC0000E980E990078491C0E91129A11999047FC
:103ED000761C0199481E01900029F1DC641CB4E6AF
:103EE00009280100303132333435363738396162D0
:103EF0006364656600000000303132333435363794
:103F000038394142434445460000000010B50A4C90
:103F100060600846A160FEF78DFAA068FEF749FCD4
:103F20000C21A068FEF762FC6068FEF78FFA0020A3
:103F3000E060207010BD00001400002010B5104992
:103F40000F4AC868401CC86009789468012905D0E8
:103F5000022905D003290BD0002006E0FF2004E051
:103F60003321FCF7E3F8074807E02168086410BD37
:103F70000A21FCF7DBF803483330405CF5E700002A
:103F8000140000201C4F0008F3B5019F00257F1E80
:103F900015E001980024461B761E0CE00099600095
:103FA000009A095A80184288914202D9811C00F077
:103FB000F5FE641CA4B2A642F0DC6D1CADB2BD429D
:103FC000E7DBFCBD054B9B8D0370D42343700B0ACC
:103FD0008370C170110A01714271704780F7FF1F31
:103FE000054B9B8D0370B22343700B0A8370C17025
:103FF000110A01714271704780F7FF1F10B50B4A1B
:10400000034614780020002C0BD0012C08D1002B83
:1040100006D1107052680120891A082900D902209F
:1040200010BD012BFCD11370516010BD2400002085
:10403000F3B5044681B03D48FCF72CFD64213B48B4
:10404000FCF7C8FC3948FCF7D3FBC7B264213748FA
:10405000FCF7C0FC3548FCF7CBFBC6B23348FCF795
:1040600047FD3846FCF79EF9054630460091FCF7BF
:1040700099F902460B4600202D49FCF705F92A461E
:10408000009BFCF799F80122FCF776F9FCF7ACF9F4
:1040900020600298012101703246394625A023682C
:1040A000FFF790FD2A49206888423DD829A0FFF7F4
:1040B00089FD032000F06AFE2548FA38FCF737FD39
:1040C000002000F063FE00F01FFC09240122E4063A
:1040D00011462046FCF741FE002210212046FCF745
:1040E0003CFE012202212348FCF737FE002460B287
:1040F000FDF734F9641C1F2CF9DD0C48FCF736FC85
:104100001D48FDF76BF81D48FDF77EFD1C48FDF7C7
:1041100089FF1C48FEF74AF91B48FEF747F91B4880
:10412000FEF792FBFDF732F9FEBD00008000002093
:1041300000C092406368313A2025642C20636832C5
:104140003A2025642C20766261743A2025640A00A6
:10415000B20C00006C6F7720626174746572792C08
:10416000207368757474696E6720646F776E2E2E85
:104170002E0A000000040048CC0000202801002086
:1041800048010020AC010020EC0100202C0200209E
:10419000C1B2000A8140491C88B270470021002842
:1041A0000AD0401E02E04008491C89B2020AFAD136
:1041B0000902C0B2014388B27047000013B50A2358
:1041C000012269460248FEF779FB00981CBD0000F9
:1041D0002C02002070B588B0A525AD00194E1A4CF0
:1041E000684600F039F802A9684600F049F86846C8
:1041F0000078002802D01549059844186846807850
:10420000002804D0059812494000001905E06846CE
:104210004078002802D00598611944186846C07893
:10422000002802D0069861194418684600790028D1
:1042300002D00798A119441806488460204608B0A7
:1042400070BD000026020000360B0000840D000047
:10425000640500000000002010B50446012000F0B5
:10426000B5FCC106C90F21700107C90FA170410734
:10427000C90F61704106C90FE170C009207110BDFE
:1042800070B505460C46002000F0A0F820804620BE
:1042900000F09CFC401CA080217800F085FDE060CF
:1042A000512000F0A9FCFFF773FFE080217800F0B7
:1042B0007BFD2061012000F089F86080712000F012
:1042C0009BFCFFF765FF2081E978002902D0E18897
:1042D000401A2081A178208900F066FD606170BDE0
:1042E00070B50D4606460121802000F0E9FD012150
:1042F000FF2000F0E5FD0021084600F0E1FD062169
:10430000FF2000F0DDFD832000F060FC042101436C
:10431000832000F0D5FD0721FF2000F0D1FD012111
:10432000812000F0CDFD0121802000F0C9FD6B212E
:10433000942000F0C5FD0021832000F0C1FDFCF7B2
:1043400013FD214CE0800CE0A088002809D0FCF788
:104350000BFDE18880B2401AA188884201DD00206F
:1043600070BD832000F032FC0028EDD001218320B5
:1043700000F0A6FD922000F029FC4106490E3170A4
:10438000C00928700021812000F09AFD0621FF203D
:1043900000F096FD832000F019FCFB2101408320F2
:1043A00000F08EFD0121FF2000F08AFD0121002098
:1043B00000F086FD0021FF2000F082FD002180201A
:1043C00000F07EFD012070BD0000002010B5002827
:1043D00003D0012803D0FF2010BD502000E0702042
:1043E00000F0F4FB401C4006000E10BD70B5244CDC
:1043F0000026354600F0A8FB690060522148FCF712
:1044000059FF6420FCF793FB6D1C102DF2DB10218B
:104410001B48FFF7B9FD03204100615A401C8E196B
:104420000D28F9DB0A213046FBF780FE0546002205
:1044300003204100615A401C491B49438A180D283A
:10444000F7DB0A211046FBF771FEFF222D320146F1
:10445000904205D829460CA0FFF7B4FBA8B270BD66
:104460000CA0FFF7AFFB03256800215A17A0FFF748
:10447000A9FB6D1C0D2DF7DB05A0FFF7A3FBB7E72C
:1044800060000020180100206D65616E3A202564EF
:104490000A00000063616C6962726174696F6E206A
:1044A0006661696C6564202D2076617269616E6356
:1044B0006520746F6F206C617267653A2025642CEB
:1044C0002073616D706C65733A0A000025642000EA
:1044D00010B5FBF767FF044A044BFBF76DFEFBF7D3
:1044E00083FF80B210BD00001D5A643BDF4FD53FF3
:1044F00070B50546084600F049FCFCF735FC04465B
:1045000002E00448FCF7D6FEFCF72EFC001BA84294
:10451000F7D970BD18010020FCF7DCFEFEF714FE91
:10452000FEF7A4FBFEF7DAFCFEF7F8FBFEF770FCE3
:10453000FEF792FC7A4879490160002507218560E1
:1045400041600561456177498561C160FDF714FFF0
:10455000002800D0FEE7FEF751FB73A0FFF732FB07
:104560006F496F484039FFF7D1FC022000F00EFC84
:104570007D200001FCF7DBFA744908461230FFF792
:1045800057FD7348FCF7F2F97148724998300160A1
:10459000032141607049C1608160FCF759FE002829
:1045A00000D0FEE7FFF70EF9FF206C49F5300880D8
:1045B0006B4800F063FB09240122E4061146204603
:1045C000FCF7CBFBFF216420FFF792FF00220121C3
:1045D0002046FCF7C2FBFF216420FFF789FF61A0A2
:1045E000FFF7F0FA00F071F90621732000F004F9EA
:1045F00056481B3000F022FA5448163000F0CFF92C
:10460000002210212046FCF7A8FB5C4E012202216B
:104610003046FCF7A2FB5AA0FFF7D4FA4B49091D1C
:10462000881E00F0EDFB002000F0B0FBFEF7A0FBC1
:10463000FF27464C0137A41E45489830FCF73AFE48
:1046400039463046FCF784FB2169FFF7D7FC6070E0
:10465000012802D002280FD010E002211420FFF719
:1046600047FF3A49091D881E00F0CAFB00211420AB
:10467000FFF73EFF257001E000F0DEFBA078002888
:104680000DD03248A28920306169FFF79BFC3EA023
:10469000FFF798FA2D48203000F0C8FAA57000F016
:1046A00053FA2081A2880146101A00D5404200B278
:1046B00060810A2902D93A4A914203D939A0FFF709
:1046C00081FA24E02178002902D0012918D01EE0C7
:1046D000E18888421BDD012000F058FB2289A18877
:1046E00036A0FFF76FFA19482289A1882030FFF71A
:1046F00077FC1648203000F099FA0120207006E07F
:10470000E188884203DA002000F040FB257000F0C9
:10471000FBF801210846FCF749FE8DE700480140FF
:10472000EC0100201A4100000A0A64617974726980
:10473000707065722054580A64656B754E756B65B0
:104740006D20323031390A0A000000002E000020AE
:104750008000002000300040FF0F00000400002017
:10476000E8800000696E697469616C697A696E67D6
:10477000204E52462E2E2E0A000000000004004853
:10478000646F6E650A00000073656E64696E672071
:1047900073746174207061636B65742E2E2E0A0031
:1047A000FE1F0000696E76616C6964207265616449
:1047B000696E673A2025640A000000007472696718
:1047C00067657265642120626173653A2025642CF7
:1047D00020746869733A2025640A0000092310B523
:1047E000DB06002801D0012200E00022102118463B
:1047F000FCF7B3FA10BD000010B51C4C2170014647
:10480000052000F035F80021112000F031F8217862
:10481000122000F02DF80021132000F029F80021CB
:10482000142000F025F80021152000F021F80021C7
:10483000162000F01DF82721062000F019F80821A5
:10484000002000F015F80321012000F011F80321E9
:10485000022000F00DF87F21042000F009F800216B
:104860001C2000F005F800F058F810BD0C000020E6
:1048700070B504460D46002000F00CF8E006C00EAE
:10488000203000F071FA284600F06EFA012000F0A6
:1048900001F870BD10B5054B002801D0012200E0E1
:1048A000002202211846FCF758FA10BD0004004807
:1048B00010B50020FFF7EEFFFF2000F055FA044688
:1048C0000120FFF7E7FF204610BD10B50020FFF7DD
:1048D00085FF0120FFF7DEFF10BD10B5FFF7E8FFF1
:1048E0008006800F01D0002010BD012010BD10B542
:1048F000FFF7DEFF810601D5002010BDC00601D5FF
:10490000012010BDFF2010BD10B50020FFF766FF8D
:1049100008210020FFF7ACFF10BD10B50020FFF705
:10492000B9FFE22000F020FA0120FFF7B3FF702169
:104930000720FFF79DFF0020FFF750FF0B2100200D
:10494000FFF796FF0120FFF749FF10BD10B570215A
:104950000720FFF78DFF0A210020FFF789FF10BD18
:1049600070B5054616460C460020FFF793FFE80693
:10497000C00E00F0F9F921463246084600F042F830
:104980000120FFF787FF70BD08B5012269460820A6
:10499000FFF7E6FF684600780007000F08BD10B576
:1049A00004460020FFF71AFF052221460B2000F0E5
:1049B00052F80120FFF712FF10BD000010B50446A9
:1049C0000020FFF70BFFFFF7C1FF0020FFF762FF9A
:1049D000E12000F0C9F90120FFF75CFF0020FFF79C
:1049E00059FFA02000F0C0F905480178204600F0EA
:1049F00018F80120FFF74EFF0120FFF7EFFE10BD72
:104A00000C000020F8B515460E460746002405E0C8
:104A1000385D00F0A9F93055641CE4B2AC42F7D31C
:104A2000F8BD70B50D460646002404E0305D00F088
:104A30009BF9641CE4B2AC42F8D370BD10B50446D7
:104A4000014605220A2000F006F805222146102022
:104A500000F001F810BD70B5044615460E46002062
:104A6000FFF718FFE006C00E203000F07DF9294660
:104A70003046FFF7D6FF0120FFF70CFF70BD0000A6
:104A8000012110B50143002000F01AFAFCF76CF97F
:104A90000F4CE0800CE0A088002809D0FCF764F9F6
:104AA000E18880B2401AA188884201DD002010BD53
:104AB000132000F08BF84007EDD001210B2000F00F
:104AC000FFF90021084600F0FBF9012010BD0000AD
:104AD000000000203EB50B236C460EC4044C024679
:104AE000012321780348FCF723FAE0703EBD000063
:104AF00000000020CC00002010B5FCF735F9104C68
:104B0000E0800EE0A08800280BD0FCF72DF9E188AA
:104B100080B2401AA188884203DD012060700948F4
:104B200010BD132000F052F84007EBD01E2000F01B
:104B300063F8044601210B2000F0C2F9204610BDA5
:104B400000000020FFFF000010B50121802000F0D0
:104B5000B7F90121FF2000F0B3F90021084600F069
:104B6000AFF9184C9120A17800F0AAF9012100209A
:104B700000F0A6F90021FF2000F0A2F9002180201A
:104B800000F09EF90121002000F09AF9FCF7ECF802
:104B9000E0800EE0A08800280BD0FCF7E5F8E18863
:104BA00080B2401AA188884203DD01206070064867
:104BB00010BD002000F00AF8C007EBD1FFF79CFF02
:104BC00010BD000000000020FFFF00001FB50B23F8
:104BD000012203A96C460EC41346054C02462178F7
:104BE0000448FCF7A5F9E0706846007B04B010BDEE
:104BF00000000020CC0000201FB50B23022203A9D7
:104C00006C460EC4074C0246012321780648FCF787
:104C10008FF9E0706846007B01026846407B04B073
:104C2000084310BD00000020CC00002010B5FFF7A5
:104C3000C5FEFFF752FE0028FBD1FFF758FE002803
:104C400004D006A0FEF7BEFF012010BDFFF79CFEBA
:104C5000014605A0FEF7B6FF002010BD545820669F
:104C600061696C65640A00005458204F4B2C207217
:104C7000657472793A2025640A000000F0B5054693
:104C8000A5262848B600264F89B085422CD3264C4D
:104C90006846FFF7E1FA02A96846FFF7F1FA6846AD
:104CA0000078002802D02149059844186846807889
:104CB000002804D005981E494000001905E0684608
:104CC0004078002802D00598A11944186846C07899
:104CD000002802D00698A1194418684600790028D7
:104CE0001CD0E019A84202D9002009B0F0BD6946E5
:104CF0004989281AC9B200F06DF86946C97880B2AE
:104D0000002903D06946C989081880B2FFF746FA1E
:104D10000146712000F0EAF8064885600120E4E7CA
:104D200026020000204E0000E8080000360B0000BC
:104D30006405000000000020FF2110B5C905C8422D
:104D400002D20849884201DD002010BD0721FBF78F
:104D500026FAFBF735FB81B2442000F0C7F80120AA
:104D600010BD0000B8FEFF4301B582B000216846C7
:104D700001710A200090012301AA02A90248FDF74F
:104D800087F9684600790EBD48010020FF2801D050
:104D900001490870704700001400002002880B8849
:104DA00003800A807047000070B5044608487D25DE
:104DB00041430846FF30ED00F5302946FBF7B6F9D0
:104DC0004443400820182946FBF7B0F970BD0000A5
:104DD000002F3A0010B50446084848437D21FF30B3
:104DE000C900F530FBF7A2F901467D20C00044431D
:104DF00048082018FBF79AF910BD0000002F3A0070
:104E000070B505460C4606A0FEF7DCFEFFF7EEFA8D
:104E10002880FFF75DFB208005A0FEF7D3FE70BD64
:104E200063616C6962726174696E672E2E2E0A006E
:104E3000646F6E65210A000000261248124C808DB6
:104E40002070A120114F607032460421A01CFBF796
:104E500094F90025615D0EA0FEF7B4FE6D1C062DD1
:104E6000F8DB0DA0FEF7AEFE761CF6B20648FFF7A3
:104E7000DDFE01219620FFF73BFB00213846FFF7BE
:104E800037FBE1E780F7FF1F0D0000205203000011
:104E900030782578200000000A0000003EB50B2382
:104EA0006C460EC4044C0246012321780348FCF7EB
:104EB000EBF8E0703EBD000000000020CC000020B8
:104EC00013B584B00B23012205A96C460EC413460A
:104ED000044C024621780448FCF7D6F8E07006B08E
:104EE00010BD000000000020CC0000201FB50B0A00
:104EF0006A46137351730B23022203A96C460EC436
:104F0000044C0246012321780348FCF7BDF8E07009
:104F10001FBD000000000020CC00002000000000A9
:104F2000010306090D1219202934404E5E6F819449
:104F3000A8BBCEDEECF6FCFDFAF3E7D9C8B5A18E2E
:104F40007B6958493C30261E16100C08050201FFEB
:104F5000FFFFFFFF00000000000000000000000055
:104F60000001020304060708090000000001020313
:104F700004000000944F00080000002060000000C2
:104F8000123C0008F44F00086000002040060000BA
:104F9000223C000852000000000000000000000059
:104FA0000000000000000000000000000000000001
:104FB00000000000000000000000000000000000F1
:104FC00000000000000000000000000000000000E1
:104FD0000100000000000000BEADA5BABEDABBEDC6
:104FE000C00C0000000000000000000000127A0069
:044FF00000000000BD
:04000005080000C12E
:00000001FF
