:020000040800F2
:10000000F0040020D5000008ED0F0008890E00085C
:1000100000000000000000000000000000000000E0
:10002000000000000000000000000000A511000812
:10003000000000000000000035100008A7110008B3
:100040000501000805010008050100080501000878
:100050000501000805010008050100080501000868
:100060000501000805010008050100080501000858
:100070000501000805010008050100080501000848
:100080000501000800000000000000000501000854
:100090000000000005010008050100080501000836
:1000A0000000000005010008050100080501000826
:1000B0000501000800000000050100080501000816
:1000C0000348854600F048F800480047D916000864
:1000D000F00400200C4880F308880C480168090EE1
:1000E0000B4A914205D10B480B4901600B480C4962
:1000F00001600C4880470C480047FEE7FEE7FEE73A
:10010000FEE7FEE7FEE70000F00400200400000028
:100110001F00000018100240010000000000014014
:10012000000000000D120008C100000830B50B46A9
:10013000014600202022012409E00D46D5409D42C1
:1001400005D31D469540491B254695404019154647
:10015000521E002DF1DC30BD064C0125064E05E097
:10016000E36807CC2B430C3C98471034B442F7D3D8
:10017000FFF7AAFF141A0008341A0008F8B5002384
:1001800089E001249C402A46A44622407ED04C6847
:10019000022C01D0122C0CD1DC08A40027183C6AD8
:1001A0005D07ED0E0F26AE40B4430E69AE40264308
:1001B0003E6205685E000324B4400F79A543BF0783
:1001C000BF0FB7402F4307604D68012D05D0022DAA
:1001D00003D0112D01D0122D0ED18568CF68A54313
:1001E000B7402F43876047686546AF430D79ED06FA
:1001F000ED0F9D403D434560C568A5438C68B44004
:100200002C43C4604C68E40044D5264CA569012603
:100210003543A561A4699D0834400094224CAD008B
:100220002F19BC689D072E0F0F25B540AC4309253B
:10023000ED06A84201D100250AE01C4DA84201D1DB
:10024000012505E01A4DA84201D1022500E005254F
:10025000B5402543BD60174C25684E689543F603AD
:1002600000D51543256065684E689543B60300D5F3
:1002700015436560A5684E689543F60200D51543A1
:10028000A560E5684E689543B60200E002E000D53F
:100290001543E5605B1C0A681546DA4000D070E73C
:1002A000F8BD0000001002400000014000040048BA
:1002B000000800480004014042694A40426170471A
:1002C000002A01D08161704781627047014800684F
:1002D000704700001000002070B5040005D02546CE
:1002E0006035687A002802D006E0012070BD002049
:1002F0002872204600F040FD2420687220680168C2
:10030000490849000160204601F048F80128EDD075
:10031000606A002802D0204600F0A6FF20684168ED
:100320000922D202914341602068816822229143D0
:10033000816020688168082211438160206801681B
:10034000012211430160204600F0F4FF70BD00005F
:1003500002480168491C016070470000100000203D
:1003600010B506480168102211430160002000F01A
:1003700007F800F017F8002010BD00000020024030
:1003800010B5044600F0E6F87D21C900FFF7CEFE67
:1003900000F0D6FC00222146501E00F02DF800206F
:1003A00010BD000008B51248816901221143816126
:1003B000816911400091C26901040A43C261C069A8
:1003C0000022084000901146501F00F015F800224E
:1003D0001146901E00F010F800221146501E00F049
:1003E0000BF80448016810221143016008BD0000A9
:1003F000001002400000014010B500F0F9FD10BDF2
:10040000F8B505464E480E460068C007C00FB0421A
:100410000AD24B480168490849003143016000682D
:10042000C007C00FB04270D12878464C800705D570
:100430006068F0218843A968084360602878C00795
:1004400053D06868012817D0022818D0032819D083
:1004500021688907002958DA616889088900014301
:100460006160FFF733FF69680746012913D002294D
:100470001DD0032927D034E021688903EAE72168E9
:100480008901E7E7616BC903E4E7FFF71FFFC11BC1
:100490002D48814223D860680007800F0128F4D1DD
:1004A00023E0FFF713FFC11B2748814217D860687C
:1004B0000007800F0228F4D117E0FFF707FFC11BE8
:1004C000214881420BD860680007800F0328F4D1CF
:1004D0000BE0FFF7FBFEC11B1B48814201D9032043
:1004E000F8BD60680007800FF3D115480168C9079F
:1004F000C90FB1420BD90168490849003143016075
:100500000068C007C00FB04201D00120F8BD2878B4
:10051000400706D56068072109028843E968084357
:10052000606000F02DF86168084A0906090F515C07
:10053000C840074908600020FFF722FF0020F8BDEF
:10054000002002400010024088130000FC1900083F
:1005500014000020014800687047000014000020CB
:100560000448054900684968044A4905490F515C37
:10057000C840704714000020001002400C1A000808
:1005800030B516A30FCB89B06C460FC417A30FCBA1
:100590000FC41A494A680C20144604401848042C19
:1005A00005D0184B082C04D00C2C00D1184609B0EB
:1005B00030BD9402240F6D462C5DC96A04AD090755
:1005C000090FD203695C920F022A02D0032A00D1DC
:1005D0001846FFF7ABFD6043E9E70000020304059E
:1005E000060708090A0B0C0D0E0F10100102030478
:1005F00005060708090A0B0C0D0E0F10001002402B
:1006000000127A00006CDC02FEB504460078F04E61
:10061000F04DC00748D068680007800F01281FD040
:1006200068680007800F022804D16868C003800F43
:10063000022815D06168012919D001208004002901
:1006400001D0052917D02968B14329602968814361
:100650002960606800281BD0FFF738FE074613E0CA
:100660002868800320D56068002876D01CE02868C0
:1006700030432860EDE7296801432960F7E7FFF779
:1006800025FEC01B642869D828688003F7D50BE0D5
:10069000FFF71CFE074604E0FFF718FEC01B6428A6
:1006A000F1D828688003F7D4207880073ED56868A1
:1006B0000007800F14D068680007800F022804D15B
:1006C0006868C003800F01280AD0E0680028286805
:1006D0001DD0012108432860FFF7F8FD07460BE015
:1006E000286880070BD5E068012836D107E0FFF7BE
:1006F000EDFDC01B0228C6D828688007F7D52868FA
:10070000F82188432169C900084328600EE04008A9
:1007100040002860FFF7DAFD074604E0FFF7D6FD4A
:10072000C01B0228AFD828688007F7D420780007BC
:1007300024D5E0690028686A11D001210843686265
:10074000FFF7C4FD074604E0FFF7C0FDC01B022809
:1007500099D8686A8007F7D510E036E1D1E0400803
:1007600040006862FFF7B2FD074604E0FFF7AEFD08
:10077000C01B022887D8686A8007F7D4207804272E
:100780004007002861DA00200190E869C00008D421
:10079000E969B8060143E961E96901400120009176
:1007A00001908D480168C90511D401688215114373
:1007B0000160FFF78BFD009005E0FFF787FD0099D2
:1007C000401A642897D884480068C005F5D5A06809
:1007D00001280AD0002801D0052811D0286A400835
:1007E00040002862286AB84302E0286A01210843D1
:1007F0002862A068002812D0FFF768FD00900AE088
:10080000286A38432862F0E7FFF760FD0099411A33
:100810007248814275D8286A8007F5D50DE0FFF748
:1008200055FD009006E0FFF751FD0099411A6B4815
:10083000814266D8286A8007F5D40198002804D040
:10084000E969012000078143E9612078C00635D5B8
:10085000606901280CD0401D686B24D03843686360
:10086000686B400840006863FFF730FD074622E0F0
:10087000686B38436863686B012108436863FFF75E
:1008800025FD074604E0FFF721FDC01B022838D8EC
:10089000686B8007F7D5686BF8218843A169C900A8
:1008A000084368630AE0B8436863F4E7FFF70EFDA6
:1008B000C01B022825D8686B8007F7D420788006F3
:1008C00037D568680007800F032813D068680007D1
:1008D000800F022804D16868C003800F032809D064
:1008E000206A0028686B16D030436863FFF7EEFC7F
:1008F00006460CE0686BC0031BD5206A012864D152
:1009000017E05BE0FFF7E2FC801B022856D8686B1B
:10091000C003F7D50DE0B0436863FFF7D7FC064688
:1009200004E0FFF7D3FC801B022847D8686BC003A4
:10093000F7D4606A002846D069680907890F022940
:1009400043D0012636060228286805D0B043286027
:10095000FFF7BCFC044633E0B0432860FFF7B6FC69
:10096000074604E0FFF7B2FCC01B022826D828681F
:100970008001F7D4E86A216B000900010843E862AE
:10098000A16AE06A084369687B22D2039143084365
:100990006860286830432860FFF798FC044604E04C
:1009A000FFF794FC001B022808D828688001F7D5BF
:1009B00009E0FFF78BFC001B022801D90320FEBDD4
:1009C00028688001F5D40020FEBD0120FEBD000096
:1009D0000000010000100240007000408813000079
:1009E000F8B5040007D0002625464035A662687F8A
:1009F000002802D005E00120F8BD2E77204600F047
:100A00004BF802236B772068016840229143016014
:100A10000721E0680902884201D9002201E0012291
:100A200012030F273F02B84202D0884200D0A662CC
:100A3000276B002F05D1884201D9236301E00120F3
:100A40002063A1686068636908432169194308430A
:100A50000123A1695B0219400843E1690843216A47
:100A60000843A16A084321680860616B606AA36952
:100A700008431B0C0427E1683B40194308432168E5
:100A8000104348602068C1697A029143C1612666BB
:100A9000012068770020F8BD00B500680D4987B0D7
:100AA000884215D10C48826981140A4382618069A9
:100AB00008400590E02000900220019000210320D2
:100AC00003900291049109206946C006FFF756FB86
:100AD00007B000BD0030014000100240FFB50446E1
:100AE00083B00120254640350090287F00270E4620
:100AF00001280FD001202877FFF7E8FB0190687FDD
:100B0000616801280DD0CA1FFD3A08D1A1680029EB
:100B100005D102E0022007B0F0BD042801D0022771
:100B2000FAE0002E7CD005980028FBD0069800281B
:100B3000F8D0687F042801D005206877002020665F
:100B4000059921640699E9800699A980A66306990A
:100B5000E1870699A187E06420650723E1681B020D
:100B6000994202D8E888012806D920684268012104
:100B700009038A43426005E02068416801221203AC
:100B80001143416020680168490603D4016840228E
:100B900011430160E1686068994242D9002802D09F
:100BA000E08F012835D121683088C860E08F401E71
:100BB000E087B61C2DE0009800280ED0E08F0028BA
:100BC0000BD020688168890707D53188C160E08F24
:100BD000401EE0870020B61C0090E88800280ED058
:100BE00020688168C9070AD0C068059908800598FF
:100BF000801C0590E888401EE880012000900C9839
:100C0000401C06D0FFF762FB0199411A0C98814203
:100C10006DD2E08F0028CED1E8880028CBD16EE0DD
:100C200079E0002802D0E08F012862D1E08F01280E
:100C300007D921683088C860E08F801EE087B61C25
:100C400057E0216830780873E08F401EE087761CFB
:100C50004FE00098002818D0E08F002815D02068B9
:100C60008168890711D5E18F012906D93188C160D2
:100C7000E08F801EE087B61C05E031780173E08FBD
:100C8000401EE087761C00200090E888002824D0D1
:100C900020688168C90720D0E988012912D9C06875
:100CA000059908800598801C0590E888801EE880DA
:100CB000E88801280FD820684168012212031143F7
:100CC000416008E0017B059801700598401C059083
:100CD000E888401EE880012000900C98401C08D055
:100CE000FFF7F4FA0199401A0C99884201D30327BF
:100CF00012E0E08F0028ACD1E8880028A9D1204676
:100D0000019A0C9900F097F9002801D02020206664
:100D1000206E002800D00127012068770020287766
:100D20003846F8E6042204490428086902D09043B2
:100D3000086170471043FBE700E000E070470000E7
:100D4000094910B5401E884201D9012010BD074C49
:100D500060610321081F00F04BF90020A06107200B
:100D60002061002010BD0000FFFFFF0000E000E058
:100D700010B5FFF7E3FF10BD00B500680E4987B05E
:100D8000884216D10D48C269012149040A43C26153
:100D9000C0690840059004200090122001900121B4
:100DA000032003900291049109206946C006FFF7D1
:100DB000E5F907B000BD000000440040001002400B
:100DC000FFB5064604466036707A83B00D4620288B
:100DD00058D1002D0CD00598002809D00120A16819
:100DE0000003814207D12069002804D1E80702D01E
:100DF000012007B0F0BD307A012843D001203072C5
:100E00000020E06621207072FFF760FA019027460B
:100E10004037059838820598788218E0788A401E15
:100E2000788206980090002280212046019B00F0E5
:100E30004DFB002818D10120A1680003814202D196
:100E40002069002812D02168287808856D1C788ACE
:100E50000028E3D106980090002240212046019B03
:100E600000F034FB002808D00320C2E7288821685E
:100E7000C005C00D0885AD1CE9E720207072002078
:100E80003072B6E70220B4E7FEE70000F0B5334861
:100E900087B04269012189040A43426142690A40DC
:100EA0000592426909010A43426142690A4005927A
:100EB000426949110A4342614069294F084005903F
:100EC000012202213846FFF7FBF9092001220821FF
:100ED000C006FFF7F5F9092000221021C006FFF730
:100EE000EFF9002202211F48FFF7EAF9FF20013045
:100EF000002400900194694602941A48FFF73EF9D5
:100F00000125022669463846029600950194FFF7AE
:100F100035F9029469463846009601950394FFF727
:100F20002DF903206A4651C209206946C006FFF721
:100F300025F9182000900920029469460195039430
:100F4000C006FFF71BF90294694606480096019512
:100F50000394FFF713F907B0F0BD00000010024042
:100F6000001400480004004810B511480F49016002
:100F7000FF210531416000210722816012020161D9
:100F8000C260012241615202826101621822416203
:100F9000C26181620722C262016308214163FFF7D7
:100FA0001FFD002800D0FEE710BD0000003001400A
:100FB0001C00002010B50C480A490160E1214902DB
:100FC000416000218160C16001618161C1610822CD
:100FD000016242614162FFF77FF9002800D0FEE71D
:100FE00010BD000000440040800000207047000059
:100FF0008307FF22DB0E9A408907090E99400028DB
:101000000BDA0007000F0838830808489B001818FF
:10101000C36993430B43C3617047830804489B0033
:101020001B181868904308431860704700ED00E0F3
:1010300000E400E07047F8B50F460B4615460092F5
:10104000032104460022C90200F01BF820260028D4
:1010500012D13B46002280212046009500F05CF82A
:10106000002809D103213B46002249022046009571
:1010700000F007F8002803D0206E304320660320DC
:10108000F8BDF8B51D4617460E4604463DE003215F
:1010900049028E4205D1002F03D1017B68460170C1
:1010A0000078681C31D0002D05D0FFF70FF90699A4
:1010B000401AA84229D320684168E0229143416048
:1010C0006068C11FFD390CD10121A068C9038842A5
:1010D00002D04911884204D120680168402291431E
:1010E00001600120A16A4003814207D121680A689A
:1010F00082430A6021680A6802430A600120403482
:101100006077002020770320F8BD20688168314097
:10111000B942BCD10020F8BDF8B51D4617460E46B1
:10112000044633E0681C31D0002D05D0FFF7CEF81F
:101130000699401AA84229D320684168E0229143C9
:1011400041606068C11FFD390CD10121A068C9034D
:10115000884202D04911884204D1206801684022A7
:10116000914301600120A16A4003814207D12168B7
:101170000A6882430A6021680A6802430A60012003
:1011800040346077002020770320F8BD2068816814
:101190003046884304D00020B842C3D10020F8BDB7
:1011A0000120F9E7704710B5FFF7D2F8FFF7E0FD2F
:1011B00010BD10B592B020200090012000240890AE
:1011C00009946846FFF720FA002800D0FEE70720C0
:1011D0000D9003200E900F94012110940DA8FFF79D
:1011E0000FF9002800D0FEE7FFF7B4F97D21C90010
:1011F000FEF79CFFFFF7A4FD0420FFF793FD0022FC
:101200001146501EFFF7F8F812B010BD13480168E0
:101210000122114301604168114A11404160016897
:10122000104A11400160016801229204914301605B
:1012300041683F22120491434160C16A09090901D2
:10124000C162016BFF22D43291430163416B4908B3
:101250004900416300218160704700000010024096
:101260000CB8FF08FFFFF6FE10B5818CC90707D048
:1012700001684A6801235B049A43836A1A434A60FF
:10128000818C890707D501684A6801231B049A43AA
:10129000C36A1A434A60818C490707D501684A68C6
:1012A00001239B049A43036B1A434A60818C09070C
:1012B00007D501684A680123DB039A43436B1A434D
:1012C0004A60818CC90607D50268916801231B0317
:1012D0009943836B19439160818C890607D5016816
:1012E0008A6801235B039A43C36B1A438A60818C2B
:1012F000490612D503685A6801210905046C8A431E
:1013000022435A60026C8A4207D102685168032363
:101310005B059943436C19435160818C090607D5DD
:1013200001684A680123DB04806C9A4302434A60E7
:1013300010BD0000F8B500260446C666FEF7C6FFDD
:1013400005461449206888421DD10068124F0007E5
:1013500009D501212B46002249052046009700F0BF
:10136000B5F800280DD12068006840070BD5012191
:101370002B46002289052046009700F0A7F8002898
:1013800001D00320F8BD202060346072A072267264
:101390000020F8BD00380140FFFFFF01F8B504460A
:1013A0002369A268E5691A43636910202B43002171
:1013B00025681A432B680E463E4F3B4013432B6073
:1013C00023685A6803252D03AA43E5682A435A6017
:1013D000236AA26925681A43AB680B273F02BB4307
:1013E0001343AB60344A2568954210D1334A126BDF
:1013F0009207920F0ED0012A05D0022A05D0032AA7
:1014000009D1022007E0042005E0082003E02C4A6F
:10141000954200D100200122E369D203934224D1F6
:1014200000280CD002280DD0042813D0082817D08B
:1014300001260A0912010807400F10432FE0FFF7A9
:101440008FF809E061681F4A48088018FEF76EFEB1
:1014500081B2EEE7FFF794F8616840004A08F4E7CC
:101460006168012248081204EFE7002808D002282A
:1014700009D004280BD0082814D001263046F8BD26
:10148000FFF76EF805E061680F4A48080CE0FFF7C7
:1014900077F861684A088018FEF748FE80B2216834
:1014A000C860EBE7616848088018FEF73FFE80B22D
:1014B000E860E3E7F369FFEF003801400010024005
:1014C000004400400024F40000127A00FFB581B00F
:1014D00017460E4604460A9D1DE0681C1BD0002DD1
:1014E00005D0FEF7F3FE0499401AA84213D92068EC
:1014F0000168FF22A1329143016020688168490898
:1015000049008160202060346072A0720020207247
:10151000032005B0F0BD2068C1693046884304D07F
:101520000020B842D9D00020F3E70120F9E70000FD
:101530000FB410B503A9044B044A029800F018F840
:1015400010BC08BC04B01847C116000818000020E1
:1015500002E008C8121F08C1002AFAD1704770477C
:10156000002001E001C1121F002AFBD170470000DA
:10157000FFB58DB00446002506E025280AD0109A54
:101580000F999047641C6D1C20780028F5D12846DF
:1015900011B0F0BD00270121484A009700E0074341
:1015A000641C23780846203B98401042F7D12078ED
:1015B0002E2817D1042007436078641C2A280CD1F8
:1015C0000E98641C02C800910E900BE000990A224C
:1015D000514330394018641C00902078014630395E
:1015E0000929F3D920780028D1D0642808D06928A7
:1015F00006D075281ED0109A0F9990476D1C5BE09D
:101600000A200E99019001C90E91002802DA404289
:101610002D2102E0390504D52B216A4611720121E2
:1016200003E0F90704D02021F7E70BAE0B910DE0A2
:101630000021FAE70A200E99019001C90E91F7E7FF
:101640000199FEF773FD3031761E31700028F7D115
:1016500003A8801B20300190780701D5009801E095
:10166000012000900199884201DD401A00E000202D
:101670000027009006E002A8109AC05D0F999047DD
:101680006D1C7F1C0B988742F5DB04E0109A30201C
:101690000F9990476D1C0099481E00900029F5DCB9
:1016A00005E03078109A761C0F9990476D1C0199CF
:1016B000481E01900029F4DC641C65E7092801003C
:1016C00013B50A23012269460248FFF779FB009807
:1016D0001CBD000080000020FEF742FEFFF769FD00
:1016E000FFF7D4FBFFF766FCFFF73EFC1BA0FFF7FC
:1016F0001FFF00F0E6F80421782000F055F81D489F
:1017000000F049F91B48401D00F01BF91AA0FFF733
:101710000FFF184C0925241FED0600F0A0F8002843
:10172000FBD01448001F00F0A7F815A0FFF700FF3A
:10173000217814A0FFF7FCFE617812A0FFF7F8FEF5
:10174000A17810A0FFF7F4FEE1780FA0FFF7F0FEFC
:1017500010212846FEF7B0FDDFE70000696E6974CE
:1017600069616C697A696E67204E52462E2E2E0A88
:101770000000000005000020646F6E650A00000094
:101780003E2000002564200025640A0010B5054BAA
:10179000002801D0012200E0002202211846FEF7B5
:1017A0008FFD10BD0004004810B51C4C217001468F
:1017B000052000F035F80021112000F031F82178E3
:1017C000122000F02DF80021132000F029F800214C
:1017D000142000F025F80021152000F021F8002148
:1017E000162000F01DF80621084600F019F808211F
:1017F000002000F015F80321012000F011F803216A
:10180000022000F00DF84F21042000F009F800211B
:101810001C2000F005F800F05CF810BD000000206E
:1018200070B504460D46002000F00CF8E006C00E2E
:10183000203000F0D1F8284600F0CEF8012000F06A
:1018400001F870BD092310B5DB06002801D0012284
:1018500000E0002208211846FEF732FD10BD10B549
:1018600000F022F8400605D400F060F8002801D00E
:10187000002010BD012010BD10B504460020FFF768
:10188000E1FF612000F0A8F80648214602780846EA
:1018900000F065F80120FFF7D5FF40210720FFF792
:1018A000BFFF10BD0000002010B50020FFF7CAFFE9
:1018B000FF2000F091F804460120FFF7C3FF204607
:1018C00010BD10B50020FFF761FF0120FFF7BAFF40
:1018D00010BD10B50020FFF7B5FFE22000F07CF846
:1018E0000120FFF7AFFF70210720FFF799FF0020CD
:1018F000FFF74CFF0B210020FFF792FF0120FFF7BD
:1019000045FF10BD70B5054616460C460020FFF792
:1019100099FFE806C00E00F05FF8214632460846FF
:1019200000F01DF80120FFF78DFF70BD08B5012202
:1019300069461720FFF7E6FF68460078C007C00F2A
:1019400008BD10B504460020FFF720FF0522214600
:101950000B2000F02DF80120FFF718FF10BDF8B59F
:1019600015460E460746002405E0385D00F034F8C1
:101970003055641CE4B2AC42F7D3F8BD70B50D46E7
:101980000646002404E0305D00F026F8641CE4B252
:10199000AC42F8D370BD10B50446014605220A20BA
:1019A00000F006F805222146102000F001F810BDD5
:1019B00070B5044615460E460020FFF743FFE006CB
:1019C000C00E203000F008F829463046FFF7D6FF59
:1019D0000120FFF737FF70BD01B582B000216846D6
:1019E00001710A200090012301AA02A90248FFF711
:1019F00075F8684600790EBD1C000020000000004C
:101A000000000000010203040607080900000000AE
:101A100001020304341A0008000000201C0000002A
:101A200050150008501A00081C000020D4040000C3
:101A3000601500080000000000FFFFFFFFFFDEADA3
:101A4000BEEFBB000000000000127A0000000000A2
:04000005080000C12E
:00000001FF
