:020000040800F2
:1000000040050020C50000086111000889100008A3
:1000100000000000000000000000000000000000E0
:10002000000000000000000000000000191300089C
:100030000000000000000000A91100081B130008C8
:10004000D700000800000000D7000008D700000813
:10005000D7000008D7000008D7000008D700000824
:1000600000000000D7000008D7000008D7000008F3
:10007000D7000008D7000008D700000800000000E3
:10008000D70000080000000000000000D7000008B2
:1000900000000000D7000008D7000008D7000008C3
:1000A00000000000D700000800000000D700000892
:1000B0000348854600F06CF8004800471D1B000807
:1000C000400500200448804704480047FEE7FEE75B
:1000D000FEE7FEE7FEE7FEE7A1130008B100000817
:1000E00030B50B46014600202022012409E00D46D0
:1000F000D5409D4205D31D469540491B2546954058
:1001000040191546521E002DF1DC30BD10B5202AD5
:1001100004DB0846203AD040002110BD0B46D340F6
:10012000D0402024A21A91400843194610BDF0B5D2
:100130001FB40646002082B005464024019100907D
:100140001BE0019922460F463046FFF7DFFF049A75
:10015000059B801A994110D310461946224600F09B
:1001600029F8361A8F410197224601200021009F6D
:1001700000F020F838184D4100902046641E0028F9
:10018000DFDC019B00982946324607B0F0BD000035
:10019000064C0125064E05E0E36807CC2B430C3CDA
:1001A00098471034B442F7D3FFF786FF801E00084B
:1001B000A01E000810B5202A04DB0146203A914019
:1001C000002010BD914020239C1A0346E3401943B0
:1001D000904010BDF8B500238DE001249C40A4465A
:1001E00022407DD04C68022C01D0122C0CD1DC08AE
:1001F000A40027183C6A5D07ED0E0F26AE40B443FD
:100200000E69AE4026433E6205685E000324B4409A
:100210000F79A543BF07BF0FB7402F4307604D6855
:10022000012D05D0022D03D0112D01D0122D0ED19C
:100230008568CF68A543B7402F4387604768654608
:10024000AF430D79ED06ED0F9D403D434560C56818
:10025000A5438C68B4402C43C4604C68E40049D585
:10026000284CA56901263543A561A4699D08344041
:100270000094254CAD002F19BC689D072E0F0F254B
:10028000B540AC430925ED06A84201D100250FE099
:100290001E4DA84201D101250AE01D4DA84201D101
:1002A000022505E01B4DA84201D1032500E00525EC
:1002B000B5402543BD60184C25684E689543F6034C
:1002C00000D51543256065684E689543B60300D593
:1002D00015436560A5684E689543F60202D500E0B7
:1002E00008E01543A560E5684E689543B60200D561
:1002F0001543E5605B1C0A681446DC4000D06CE7DF
:10030000F8BD000000100240000001400004004859
:1003100000080048000C004800040140002A01D0F9
:100320008161704781627047014800687047000032
:100330001000002070B5024640325378202B1CD1AB
:100340001378012B19D001231370242454700468EE
:1003500025689D432560046825681E03B543256014
:10036000046825680D432560006801681943016031
:10037000202050700020107070BD022070BD70B53C
:10038000024640325378202B1BD11378012B18D012
:10039000012414702423537003681D68A5431D6055
:1003A00005682B680F263602B343090219432960FA
:1003B0000068016821430160202050700020107007
:1003C00070BD022070BD000070B5040006D0254647
:1003D000403568780026002802D005E0012070BD75
:1003E0002E70204600F04AF82420687020680168CA
:1003F0004908490001600F216068090688432168A7
:10040000086121688A680120C00382438A60E1682C
:100410000129A16808D0212292021143226891602B
:10042000E168022902D005E00143F7E701212268D3
:10043000C902516021684A680F4B1A434A6021681B
:10044000CA688243CA60616920690843A1690902D8
:1004500008432168C860216AE06908432168086090
:1004600020680168012211430160666420206870E1
:100470002663AE70002070BD0080000200B50068E9
:100480000F4987B0884218D1032040020090122003
:100490000190012002900320039004200490092081
:1004A0006946C006FFF796FE0648C2690121490564
:1004B0000A43C261C0690840059007B000BD000052
:1004C000005400400010024002480168491C0160CD
:1004D000704700001000002010B506480168102287
:1004E00011430160002000F007F800F017F8002029
:1004F00010BD00000020024010B5044600F03EF997
:100500007D21C900FFF7ECFD00F0E4FC002221464C
:10051000501E00F025F8002010BD000008B50F485F
:100520008169012211438161816911400091C26991
:1005300001040A43C261C0690022084000901146CC
:10054000501F00F00DF800221146901E00F008F830
:1005500000221146501E00F003F808BD00100240B2
:1005600010B500F0FFFD10BDF8B505460068354C2C
:10057000C00352D5E0690026C00007D4E169200419
:100580000143E161E1690140012600912E480168C3
:10059000C90510D40168821511430160FFF7C4FE3C
:1005A000074604E0FFF7C0FEC01B642824D8264895
:1005B0000068C005F6D5206A03273F02384020D0E6
:1005C0006968394081421CD0206A226AB8430121FF
:1005D00009040A432262226A8A4322622062C00717
:1005E0000FD0FFF7A1FE009008E0FFF79DFE0099F5
:1005F000411A1648814201D90320F8BD206A8007BC
:10060000F3D5206A6968B84308432062002E04D0FD
:10061000E169012000078143E1612878C00705D026
:10062000206BA96880088000084320632878800632
:1006300005D5206B10218843E9680843206300201A
:10064000F8BD000000100240007000408813000058
:10065000F8B5054644480E460068C007C00FB042D2
:100660000AD24148016849084900314301600068E5
:10067000C007C00FB0425CD128783C4C800705D53C
:100680006068F0218843A968084360602878C00743
:100690003FD06868012813D02168022813D0890749
:1006A000002946DA61688908890001436160FFF723
:1006B0003BFE6968074601290DD0022917D024E0C6
:1006C00021688903ECE78901EAE7FFF72DFEC11BEA
:1006D0002748814217D860680007800F0128F4D1AD
:1006E00017E0FFF721FEC11B214881420BD860684B
:1006F0000007800F0228F4D10BE0FFF715FEC11BA5
:100700001B48814201D90320F8BD60680007800FB3
:10071000F3D115480168C907C90FB1420BD9016867
:1007200049084900314301600068C007C00FB0426A
:1007300001D00120F8BD2878400706D56068072160
:1007400009028843E9680843606000F02DF8616899
:10075000084A0906090F515CC84007490860002093
:10076000FFF7CAFE0020F8BD002002400010024042
:1007700088130000681E000814000020014800686B
:1007800070470000140000200448054900684968CB
:10079000044A4905490F515CC840704714000020C5
:1007A00000100240781E000810B512A30FCB88B0CD
:1007B0006C460FC413A30FCB0FC416494A680C2014
:1007C000134603401448042B0FD0082B0DD193027D
:1007D0001B0F6C46E45CC96A04AB0907090F595C3E
:1007E000D20304D5FFF77CFC604308B010BD0B4872
:1007F0006043FAE702030405060708090A0B0C0D1B
:100800000E0F10100102030405060708090A0B0C5D
:100810000D0E0F100010024000127A0000093D007A
:10082000FEB504460078D04DC00747D06868000781
:10083000800F012807D068680007800F022809D1BF
:100840006868C00306D52868800337D5606800282B
:100850007ED033E0012062680004012A11D08100BB
:10086000002A01D0052A10D02A6882432A6028680D
:10087000884328606068002814D0FFF755FD0646BD
:100880000CE0296801432960F4E72A680A432A60DA
:10089000F7E7FFF749FD801B64286FD828688003BD
:1008A000F7D50BE0FFF740FD064604E0FFF73CFDFF
:1008B000801B6428F1D828688003F7D420780126AB
:1008C000800700283BDA68680007800F07D0686857
:1008D0000007800F022809D16868C00306D4286881
:1008E000800715D5E068012832D111E0E0680028C2
:1008F000286815D030432860FFF716FD074604E04E
:10090000FFF712FDC01B0228C7D828688007F7D55B
:100910002868F82188432169C900084328600EE04F
:10092000400840002860FFF7FFFC074604E0FFF79F
:10093000FBFCC01B0228B0D828688007F7D42078B9
:10094000000724D5E0690028686A10D0304300E031
:1009500008E16862FFF7E8FC074604E0FFF7E4FC03
:10096000C01B022899D8686A8007F7D50FE04008B5
:1009700040006862FFF7D8FC074605E09DE0FFF7FE
:10098000D3FCC01B022888D8686A8007F7D4207877
:1009900004274007002860DA00200190E869C000C1
:1009A00008D4E969B8060143E961E9690140012019
:1009B000009101906D480168C90511D40168821544
:1009C00011430160FFF7B0FC009005E0FFF7ACFCBD
:1009D0000099401A642870D864480068C005F5D5AD
:1009E000A06801280AD0002801D0052810D0286A64
:1009F000400840002862286AB84301E0286A304372
:100A00002862A068002812D0FFF78EFC00900AE050
:100A1000286A38432862F1E7FFF786FC0099411AFB
:100A20005348814249D8286A8007F5D50DE0FFF781
:100A30007BFC009006E0FFF777FC0099411A4C48D8
:100A400081423AD8286A8007F5D40198002804D05A
:100A5000E969012000078143E9612078C00635D5A6
:100A6000606901280CD0401D686B23D0384368634F
:100A7000686B400840006863FFF756FC064622E0BA
:100A8000686B38436863686B30436863FFF74CFCFE
:100A9000064604E0FFF748FC801B02285BD8686B21
:100AA0008007F7D5686BF8218843A169C90008431E
:100AB00068630BE0B8436863F4E74CE0FFF734FC8D
:100AC000801B022847D8686B8007F7D4206A00286B
:100AD00046D069680907890F022943D001263606E6
:100AE0000228286805D0B0432860FFF71DFC0446A3
:100AF00033E0B0432860FFF717FC074604E0FFF738
:100B000013FCC01B022826D828688001F7D4E86AA5
:100B1000E16A000900010843E862616AA06A0843CB
:100B200069683D2212049143084368602868304395
:100B30002860FFF7F9FB044604E0FFF7F5FB001B14
:100B4000022808D828688001F7D509E0FFF7ECFBF8
:100B5000001B022801D90320FEBD28688001F5D4BE
:100B60000020FEBD0120FEBD0010024000700040CC
:100B700088130000F8B5040007D00026254640354C
:100B8000A662687F002802D005E00120F8BD2E771C
:100B9000204600F04BF802236B7720680168402262
:100BA000914301600721E0680902884201D90022CF
:100BB00001E0012212030F273F02B84202D088420F
:100BC00000D0A662276B002F05D1884201D923638C
:100BD00001E001202063A16860686369084321691E
:100BE000194308430123A1695B0219400843E169E5
:100BF0000843216A0843A16A084321680860616BC1
:100C0000606AA36908431B0C0427E1683B40194351
:100C100008432168104348602068C1697A02914303
:100C2000C1612666012068770020F8BD00B5006824
:100C30000D4987B0884215D10C48826981140A4356
:100C40008261806908400590E020009002200190B8
:100C50000021032003900291049109206946C006F7
:100C6000FFF7B8FA07B000BD0030014000100240A5
:100C7000FFB5044683B00120254640350090287F0B
:100C800000270E4601280FD001202877FFF74CFBE4
:100C90000190687F616801280DD0CA1FFD3A08D114
:100CA000A168002905D102E0022007B0F0BD0428A8
:100CB00001D00227FAE0002E7CD005980028FBD056
:100CC00006980028F8D0687F042801D005206877AE
:100CD00000202066059921640699E9800699A9807B
:100CE000A6630699E1870699A187E064206507233A
:100CF000E1681B02994202D8E888012806D92068D9
:100D00004268012109038A43426005E02068416886
:100D1000012212031143416020680168490603D48F
:100D20000168402211430160E1686068994242D93C
:100D3000002802D0E08F012835D121683088C860B2
:100D4000E08F401EE087B61C2DE0009800280ED0F2
:100D5000E08F00280BD020688168890707D531888B
:100D6000C160E08F401EE0870020B61C0090E8883C
:100D700000280ED020688168C9070AD0C06805998C
:100D800008800598801C0590E888401EE8800120B6
:100D900000900C98401C06D0FFF7C6FA0199411A42
:100DA0000C9881426DD2E08F0028CED1E8880028CF
:100DB000CBD16EE079E0002802D0E08F012862D12B
:100DC000E08F012807D921683088C860E08F801E35
:100DD000E087B61C57E0216830780873E08F401E2A
:100DE000E087761C4FE00098002818D0E08F00289C
:100DF00015D020688168890711D5E18F012906D9AE
:100E00003188C160E08F801EE087B61C05E0317834
:100E10000173E08F401EE087761C00200090E88878
:100E2000002824D020688168C90720D0E9880129DA
:100E300012D9C068059908800598801C0590E8883B
:100E4000801EE880E88801280FD8206841680122C8
:100E500012031143416008E0017B05980170059879
:100E6000401C0590E888401EE880012000900C9806
:100E7000401C08D0FFF758FA0199401A0C99884293
:100E800001D3032712E0E08F0028ACD1E8880028C6
:100E9000A9D12046019A0C9900F087F9002801D0C9
:100EA00020202066206E002800D0012701206877CE
:100EB000002028773846F8E6042204490428086907
:100EC00002D09043086170471043FBE700E000E068
:100ED00070470000094910B5401E884201D9012021
:100EE00010BD074C60610321081F00F03BF9002092
:100EF000A06107202061002010BD0000FFFFFF005F
:100F000000E000E010B5FFF7E3FF10BD70B504008E
:100F100005D025466035687A002802D006E0012019
:100F200070BD00202872204600F026F82420687248
:100F300020680168490849000160204600F0CCFAA9
:100F40000128EDD0606A002802D0204600F056FA51
:100F5000206841680122D202914341602068816883
:100F600008229143816020680168012211430160D9
:100F7000204600F0A8FA70BD00B500680E4987B0A1
:100F8000884217D10D488269012189030A43826191
:100F90008069084005900C200090022001900020FC
:100FA0000290032003900120049009206946C006A6
:100FB000FFF710F907B000BD0038014000100240F3
:100FC000FFB5064604466036707A83B00D46202889
:100FD00058D1002D0CD00598002809D00120A16817
:100FE0000003814207D12069002804D1E80702D01C
:100FF000012007B0F0BD307A012843D001203072C3
:101000000020E06621207072FFF78EF901902746DC
:101010004037059838820598788218E0788A401E13
:10102000788206980090002280212046019B00F0E3
:10103000DDFA002818D10120A1680003814202D105
:101040002069002812D02168287808856D1C788ACC
:101050000028E3D106980090002240212046019B01
:1010600000F0C4FA002808D00320C2E728882168CD
:10107000C005C00D0885AD1CE9E720207072002076
:101080003072B6E70220B4E7FEE7000010B5124860
:101090001049016011494160002181600161416195
:1010A00081610122C161C2600162FFF78DF90028F0
:1010B00000D0FEE700210848FFF73CF9002800D0E7
:1010C000FEE700210448FFF75AF9002800D0FEE7A8
:1010D00010BD0000005400401C0000205D3E302088
:1010E00010B510480E490160FF2105314160002113
:1010F0000722816012020161C26001224161520235
:101100008261016220224162C26181620722016321
:10111000C2624163FFF72EFD002800D0FEE710BD3C
:10112000003001406800002010B50C480A490160F9
:10113000E1214902416000218160C160016181615A
:10114000C1610C22016242614162FFF7DFFE0028AB
:1011500000D0FEE710BD000000380140CC000020A8
:10116000704700008307FF22DB0E9A408907090EB3
:10117000994000280BDA0007000F08388308084858
:101180009B001818C36993430B43C36170478308DE
:1011900004489B001B181868904308431860704768
:1011A00000ED00E000E400E07047F8B50F460B46A4
:1011B00015460092032104460022C90200F01BF8E4
:1011C0002026002812D13B4600228021204600958F
:1011D00000F05CF8002809D103213B4600224902B7
:1011E0002046009500F007F8002803D0206E304319
:1011F00020660320F8BDF8B51D4617460E46044686
:101200003DE0032149028E4205D1002F03D1017B2D
:10121000684601700078681C31D0002D05D0FFF7BA
:1012200083F80699401AA84229D320684168E02231
:10123000914341606068C11FFD390CD10121A06854
:10124000C903884202D04911884204D1206801684C
:101250004022914301600120A16A4003814207D1ED
:1012600021680A6882430A6021680A6802430A60AA
:10127000012040346077002020770320F8BD2068EB
:1012800081683140B942BCD10020F8BDF8B51D4697
:1012900017460E46044633E0681C31D0002D05D0B9
:1012A000FFF742F80699401AA84229D320684168FE
:1012B000E022914341606068C11FFD390CD10121DA
:1012C000A068C903884202D04911884204D120682D
:1012D00001684022914301600120A16A40038142DC
:1012E00007D121680A6882430A6021680A680243BC
:1012F0000A60012040346077002020770320F8BD89
:10130000206881683046884304D00020B842C3D1A9
:101310000020F8BD0120F9E7704710B5FFF7D4F8B9
:10132000FFF7F0FD10BD70B594B0022501200895BF
:1013300003900520102600950024C00404960A900E
:1013400009940B946846FFF76BFA002800D0FEE77B
:1013500007200C900E9401210D950F940CA8FFF717
:1013600077F9002800D0FEE7212010901396129400
:1013700010A8FFF7F9F8002800D0FEE7FFF7FEF904
:101380007D21C900FEF7ACFEFFF7A4FD0420FFF7A6
:1013900093FD00221146501EFFF7E2F814B070BD15
:1013A000134801680122114301604168114A11404C
:1013B00041600168104A11400160016801229204F5
:1013C0009143016041683F22120491434160C16A28
:1013D00009090901C162016BFF22143291430163C3
:1013E000416B49084900416300218160704700005A
:1013F000001002400CB8FF08FFFFF6FE10B5818C0C
:10140000C90707D001684A6801235B049A43836ACD
:101410001A434A60818C890707D501684A6801230D
:101420001B049A43C36A1A434A60818C490707D553
:1014300001684A6801239B049A43036B1A434A607C
:10144000818C090707D501684A680123DB039A43A9
:10145000436B1A434A60818CC90607D502689168BC
:1014600001231B039943836B19439160818C890687
:1014700007D501688A6801235B039A43C36B1A434B
:101480008A60818C490612D503685A6801210905D2
:10149000046C8A4322435A60026C8A4207D1026874
:1014A000516803235B059943436C19435160818C58
:1014B000090607D501684A680123DB04806C9A435A
:1014C00002434A6010BD0021C16620226030427292
:1014D0008272017208467047F8B504462369A26813
:1014E000E6691A43636910213343002026681A43D2
:1014F00033680546394F3B401343336023685A68CD
:1015000003263603B243E66832435A60236AA2696F
:1015100026681A43B3680B273F02BB431343B360EB
:101520002F4A126B9207920F06D0012A08D0022A86
:1015300008D0032A07D101E0002104E0022102E0E3
:10154000042100E008210122E369D203934224D15F
:1015500000290CD002290DD0042913D0082917D056
:101560000125010909010007400F084332E0FFF798
:101570000BF909E061681B4A48088018FEF7B0FDC6
:1015800080B2EEE7FFF710F9616840004A08F4E71F
:101590006168012248081204EFE7002908D00229F7
:1015A00009D004290BD008290ED001252846F8BD02
:1015B000FFF7EAF805E061680B4A480806E0FFF724
:1015C000F3F861684A0801E0616848088018FEF78E
:1015D00087FD80B22168C860E8E70000F369FFFF7B
:1015E000001002400024F40000127A00FFB581B020
:1015F00017460E4604460A9D1DE0681C1BD0002DB0
:1016000005D0FEF791FE0499401AA84213D920682C
:101610000168FF22A1329143016020688168490876
:1016200049008160202060346072A0720020207226
:10163000032005B0F0BD2068C1693046884304D05E
:101640000020B842D9D00020F3E70120F9E70000DC
:101650000FB410B503A9044B044A029800F018F81F
:1016600010BC08BC04B01847051B00081800002077
:1016700002E008C8121F08C1002AFAD1704770475B
:10168000002001E001C1121F002AFBD170470000B9
:10169000FFB591B00F460546002606E025280AD082
:1016A000149A139990476D1C761C28780028F5D160
:1016B000304615B0F0BD002400940121F34A029495
:1016C00000E004436D1C2B780846203B98401042F4
:1016D000F7D128782A280ED0022128780246303AFD
:1016E000092A15D8009A0A235A43303A80180C4325
:1016F0006D1C0090F1E701CF0090002805DA012071
:1017000040030443009840420090022004436D1CB3
:1017100028782E2815D10420044368786D1C2A28C7
:101720000AD101CF6D1C02900BE002990A225143AD
:10173000303940186D1C029028780146303909294B
:10174000F3D928786C2810D006DC4C281AD06828E9
:101750000ED06A2817D104E0742813D07A2812D149
:1017600010E00120400504430CE00121090501E0DF
:10177000032109050C436978814203D1012000054A
:1017800024186D1C6D1C287803906E281ED00CDC6C
:10179000632831D004DC00288AD0582811D1B2E067
:1017A00064287BD069280CD178E073282DD004DC24
:1017B0006F2870D0702804D1A7E075286CD07828E5
:1017C0006BD0149A13999047761C62E06002400F28
:1017D000022807D003280AD0042838680AD00660F7
:1017E0003F1D56E03868F11706604160F8E7386839
:1017F0000680F5E70670F3E738786946087400203C
:10180000487404A80390012003E038680390002086
:10181000C0433F1D61070FD5002101E00199491C1C
:10182000029A0191914213DA8142F7DB019A0399FE
:10183000895C0029F2D10BE0002101E00199491CEB
:1018400001918142FADB019A0399895C0029F5D163
:1018500001990098139A401A00902146149B00F0B9
:101860003BF901998019461807E00398039900781D
:10187000491C0391149A139990470198401E0190B6
:10188000401CF2D12146149B139A009800F014F9E1
:1018900086196D1C09E741E033E034E00A2000219D
:1018A000049005916002410F022905D001CFC217B3
:1018B0009446032905D007E0FF1DFF08FF0003CF72
:1018C00006E000B2C2179446042902D140B2C11703
:1018D0008C4600226146944506DA0A4600214042C1
:1018E00091418C462D2102E0210504D52B216A4629
:1018F0001176012103E0E10701D02021F7E70191F2
:1019000054E00A200BE0102009E010200490002190
:101910000420044308200591029003E008200021E0
:10192000059104906002410F022905D001CF0022E9
:101930009446032906D006E0FF1DFF08FF0003CFF1
:101940008C4603E080B2042900D1C0B2002101918D
:1019500021072BD50399702906D0049A1021059BE5
:101960004A401A4305D00EE040216A461176012113
:1019700008E06146014306D030216A46117603999A
:10198000517602210191049A0821059B4A401A438D
:101990000CD16146014301D1610707D530216A4668
:1019A0001176012101910299491E0291039958294A
:1019B00004D037A103910FA90F910DE039A1F9E7E8
:1019C0006146059B049AFEF7B2FB039B8C469B5C29
:1019D0000F9A521E0F92137061460143F0D10F9877
:1019E00007A9081A20300390600704D501200004DD
:1019F0008443029801E0012002900399884201DDAE
:101A0000401A00E00020411802900198091800983F
:101A1000401A0090E00306D42146149B139A0098C4
:101A200000F05AF886190020049008E006A9085C26
:101A3000149A139990470498401C761C04900199BD
:101A40008842F3DBE0030CD52146149B139A0098DF
:101A500000F042F8861904E0149A30201399904758
:101A6000761C0299481E02900029F5DC08E00F98C8
:101A70000F990078491C0F91149A13999047761C7E
:101A80000399481E03900029F1DCFBE609280100B8
:101A900030313233343536373839616263646566E4
:101AA00000000000303132333435363738394142A6
:101AB0004344454600000000F8B5044600251E4694
:101AC0001746880404D405E039462020B0476D1C31
:101AD000641EF9D52846F8BDFFB50446002581B03F
:101AE0001E46C80301D5302700E02027880404D50E
:101AF00005E038460399B0476D1C641EF9D52846A9
:101B000005B0F0BD13B50A23012269460248FFF76C
:101B100057FA00981CBD0000CC00002086B0FEF7EC
:101B2000DBFCFFF700FC2A484269012149040A4313
:101B30004261406909240840E40605900022022120
:101B40002046FEF7EBFB012210212046FEF7E6FBC4
:101B5000122000900021012002910391019069461A
:101B60002046FEF737FBFFF7BBFAFFF78FFAFFF7C8
:101B7000DBFA00F0DCF80421022000F04BF81548F5
:101B800000F03FF91348401D00F011F912A0FFF7D3
:101B90005FFD104C241F00F098F80028FBD00D4882
:101BA000001F00F09FF80FA0FFF752FD21780EA054
:101BB000FFF74EFD61780CA0FFF74AFDA1780AA05F
:101BC000FFF746FDE1780AA0FFF742FDE3E70000DA
:101BD0000010024005000020737461727465640A8D
:101BE000000000003E2000002532582000000000C8
:101BF0002532580D0A000000092310B5DB06002825
:101C000001D0012200E0002202211846FEF786FBE7
:101C100010BD000010B51C4C21700146052000F0DD
:101C200035F80021112000F031F82178122000F061
:101C30002DF80021132000F029F80021142000F0D5
:101C400025F80021152000F021F80021162000F0D1
:101C50001DF80621084600F019F80821002000F0C0
:101C600015F80321012000F011F80321022000F0F3
:101C70000DF84F21042000F009F800211C2000F08D
:101C800005F800F05CF810BD0000002070B50446B7
:101C90000D46002000F00CF8E006C00E203000F0E9
:101CA000D1F8284600F0CEF8012000F001F870BD10
:101CB000092310B5DB06002801D0012200E0002234
:101CC00010211846FEF72AFB10BD10B500F022F8CF
:101CD000400605D400F060F8002801D0002010BDB7
:101CE000012010BD10B504460020FFF7E1FF612080
:101CF00000F0A8F8064821460278084600F065F88A
:101D00000120FFF7D5FF40210720FFF7BFFF10BDDF
:101D10000000002010B50020FFF7CAFFFF2000F0F0
:101D200091F804460120FFF7C3FF204610BD10B50F
:101D30000020FFF761FF0120FFF7BAFF10BD10B5CB
:101D40000020FFF7B5FFE22000F07CF80120FFF74C
:101D5000AFFF70210720FFF799FF0020FFF74CFF2E
:101D60000B210020FFF792FF0120FFF745FF10BD78
:101D700070B5054616460C460020FFF799FFE806A9
:101D8000C00E00F05FF821463246084600F01DF80C
:101D90000120FFF78DFF70BD08B5012269461720AD
:101DA000FFF7E6FF68460078C007C00F08BD10B512
:101DB00004460020FFF720FF052221460B2000F0FB
:101DC0002DF80120FFF718FF10BDF8B515460E4697
:101DD0000746002405E0385D00F034F83055641CF7
:101DE000E4B2AC42F7D3F8BD70B50D460646002408
:101DF00004E0305D00F026F8641CE4B2AC42F8D395
:101E000070BD10B50446014605220A2000F006F810
:101E100005222146102000F001F810BD70B50446DF
:101E200015460E460020FFF743FFE006C00E2030A7
:101E300000F008F829463046FFF7D6FF0120FFF7EB
:101E400037FF70BD01B582B00021684601710A20DC
:101E50000090012301AA02A90248FEF709FF684683
:101E600000790EBD680000200000000000000000A6
:101E70000102030406070809000000000102030430
:101E8000A01E0008000000201C00000070160008C2
:101E9000BC1E00081C00002024050000801600085D
:101EA0000000000000D7D7D7D7D7E7E7E7E7E7007C
:0C1EB0000000000000127A00000000009A
:04000005080000B13E
:00000001FF
